:1000000000400020BD160000FD160000FF16000095
:1000100000000000000000000000000000000000E0
:1000200000000000000000000000000001170000B8
:10003000000000000000000003170000051700008A
:100040007D0800005D34000007170000071700005E
:10005000071700000000000039070000BD0C000079
:100060000717000007170000E9430000410A0000DD
:100070000717000007170000071700000717000008
:1000800007170000E10A000007170000071700002B
:10009000B53700000717000007170000071700001A
:1000A0000717000007170000000000000000000014
:1000B0000000000000000000000000000000000040
:1000C00010B5064C2378002B07D1054B002B02D02E
:1000D000044800E000BF0123237010BD9C000020F5
:1000E0000000000028480000044B10B5002B03D08E
:1000F0000349044800E000BF10BDC04600000000F6
:10010000A000002028480000164B002B00D1144B03
:100110009D46402292029A1A924600218B460F4633
:100120001348144A121A00F065F80F4B002B00D048
:1001300098470E4B002B00D0984700200021040068
:100140000D000D48002802D00C4800E000BF00F070
:100150002DF82000290000F059FA00F011F8C046EF
:100160000000080000400020000000000000000027
:100170009C000020C80900200000000000000000D2
:10018000084B10B50400002B02D0002100E000BF96
:10019000054B1868836A002B00D09847200000F0B8
:1001A00031F8C046000000009047000070B50026FE
:1001B0000C4D0D4C641BA410A64209D1002604F07E
:1001C000DBFA0A4D0A4C641BA410A64205D170BD8F
:1001D000B300EB5898470136EEE7B300EB58984769
:1001E0000136F2E7940000209400002094000020E3
:1001F0009800002003001218934200D17047197034
:100200000133F9E7FEE7C0462C4B1B78012B00D0E9
:1002100070472B4B1B681B07FAD1F022294B1B6838
:10022000134001D0102B46D1274B1B6813421FD01F
:10023000F022244B1B681340402B29D0F022214B85
:100240001B681340A02B01D0D02BE1D1F0231E4A14
:1002500012681A42DCD11D4A1368012B04D01C4BD2
:1002600013601368012BFCD1C0221A4B1A60CFE730
:10027000194B1A4A1A608022194B12021A600F4B4E
:100280001B78012BC4D10E4B1B681B07D0D0BFE7D6
:100290000D4B1B681342D1D18022C1230121DB0009
:1002A000D205D150054B1B78012BB1D1044B1B68F3
:1002B0001B07C3D0ACE7302BB6D0B9E7E00F00F096
:1002C000E40F00F0E80F00F0EC0F00F000EC064047
:1002D0007593000014EC064004050040DFFF07C0E2
:1002E000186C0040F0B5DE4657464E464546E0B530
:1002F0000A2185B0974800F079FC00F071FC0021DC
:10030000092201A8FFF776FF0D236B449A460123CB
:100310009C46A123A020DB00994608338E4C01A9FE
:10032000C0059846042720E001260B783343560683
:100330002AD50226B3465E463343160628D5042640
:10034000B3465E463343174225D00826B3465E4681
:1003500033430826164223D0102213430B707F4BE1
:100360000131C5500134514523D0654623789D4065
:100370004B46C5504346C25820231342D4D166464B
:100380000B78B3435606D4D40226B3431606D6D40C
:10039000BB431742D9D10826B34308261642DBD106
:1003A000102293430B706D4B0131C5500134514500
:1003B000DBD16B466A4C019D02986A4925606060FA
:1003C0001A7B1E790B782272002B59D1664B1F784D
:1003D000B7421ED15F786678B7421AD19F78A67867
:1003E000B74216D1DF78E678B74212D11F79267965
:1003F000B7420ED15F796679B7420AD19F79A67963
:10040000B74206D1DF79E679B74202D11B7A93422F
:1004100008D0564B1D601A725860012300220B70E1
:10042000534B1A602378002B26D16378002B23D1FD
:10043000A378002B20D1E378002B1DD12379002B4A
:100440001AD16379002B17D1A379002B14D1E3794A
:10045000002B11D1237A002B0ED1464A13680133A9
:100460001360FA22520093424FD805B03CBC90462C
:100470009946A246AB46F0BD00223E4B1A60F4E717
:100480003A4B1878B0423DD15D786078854239D1D9
:100490009D78A078854235D1DD78E078854231D1EC
:1004A0001D79207985422DD15D796079854229D1E8
:1004B0009D79A079854225D1DD79E079854221D1E8
:1004C000187A90421ED12A4801680131016005293D
:1004D000A8D1186824495B6808604B600A722649F5
:1004E0004B60264B0A7200229A5E0F2308601800A8
:1004F00010401212134048720B2202208B7201F03E
:1005000026F98FE700230B708CE71D4800F07AFA7C
:100510001C4800F077FAA022A1230221D205DB00BB
:10052000D1500139D1508021C905D15080214900D5
:10053000D15080214905D15080218905D150802199
:100540000905D1508021C904D15080214904D150DE
:100550008BE7C046DC000020640000200C05000092
:1005600014010020040100200801002020010020C7
:1005700000010020D8000020F4000020F00000203E
:10058000B8470000B0470000F8B503780500002028
:10059000002B15D12B89002B12D0002400260A4FE6
:1005A0006A6863009A5E39000020B61800F0DCFB30
:1005B00029890134A142F3D8300003F055FF00B27D
:1005C000024B1880F8BDC04694470000F0000020A0
:1005D00010B50B4B0B491A680A605A684A601B7ABF
:1005E0000B72094B00229A5E0F2318001040121262
:1005F000134048720B2202208B7201F0A8F810BD44
:1006000008010020F4000020F000002030B5002098
:1006100083B001F0A5FB642001F04CFB042001F045
:1006200031FB0321324801F0A5F9012001F06AFAFB
:10063000E120800001F0DFFA2E4801F0EDF92E48AC
:1006400001F002FA01F060F800F0CAF8002000F0B2
:10065000E5F82A4D2A4A0021280000F091F9294C9A
:10066000294A0021200000F08BF90121280000F028
:10067000D5F90121200000F0D1F9280000F0B6F9E9
:10068000200000F0B3F9A023204A2149DB055A508D
:1006900004315A501F4980205A5014395A501E496B
:1006A00000065A5003221D495A5004395A507831D5
:1006B0005A5058395A5050315A5019495A501949BC
:1006C0005A5004395A5008395A50C12316499B00D0
:1006D000C8504021154B01A819601549027000F05F
:1006E0004FFA144800F06AFA40BF20BF20BFFBE772
:1006F000600000200403020108070605B847000057
:10070000D1050000B0470000E5020000040002002F
:10071000140700001C0700000C070000040700007D
:10072000740700006C0700000060004000E100E07A
:100730008905000070000020BE2310B5164A5B003A
:10074000D158002900D110BD00241448D45000F025
:100750004DF9134800F04AF9A0220221114BD205AD
:10076000D1500139D1508021C905D1508021490093
:10077000D15080214905D15080218905D150802157
:100780000905D1508021C904D15080214904D1509C
:10079000054B1C60D7E7C04600600040B84700002A
:1007A000B04700000C050000D8000020202300B551
:1007B000C9B285B00393002901D105B000BD03AAD9
:1007C000014901F007F8F8E7B800002082B002B054
:1007D0007047C04682B002B07047C0467047C046FE
:1007E00070B50D4C237A002B13D163602360236115
:1007F000E360AA228023FF210125DB05D200995066
:10080000383A00209D50FC3900F086F8002025720F
:1008100070BD8520FCE7C0462C01002070B50500A6
:10082000002000F067F8124CA37A002B0BD0002DAB
:1008300002D06B6801209847E36801330020E36031
:1008400000F060F870BD002D02D0236925612B6097
:10085000E368002BF1D1074A80211360C1220220F6
:10086000C905920088500121034A1160E5E7C0469E
:100870002C010020040100400800004010B51A4B74
:100880001A68002A14D0002280211A60C222012393
:10089000164CC90592008B5063726368002B07D019
:1008A0001A6800205B68626098476368002BF7D184
:1008B0000F4B1A68002A15D000221A608022C2232A
:1008C00002219B00D205D1500123084CA372236959
:1008D000002B07D01A6801205B68226198472369C2
:1008E000002BF7D110BDC046000100402C010020B4
:1008F0000401004072B6024A136801331360704766
:1009000040010020034A1368013B1360002B00D113
:1009100062B670474001002030B5FF2503232A004E
:10092000C4B22340DB009A4089010D40D2439D4070
:10093000002814DB104B80089C46C02380006044D4
:100940009B00C1580A401543C5501F23C0211C40BD
:100950001E3BA340084A49005350136030BD0F238B
:10096000064923408C46083B9B089B006344D96999
:100970000A401543DD61E8E700E100E000ED00E03A
:1009800070B505000C00002A28D04179144B88006E
:10099000C2504B00002C1CD0124E5B189B5D002BEC
:1009A00015D10420A1782856FFF7B6FFA12322888D
:1009B0002968DB00CA506A79217953009B18F21824
:1009C0005170E1780020917001229A5570BD082085
:1009D000FCE75C18044A64001419DDE70720F5E71A
:1009E0004C01002044010020C047000001220221E8
:1009F00003681A60427953009B18014A9954704762
:100A000044010020012203685A6041794B005B18C1
:100A100001495A547047C0464401002080230022F7
:100A200010B504685B00E250D1220468FF3B9200DD
:100A3000A350002902D00168403A8B5010BDC04637
:100A4000C123F0B5C64680249B000025984600B51A
:100A5000204E214F64024346F3581C4210D01F4AD7
:100A6000AB00944663441A68002A09D0D22292004F
:100A7000B450403AB4500022E8B21A603B6898473C
:100A800001356400042DE6D1C122124B92009A5820
:100A9000D20704D5802252009958002913D1C122CF
:100AA0000C4B92009A5892070AD58222520099580C
:100AB000002905D000219950074B05201B68984755
:100AC00004BC9046F0BD00219950034B04201B68E4
:100AD0009847E4E700B000404C01002040B10040DE
:100AE000C123F0B5C64680249B000025984600B57A
:100AF000204E214F64024346F3581C4210D01F4A37
:100B0000AB00944663441A68002A09D0D2229200AE
:100B1000B450403AB4500022E8B21A607B6898475B
:100B200001356400042DE6D1C122124B92009A587F
:100B3000D20704D5802252009958002913D1C1222E
:100B40000C4B92009A5892070AD58222520099586B
:100B5000002905D000219950074B05205B68984774
:100B600004BC9046F0BD00219950034B04205B6803
:100B70009847E4E7001001404C010020401101407B
:100B800070B50C4C0D00A37C002B0ED10A4A1360EB
:100B9000002905D000280AD001780720FFF7BCFE05
:100BA000012300202560A37470BD0820FCE7032109
:100BB000F3E7C04654010020007100400023436069
:100BC000064B5A68002A01D105E01A005368002B31
:100BD000FBD1506070475860FCE7C04654010020CC
:100BE0000122014B1A60704700700040F0B5DE46EC
:100BF00057464E464546E0B52C4CA37C022B53D0BD
:100C00000223A3740023E060A02062682174A26024
:100C100027491268274E63748A51274AC00013601F
:100C200001330B502568002D09D0C122002092000D
:100C30008B503CBC90469946A246AB46F0BDA123E2
:100C4000DB009B4601238246B0469C461368002B7E
:100C5000FCD053461560CD505B46CB58E7689946AB
:100C60004846637C5E00F0530133267CDBB263743C
:100C70009E420CD9A3685B68002B0CD04046A36051
:100C80001B680B50634650460B500B60DEE7012398
:100C90000020A374CDE740466368A3601B680B5037
:100CA000634650460B50D1E71120C2E754010020A3
:100CB000007000400405000000710040F0B5264BB4
:100CC00085B0D96800292BD00024244AA0251460BF
:100CD000A1222348ED004451D20087585A7C560087
:100CE000775201321E7CD2B25A74B2420CD3C22562
:100CF0000122AD00425101A89A740470416006813E
:100D00001B68984705B0F0BD9A685268002A1BD04E
:100D10009A601268134BC250012343510360F1E7FC
:100D20000E4AC220116001220D4C80002250F93081
:100D3000FF302150A12101A80270C90061589A74A6
:100D400081801B689847DDE75A689A601268054BF6
:100D5000C25001234351D5E75401002000710040E7
:100D600000700040040500000EB400B582B003AB73
:100D700002CB01AA019300F0F5F902B008BC03B060
:100D80001847C046F0B54E465746DE464546E0B5E4
:100D9000734E83B0337804008A469146002B52D0BC
:100DA000EFF31083012181F31088019363001D1973
:100DB000ED007519EA6A9046012A00D184E0002A04
:100DC00061D0022A3CD100230134984663001C19EB
:100DD000E3009B466F6AAB6A2C6ABB4200D8E318FB
:100DE000013BDB1BE41B4C4500D94C469C4200D91F
:100DF0001C005B46F31858685146C019220003F0E6
:100E0000A9FC4B461B1B99462B6A3F19A044A244E0
:100E10009F420ED04B466F62002BDCD1019B83F3C7
:100E20001088404603B03CBC90469946A246AB466B
:100E3000F0BD00236B624B46002BEFD00027CAE7C2
:100E400000239846EAE7022232617261454A464928
:100E5000B261B264454AF1618021F2641022C90096
:100E6000B362F3627362F365B365316273653265D1
:100E70003F49F01D03F077FC3E49300003F073FC5E
:100E80002023B3718CE7AA6A696A8A4243D9013A7E
:100E9000521A9145C2D81D19ED0075196F6A2B6A57
:100EA0009B46DB1B9846631C5C00E418E400361983
:100EB0007068C019C14542D24A4651464F4403F0BA
:100EC00049FCC8466F62A9E7AA6A696A2F6A8A4222
:100ED0001DD9013A521AC846914500D990461D19AC
:100EE000ED0075196B6A9946FB1A9B46631C5C0002
:100EF000E418E400361970684844D84510D24F46CB
:100F000042465146474403F025FC6F6286E7BA1813
:100F1000013A521ADFE7286A1218013A521AB8E762
:100F20005A46514603F016FC4B465146DF1B4744D8
:100F3000594470683A0003F00DFC6F626EE7424658
:100F4000514603F007FC5B4651464F44FF1A4144AB
:100F500070683A0003F0FEFBC8466F625EE7C04669
:100F6000B8050020CC47000078010020680100206F
:100F7000D8470000DC470000F0B55746DE464E4635
:100F80004546E0B583B01F000C9B06008A4615005D
:100F90009B46914200D2E0E008000124290003F0C2
:100FA00063FA01348542F9D90097A74200D2009430
:100FB00001230D9A1A4001923BD15B46002B38D099
:100FC0000D9B20249B0700D5B7E0009B9B4530D9A3
:100FD000B946B36827005C46AB46009D08E0F2685E
:100FE000002A1FDB002C00D1AEE0AC4200D1ABE008
:100FF0007268591C013C914207D83268D754F36893
:1010000072680133F3600B00B1609A42E7D1316836
:101010003069FFF7B7FEB368984200D19AE0012328
:101020005B42F36003B03CBC90469946A246AB4697
:10103000F0BDF3689946002BF4DBB368984653463D
:101040000124B2461E00012F03D9013F6C43012F3A
:10105000FBD82100300003F007FA8542F6D93300AF
:1010600056469A462B003E4F4546984609E04B4669
:10107000002B60DB4146200003F0F6F944455AD3CB
:1010800004005046210003F075FA73686A1C8A4612
:101090009A420CD83B5C31684B55F3681500994671
:1010A00001239C46E1444B46F3607368B2609D4265
:1010B000DDD12A0031683069FFF764FEB568A842C7
:1010C00033D00123A8465B42F360019B002BA9D0DB
:1010D0005B46002BA6D0009A5A45A3D24346202453
:1010E000002590465F4606E0F268002A9ADB002F52
:1010F00098D0474596D07268591C013F914207D855
:101100003268D454F36872680133F3600B00B16045
:101110009A42E9D131683069FFF734FEB3689842EA
:1011200000D07CE7B5600023DEE70023B360F368FE
:10113000002599469BE7A846C7E77C427C4163426D
:1011400010241C40203440E75D464F469846A34695
:10115000914674E70023B36041E7012424E7C046C9
:10116000E4470000F0B5DE4657464E464546E0B53A
:101170009DB00CAB07934023089300230C009346CB
:101180000027049009930B900A9323780134002BD5
:1011900016D0252B36D0099908984A1C824217D8B8
:1011A000079843540A9B09925F1C089B0A97029375
:1011B0009A4210D0002F1DDB23780134002BE8D198
:1011C000002F17DD099A002A00D0EDE1BF1811E0C9
:1011D0008142DAD10A00079B02930B9B0299180007
:1011E0000393FFF7CFFD099B0293984200D108E1DA
:1011F00001277F4238001DB03CBC90469946A2466C
:10120000AB46F0BD04239846033B9C462378611C03
:101210000026022508200A002B2B0CD02B2B0ED9E0
:101220002D2B56D0302B0FD10C002E432378611C70
:101230000A002B2BF2D143460C001E43F6E7232B6A
:1012400002D106430C00F1E718003038092800D914
:10125000B8E000251A0001E00C000131AB005B1979
:101260005B009B180A78303B1D001300303B0800E0
:10127000092BF1D9002113008846A21C2E2B00D186
:10128000A7E004221900441C9143682908D10200F8
:1012900004201378941C1900013281436829F8D086
:1012A000642B00D1E2E073D9732B00D1ADE026D9D5
:1012B000752B12D15B4659461B6807A81A1D0A6098
:1012C00019680A22019600954346FFF755FE0A9FCA
:1012D00070E763460C001E43A8E7782B00D069E74F
:1012E0005B4659461B6807A81A1D0A601968102238
:1012F000019600954346FFF73FFE0A9F5AE7702B81
:1013000000D057E75B4659461B681A1D0A601B68E8
:1013100098460F2B02D91B090F2BFCD823008025E0
:101320004446099E6D05984607E0002F00DA61E704
:101330002B090F2D00D83FE11D002000290003F0EC
:1013400019F9089B721C0C009A420CD8079B029357
:10135000CA4B02991B5C8B5516000A9B09925F1CB5
:101360000293089B0A979E42DFD1079B32000293AB
:101370000B9B029918000393FFF704FD099B02934E
:10138000984200D034E700230A9F09930026CCE757
:10139000582BA5D0632B00D1A5E0252B00D009E761
:1013A000099A0899501C884208D807998B54020062
:1013B0000A9B08995F1C099002930A978A4200D001
:1013C000F8E608E700212000002588462E2B00D0F3
:1013D00057E7437819003039092900D90FE119007E
:1013E000404683001B1801325B005B181178303BCC
:1013F00018000B00303B092BF3D980460B0010007E
:101400003FE700230A9F0993D4E65B4659461B68D1
:101410001A1D0A601D6829780135002900D1C9E626
:10142000099B08985A1C82420CD80798C1540A9B01
:1014300009925F1C089B0A9702939A4205D0002FDD
:10144000E9DAD7E68342E6D11A00079B02930B9BA9
:10145000029918000393FFF795FC099B02939842A9
:1014600000D0C5E600230A9F0993E8E75B4659468A
:101470001B681A1D0A601B68DA1702939B185340F9
:101480009946092B00DCFBE001239A4623004C46D9
:10149000A94655469A4600E004000A21200003F0C0
:1014A0006DF80135632CF7DC5446AA464D46C1461B
:1014B000D04571D302233340002D2CD1029B002B49
:1014C0007CDB730700D591E003233340022B00D16E
:1014D0009BE00196009543460A22029907A8FFF770
:1014E0004BFD0A9F66E65B465A461868031D13606B
:1014F000099B089A591C914200D959E6079A029211
:1015000002680298C2540A9B09915F1C02930A97D1
:10151000089A0B004CE6029A002A43DB720741D47A
:10152000002B02D04346002BC8D0F307C6D4002DB1
:10153000C4D04D45C2D920239A462300099A4C466F
:10154000994606E0002F00DA54E6002D59D0A54256
:1015500057D0089B511C013D994209D85046079B22
:1015600098540A000A9B09915F1C0393089B0A97F1
:101570009A42E7D1079B03930B9B039918000593AD
:10158000FFF700FC099B0393984200D030E600234C
:101590000A9F09930022D5E70223D1463340002D4C
:1015A0008CD0B8E7013DBBE70CA90498FFF7EAFB34
:1015B0000A9F099ABF181DE64446FBE55B42029369
:1015C000099B089A591C914271D8079A03922D22BF
:1015D0000398C2540A9B089A5F1C099103930A97C7
:1015E000914253D0002F00DA04E66DE7099B089A78
:1015F000591C914247D8079A03922B22E8E7100022
:101600003FE64B46A1461C0058E74346002B00D05E
:101610005FE7002D4FD04D4500D85AE73023099A97
:101620009A4607E0002F00DAE4E5002D43D04D454F
:1016300000D14EE7089B511C013D994209D8504604
:10164000079B98540A000A9B09915F1C0393089B0F
:101650000A979A42E6D1079B03930B9B03991800C4
:101660000593FFF78FFB099B0393984200D0BFE5DA
:1016700000230A9F09930022D4E7C046E4470000F4
:1016800001239A4613E7934200D01DE7079B03937B
:101690000B9B039918000593FFF774FB099B0393B9
:1016A000984200D0A4E500230A9F09939AE7934249
:1016B00000D009E7EAE700250BE7C04603210A4806
:1016C00002680A430260094802680A430260084946
:1016D000084A094B9B1A03DD043BC858D050FBDC79
:1016E000FEF792FDFEF710FD240500405405004072
:1016F00034480000000000209C000020FEE7FEE7C8
:10170000FEE7FEE7FEE7FEE708B5064B186800288F
:1017100003D1054902220A7002E001F049F90120D3
:1017200008BDC0467805002030060020014B18682F
:10173000407E70477805002008B500F011FE0028B3
:1017400002D100F0F8FD01E0FFF748F808BDF8B558
:10175000051C0F1C161C072804D904221B4E002050
:10176000327031E003220029F8D00622202EF5D86D
:1017700000F04CFE09220228F0D8281C00F04AFE96
:101780000A220228EAD800F049FE08220128E5D9F9
:1017900000F0F4FD4378041C0670012003436370DD
:1017A000391C321CA01C02F0D5FFE8B2211C00F04D
:1017B000F9FD051C0120002D06D1054802F0CAFAEA
:1017C000024F0F213970281CF8BDC046300600209A
:1017D000DD000500F8B5061C0D1C171C00F01AFEF4
:1017E000002803D1154F0B253D7025E00322002D65
:1017F00007D0301C00F0FCFD3A6803789A4204D20E
:1018000006220E4E0020327016E0301C00F0E6FD7D
:10181000041E0AD00278811C3A60281C02F09AFF4C
:10182000201C00F0B5FD012006E0054802F092FA08
:1018300002490F200870201CF8BDC0463006002069
:101840000501050008B5072804D9044B04221A70C5
:10185000002001E000F0DAFD08BDC046300600209F
:1018600008B5072805D9044B042201201A7040420C
:1018700001E000F0CFFD08BD3006002008B500F003
:10188000CDFD0623181A08BD10B5041E072C03D978
:101890000B4B04241C7003E0FFF7D4FF022801DD8A
:1018A00000200CE0201CFFF7DBFF0228F8DCFFF72C
:1018B000E5FF0623181A012181429241504210BDD2
:1018C0003006002008B50A4B19684A7E002A04D069
:1018D000084A0C211170002009E0072803D9054BA4
:1018E00004201870F7E7C0B200F09CFD012008BD8D
:1018F000780500203006002008B5072804D9054BDC
:1019000004221A70002003E0C0B200F0A5FD0120FF
:1019100008BDC0463006002010B501280AD00028B6
:1019200003D0022808D1002000E0012001F028F8AF
:10193000012005E00220F9E7024B05221A70002081
:1019400010BDC0463006002010B500F011FD012882
:101950000AD00224002808D0A04201D1012404E0CA
:10196000034802F0F7F900E00024201C10BDC04637
:101970007001050038B5134A031C10680C1C407E2A
:10198000002804D0104D02202870002018E00139F2
:101990000F2903D90C4907220A7011E0002B03D14B
:1019A000094C03232370F0E7084D191C10C5221CB5
:1019B000281C02F0CFFE281C211C00F0BDFD0120D8
:1019C00038BDC04678050020300600207800002091
:1019D0000C4B10B51A680C68944201D3102C04D932
:1019E000094C0720207000200AE0002803D1064996
:1019F00003220A7004E00A60191D02F0ABFE012008
:101A000010BDC0467800002030060020014B186849
:101A10007047C0467800002008B5074B19684A7E19
:101A2000002A04D0054B02201870002002E000F0CC
:101A30001DFD012008BDC0467805002030060020AD
:101A400008B500F023FD08BD08B5074B19684A7EAC
:101A5000002A04D0054B02201870002002E000F09C
:101A60001BFD012008BDC04678050020300600207F
:101A700008B500F01FFD08BD08B50A4B1A68537E73
:101A8000002B04D0084B02221A70002008E007281F
:101A900003D9054804210170F7E700F011FD01208A
:101AA00008BDC046780500203006002010B50C1C8B
:101AB000072804D90422064B00201A7006E00322EE
:101AC0000029F8D000F028FD2070012010BDC0468C
:101AD0003006002008B5074B19684A7E002A04D05A
:101AE000054B02201870002002E000F065FD012087
:101AF00008BDC046780500203006002008B500F07B
:101B000061FD08BD08B50E4A031C1068407E002820
:101B100004D00C480222027000200FE0012B0AD0F2
:101B2000002B07D0022B01D1012004E0054B0E2130
:101B3000197003E0022000F0DDFD012008BDC04661
:101B4000780500203006002008B501F023F80021B8
:101B5000012801D8014B195C081C08BDF44700009E
:101B600008B5134B19684A7E002A04D0114A022195
:101B7000117000201BE006280FD802F06BFC121435
:101B80000406080A0C00FC200EE0F8200CE0F4200B
:101B90000AE0F02008E0EC2006E0064B0E2018706A
:101BA000E7E7042000E0002000F046FD012008BD2A
:101BB000780500203006002008B500F04BFDF02825
:101BC00013D004D8042814D0EC2806D10FE0F8284C
:101BD00007D0FC2803D0F42805D001200AE0022019
:101BE00008E0032006E0042004E0052002E00620CF
:101BF00000E0002008BD08B5064B19684A7E002A9F
:101C000004D0054B02201870002002E000F0E0FC38
:101C1000012008BD780500203006002008B500F03E
:101C2000DDFC08BD08B5074B19684A7E002A04D0C0
:101C3000054B02201870002002E000F097FC012004
:101C400008BDC046780500203006002008B500F029
:101C500093FC08BD08B5074B19684A7E002A04D0DA
:101C6000054B02201870002002E000F0CBFC0120A0
:101C700008BDC046780500203006002008B500F0F9
:101C8000C9FC08BD08B5074B19684A7E002A04D074
:101C9000054B02201870002002E000F0A5FC012096
:101CA00008BDC046780500203006002008B500F0C9
:101CB000A3FC08BD08B5074B19684A7E002A04D06A
:101CC000054B02201870002002E000F0A9FC012062
:101CD00008BDC046780500203006002008B500F099
:101CE000A5FC08BD08B50B4B19684A7E002A04D034
:101CF000094A0221117000200AE0002805D00128BD
:101D000003D0054B0E201870F5E700F05BFF0120B3
:101D100008BDC046780500203006002008B500F058
:101D200057FF01384342584108BD08B50A4B1968AE
:101D30004A7E002A04D0094A0221117000200AE0DC
:101D4000002805D0012803D0044B0E201870F5E7B9
:101D500000F050FF012008BD78050020300600206B
:101D6000F8B51E4D00241E4E071C281C211C0C22F9
:101D7000083034706C60FEF73DFA1A4800F048FEF7
:101D80002860A04203D101203070002024E0164BCF
:101D9000181D1968FFF7EEFD051C381CFFF7BCFD88
:101DA0000540042000F0EEFB201CFFF79BFFEFB284
:101DB00007400120FFF7D4FE07400220FFF7A2FEF4
:101DC0000740201CFFF7B1FF041C01203C4000F03D
:101DD000E7FE002CD7D00120F8BDC04678050020D2
:101DE000300600205F1E00007800002008B500F0DB
:101DF00007FF01384342584108BD024B0022DA6018
:101E00007047C04678050020014BD8687047C0462F
:101E100078050020044B002200B51A72904202D0CF
:101E200018610120187200BD78050020014B187858
:101E30007047C04630060020014B00221A707047E0
:101E400030060020014B58687047C04678050020D6
:101E5000014B00225A607047780500207047F0B5AA
:101E600089B0040C031C060A84460190101C0392DE
:101E700097B2020C0D1C002002910092E1B2624662
:101E800006AC069060600590D0B21B0EF6B2052835
:101E900054D802F0DFFA03142943403D6A4649B2A0
:101EA000484223701388E080281C6780A38000F0DC
:101EB0006FFA301C06996268FEF778FC41E022490F
:101EC0000B68587E002802D1204801F043FF281CEF
:101ED0006D4600F05DFA67802F88301CA780069958
:101EE0006268FEF773FC2CE048B205AC42422370F6
:101EF0006280002B07D0002D02D1154801F02AFF87
:101F0000281C00F045FA301C0599FEF763FC18E028
:101F1000FEF764FC15E0FFF7A1FF12E00A4DE96847
:101F20002B7A0131E960002B0BD02F69002F02D1F1
:101F3000FFF702FC05E0013F2F6102E0054801F0D8
:101F400009FF09B0F0BDC04678050020B5030500C3
:101F5000C3030500E3030500024B03490F221A7077
:101F600048607047300600207805002000B5064A1A
:101F700001231178022903D05068421E904100E0ED
:101F8000181C1840C0B200BD3406002008B5FFF789
:101F9000EDFF044B044A002801D0D06800E09068AF
:101FA000186008BD900500206C06002008B5044BA1
:101FB0005A68002A01D0013A5A60FFF7E7FF08BDCE
:101FC0003406002010B500231A1C041C1C410121FA
:101FD00021400724E41AA1400A430133D2B2082B5E
:101FE000F3D1101C10BD70B50024061C251C301C3C
:101FF000E040C0B2FFF7E6FF1823191B8840083401
:102000000543202CF3D1281C70BD38B50D1C01F000
:1020100071FE084C63699D4202D8074801F09AFEA0
:1020200060690122291A054802F058F9002161610E
:1020300038BDC046340600204D060900353D00007D
:1020400007B5A12303210F4A8B40D15001F094FD25
:10205000002815D002280AD9032811D100230093A3
:102060000193181C191C1A1C01F09EFC03E00020AF
:10207000011C01F035FD042802D0034801F06AFE7E
:1020800007BDC04600F00140E801090008B501F0B5
:1020900027FFA1230E4AD900505001F06DFD012801
:1020A00007D001F069FD022802D00A4801F052FE73
:1020B000002001F0B9FA02F093F9074BA221CA00FF
:1020C00098500648064AC1684868985008BDC046FE
:1020D000001000401E06090000F00140900500209D
:1020E0001405000008B502F0EDF801280FD002F049
:1020F000CDF8074B187F002803D180210122CB05A2
:102100005A60002001F0F6FD024A0020506008BD30
:102110006C0600203406002010B501F06AFD00288E
:102120001AD00E4B00229A81DA8101F0C5FB0C4CCB
:102130000C49605001F0C0FBA62201238340D1006E
:10214000635001F0BFFB084C206001F0C1FB074B5E
:102150006060E360FFF79AFF10BDC04634060020C0
:10216000001000402C050000500600201522000041
:1021700008B502F0A7F8012822D101F0D5FD00280A
:1021800002D0104801F0E6FD1E210F48002202F0A7
:10219000A5F80E4B197F002902D002F06BF80FE072
:1021A0000B480C4B0122026059608021C805026077
:1021B000C046C046C046C0465A68002AFCD0ECE77C
:1021C00008BDC0462C060900353D00006C06002005
:1021D00014050040FC0000401FB5FFF783FF01F02D
:1021E000D9F80A4A002301A80521017043601C1C8C
:1021F0000381438143708370C3709370537601F001
:102200009DFA03480470FFF71BFF1FBD3406002032
:1022100068060020F0B53E4B8022D000195887B0E8
:10222000012904D03B4C00261D59B54206D13A4E37
:102230002022776800263B789A427641374C012568
:1022400061692E40281C002901D102F041F8284282
:1022500001D10120606101F08FFC012802D03048DB
:1022600001F078FD2F4DEF683B7D002B02D02E480A
:1022700001F070FD01F08EF8002E47D00120011C06
:1022800001F02EFC042836D802F0E4F803321832AC
:10229000320001F017FBE289071CA689019201F0C8
:1022A0000BFBE9686D46897D0497AF8803AB00227C
:1022B0001A701E815F815870997014E001F002FB62
:1022C000071CE089A689019001F0F6FAEB686D46DB
:1022D0009A7D0497AF8803AB00219A7019701E8114
:1022E0005F8158700122DA70181C01F027FA02E0B1
:1022F0000E4801F02FFD01F019FE0D4E20617069AE
:102300006060FFF743FE002001F016FE07B0F0BD4D
:102310000010004034050000500600203406002064
:10232000A806090090050020A9060900C8060900B2
:102330006C060020704708B5012282F31088074B15
:10234000597E002905D09878002802D19A70FFF7AD
:102350000FFF002282F3108808BDC046340600201B
:10236000024B0120597E48407047C0463406002089
:10237000014B18787047C0463406002008B5012389
:1023800083F3108801F094FC002181F3108808BDCC
:1023900008B5012383F3108801F08EFC002080F340
:1023A000108808BD08B5012383F3108801F0EAFB0B
:1023B00000280DD008488278002A04D1417E0029E7
:1023C00001D0FFF7D5FE002383F31088012001E040
:1023D00080F3108808BDC0463406002008B50123EC
:1023E00083F3108801F0F6FB002181F3108808BD0B
:1023F00008B501F0EAFB08BD08B5012383F3108896
:1024000001F0D3FB002181F3108808BD08B501F06D
:10241000D8FB08BD08B501F0E7FB08BD08B501F021
:102420004FFC08BD10B50123041C83F31088084835
:102430000278002A05D0417E002902D0054801F02B
:1024400089FC201C01F0B5FB002484F3108810BD2A
:1024500034060020FB02090008B5012383F310882D
:1024600001F0BDFB002080F3108808BD08B5044BC7
:102470001862FFF7B8FD0349034A505008BDC04633
:102480006C0600201C05000000100040014B186A7B
:102490007047C0466C06002008B5044B5862FFF731
:1024A000A2FDA421024ACB00D05008BD6C0600203A
:1024B00000100040014B586A7047C0466C0600206F
:1024C000F8B5031C081C072B1AD80F4A03261E4018
:1024D000D118F600FF24B4402831E74308700B4CB4
:1024E000032B01D80A4D01E0A525ED0063591F40DB
:1024F0006751FFF767FD6759B0400743675102E036
:10250000044801F027FCF8BD6C06002000100040D4
:10251000240500003903090010B5041E072C02D958
:10252000034801F017FC034B18192830007810BD40
:10253000410309006C06002038B5051C0C1E02D1B1
:10254000074801F007FC002D02D1064801F002FC0B
:10255000054B00209D605C6001F0D6FC38BDC04694
:10256000480309004903090090050020014B586108
:102570007047C0466C060020014B58697047C04642
:102580006C060020064B074AA32110B55877CB00F4
:10259000D4580104044820400843D05010BDC04620
:1025A0006C06002000100040FFFFF8FF014B587F31
:1025B0007047C0466C060020014B18617047C0464A
:1025C0006C060020014B18697047C0466C0600205D
:1025D000014B58607047C0466C060020014B58689C
:1025E0007047C0466C06002008B5024BD860FFF764
:1025F000CDFC08BD6C060020014BD8687047C04672
:102600006C06002008B5024B9860FFF7BFFC08BDC0
:102610006C060020014B98687047C0466C0600208D
:10262000014B58837047C0466C060020014B588B05
:102630007047C0466C060020034B0449044A3033FF
:10264000187050507047C0466C0600200C05000002
:1026500000100040014B3033187870476C060020A2
:10266000184B10B531331870174A184BFF2499587E
:10267000A1439950032821D8995801F0EBFE1D027F
:102680000A140124214399501149FF20585011493F
:1026900006E00220014399500F490D4A99500F4915
:1026A000A722D20008E00324214399500C4808498E
:1026B000A7225850A2400021995002E0094801F099
:1026C00049FB10BD6C0600203405000000100040DE
:1026D0003C05000007010000FFFF00002110010081
:1026E000FFFFFF00C2030900014B31331878704728
:1026F0006C0600201F4B00B532331870012821D022
:10270000002810D0022834D1A2211B4ACB00D0507F
:102710001A491B481B4A08601B4B1C481C491A607D
:1027200008601C4A20E0A223134AD9005050134BE2
:102730001348154A186013491748154B1160186063
:10274000164A11E0A2230C4AD90050500B4B0C48FA
:102750000C490D4A186011601148124A0C4B12497D
:1027600018601160114A02E00E490A60104A1148CF
:10277000026000BD6C0600200010004024170040DD
:10278000005000784E0000542817004008800C606C
:102790002C1700408864720003800C602264720071
:1027A00002800C603017004011646600DEC08F822A
:1027B0003E420F8234170040F8B5A122334C344B0F
:1027C000344E354DD000002703210122F7503150FF
:1027D00067516251E05831490F220140E150E558FC
:1027E000062095430543E550E1582D4DC022900247
:1027F0000D400543E550A323DD006159294A80239C
:102800000A40625160595904014361516059FF22E5
:10281000904320231843605161592348C022084047
:102820006051224853000221C15001F0D5FD2049DA
:10283000204A70507251204D032373511F4800F0FD
:10284000E1FD1F4E1F4DF060687FFFF79BFE286A79
:10285000FFF70CFE686AFFF71FFEE81928300178C1
:10286000381C0137FFF72CFE082FF6D12F1C30370C
:102870003978154AA1502C1C313420783235FFF7B5
:10288000EFFE2878FFF736FFF8BDC0460010004085
:102890001405000000F00140FC0F0000FFFEFFFFE8
:1028A000FFFFF0FFFFFFFFFDFF00FFFF00E100E083
:1028B0001C05000004110040040500005006002023
:1028C000900500206C0600200C05000070B5274E16
:1028D00086B0337872789A4245D0002B01D1FFF749
:1028E0006BFF7078002801D1FFF7AAFB2049214D2A
:1028F00000246C5000F04EFD1F4D2C606C602C616C
:10290000AC60EC603378012B08D101F035F9A042BE
:1029100017D0201C211C01F0E3F812E0022B10D18B
:1029200000F038FD154A2C61147001F025F90328D8
:1029300007D100940194201C211C221C231C01F0AF
:1029400033F8FFF723FB70780024307003A80426C7
:10295000067044600481448144708470C47000F047
:10296000EDFE012000E0002006B070BD340600201E
:102970001405000000F00140500600206806002009
:1029800008B5012383F3108808490A78824208D0E9
:102990004870487E002802D1FFF798FF01E0FFF75A
:1029A000E7FB002383F3108808BDC04634060020EF
:1029B00038B5124B5A7E1C1C002A1DD1FFF7FCFEB5
:1029C0000F488168051C002902D10E4801F0C2F9A8
:1029D0006B68002B02D10C4801F0BCF901F098F9AA
:1029E000002802D0094801F0B5F9002001F082F971
:1029F00001226276FFF7BCFB38BDC04634060020DA
:102A0000900500205E0209005F02090066020900CD
:102A1000F8B5071C012080F31088544D544B554ED7
:102A20000024002203211C605C609C60DC601C614F
:102A30001A7529702A766A76B46074606870AC7012
:102A40006C60AC60AC81EC812C616C6101F0D6FBF8
:102A5000381C00F059FE00F0F5FE201C01F042F990
:102A6000301C01F07BF9444FC2208300F958434ADF
:102A7000C0260A40FA50B0003B584149C5221940CF
:102A800039509600BB59FF20402183430B43BB5173
:102A90000120FFF775FF3B4E3B4B3C48311C336236
:102AA000706228310123301C0B7029300223311C45
:102AB00003702A3103200870FF22311C32612B3150
:102AC00004220A707277321C2C3205201070321CDE
:102AD0002D320621301C11702E3007220270301C5E
:102AE0002F300821321C0170303200201070321C4F
:102AF0000120311C32321070313196229A400B7015
:102B00001E2171617260F360FFF740FA0F23B3601A
:102B1000FFF73CFA01207483307670760021201C88
:102B20006924317701F0D0F834606E780124A64230
:102B300002D0174801F00EF900262C70AE706E60BE
:102B4000AE60AE81EE812E616E612E766E76FFF7FD
:102B500033FEC023802180225800CC0053033C5018
:102B60003B5086F31088281CF8BDC0463406002070
:102B7000500600209005002000E100E0FFFF00FF6C
:102B8000FF00FFFF6C06002004070A0D05080B0E6E
:102B90003C020900014B3233187870476C06002064
:102BA000054B10B5041CD868002802D1034801F079
:102BB000D1F803490C7510BD90050020F6030900FB
:102BC00050060020014B18767047C0466C06002066
:102BD000014B187E7047C0466C060020014B5876AA
:102BE0007047C0466C060020014B587E7047C046B7
:102BF0006C060020014B18777047C0466C06002019
:102C0000014B187F7047C0466C06002008B501F0E4
:102C10005BF808BD08B50B4BD868417D002906D08C
:102C2000012000F05BFB084B9A8901329A81074929
:102C3000074B084A0020585051681368C91AFFF71B
:102C4000E4F908BD900500203406002014050000BA
:102C500000F001406C060020084B10B51A781C1CCF
:102C6000012A02D0064801F075F80649064A0220FA
:102C7000002320700B61CA6010BDC04668060020AA
:102C80009205090050060020292D000010B500F023
:102C900081FB194819491A4C002301220270236153
:102CA0000869A623174AD900505000F065FF002894
:102CB0000AD100F075FD01280DD900F00FFE60600B
:102CC000002808D1104804E000F056FF032802D085
:102CD0000E4801F03FF8022000F0A6FC002000F0B2
:102CE000FDFA00F049FF032802D0094801F032F84C
:102CF000FFF7B2FF10BDC046680600206C0600203A
:102D000050060020001000407B05090080050900E6
:102D10008805090008B5034B05221A70FFF7B6FFB6
:102D200008BDC04668060020F0B5484A8023D80098
:102D3000115887B0464C012904D0464D00235659FE
:102D40009E4205D1676800233978202088425B4184
:102D5000414E032500210127357021603B408B4205
:102D600055D08123D80015583C4B11583C48D150C0
:102D700002A912583B1C00910194381C291C00F038
:102D800013FE032841D801F065FB1E02204E029875
:102D9000002802D0334800F0DDFF281C00F024FF9B
:102DA000002802D1304800F0D5FF304903A8CF6891
:102DB0000223B97D0027037047603A1C07814781D1
:102DC000457081701DE02A482BE0029A002A02D14A
:102DD000284800F0BFFF281C00F006FF002802D1A1
:102DE000254800F0B7FF214F03A8FB68029F997D9B
:102DF0000222002302704760038143814570817085
:102E00000122C27000F09AFC0DE01C4809E000931A
:102E10000193181C191C1A1C00F0C6FD042802D0CE
:102E2000174800F097FF2568002D06D100F0B2FA90
:102E300065752561FFF72AFF05E0124801226275DA
:102E400020610424347007B0F0BDC046001000407B
:102E50005006002034050000680600202C05000004
:102E60000C040000B8050900B90509009005002010
:102E7000BD050900C0050900C1050900C805090014
:102E8000CF050900152D000070B50C4DA124E400FC
:102E90002E5901F025F886420AD001F021F8285178
:102EA000FFF7F4FE064900204968FFF7AEF870BD51
:102EB000044B18780028F3D0F4E7C0460010004017
:102EC0006C06002068060020F0B5864C0125636979
:102ED00089B0281C002B01D101F0FAF90126284005
:102EE00000D0D3E02178B14202D100F04BFA10E0DB
:102EF000022908D000F042FFFFF758F8A678002E0C
:102F000000D0A9E00EE0784A1378033BDDB2AE4270
:102F100040410028EED0754E754877680122790847
:102F20006161CBE0FFF7D2FC704D071E00D08EE050
:102F300020780190061E012E06D0002863D00228BA
:102F400065D1FFF7A1FF65E000F024FA00F014FE60
:102F500000281DD100F024FC012851D9FFF706F804
:102F6000071E0CD000F0FAFF002849D1287E002867
:102F70000BD100F0DBFF2669B04241D105E02069AA
:102F800000F0C2FF381C00F0D7FFFFF7C5F837E0AC
:102F9000698B002920D0A2898A421DD3311C381C9C
:102FA00000F09EFD00F08EFC0290A2890392E6895B
:102FB00000F082FC69460A79029905AB1A70069105
:102FC0000C226946515A5870181C19815E819F70F5
:102FD000DF7000F0B3FB13E001F07AF9002802D0B3
:102FE000444800F0B7FEA1234348DF00C65900F073
:102FF00077FF864202D0E1890131E181FFF746F88F
:103000000120296800E06968FEF7FFFF02E03B4805
:1030100000F0A0FE6D7E012D23D1FEF7A7FF002852
:103020001FD12478012C07D0002C0DD0022C18D0F1
:10303000334800F08FFE14E000F09EFD002810D110
:1030400000F034FC00280CD1FFF74CF809E0696867
:10305000301CFEF7DAFF04E0647E002C01D0FFF79D
:10306000BBF800F09DFB01280CD905A80021032323
:10307000037041600181418141708170C17000F035
:103080005DFB2DE01F4800F065FE29E0FEF78EFF96
:10309000A778002F1DD12178022912D1124B1D785B
:1030A000033D012D04D900F069FEFFF7EDFE17E0A6
:1030B0000E4F321C786841080D48616101F00EF92D
:1030C0000EE000F05BFE094A381C5168FEF79DFFD8
:1030D00006E000F053FE607E002801D0FFF77CF888
:1030E00009B0F0BD34060020680600206C06002000
:1030F000353D00000A050900001000405804090091
:10310000720409008C04090007B50190C046C0464E
:10311000C046C046C046C046C046C046C046C0467F
:10312000C046C046C046C046019B013B0193002BF0
:10313000ECD107BD70B58022164B910000245C5085
:103140001549C2250E78AD00144A032E07D1092671
:103150007442C1265C510825B4001D510AE00126C5
:1031600076425E51C0230E4D02265B00EE50146184
:1031700003244C7000235360536193604B600B75C4
:10318000984205D0074801680A69002A00D0904794
:1031900070BDC04600100040A0060020FC1000409A
:1031A00000E100E0A0050020F8B53F4B1A69012AB4
:1031B00053D19D693D4C80229600013503210420A6
:1031C0009D611870C025A15139496A0002278F50AE
:1031D000384F00263E61C1227E607E61BE60364E61
:1031E00008259100655035682A7D3D1C002A17D0BE
:1031F000A927F9006258314F9A75A023D9007A584F
:10320000024202D12E4800F0A5FD00200123A12298
:1032100028620421A361D300F950A927F900605066
:103220006868002802D0274800F094FD2D69002D21
:1032300002D0254800F08EFD244A536899072DD40A
:103240003768F968002900D088473668707D002803
:1032500028D035681E4AA55024E0022A1AD1154903
:1032600000250D6111484D6180244D6001278D605E
:10327000C221A6007A428C0085511D7002510320A4
:1032800058705D601D750C4B1E683769AF4209D0E0
:10329000B84707E00F4800F05DFD03E00E4800F07E
:1032A00059FDCDE7F8BDC046A00600200010004043
:1032B00000E100E0FC100040A005002000F001400B
:1032C000AD020A00B6020A00B7020A00FCE100E003
:1032D00004050000E7020A00B8020A0070B51E4D9E
:1032E000061C6B7D6C78002B02D11C4800F032FD6F
:1032F000287D002802D01A4800F02CFD0122002170
:103300002A756975022C0CD816482301C318002EA3
:1033100001D11E683260621E012A05D8997A29708F
:1033200002E0114800F016FD104D2868037D002BC7
:1033300011D0022C0FD10E4C0E4E251C32595307C2
:1033400002D40D4800F006FD0C494859002802D16E
:103350000B4800F0FFFC70BDA006002021010A0010
:1033600022010A00F84700003A010A00A0050020E7
:103370000405000000F0014040010A000010004078
:1033800041010A00024B9868013843425841704796
:10339000FC100040F8B5164B164C02200121C02746
:1033A000C222D8674D4282407B00134E8021134FCA
:1033B000A55081400025F050012265507D61104DDF
:1033C0002261A2612C78944201D1062003E0023CE4
:1033D000012C00D9101C0024FFF796FE7C61201CF4
:1033E0002C70FFF7A7FE02206C753060F8BDC04658
:1033F00004E100E00010004000E100E0FC100040AB
:10340000A006002038B50E4B0E4C18600E490F4B2D
:103410000F4A0225201DC56799500E48A421CA00F5
:103420009850FFF7B7FF0C48002303210370417049
:1034300043600361037543758375256038BDC046DD
:10344000A005002000E100E01410004000F0014061
:103450002405000004110040A006002070B55C4C5B
:103460002369607D013365782361002802D05948C3
:1034700000F070FC2178032948D1574E3269002AA8
:1034800044D0012D35D12269032A02D0534800F0DF
:1034900061FCA06902210130514A8025A06100230E
:1034A0008D400120217053514542C2208840155063
:1034B000C02568004B4D29504B4933610968736042
:1034C0007361B3600326667063602375087D98425C
:1034D0000DD0A925E80016580125A6753E4C0426F6
:1034E00023629561A124414DE4002E511350CA6816
:1034F00065E0022D08D12369012B02D03C4800F081
:1035000029FCFFF751FE61E03A485DE0032D5AD0F7
:10351000012D3CD12169012918D12F480021304BC0
:103520000126C2224160816070429100C12658503C
:10353000B0001D502C4D304E2A68117D002902D05C
:103540002A4D0420A851E4689C513FE002293DD156
:10355000234E214A8023002598000221C2231561B1
:103560005561556035504A429800C12132508B0058
:103570000822F25003262670656025751A4C2568CE
:10358000261C2869002800D08047306816E0022DEC
:10359000B7D0657819482B01C1180E7B0025AE42C3
:1035A00003D00D4A15696A1E95418B7A012023705C
:1035B000FFF7C0FD002D09D00B4C20688268002A5F
:1035C00004D0904702E00E4800F0C4FB70BDC04636
:1035D000A006002090010A00FC1000409F010A0094
:1035E0000010004000E100E0A005002000F00140D4
:1035F000A4010A00A9010A0004050000F847000020
:10360000D6010A0008B5022804D8054B18784342B1
:10361000584103E0034800F09DFB002008BDC04670
:10362000A0060020F9020A00F8B52B4C0301061C85
:103630002A4F207DFF18002802D0294800F08AFB7D
:10364000301CFFF7DFFF002802D1264800F082FB84
:103650000121C222244D0023484291006375C022FB
:103660006850224902205200885021486670026842
:10367000116852682361A3613B68A160E2606360E6
:10368000022E18D8387A80239B00E850F87A194B1C
:10369000002805D1E950EA58002A08D1164804E06C
:1036A000EA50E958002902D1144800F053FB7F7A10
:1036B000C1208300EF500E4D29680A7D002A07D0F3
:1036C000022E05D10B480E4B00260427A6751F506D
:1036D00001256575F8BDC046A0060020F84700002A
:1036E000DB000A00DD000A000010004000E100E0FD
:1036F000A00500200405000000010A0005010A00E1
:1037000000F001407047C04610B5041E02D10848C1
:1037100000F020FB074B00221C60191DDA670833FC
:10372000CA678020DA67044B44031C6010BDC046A2
:1037300029000B00C406002000E100E070B5144C25
:10374000051C2368002B02D1124800F003FB201C4B
:103750000830C16F092902D90F4800F0FBFAE66F63
:103760000C225643A319043343CD43C3251C08350B
:10377000E86F0130E867E16F0131E167E66F092E1C
:1037800001D90022E2678024044B65035D6070BDAF
:10379000C406002034000B0035000B00FCE100E003
:1037A000034B0A200833D96F421AD0B27047C04683
:1037B000C4060020F0B587B0012383F31088134CB2
:1037C000124D0834E06F00281BD02A1DD16F0C2643
:1037D000714303AB69180431181CE0C9E0C0E76FFE
:1037E0000026013FE767D46F0134D467D56F092DF8
:1037F00000D9D66786F31088044A176807CBB84704
:10380000DAE780F3108807B0F0BDC046C406002098
:1038100038B50A4C051CE36F002B02D1084800F0B4
:1038200099FA291C0831E06F00F03CFC0021884225
:1038300001D0E1670121081C38BDC0464C070020BB
:103840006F020C0010B500F0B7FB0021124A88008F
:10385000002384188818A361A363041C8034883073
:10386000237003700D480C18013123700829EDD125
:10387000111C101C141C903191305834137053607B
:103880009360D360136153610B7003702370D3672F
:1038900092320123137010BD4C070020E007002076
:1038A000014B185C7047C046E0070020014B903385
:1038B000187870474C070020014B58687047C04685
:1038C0004C070020014B98687047C0464C07002009
:1038D000014BD8687047C0464C07002010B5104C0B
:1038E0002378002B02D00F4800F034FAE06F002854
:1038F00002D100F08BFBE067E06F00280FD00121C0
:1039000043784A4206210B43437002700023C218D9
:10391000FF2101339170202BF9D10323237010BDB7
:103920004C0700203B010C0038B5124C2378002BCB
:103930001ED1201C90300178002919D1082560691A
:1039400000F028FC002805D0231C60699033012278
:103950001A70206161690131082900D10021231CFE
:10396000616190331A78002A02D1013D002DE6D121
:1039700038BDC0464C07002038B5094D041C2B1C2F
:1039800090331878002804D02969A14201D1FFF7AB
:10399000CBFF2A19034B0025803215701D5538BD09
:1039A0004C070020E0070020F0B5464D85B003939A
:1039B000EB6F061C0C1C171C002B02D1424800F0B8
:1039C000C9F92878032802D0404800F0C3F9E96F0C
:1039D00001234A781A4202D192352D786B40042592
:1039E000002E61D050070126810F1E40251C231C8C
:1039F0000A0608330E353F023249A8003F0A0293F7
:103A00000B5817430B980A9A0025156005609F42D2
:103A100033D0201CFFF7FCFE0190AE4200D0051C05
:103A200001232E1C1E40002828D00299254A063169
:103A300088008750039F1D1C002F20D0244F3B5D22
:103A4000002B1CD0201C00F0A5FB002802D121482F
:103A500000F080F9201C00F05BFB051E02D0201C4A
:103A6000FFF78AFF0A990D60002D02D11A4800F075
:103A700071F900203855022501E001950325002E3B
:103A80000DD0201C00F06CFB0B9E3060002802D192
:103A9000124B336005E00E4F01223A5501E00B9CBA
:103AA00026600199002905D1064CE06F00F0CCFAA0
:103AB0000020E067034A00261670FFF735FF281C38
:103AC00005B0F0BD4C0700205B010C005C010C0050
:103AD000E007002091010C0096010C00A4070020D3
:103AE000F8B51F4C071C23780E1C013B012B02D993
:103AF0001C4800F02FF90425002F19D02078012848
:103B000002D0194800F026F9E268002A02D11748CD
:103B100000F020F9E16800250F78AF4208D0606816
:103B2000FFF776FE0225002802D1114800F012F9B5
:103B3000002E0ED06768381C00F0EAFA061E02D08C
:103B4000381CFFF719FFA3689E4202D0094800F015
:103B500001F900202070FFF7E7FE281CF8BDC046E1
:103B60004C070020FC000C0002010C0003010C00BB
:103B70000E010C001E010C00014B18787047C04666
:103B80004C07002038B5041C0D1C00F013FB002866
:103B900001D1002008E0281C211C00F083FA002835
:103BA000F7D0FFF7C1FE012038BD08B500F0D8FA04
:103BB00008BD10B5041CFFF7DFFE201C00F000FB61
:103BC00010BD08B500F0E6FA08BD08B5083000F0F1
:103BD000C7FA08BD08B5083000F09AFA08BD08B564
:103BE000083000F0EDFA08BD08B5083000F0D2FA50
:103BF00008BD10B52A4C2378002B02D0294800F0CC
:103C0000A9F8201C90300178002927D02069606035
:103C100000F0A6FAA060002802D1234800F09AF82C
:103C2000A26801235078034004D1211C92310A7804
:103C3000002A10D16068FFF7D7FF02280ED8E36F83
:103C4000002B02D100F0E2F9E067E16FE1600029AA
:103C500004D0012001E0E3600220207022780020DF
:103C600082421BD0A368834202D1104800F072F850
:103C700020696060063081006318DA780321013220
:103C8000D0B2D870A36808405A7841000620824319
:103C90000A435A70903400232370012010BDC0469F
:103CA0004C070020C3000C00C9000C00E7000C000A
:103CB00008B500F0ABF908BD08B500F0C5F908BDBE
:103CC00008B500F077FA08BD014B923318707047C1
:103CD0004C070020014B9233187870474C070020A6
:103CE0007047C046024B9870587018707047C046B5
:103CF000E807002010B5041E012C02D9024800F08C
:103D000029F8024B5C7010BD2A000D00E807002066
:103D1000014B18787047C046E8070020014B98789F
:103D20007047C046E8070020014B58787047C046EE
:103D3000E807002008B5054B1A7858789A70187073
:103D4000034B8100CA58904708BDC046E8070020D1
:103D50008C00002008B5FEF7FFF808BD10B5041E62
:103D600002D10448FFF7F6FF034B00221C605A60A3
:103D70009A6010BD2A000100A4050020094B00B57F
:103D800018689A68016801329A608A4208D35968B3
:103D90004068002201319A605960814200D35A6024
:103DA00000BDC046A4050020F8B500282AD0164C56
:103DB000A36801280ED1276801333A68A3609342B3
:103DC00020D36068796800250130A5606060884272
:103DD00018D316E02668C7183568A760381C291C58
:103DE00000F042FB62683B1C80186060AB4201D36C
:103DF0005B1BFBE771686568A3608D4201D36D1A98
:103E0000FBE76560F8BDC046A4050020024B1A68B8
:103E100099681068401A7047A405002070B50D4DD0
:103E2000041C2B685868844202D30B48FFF792FFAA
:103E30006E68B4420CD002D829684A68A418FFF70B
:103E4000E5FF2D68F3432E6819197143081800E047
:103E5000002070BDA40500206800010070B5041C9E
:103E60000D1C884202D30B48FFF774FF0A4E3368DB
:103E70001868854202D90948FFF76CFFB168601ADB
:103E8000A14206D30020A94203D3326815686E1AF6
:103E9000301970BD7D000100A40500207E000100E6
:103EA00038B5041C101C0D1CFFF7B8FF002801D00A
:103EB000001911E0201C291CFFF7D0FF041CFFF79C
:103EC000A5FF031C201E984206D304490D686A68AA
:103ED0002C68013A5443001938BDC046A40500209F
:103EE000074B10B51A68596850681C1C814202D3F0
:103EF0000448FFF72FFF236861689A68505C10BD83
:103F0000A4050020B200010038B5064B041C1A6855
:103F10001D1C5068844202D30348FFF71BFF6C60EE
:103F200038BDC046A4050020B9000100014B586807
:103F30007047C046A405002038B5064B041C1A681B
:103F40001D1C1068844202D30348FFF703FFAC60D6
:103F500038BDC046A4050020C5000100014B98688B
:103F60007047C046A405002010B50F4B1A68002307
:103F700093420BD20D499C006458A04203D10C48D7
:103F8000FFF7E8FE0CE00133DBB2F1E70024222268
:103F9000624308495318984204D00134062CF6D1E4
:103FA000002000E0012010BDEC070020F0070020F9
:103FB000F6000300F808002010B500220F49500059
:103FC000801800230C1801326370A3704354102A28
:103FD000F4D122225A430A490A485418211C9A0053
:103FE00084502231DE22227001348C42FAD1013316
:103FF000062BEED1044C236010BDC04608080020FB
:10400000F8080020F0070020EC07002038B50A4B24
:104010001C68002C0ED0621E084990004458084DC0
:104020001A604550201CFFF79FFF002802D1054869
:10403000FFF790FE201C38BDEC070020F0070020A1
:10404000ADDEADDE7D00030070B5104C051C2368AD
:10405000052B02D90E48FFF77DFE281CFFF784FFD1
:10406000002802D10B48FFF775FE21680A488A0034
:1040700011580A4B061C994202D00948FFF76AFE04
:10408000206882000130B550206070BDEC07002030
:104090008500030086000300F0070020ADDEADDEE2
:1040A00088000300F8B5051C0C1E0F2C02D914481B
:1040B000FFF750FE281CFFF757FF002802D11148D8
:1040C000FFF748FE104966003019435C0022022BBE
:1040D00013D80B185F78C0190C4F8000C5515D785C
:1040E0000135E8B258705F78022F00D95A70321942
:1040F0008C5C0134E6B28E540122101CF8BDC0461F
:104100008F000300900003000808002038080020FA
:1041100038B5041E0F2C02D90E48FFF71BFE0E4ABD
:1041200065002919885C002813D05318987809185D
:104130000A488900085899780131C9B2997099786C
:10414000022901D9002199702C19155D013DEBB2AE
:10415000135538BDA60003000808002038080020C9
:1041600010B5041E0F2C02D90748FFF7F3FD074BCB
:1041700062001119C85C002805D0581884780B1902
:1041800003499A00505810BDB700030008080020EA
:104190003808002010B5041E0F2C02D90348FFF781
:1041A000D9FD630002491819405C10BDC800030026
:1041B00008080020014B18687047C046EC07002033
:1041C00038B5051E0F2D0CD90948FFF7C3FD08E0CF
:1041D000084B9C4202D10848FFF7BCFD201CFFF7AA
:1041E00033FF281CFFF794FF041EF1D138BDC046F1
:1041F000D7000300ADDEADDEDB000300164BA121CE
:1042000010B50122CC0000205A60DA6018515A64BF
:10421000124A1C1C9958814202D01148FFF79AFD9E
:104220000123C222584291000E4B60500022A2216D
:104230005A640420CB00E0500B490C4C0120226052
:104240002271627108700A4B8022C021D400814023
:104250005C501C6010BDC04600A00040440500003A
:1042600035000400FCA00040C4090020B005002077
:1042700000E100E0034B0449012200201A600870AD
:104280007047C04600A00040C4090020094A30B56C
:1042900001235360084CD3608025084AC0200021C8
:1042A000ED0098401160117125505171044A13704E
:1042B00030BDC04600A0004000E100E0B005002095
:1042C000C4090020014B18787047C046C40900207B
:1042D000014B18797047C046B0050020F7B5334F41
:1042E0000092334C8022C2237E790191051C9900F3
:1042F00050026050002E02D02E48FFF72BFD002DFB
:1043000002D12D48FFF726FD3A68002A02D02B483B
:10431000FFF720FD3D60009D294E012D0DD0002DA1
:1043200003D0022D0DD1A92208E00120254B0099D0
:104330006064E5582064716407E0A822D5006559DF
:1043400003E02148FFF706FD002501227A71019F55
:10435000A821E81987B20023C800736427502758A2
:1043600000976264174AA758716C1E1C994202D0CC
:104370001648FFF7EFFC009BAB4205D3AF4201D3D9
:104380009F420CD3124808E0301CAF427041009DA0
:10439000AF427641B04202D00E48FFF7DBFC8022EC
:1043A000C12157028E00A751F7BDC046B0050020BD
:1043B00000A00040730004007500040076000400B3
:1043C000FCA0004044050000890004009B0004009C
:1043D000B0000400C90004000048704748A0004035
:1043E0000048704740A1004070B58022134C144D26
:1043F000C22350029900002668506664114C22685E
:10440000B24202D11048FFF7A5FC104B01216671A2
:104410002068A82226606964EE58D300EA580C4D43
:104420001432AE4203D8C0231D02AA4202D8002192
:10443000964249412171804770BDC046FCA00040B2
:1044400000A00040B0050020EC000400440500007E
:10445000FF3F000002B4714649084900095C490069
:104460008E4402BC7047C046002243088B4274D37E
:1044700003098B425FD3030A8B4244D3030B8B4265
:1044800028D3030C8B420DD3FF22090212BA030C6E
:104490008B4202D31212090265D0030B8B4219D34F
:1044A00000E0090AC30B8B4201D3CB03C01A52416F
:1044B000830B8B4201D38B03C01A5241430B8B42B7
:1044C00001D34B03C01A5241030B8B4201D30B03A0
:1044D000C01A5241C30A8B4201D3CB02C01A5241C7
:1044E000830A8B4201D38B02C01A5241430A8B428A
:1044F00001D34B02C01A5241030A8B4201D30B0273
:10450000C01A5241CDD2C3098B4201D3CB01C01A8C
:10451000524183098B4201D38B01C01A5241430996
:104520008B4201D34B01C01A524103098B4201D384
:104530000B01C01A5241C3088B4201D3CB00C01AF1
:10454000524183088B4201D38B00C01A5241430869
:104550008B4201D34B00C01A5241411A00D201468E
:10456000524110467047FFE701B5002000F0F0F817
:1045700002BDC0460029F7D076E7704703460B43DB
:104580007FD4002243088B4274D303098B425FD34C
:10459000030A8B4244D3030B8B4228D3030C8B4278
:1045A0000DD3FF22090212BA030C8B4202D312125E
:1045B000090265D0030B8B4219D300E0090AC30B33
:1045C0008B4201D3CB03C01A5241830B8B4201D3E0
:1045D0008B03C01A5241430B8B4201D34B03C01AC9
:1045E0005241030B8B4201D30B03C01A5241C30A41
:1045F0008B4201D3CB02C01A5241830A8B4201D3B2
:104600008B02C01A5241430A8B4201D34B02C01A9B
:104610005241030A8B4201D30B02C01A5241CDD240
:10462000C3098B4201D3CB01C01A524183098B428B
:1046300001D38B01C01A524143098B4201D34B0174
:10464000C01A524103098B4201D30B01C01A5241D7
:10465000C3088B4201D3CB00C01A524183088B425E
:1046600001D38B00C01A524143088B4201D34B0047
:10467000C01A5241411A00D20146524110467047B9
:104680005DE0CA0F00D04942031000D340425340BE
:1046900000229C4603098B422DD3030A8B4212D37E
:1046A000FC22890112BA030A8B420CD389019211B0
:1046B0008B4208D3890192118B4204D389013AD0ED
:1046C000921100E08909C3098B4201D3CB01C01AC2
:1046D000524183098B4201D38B01C01A52414309D5
:1046E0008B4201D34B01C01A524103098B4201D3C3
:1046F0000B01C01A5241C3088B4201D3CB00C01A30
:10470000524183088B4201D38B00C01A5241D9D247
:1047100043088B4201D34B00C01A5241411A00D2C8
:104720000146634652415B10104601D34042002BC4
:1047300000D54942704763465B1000D3404201B543
:10474000002000F005F802BD0029F8D016E77047F8
:104750007047C046002310B59A4200D110BDCC5C12
:10476000C4540133F8E703000A7801311A700133A9
:10477000002AF9D170470000F8B5C046F8BC08BC63
:104780009E467047F8B5C046F8BC08BC9E467047C8
:104790000000002043757272656E742073616D7045
:1047A0006C652076616C75653A2025640D0A000001
:1047B000001001401101040000B000400B00040093
:1047C000FF0F030000001F00030200005465726D1C
:1047D000696E616C00000000525454005345474715
:1047E00045520000303132333435363738394142A2
:1047F00043444546010200000010004010110040F3
:104800000310000001000000001000400000000044
:104810000B02040000000000041000400000000033
:0C48200007080301000000000000000079
:08482C00DCB8FF7F0100000071
:104834000000000000000000000000000000000074
:104844000000000000000000000000000000000064
:104854000000000000000000000000000000000054
:104864000000000000000000000000000000000044
:104874000000000000000000000000000000000034
:104884000000000000000000000000000000000024
:104894000B162C0001001E081C1D1B1A180000001A
:1048A4006A200000000000000500000004192A3FEF
:1048B4004D0000000000000000000000C92E0000B0
:0C48C400152C0000E9000000C1000000FD
:04000003000016BD26
:00000001FF
