:0C0F4600C2C7D2C5D2C475C2F3C2C1221A
:080F520030C0FDC2C0AFC12296
:080F5A008FC130C1FDC2C122AC
:100F190075A15575A1AAE5B954F84404F5B9E4F5E4
:020F2900A12203
:0E0F2B00EF4E600905A1EF1F70F61E80F32245
:100EE900CDEFCDCCEECCED4C600E7FE87E03120F3A
:090EF9002BED1D70F11C80EE22AE
:040F720043C6102240
:100D6500C29FD29EC29DC2CDC2CC4387809000F166
:100D7500120AB000000082E47B0AFAF9F89000F14B
:100D8500E0FCA3E0FDA3E0FEA3E0FF120A12CCE81D
:100D9500CCCDE9CDCEEACECFEBCF9000F5EFF090FC
:100DA50000F1E0FCA3E0FDA3E0FEA3E0FFE47B0A85
:100DB500FAF9F8120A129000F1120AA49000F5E06F
:100DC500C3940574809480401F9000F1E0FCA3E07B
:100DD500FDA3E0FEA3E02401FFE43EFEE43DFDE4C7
:100DE5003CFC9000F1120AA4E589540F4420F589D2
:100DF50043C9A09000F1A3A3A3E0F404F58DD28E1E
:040E0500D299D29C10
:010E090022C6
:080F62003098FDC298AF9922FE
:080F6A008F993099FDC2992214
:100F020075A15575A1AAEF600543B101800353B1E4
:070F1200FEE4F5A1F5FF224A
:030F76008FFF22C8
:100CAF004C69676874206F6E204E756D204C6F63B2
:100CBF006B204C4544210A004C69676874206F66AD
:100CCF0066204E756D204C6F636B204C4544210A96
:100CDF00007A7A007374617274202E2E2E0A00121D
:100CEF000110010000004096AA32AA010001020083
:100CFF000109022900010100A023090400000203D9
:100D0F0000000009210001210122220007058203B2
:100D1F00400001070502034000010600FF0901A181
:100D2F0001090215002600FF75089540810609028A
:100D3F0015002600FF750895409106C00A0359005B
:100D4F0052004B0042001003530050005A005F0046
:060D5F00430046004700BE
:0C0F39004101670041015D0041015E00C4
:10000300C2EAE4F5E275D18053D1FB53E2BFCE746B
:1000130000CECF7440CF8EE58FE443EB0C53EBFE61
:10002300CE7400CECF7400CF8EED8FEC53EAF3F590
:10003300E343E22943D10175D8FF75E107D2EA22F0
:100E9600C87480C8CC7400CCCD7401CD7B017A01B6
:100EA600791A7E007F4012098190016BE0600C7513
:0C0EB600D54053D4FC9001677401F02279
:0300430002004672
:0D004600C0E0C0F0C083C082C0D075D008FB
:1000530020D90302050CE5D9543F70030204D624CA
:10006300FE602824E2700302044524F06042240E5B
:10007300600302050875D50063D440900167E4F07E
:10008300E5D454FC4402F5D402050820DE0302053E
:1000930008AFDB9000C2E4F0A3EFF063D4809001DB
:1000A3005D7401F09000C2A3E090015EF0020508C8
:1000B30075DCC0AFDB9000C2E4F0A3EFF09000C2A8
:1000C300E07004A3E064086003020415900007E0F5
:1000D300FE900006E0FDEDFF90015AEEF0A3EFF075
:1000E3009000C2E4F0A3F09000C1F0900001E09012
:1000F300015CF0900000E0546070030201869001FF
:100103005CE024FE604314604024FA24FD503A244A
:100113000B70309001687401F0A37401F0A3741A9A
:10012300F090015AE0FEA3E0FFC39440EE940090E8
:1001330000C24008E4F0A37440F0800DEEF0A3EF9A
:10014300F080069000C174FFF09000C2E0FEA3E0CF
:10015300FFD390015BE09F90015AE09E4005EEF0D3
:10016300A3EFF090015AE0FEA3E0FFC39440EE94A6
:1001730000400D7C007D40CEECCECFEDCF0202A33C
:100183000202A390015CE0B40B004003020413904D
:100193000199F82828730203EA02033502041302C3
:1001A300036D0204130202EE0201BA0204130202F7
:1001B300FA02031F02041B900003E024FE602B14C9
:1001C300604124E1700302024E24216003020267AE
:1001D30090016874FFF0A3740CF0A374EEF0900028
:1001E300C2E4F0A37412F002026D90016874FFF090
:1001F300A3740DF0A37400F09000C2E4F0A374297B
:10020300F08067900002E0FF7E00640170109001AF
:100213006874FFF0A3740DF0A3744BF08014EF64C3
:10022300024E704090016874FFF0A3740DF0A37444
:1002330055F0900168E0FBA3E0FAA3E0F91209A7E7
:10024300FF9000C2E4F0A3EFF0801F90016874FFF9
:10025300F0A3740DF0A37429F09000C2E4F0A3742A
:1002630022F080069000C174FFF09000C2E0FEA36C
:10027300E0FFD390015BE09F90015AE09E4005EEC2
:10028300F0A3EFF090015AE0FEA3E0FFC39440EE29
:100293009400400C7C007D40CEECCECFEDCF8000AF
:1002A3009000C2EEF0A3EFF09000C2E0FEA3E0FFE7
:1002B300C87400C8CC7400CCCD7401CD900168E043
:1002C300FBA3E0FAA3E0F91209819000C2E0FEA3C8
:1002D300E0FFC390015BE09FF090015AE09EF09035
:1002E3000169EE8FF01209C002041B900002E0FFC7
:1002F30090015AE402040D900119E0900000F0C34C
:1003030090015BE0940190015AE0940050030204D1
:100313001B9000C2E4F0A304F002041B900002E06F
:10032300900119F0700302041B90016B7401F00239
:10033300041B900000E0541F6402702B900004E043
:1003430024FE601D2481600E147047E5D454BC4420
:1003530002F5D402041BE5D254BC4402F5D20204D4
:100363001B53D47302041B020415900000E0541FB6
:10037300FD7C00701F900003E0FE900002E0FBEBA9
:1003830064014E700D900D079330E50302041B02C8
:100393000415807EED64024C704B900003E0FE90E8
:1003A3000002E0FDED4E703B900005E0FE9000047E
:1003B300E0FDEDFFEE702AEF24FE6011248160174B
:1003C30014701EE5D454BF4403F5D4804BE5D454D4
:1003D3007F440CF5D48041E5D254BF4403F5D28069
:1003E30037802F802D802B900000E4F0A3F0900144
:1003F3005AE0FEA3E0FFC39402EE94009000C240D3
:1004030008E4F0A37402F0800FEEF0A3EFF080088D
:1004130080009000C174FFF09000C1E0F470067595
:10042300DCCF0205089000C2E0FEA3E0FFD39440B6
:10043300EE940050048FDD800375DD0075DCC0028F
:10044300050890015CE024FB6072146004240570CD
:100453007A90015AE0FEA3E0FFC39440EE9400407B
:100463000C7C007D40CEECCECFEDCF80009000C25F
:10047300EEF0A3EFF09000C2E0FEA3E0FFC874002B
:10048300C8CC7400CCCD7401CD900168E0FBA3E02F
:10049300FAA3E0F91209819000C2E0FEA3E0FFC3D2
:1004A30090015BE09FF090015AE09EF0900169EEAD
:1004B3008FF01209C08FDD63DC40804990015AA39D
:1004C300E0FFE5E354804FF5E3800375DD0075DC61
:1004D300028032AFDB9000C2E4F0A3EFF090015C46
:1004E300E06409701D900000E060087BFF7A0C79DE
:1004F300AF800C900000E070097BFF7A0C79C71283
:1005030005B763DC80C2D9803530D81A75DC027533
:10051300D40275E300C2DAC2D990016BE4F0900112
:1005230067F0C2D8801830DA12C2DAE5DA30E20EA8
:0E0533007BFF7A0C79E01205B7800375D8FFC4
:0B054100D0D0D082D083D0F0D0E032C8
:100B9200E49000EEF0A3F0A3F0120F197F057E009F
:100BA200120EE9120D657BFF7A0C79E31205B7127A
:100BB2000F467E007F407D007B017A01791A120A7E
:100BC200E1120003D2AFE4F5D3F5D590016BF090BA
:100BD200016BE07003020CA590015DE0602FE490D0
:100BE20000ECF090015EE0FF9000ECE0FEC39F504D
:100BF2001774402EF582E43400F583E0FF120F5A99
:100C02009000ECE004F080DBE490015DF030C0BFC6
:100C1200120F529000EDEFF09000EFE0702790007D
:100C2200EDE0F470199000EF04F0E49000EEF0FEB5
:100C32007F40FD7B017A01791A120AE18091E490EA
:100C420000EEF0808A9000EEE0FF70139000EDE07D
:100C52009000F0F0D3944074809480403D801EEF69
:100C620014FF9000F0E0FEEFC39E401C9000EDE008
:100C720064FE7009900167E070FA120E96E490002B
:100C8200EFF09000EEF080129000EDE0FFA3E02480
:100C920019F582E43401F583EFF09000EEE004F000
:0D0CA200020BD17F647E00120EE9020BD11F
:03000000020E0AE3
:0C0E0A00787FE4F6D8FD758122020E51BD
:1008B100E709F608DFFA8046E709F208DFFA803E29
:1008C10088828C83E709F0A3DFFA8032E309F60816
:1008D100DFFA8078E309F208DFFA807088828C837E
:1008E100E309F0A3DFFA806489828A83E0A3F60832
:1008F100DFFA805889828A83E0A3F208DFFA804C0C
:1009010080D280FA80C680D4806980F280338010E2
:1009110080A680EA809A80A880DA80E280CA80334B
:1009210089828A83ECFAE493A3C8C582C8CCC583C3
:10093100CCF0A3C8C582C8CCC583CCDFE9DEE78093
:100941000D89828A83E493A3F608DFF9ECFAA9F012
:10095100EDFB2289828A83ECFAE0A3C8C582C8CC68
:10096100C583CCF0A3C8C582C8CCC583CCDFEADE81
:10097100E880DB89828A83E493A3F208DFF980CCE3
:1009810088F0EF60010E4E60C388F0ED2402B404DC
:100991000050B9F582EB2402B4040050AF23234583
:0609A1008223900901739E
:1009A700BB010689828A83E0225002E722BBFE024E
:0909B700E32289828A83E4932281
:1009C000C5F0F8A3E028F0C5F0F8E58215827002C2
:0609D0001583E038F0225F
:1009D60075F008758200EF2FFFEE33FECD33CDCCD8
:1009E60033CCC58233C5829BED9AEC99E58298405B
:1009F6000CF582EE9BFEED9AFDEC99FC0FD5F0D638
:100A0600E4CEFBE4CDFAE4CCF9A88222B800C1B961
:100A16000059BA002DEC8BF084CFCECDFCE5F0CB9F
:100A2600F97818EF2FFFEE33FEED33FDEC33FCEBD8
:100A360033FB10D703994004EB99FB0FD8E5E4F993
:100A4600FA227818EF2FFFEE33FEED33FDEC33FC80
:100A5600C933C910D7059BE99A4007EC9BFCE99A74
:100A6600F90FD8E0E4C9FAE4CCFB2275F010EF2FB9
:100A7600FFEE33FEED33FDCC33CCC833C810D707B9
:100A86009BEC9AE899400AED9BFDEC9AFCE899F8F4
:0E0A96000FD5F0DAE4CDFBE4CCFAE4C8F92287
:0C0AA400ECF0A3EDF0A3EEF0A3EFF022C5
:100AB000A8828583F0D083D082120AC7120AC71297
:100AC0000AC7120AC7E473E493A3C583C5F0C583BC
:100AD000C8C582C8F0A3C583C5F0C583C8C582C890
:010AE00022F3
:10054C00E51524F4F582E43400F583E005152290DA
:10055C0000F13010039000F4E475F001120B4C0222
:10056C0009A72009E97F2ED2098018EF540F249097
:10057C00D43440D4FF300D0BEF24BFB41A00500319
:10058C002461FFE516600215160519E519700205C0
:10059C001830100E9000F1E475F001120B4CEF02C4
:1005AC000B3A020EC27403D2108003E4C210F5158C
:1005BC009000F1120B63E4F516F518F519E51660C9
:1005CC00077F2012058F80F57517FFC20AC209C27A
:1005DC000BC20CC20EC20FC21112055BFF700D30A4
:1005EC0010057F001205A0AF19AE1822B4255FC20A
:1005FC00D5C20D12055BFF24D0B40A00501A75F059
:10060C000A781630D50508B6FF0106C6A426F620D2
:10061C00D5047002D20C80D924CFB41A00EF500448
:10062C00C2E5D20D0207A1D20A80C6D20980C0D27F
:10063C000B80BCD2D580BAD20E80B47F2012058F2D
:10064C00200B077401B5160040F112054CFF120582
:10065C008F0205C9D211D20F809512054CFB1205E1
:10066C004CFA12054CF94A4B700679727A087BFFEA
:10067C00200B2EE516602A7E008E82758300120BED
:10068C000D60060EEE651770F0C2D5EBC0E0EAC047
:10069C00E0E9C0E0EE1207E8D0E0F9D0E0FAD0E0F3
:1006AC00FB1209A7FF60AAEBC0E0EAC0E0E9C0E0DA
:1006BC0012058FD0E02401F9D0E03400FAD0E0FB31
:1006CC00E5170460DCD517D980877BFF7A0779E4BE
:1006DC00D20B809C791080027908C20FC21180085D
:1006EC00D2D5790A8004790AC2D5E517047002F5CF
:1006FC0017E4FAFDFEFF12054CFC7B08200A1312CE
:10070C00054CFD7B1030090A12054CFE12054CFFFE
:10071C007B20EC3382D592D55013C3E43009069F6D
:10072C00FFE49EFEE4200A039DFDE49CFCE4CBF870
:10073C00C20AEC700CCFCECDCCE824F8F870F38064
:10074C0017C3EF33FFEE33FEED33FDEC33FCEB332D
:10075C00FB994002FB0FD8E9EB300A05F8D0E0C456
:10076C0048B20AC0E00AEC4D4E4F78207B0070C2B4
:10077C00EAB5170040BCC0E01207EAD0F0D0E02088
:10078C000A04C4C0E0C4B20AC0F0120578D0F0D597
:10079C00F0EB0205C9120B6C06665306E0580637DF
:1007AC004C06334206E44F06EC4406EC49064C4337
:0807BC0006F25506D64606D6EA
:1007C4004506D647089250063B2D063F2E06622B5F
:1007D400064323066020087B2A05FB480000065ACE
:1007E4003F3F3F00790AA2D5200C14300E09B910FE
:1007F400020404B9080104A2D5200F025001042008
:100804000B68920BB516005034C0E07F20300C19F1
:100814007F30A20B720F720E500F120841C20BC22E
:100824000FC20EC2117F30800F300E03E9C0E012F8
:10083400058F300E03D0E0F9D0E0B516CC300E179A
:100844007F30B9100C12058F7F58300D077F7880E8
:1008540003B9080312058F300B057F2D02058F7F26
:10086400202011F87F2B200FF322920B80CF286ECB
:10087400756C6C2900D20A12054C300AF8C20A7849
:100884001630D50108F60205FB2D504349581205D0
:100894004C2403B405004001E490088D93120580B4
:0D08A400743A120580D20C7516040206E0AD
:100AE100EF4E6012EF60010EEDBB010B89828A832C
:100AF100F0A3DFFCDEFA2289F05007F709DFFCA939
:0C0B0100F022BBFEFCF309DFFCA9F0228F
:100E1600020B92E493A3F8E493A34003F68001F255
:100E260008DFF48029E493A3F85407240CC8C333DD
:100E3600C4540F4420C8834004F456800146F6DFAC
:100E4600E4800B0102040810204080900F39E47EF4
:100E5600019360BCA3FF543F30E509541FFEE493A1
:100E6600A360010ECF54C025E060A840B8E493A368
:100E7600FAE493A3F8E493A3C8C582C8CAC583CA93
:100E8600F0A3C8C582C8CAC583CADFE9DEE780BE4B
:010F450000AB
:100B0D00BB010CE58229F582E5833AF583E022509D
:100B1D0006E92582F8E622BBFE06E92582F8E222E7
:0D0B2D00E58229F582E5833AF583E4932201
:100B3A00BB010689828A83F0225002F722BBFE019A
:020B4A00F32294
:100B4C00F8E0FBA3A3E0F925F0F0E5821582700232
:070B5C001583E0FA38F022D6
:090B6300EBF0A3EAF0A3E9F02293
:100B6C00D083D082F8E4937012740193700DA3A318
:100B7C0093F8740193F5828883E47374029368602C
:060B8C00EFA3A3A380DF2C
:100EC200EFB40A07740D120ECD740A309811A89966
:100ED200B8130CC2983098FDA899C298B811F63090
:070EE20099FDC299F5992268
:00000001FF
