:10000000006000204902000001020000030200001D
:1000100005020000070200000902000000000000C5
:100020000000000000000000000000000B020000C3
:100030000D020000000000000F020000110200008D
:10004000791400000950000095160000130200000A
:100050001302000000000000491500001302000018
:10006000130200001302000013020000130200003C
:10007000130200001302000013020000130200002C
:10008000130200007D29000013020000130200008B
:10009000E9520000130200001302000013020000E6
:1000A0001302000013020000000000000000000026
:1000B0001302000013020000000000000000000016
:1000C0000000000000000000000000000000000030
:1000D0000000000000000000000000000000000020
:1000E0000000000000000000000000000000000010
:1000F0000000000000000000000000000000000000
:1001000000000000000000000000000000000000EF
:1001100000000000000000000000000000000000DF
:1001200000000000000000000000000000000000CF
:1001300000000000000000000000000000000000BF
:1001400000000000000000000000000000000000AF
:10015000000000000000000000000000000000009F
:10016000000000000000000000000000000000008F
:10017000000000000000000000000000000000007F
:10018000000000000000000000000000000000006F
:10019000000000000000000000000000000000005F
:1001A000000000000000000000000000000000004F
:1001B000000000000000000000000000000000003F
:1001C000000000000000000000000000000000002F
:1001D000000000000000000000000000000000001F
:1001E000000000000000000000000000000000000F
:1001F00000000000000000000000000000000000FF
:10020000FEE7FEE7FEE7FEE7FEE7FEE7FEE7FEE7C6
:10021000FEE7FEE709480068094909680A280AD18B
:10022000002908D1074802686FF070031A404FF0A8
:1002300040031A43026000F009B8000030010010CA
:1002400034010010E40E0040FFF7E4BF0B484FF00C
:100250000701884385460A48804700F019B80948D5
:1002600009490A4A884207D0521A05D0037801305A
:100270000B700131013AF9D1704700000060002095
:10028000BD040000485900000000002014000020B8
:1002900039493A480A1A02D0072291438D46384913
:1002A00038480A1A06D00722914381F309880222AE
:1002B00082F3148834483549354A00F03EF8354811
:1002C0003549364A00F039F835483649364A00F0A3
:1002D00034F836483649374A00F02FF8364837495F
:1002E000374A00F02AF837483749384A00F025F8ED
:1002F00037483849384A00F020F838483849002251
:1003000000F033F837483849002200F02EF837481B
:100310003749091A05F0D6F9364A90472448254945
:10032000884205D00268043003B4904703BCF7E765
:1003300000200021304A9047FEE7884214D0521A2C
:1003400012D003460B4313430324234206D1036810
:1003500004300B600431043AF9D17047037801305E
:100360000B700131013AF9D17047884202D0027016
:100370000130FAE7704700000060002000580020BC
:1003800000600020006000207C6500001400002058
:10039000D0000020FC030000FC030000CC5800004B
:1003A0007C65000014000020140000205C5900004F
:1003B0005C5900005C5900005C5900005C59000069
:1003C0005C5900005C5900005C5900007965000030
:1003D00038660000D0000020D0000020D0000020AF
:1003E000F4120020F4120020F4120020F412002075
:0C03F000F41A00205F020000FD03000072
:1003FC0008B500F05FFE08B101F000FE002000F02F
:10040C00ADFE002000F078FE00F016FF0028FBD0B7
:10041C0000F09CFE0028F7D001F0FCFE08B101F0C2
:10042C00EDFD4FF48041002004F0BAF808B101F062
:10043C00E5FD04F005F8144C00F0FCFD134B1449D9
:10044C00E41AE408240444F00304204604F03AFAC5
:10045C0000F076F90F49204604F034FA00F09EFBC8
:10046C000D49204604F02EFA00F0D4FB0B4920462F
:10047C0004F028FA00F024FB04F0E4F80028FBD187
:10048C0003F007FFF8E700BF08590000E058000030
:10049C005C59000067590000715900009559000023
:1004AC00024AD2F80034002BFBD0704700E0014028
:1004BC004FF0805310B5D3F830210A2A5BD1D3F812
:1004CC0044224FF08041C2F34232C1F83C25002255
:1004DC00C1F80C21C1F81021C1F83825484AD3F8CD
:1004EC000404C2F82005D3F80804C2F82405D3F894
:1004FC000C04C2F82805D3F81004C2F82C05D3F864
:10050C001404C2F83005D3F81804C2F83405D3F833
:10051C001C04C2F84005D3F82004C2F84405D3F8F3
:10052C002404C2F84805D3F82804C2F84C05D3F8C3
:10053C002C04C2F85005D3F83004C2F85405D3F893
:10054C003404C2F86005D3F83804C2F86405D3F853
:10055C003C04C2F86805D3F84004C2F86C05D3F823
:10056C004434C2F87035D1F80034DB0709D56FF08C
:10057C000103C1F800344FF08053D3F830310A2B0B
:10058C000CD14FF08053D3F834313BB14FF0804253
:10059C00D2F8E43E43F00F03C2F8E43E4FF01023D0
:1005AC00D3F80022002A03DBD3F80432002B22DA22
:1005BC00144901234FF01020C1F804351524FFF71E
:1005CC006FFFC0F80042FFF76BFFC0F80442FFF763
:1005DC0067FF0023C1F80435FFF762FFBFF34F8FAD
:1005EC0009490A4BCA6802F4E0621343CB60BFF3BB
:1005FC004F8F00BFFDE7064B064A1A6010BD00BFC7
:10060C0000C0004000E0014000ED00E00400FA05ED
:10061C00140000200090D00338B51E4A1E4C0178FF
:10062C004368A41AE4081D4A240452F82120054604
:10063C0044F003047BB91A49204604F047F92B789F
:10064C00012B12D0032B10D023B96B6813B9154BA7
:10065C0001221A7038BD1449A3F50643204651F8FF
:10066C002330124904F03BF9E9E76B68002BF1D118
:10067C00AA680F49204604F029F9AA890D49204699
:10068C0004F024F9EA890C492046BDE8384004F00E
:10069C001DB900BFE058000008590000C0610000FF
:1006AC00A0590000D000002084610000C85900004F
:1006BC00E7590000F9590000095A000010B586B03E
:1006CC000023CDE90333CDE901330593164C174BC9
:1006DC001749E41AE408240444F00304204604F007
:1006EC00F1F801AB03AA47F2100148F2100002F036
:1006FC00A5FF90B90F4903A802F076FF48F20662F5
:10070C0090420CD10C49204604F0DCF802F074FF46
:10071C000A490246204604F0D9F806B010BD00285C
:10072C00FBD001F06BFCF8E708590000E058000022
:10073C001C5A0000D8610000325A0000745A0000A4
:10074C00F0B55D485D4C5E4D8FB002F0EDFD5D4B3C
:10075C005D49E41AE408240444F00304204604F040
:10076C00B1F800232B7002F0F5FD08B101F046FC46
:10077C002B78002B7AD05549204604F0A3F812228E
:10078C00002109A805F002F809A802F065FF08B1DC
:10079C0001F034FCBDF828204D49204604F096F8B1
:1007AC00BDF82A204B49204604F090F80023CDE9EF
:1007BC000633CDE90233089306AA02AB47F21001C7
:1007CC0048F2100002F03AFF002851D104A904901D
:1007DC00486006A802F0BAFE08B101F00FFC059BB8
:1007EC003D4A03F11007154618685968164603C6AA
:1007FC000833BB423246F7D11B7833703749204659
:10080C0004F060F82A7C3649204604F05FF8EB7857
:10081C000193AB7800936B782A783249204604F028
:10082C0074F8EB790193AB7900936B792A792E49A3
:10083C00204604F06AF8EB7A0193AB7A00936B7A5A
:10084C002A7A2A49204604F060F8EB7B0193AB7BB3
:10085C00009320466B7B2A7B254904F056F806A8AA
:10086C0002F09AFE08B301F0C9FB1EE020BF7FE73F
:10087C002049204604F026F81F4906A802F0B0FED5
:10088C001E4905460246204604F020F848F206634D
:10089C009D420CD11A49204604F014F802F0ACFE2B
:1008AC0018490246204604F011F80FB0F0BD002D97
:1008BC00FBD02846D7E700BF2506000008590000EA
:1008CC00D0000020E05800007F5A0000935A00002E
:1008DC00B55A0000CD5A000018000020055B00003E
:1008EC001C5B0000285B0000435B00005E5B0000AB
:1008FC007F5B0000A05B0000D8610000B85B0000CB
:10090C00D25B0000745A000084B030B585B008ACDE
:10091C0084E80F001B4B1C489DF821409DF820508B
:10092C001A49C01A9DF824300293C0089DF8233050
:10093C00019300049DF9223000932A46234640F08F
:10094C00030003F0F0FF34B1012C10D005B0BDE86A
:10095C00304004B070470E4B0E4801221A700E4BFB
:10096C002A461C600DF1250104F0DEFEEEE70B4B70
:10097C000B481C700B4B00221A600DF125012A4606
:10098C00F2E700BFE0580000085900008E5D00003F
:10099C00DD00002015010020D8000020DC00002024
:1009AC00F5000020D400002038B501F051FEFF20E6
:1009BC0001F074FE172001F071FE082001F06EFEAC
:1009CC00074D162415F8010B013C01F067FE14F0DD
:1009DC00FF04F7D1BDE83840FE2001F05FBE00BF38
:1009EC00DF00002038B5244B1A785AB100221A7057
:1009FC00224A234B11681960516859601189927A07
:100A0C0019819A721F4B1A785AB100221A701E4A19
:100A1C001E4B11681960516859601189927A1981BD
:100A2C009A721B4B1A7862B11A4C00224FF4207048
:100A3C0044F001041A70A047FFF7B6FF4FF4207082
:100A4C00A0471548154902680B68154D0132013352
:100A5C00AA4202600B6005D9094C00222260626038
:100A6C0022720260AB4205D90E4A00231360536018
:100A7C0013720B6038BD00BFDD0000201501002093
:100A8C00DF000020DC000020F5000020EA00002040
:100A9C00DE000020F0610000D8000020D40000200F
:100AAC00A0860100E8000020FFF79CBFA0F17303B3
:100ABC0058425841014B1870704700BFDE000020AF
:100ACC0008B5094A0948012101F0D6FB08B101F02B
:100ADC0095FA07480022102101F0E0FB18B1BDE89F
:100AEC00084001F08BBA08BDB50A0000F86100009F
:100AFC00300000202DE9F0410378012B86B03CD06A
:100B0C00022B20D11F4E1F4804F022FC002831D1AB
:100B1C001D4CD6F800E0D6F804C0B268F3686D46F8
:100B2C0004F11008206861682F4603C70834444557
:100B3C003D46F7D12068386021793971704661469D
:100B4C00FFF7E2FEDFE7ABB9104A114B114812492F
:100B5C00C01A92F824300393137A0293D379019339
:100B6C0093790093C00800045379127840F0030085
:100B7C0003F0E9FE06B0BDE8F08106B0BDE8F04137
:100B8C0004F066BC35010020450100205000002017
:100B9C00E058000008590000BE5D000030B5184D4B
:100BAC000FCD87B06C460FC495E80300012384E891
:100BBC0003008DF801306846124B019304F07AFA69
:100BCC0008B101F01BFA104B187C04F0B5FC08B10D
:100BDC0001F014FA0C4804F055FC08B101F00EFABF
:100BEC000A4804F069FC08B101F008FA0848082129
:100BFC0004F07CFC08B101F001FA07B030BD00BF75
:100C0C00FC610000010B0000180000201C000020FB
:100C1C002000002008B504F0D5FB18B1BDE8084051
:100C2C0001F0ECB908BD000038B504F011FA1C4B0A
:100C3C000220C3F88000BFF34F8FBFF36F8F4FF4C8
:100C4C008061C3F88010BFF34F8FBFF36F8F4FF4E9
:100C5C008012C3F88020BFF34F8FBFF36F8F114DFD
:100C6C00C3F880010A24C3F8801145F00105C3F8CC
:100C7C0080214FF47A40A847013CFAD1FFF78EFF50
:100C8C00FFF7C8FFBFF34F8F0749084BCA6802F440
:100C9C00E0621343CB60BFF34F8F00BFFDE700BF93
:100CAC0000E100E02062000000ED00E00400FA0525
:100CBC002DE9F74F0578012D00F0AD81022D00F0E4
:100CCC009D81D5B9BD4CBE4F204601F0D1FC387882
:100CDC002378BC4ABC4C00F0FF0188B9FF2B0AD129
:100CEC000123BA483B7021701170402203B0BDE85B
:100CFC00F04F04F04BBD2170117003B0BDE8F08FC4
:100D0C00217801F0FF0079B9B1490B700B78082BF1
:100D1C0084BF387020700B78AE49CB5C137023788D
:100D2C000133DBB22370E8E721781278914240F26C
:100D3C003F81FE2B2DD1A64B93F800805FFA88F8EB
:100D4C00B8F1080F25D8DFE818F009002800690071
:100D5C008000AE00D10000010E012E0101F078FCE4
:100D6C00FF209D4D01F09AFC052001F097FC00201E
:100D7C0001F094FC287801F091FC687801F08EFC6D
:100D8C00A87801F08BFCE87801F088FCFE2001F0DB
:100D9C0085FC00233B702370C1E701F059FC8F4E9A
:100DAC008F4BDFF834A2DFF824B29E1BF608360412
:100DBC0046F003060022D1469BF800308949019287
:100DCC00304603F08CFD1BF8013B1AF8011B019A0D
:100DDC008B4202F101021CBF0AF8013C4546042A71
:100DEC00EAD11DB1FFF76AFCFFF71EFFFF2001F0EF
:100DFC0055FC052001F052FC012001F04FFC99F844
:100E0C00000001F04BFC99F8010001F047FC99F847
:100E1C00020001F043FC99F80300B5E701F018FC5F
:100E2C00FF2001F03BFC052001F038FC02206A4D4C
:100E3C0001F034FC287901F031FC687901F02EFCCA
:100E4C00A87901F02BFCE8799EE701F001FC634ED8
:100E5C00634BDFF87891DFF890A19E1BF6083604FF
:100E6C0046F003064FF00008424699F800305F49FF
:100E7C00304603F034FD19F8013B1AF8012F08F144
:100E8C0001089A421CBF8AF800300125B8F1040F02
:100E9C00EAD1002DA6D1FF2001F000FC052001F0C5
:100EAC00FDFB0320C3E701F0D3FBFF2001F0F6FBB1
:100EBC00092001F0F3FB0420474D01F0EFFB287AE9
:100ECC0001F0ECFB687A01F0E9FBA87A01F0E6FB93
:100EDC00E87A01F0E3FB287B01F0E0FB687B01F092
:100EEC00DDFBA87B01F0DAFBE87B4DE701F0B0FB02
:100EFC003A4E3B4BDFF8D490DFF8F4A09E1BF6087B
:100F0C00360446F003064FF00008424699F80030CC
:100F1C003849304603F0E3FC19F8013B1AF8012F6D
:100F2C0008F101089A421CBF8AF800300125B8F17B
:100F3C00080FEAD1002D7FF455AFFF2001F0AEFB76
:100F4C00092001F0ABFB0520B6E701F081FBFF2087
:100F5C0001F0A4FB022001F0A1FB062001F09EFB96
:100F6C001D4B187C10E701F073FB1C4B1C48174DF4
:100F7C0021492A78C01AC008000440F0030003F08D
:100F8C00A5FC2B78144D2A7C9A420AD1FF2001F043
:100F9C0085FB022001F082FB072001F07FFB287CFF
:100FAC00F2E62B741EE7094B1878FFF77FFDF0E68D
:100FBC002178064A0A4402F8013CB0E6750000208C
:100FCC00DD020020DB020020DC020020DE0200201B
:100FDC00DA0200207600002018000020E058000003
:100FEC0008590000F45D00001B000020135E000097
:100FFC001F000020325E0000535E000009480A4BBF
:10100C000A49C01AC008000440F0030003B0BDE850
:10101C00F04F03F057BC0348034B0549C01AC008F6
:10102C000004F1E708590000E0580000745E00006D
:10103C008F5E000030B5114D0FCD8BB004AC0FC4DA
:10104C000F4B009395E803004FF4807301930D4B05
:10105C000293802384E803000B4A0393694605231B
:10106C0004A801F09DFA4FF0A0430C22C3F8782796
:10107C0008B100F0C3FF0BB030BD00BF2862000008
:10108C00DA0100205A010020BD0C000038B5084BD5
:10109C00051EA3F1080214BF1C46144623682BB18D
:1010AC001A6822605B6828469847F7E738BD00BF8E
:1010BC003003002070B50D4C2578ADB90C48656037
:1010CC00A5602561E56000F07FF9064600F08AF91D
:1010DC00012384F820502370064BD3F800340BB155
:1010EC000123A370304670BD8526F5E72003002050
:1010FC00E51100000000014038B5134CA3780546FB
:10110C0003F0FF0073B115B16B6801209847002004
:10111C0001F0FEFAE3680133E3600020BDE83840DB
:10112C0001F0F8BA01F0F4FA25B1226913463BB983
:10113C002A602561E368002BECD100F065F9E9E742
:10114C009D42F7D01B68F2E7200300204FF080434C
:10115C00D3F81804C0F300407047000038B5134CA6
:10116C006378054603F0FF0073B115B16B6800207E
:10117C009847002001F0CCFA6368013363600020CB
:10118C00BDE8384001F0C6BA01F0C2FA25B1A26838
:10119C0013463BB92A60A5606368002BECD100F0C4
:1011AC0040F9E9E79D42F7D01B68F2E720030020E5
:1011BC0038B5084C002001F0ABFA6368013B636062
:1011CC00656815B900F03AF96570BDE83840002043
:1011DC0001F0A0BA2003002010B5044630B9144B1E
:1011EC0001225A70BDE81040FFF750BF012802D110
:1011FC000F4B9870F6E7022804D1BDE810400D485B
:10120C00FFF7ACBF032811D1FFF7D2FF084A00212A
:10121C0092F8203082F82010D269DBB232B1042B64
:10122C000CBF20460220BDE81040104710BD00BF87
:10123C0020030020340300204FF08043D3F80C042B
:10124C0000F00110A0F10113584258417047000002
:10125C001FB503788DF800304368019383688DF8CF
:10126C000830C368054A0393054B684653F8213090
:10127C0052F82110984705B05DF804FB4803002094
:10128C004C0300201FB503788DF8003043680193A0
:10129C0083688DF80830C368054A0393054B68468C
:1012AC0053F8213052F82110984705B05DF804FB33
:1012BC00480300204C030020F0B5194B90F800C0F7
:1012CC0091F81DE089B043F82C20164B16460A699C
:1012DC0043F82C20144B0C4603F80CE007460FCCBB
:1012EC006D460FC594E80F0085E80F00CDF810C0CF
:1012FC00BEF1000F09D0002E0C4A694608BF3246D9
:10130C00381D00F0EFFC09B0F0BD002E084A69460C
:10131C0008BF324607F10C0000F0C0FAF3E700BF3B
:10132C004C03002048030020440300205D12000001
:10133C0091120000024AD2F80034002BFBD0704707
:10134C0000E001400A4908B50223C1F80435BFF397
:10135C006F8FBFF34F8FC1F80805FFF7EBFF00232A
:10136C00C1F80435BFF36F8FBFF34F8F08BD00BFBB
:10137C0000E0014070B50E4E01231546C6F8043549
:10138C00BFF36F8FBFF34F8F0024AC4207D1002304
:10139C00C6F80435BFF36F8FBFF34F8F70BD51F894
:1013AC00243040F82430FFF7C5FF0134EDE700BFCF
:1013BC0000E0014000F18040002382B0036003682C
:1013CC000193019B02B07047054A13792BB9012197
:1013DC00106093719180184670478520704700BF4C
:1013EC0050030020074B1A68D20704D4C02283F89C
:1013FC00002301221A604FF080430022C3F8182505
:10140C00704700BF00E100E008B54FF48270FFF7B1
:10141C00D1FF4FF080430222C3F8042301229A60CB
:10142C0008BD08B54FF48070FFF7C4FF4FF0804340
:10143C000122C3F804231A6008BD00004FF080425B
:10144C00012108B54FF48070C2F80813FFF7B2FF02
:10145C005160D2F80C3403F00113B3F1011FF8D032
:10146C00014B00225A7108BD500300204FF08041FF
:10147C0010B5D1F8003163B14FF48070FFF79AFFCB
:10148C001F4B58790122C1F8082310B95A711B68F7
:10149C0098474FF08042D2F8043153B14FF4827028
:1014AC00FFF788FF0223C2F80833154B01201B6895
:1014BC0098474FF08042D2F8103153B14FF48870F6
:1014CC00FFF778FF1023C2F808330D4B02201B687E
:1014DC0098474FF08042D2F80C3183B100214FF481
:1014EC008670C2F8341CFFF765FF0823C2F8083376
:1014FC00034B9971BDE810401B680320184710BDC1
:10150C005003002000F1804000F5C040002382B061
:10151C00036003680193019B02B07047800000F1E7
:10152C00A040D0F8003723F44033C0F80037D0F88F
:10153C00003743EA0143C0F8003770472DE9F34701
:10154C0000244E4D01944FF48072012102F180432E
:10155C0003F5C0431B68012B07D1D5F804330B42AC
:10156C0003D090B2FFF7CEFF0C430432B2F5907F5C
:10157C004FEA4101EAD1414BD3F87C31012B0CD11C
:10158C004FF4BE70FFF7BEFF4FF0A04344F0004491
:10159C00D3F820250192C3F82025E3B2D3B1384FFC
:1015AC0000250126344210D0AB0003F1804303F533
:1015BC00C043D3F81005D3F8101557F8253023B1D4
:1015CC00C1F30141C0F3042098470135082D4FEABF
:1015DC004606E7D1002C48DA294C4FF0A047294D9C
:1015EC004FF00008012615F9013F5A1C31D0C3F306
:1015FC00C20108316944DAB211F8041C03F03F0946
:10160C0003F0070306FA03F3194222D009F5E0733D
:10161C00484657F82330C3F3014ABAF1020F14BFFE
:10162C0002210321FFF77AFF06FA09F3C7F82035E8
:10163C0004EB090393F9483054F823304BB191096A
:10164C00032904D0BAF1020F12D1012901D1484665
:10165C00984708F10108B8F10A0FC4D1D7F8203522
:10166C000193C7F82035002BB9D102B0BDE8F08743
:10167C00BAF1030FEDD10229E8E700BF006000408A
:10168C0058030020BF030020014B1B68184700BF04
:10169C00D003002038B50A4B98420C460CD10020E0
:1016AC0001F036F8074B1D7915B901221C601A712F
:1016BC00002001F02FF80DB9002038BD1120FCE7F7
:1016CC0000200040D0030020002382B04350435838
:1016DC000193019B02B070470A4610B54FF48E710E
:1016EC00FFF7F2FF136A9168C95C136A0133136246
:1016FC00C0F81C1510BD8B690A4610B54FF48471E7
:10170C0023B9FFF7E1FFD0F8183510BDFFF7DCFF68
:10171C00536AD168D0F81805C854536A0133536220
:10172C00F3E700001FB501238DF80030044BCDE921
:10173C000110D3E900126846904705B05DF804FB30
:10174C00D803002008B54FF49271FFF7BDFF4FF49A
:10175C008471FFF7B9FF0123036008BD30B54D4D0F
:10176C00D5F804339A0585B051D5D5F82431002B22
:10177C004DD04FF492712846FFF7A6FF4FF401733A
:10178C00C5F80833444B93F829200AB901226A6042
:10179C00404902228DF80020D1F88024C1F8802421
:1017AC0003929A690292DA6801920022C3E9062236
:1017BC006846D3E9001290473648D0F81C315BB12B
:1017CC00354A5169136A99424DD992F82830002B49
:1017DC0049D11146FFF780FF2E48D0F84431002B39
:1017EC0056D04FF4A271FFF76FFF2B4B93F82920C3
:1017FC000AB1012202609A69002A49D0586AD96854
:10180C0000229A6105B0BDE83040FFF78BBFD5F8D8
:10181C0004335B07D0D5D5F80831002BCCD01E4C47
:10182C001C482146FFF767FF636AA2699A42C3D13D
:10183C00E369E1684BB1A3612369E3600023606A4B
:10184C00E3616362FFF76EFFB6E794F829300BB9DA
:10185C0001236B600F4B4FF40172C3F80823002374
:10186C00606AA361EEE70B484FF48E71FFF72CFF13
:10187C005369002BB0D051690291002391688DF807
:10188C000030019153616846D2E900139847A3E7F1
:10189C0005B030BD00200040D80300202DE9F843EE
:1018AC00524D90F804802C2303FB0853064693F802
:1018BC002A300C469146002B40F094804C4900682D
:1018CC00FFF7E8FE0746002840F08E802168336859
:1018DC00481C0BD04FF0A04001228A40C0F80825CC
:1018EC0001F5E0724FF0030C40F822C06068421C16
:1018FC001FBF00F5E0724FF0A04C4FF0000E4CF8FB
:10190C0022E0A269C3F8242594F814C0627DBCF1CE
:10191C00010F4CEA0202C3F86C25C3F81405C3F896
:10192C000C151DD1A1684A1C1FBF01F5E0724FF0C8
:10193C00A0404FF0000C40F822C0E268501C0BD0C5
:10194C004FF0A04C01209040CCF8080502F5E07057
:10195C004FF0030E4CF820E0C3F80825C3F810151F
:10196C002C2303FB08F3EA18C2F804902269EA500E
:10197C00B9F1000F1ED03068227F4FF48E71FFF743
:10198C00A3FE4FF4A271FFF79FFE1A4BC0F804336D
:10199C0040F307335201002BD2B21EDB1649C81894
:1019AC0080F800230122580903F01F0302FA03F305
:1019BC0041F8203033680422C3F800252C2303FBA4
:1019CC0008530022C3E9062283F829205A61012218
:1019DC0083F82A203846BDE8F883084903F00F0342
:1019EC00CA54E7E70827F5E71127F3E7D8030020E7
:1019FC00691700008000020000E100E014ED00E037
:101A0C000279044B2C2101FB02335869003818BFB2
:101A1C0001207047D80300202DE9F047074690F8C5
:101A2C00049088469246FFF7EBFF0546002835D117
:101A3C001C4E2C2404FB09644FF48E71C4F814A0C2
:101A4C00206284F828003868C4F80880FFF73CFE50
:101A5C00012383602146FFF73FFE636803BB656982
:101A6C00236A9D4210D8D0F81C31002BFBD00123E7
:101A7C00C36000202C2303FB096600237361BDE8BF
:101A8C00F08794F828303BB9D0F81C31002BF8D0F3
:101A9C002146FFF721FEE3E70F20EBE71120EEE7ED
:101AAC002846ECE7D80300202DE9F0413A4C0679A2
:101ABC002C2303FB064305465F6827B103684FF4EC
:101ACC000170C3F808032C2303FB0643986950B13B
:101ADC00D869002833D027B12B684FF40172C3F8B2
:101AEC000423112029E09A61D9605862024601460C
:101AFC002C2303FB0643DA6193F829301BB911B987
:101B0C002868FFF71FFE2868002F3FD12C274FF4C1
:101B1C00A27107FB0647FFF7D7FD2868D0F82421F0
:101B2C00D0F80811D0F8443119430BD1002AF4D065
:101B3C002C2303FB064399610320BDE8F081196156
:101B4C000121D5E753EA020813D13946FFF7D3FD3B
:101B5C007B6ABA699A42E0D8C7F818802C2202FB3B
:101B6C0006442B6894F82910012269B11A600020F0
:101B7C00E3E72C2101FB064100208861002ADBD120
:101B8C00002BEBD00F20D8E75A60F0E74FF401732D
:101B9C00C0F80433EBE700BFD8030020002382B069
:101BAC00435043580193019B02B070471FB501236A
:101BBC008DF80030044BCDE90110D3E900126846D2
:101BCC00904705B05DF804FB040400207FB5434A40
:101BDC00D2F82461002E60D010464FF49271FFF7BA
:101BEC00DDFF02238DF80030D2F88034C2F8803447
:101BFC000393D2F83C350293394BDA6801920022F8
:101C0C00C3E906226846D3E9001290473348D0F85E
:101C1C00443173B14FF4A271FFF7C0FF304B9A6996
:101C2C003AB10022D0F83C05D968C3E90622FFF787
:101C3C00BDFF2A48D0F82031ABB14FF49071FFF7BB
:101C4C00ADFF0123C360264B5A6962B1D0F84C1525
:101C5C000291002299688DF8002001915A61684622
:101C6C00D3E9001290471D48D0F858319BB14FF47E
:101C7C00AC71FFF793FF1A4B5A6962B1D0F84C154F
:101C8C000291002299688DF8002001915A616846F2
:101C9C00D3E90012904704B070BDD2F81031002B7C
:101CAC00B4D04FF488711046FFF778FF0C4BD2F884
:101CBC003C0599698842A9D1DC69D96864B1D2F82C
:101CCC00005225F02005C2F800521A699C61DA60B6
:101CDC00DE61FFF76BFF99E79C61FAE7002000409B
:101CEC00040400202DE9F843574D90F80480242378
:101CFC0003FB0853064693F820300C469146002B04
:101D0C0040F09E8051490068FFF7C4FC074600284C
:101D1C0040F0988021683368481C0BD04FF0A040ED
:101D2C0001228A40C0F8082501F5E0724FF0030C3F
:101D3C0040F822C06068421C1FBF00F5E0724FF0F3
:101D4C00A04C4FF0000E4CF822E0A269C3F82425F9
:101D5C0094F814C0627DBCF1010F4CEA0202C3F886
:101D6C006C25C3F80C15C3F814051DD1A1684A1CC9
:101D7C001FBF01F5E0724FF0A0404FF0000C40F88F
:101D8C0022C0E268501C0BD04FF0A04C01209040B8
:101D9C00CCF8080502F5E0704FF0030E4CF820E08B
:101DAC00C3F80825C3F81015242303FB08F3EA181D
:101DBC00C2F804902269EA50B9F1000F2AD03068B9
:101DCC00227F4FF48871FFF7E9FE4FF49071FFF713
:101DDC00E5FE4FF49271FFF7E1FE4FF4A271FFF7AD
:101DEC00DDFE4FF4AC71FFF7D9FE194BC0F804338C
:101DFC0040F307335201002BD2B21CDB1549C81833
:101E0C0080F800230122580903F01F0302FA03F3A0
:101E1C0041F8203033680822C3F80025242303FB43
:101E2C0008550023C5E906336B61012385F8203082
:101E3C003846BDE8F883084903F00F03CA54E9E7B4
:101E4C000827F5E71127F3E704040020D91B00004D
:101E5C001003420000E100E014ED00E00279044BB5
:101E6C00242101FB02335869003818BF0120704748
:101E7C000404002001F06043B3F1005F2DE9F0474A
:101E8C0081460E46924636D190F80480FFF7E6FF65
:101E9C00044690BB1B4FD9F80020242505FB087580
:101EAC004FF490711046C5F814A0AE60FFF776FEA3
:101EBC004FF4AC71FFF772FE6B69C2F84465C2F85F
:101ECC004835012393606B68CBB9D2F82031D2F836
:101EDC0058010343F9D060B90123D360D2F85831CB
:101EEC00002BFBD0242303FB087700237B61BDE888
:101EFC00F0870F20F6E71020F9E71120F7E72046CE
:101F0C00F5E700BF040400202DE9F84301F060431D
:101F1C00B3F1005F0E466CD10779374D242303FBD8
:101F2C000753D3F80480B8F1000F04D003684FF4C2
:101F3C000471C3F80813242303FB0753996969B18F
:101F4C00D969002937D0B8F1000F04D003684FF4D9
:101F5C000472C3F804231120BDE8F8839A61DE6093
:101F6C0089462423046803FB07532046D9614FF4A8
:101F7C008871FFF713FE4FF4A271FFF70FFEC4F840
:101F8C003465C4F83825B9F1000F19D10123236049
:101F9C00B8F1000F27D1D4F81031D4F84421D4F87B
:101FAC002401134313D10028F5D0242202FB07523D
:101FBC0003209361D0E71E6111464FF00109D0E771
:101FCC00D4F8003243F02003C4F80032E0E72423B5
:101FDC0003FB07550023984218BF03209A42AB61BC
:101FEC0018BF0F20B8E74FF40473C4F80433002073
:101FFC00B2E71020B0E700BF040400201FB5002199
:10200C00039001AA44F20100CDE9011100F004F89B
:10201C0005B05DF804FB000038B572B602F0C8FCE0
:10202C0002F010FB0028FBD1104B114C114D124942
:10203C00E41AE408240444F0010002F043FCD5F84F
:10204C00F030DB0700D500BE0C4944F0020002F072
:10205C0039FCBFF34F8FEA68094B02F4E06213437B
:10206C00EB60BFF34F8F00BFFDE700BFE0580000EF
:10207C000859000000ED00E0C35E0000CF5E0000D8
:10208C000400FA0510B5034649B152B1541E14EAC6
:10209C00020006D1986019609C80D86010BD0E209B
:1020AC00FCE70920FAE710B58468C2688388121B24
:1020BC00934208D3C26813400268D154C3680133F9
:1020CC00C360002010BD0420FCE78268C3689A42FC
:1020DC000AD08268838813400268D35C0B708368D3
:1020EC00013383600020704705207047C36883600C
:1020FC000020704710B5D0E90242D1E90203A0429A
:10210C0093412CBF0120002010BD000008B50A48E7
:10211C0000F017FC094AD2E90031C018084BD3E98A
:10212C00002341F10001904271EB030303D210F143
:10213C00807041F1000108BD80000020A004002047
:10214C0098040020234B70B51E78044616B900265F
:10215C00304670BD0028FAD0FFF7D8FFD4E902232F
:10216C00904299412FD3002000F0D2FA23692BB969
:10217C004FF0FF324FF0FF33C4E90223002000F090
:10218C00C9FAD4E905309847002000F0C1FA256956
:10219C006DB1D4E90212B2F1FF3F08BFB1F1FF3FBC
:1021AC000FD0691842F10002C4E902123546002032
:1021BC0000F0B0FA002DCAD00748214602F076F89C
:1021CC00C6E70025F3E7B3F1FF3F08BFB2F1FF3FCD
:1021DC00BDD0F1E7A80400204062000037B50546E9
:1021EC000C460A4801A901F0E0FA68B10570446098
:1021FC0001A9064801F003FB10B9002003B030BD63
:10220C00034800F0A3FBF8E70420F7E72C040020B8
:10221C008000002013B5114B114918680190082358
:10222C001048582201F0AEFA044698B90E4A0F48ED
:10223C0001A900F07DFA044660B90C48012100F0B8
:10224C0063FB01230A4A0948194600F0CBFA094BF3
:10225C0001221A70204602B010BD00BF4C62000073
:10226C003C0400202C0400200923000080000020E6
:10227C00FFFF7F00A804002030B56AB103684FF05F
:10228C00FF344FF0FF355A614A1E5142C3E90245F3
:10229C0051411961002030BD0720FCE7F8B5044618
:1022AC00002017460D4600F033FAD4E90223B3F1AF
:1022BC00FF3F08BFB2F1FF3F15D1FFF727FF2818EA
:1022CC0041F10001C4E902010126002000F022FACC
:1022DC005EB12369A76103B1256121460020BDE8E9
:1022EC00F840FFF77BBF0026EFE73046F8BD000053
:1022FC00014800F026BB00BF800000202DE9F3410F
:10230C00064600F009FB40B1604AD2E9003113F1F6
:10231C00807341F10001C2E900310021304600F028
:10232C000AFB38B15A4C236823B12068FFF70AFF27
:10233C00002323600121304600F0FDFA20B1FFF7A5
:10234C00E5FE544BC3E900015348514F01A901F07C
:10235C0061FA4FF0FF344FF0FF3590B94C4D4F48B8
:10236C0001F0BBFF002800F08780D0E90223B3F115
:10237C00FF3F08BFB2F1FF3F34D1484801F0A7FF3F
:10238C00EDE70378012B17D0022B22D05BB9416803
:10239C00D1E90223B3F1FF3F08BFB2F1FF3F02D0F6
:1023AC003E4801F083FF01A93B4801F05EFA01A908
:1023BC00394801F02FFAD0E741683B68994202D1C5
:1023CC0000233B60EFE7354801F08AFFEBE7C0E9FB
:1023DC000245324801F07BFF0028F8D1304B012236
:1023EC001A70E0E7296891B12968D1E902018242AB
:1023FC008B412FD22B68D3E90223B3F1FF3F08BFE7
:10240C00B2F1FF3F03D02968244801F04FFF234865
:10241C0001F05DFFD0E902480746FFF777FE201A6E
:10242C0068EB0108012878F1000818DBB0F5350FCE
:10243C0013D3FFF75DFF1B4A02441B484FF496036E
:10244C00002100F0EFF990B92B6813B9304600F079
:10245C00C1F92F6002B0BDE8F0812246EDE71248C9
:10246C00002100F05EFA3846FFF76CFE01E00D2803
:10247C00F9D000232B6072E7054B1B68002BE9D1C8
:10248C00304602B0BDE8F04100F0A8B9A00400202D
:10249C00AC040020980400202C04002040620000B2
:1024AC00A8040020FFFFB400800000200648074A63
:1024BC0003780749D35C012213B10430FFF724BD24
:1024CC000C30FFF7F1BA00BF880000204403002055
:1024DC00D10400200648074A03780749D35C01223F
:1024EC0013B10430FFF7C6BC0C30FFF795BA00BF30
:1024FC008800002044030020D204002037B5057862
:10250C00012D05D0022D27D0002D30D003B030BDC9
:10251C00037A13B9FFF7CAFFF8E743681B4C197825
:10252C002046FFF7C0FD80B18DF800500190184B8C
:10253C0068461B689847A168E368A2885B1A9A42B0
:10254C00E8D2144B01221A70E0E7A268E3689A42C1
:10255C00F1D08DF80000EAE7C3688DF800500193C4
:10256C00FFF7A4FF0A4B68461B689847CEE70A4959
:10257C000A48FFF7AAFD20B903B0BDE83040FFF7C9
:10258C00A9BF03238DF80030ECE700BFC004002086
:10259C00D4040020D0040020D2040020B004002079
:1025AC00F0B51F46234B89B004461A600D4600292E
:1025BC003DD08A8820480968FFF764FD002834D193
:1025CC00AA89A9681D48FFF75DFD00282DD11C4E76
:1025DC000FCE6D460FC596E80F0085E80F006369B6
:1025EC000693237C174A18488DF81C70003B18BFC3
:1025FC0001238DF81430637C002B0CBF00230E23B9
:10260C008DF81530E3680293A36803932368019354
:10261C00694663680093FEF74FFE30B90B4B187098
:10262C002368013301D0FFF741FF09B0F0BD07204B
:10263C00FBE700BFD4040020C0040020B00400203D
:10264C00506200000925000088000020D004002002
:10265C0008B50548FFF74AFD20B9BDE80840034816
:10266C00FFF744BD08BD00BFC0040020B00400202B
:10267C0070B5084D014608482E78FFF726FD044634
:10268C0036B100232B70FFF711FF08B1FFF7B6FC32
:10269C00204670BDD0040020C004002010B50146B7
:1026AC000E48FFF700FD0446A8B90D480D4A037803
:1026BC00D35C63B10430FFF7D1FB60B90A4907481A
:1026CC00FFF703FD38B9BDE81040FFF703BF0C302E
:1026DC00FFF796F9F1E7204610BD00BFB0040020CB
:1026EC008800002044030020D204002072B6024A65
:1026FC001368013313607047D8040020034A136831
:10270C00013B136003B962B6704700BFD8040020C8
:10271C00FFF7ECBFFFF7F2BF0346405882B028B179
:10272C0000225A505B580193019B012002B0704764
:10273C0070B5204B4579204E43F825201F4B204A7D
:10274C0006EBC5059B1ADB08044618042B7933B13C
:10275C0040F002001B4902F0B5F8082070BD236858
:10276C000A88C3F8082594F904308A78002B4FEABC
:10277C004212D2B219DB1449CD1885F8002301227C
:10278C005D0903F01F0302FA03F341F82530637966
:10279C0006EBC3020121117140F003000B4946F80E
:1027AC00334002F08FF80020D8E7094903F00F03FB
:1027BC00CA54ECE7E4040020DC04002010590000AB
:1027CC00E0580000E65E000000E100E0085F000059
:1027DC0014ED00E0036801221A60704703680122BF
:1027EC005A60704773B501F15005AD000068ADB289
:1027FC004FF480348C400026C0F80843C0F848439E
:10280C00465101F5A8714559019522F07F42019D71
:10281C0040F82120C0F844430BB1C0F8044302B087
:10282C0070BD00002DE9F74F04680E464FF4803858
:10283C0008FA01F822F07F4506F1500704EB8602F6
:10284C00C4F84883BF00C4F80883D4F80415BFB299
:10285C009946D2F84035C2F840150022E2515B1A75
:10286C00824623F07F43E0590090012B00984FEAF9
:10287C00860B0CD1234B4FF4806043F00103984737
:10288C00DAF800400022E251E3590193019BD4F89D
:10289C000475C4F84483EB1B23F07F43012B14D144
:1028AC00184B06F5A876013544F8265043F0010381
:1028BC004FF480609847DAF80040D4F804359F4212
:1028CC001AD00D2003B0BDE8F08FA3446A1ECBF8DC
:1028DC004055D4F80415C9F1FF13521A22F07F4267
:1028EC0003F57F439342ECD332B90135CBF8405515
:1028FC00D4F804359942E3E7C4F844830020C4F8C3
:10290C000483DFE77062000003680222C3F84423EB
:10291C0009B1C3F80423704700684FF48271FFF7C4
:10292C00FBBE4FF4803303FA01F10368C3F848137C
:10293C00C3F80813704750318900006889B2FFF75B
:10294C00EBBE0368D3F804057047000090F904301F
:10295C00002B09DB5A09012103F01F03994002F1F6
:10296C004003024A42F82310704700BF00E100E028
:10297C00024B034A1B681068184700BFE404002090
:10298C00DC04002070B5064E0546002456F8043BC6
:10299C000BB1284698470134042CF7D170BD00BF09
:1029AC00E80500204388033300EB830399420BD3E3
:1029BC0082884FF6FF739A4208D0038833B180683F
:1029CC00431C584258417047022070470120704701
:1029DC0068B10268084B9A4209D14068074B98428B
:1029EC0007D00133984214BF032001207047032005
:1029FC0070470020704700BFDEC0ADDEFE011EF147
:102A0C00C21C92B240F2FE339A4230B51ED8124B21
:102A1C00187838B91C895D892C441444A4B2B4F5D7
:102A2C00806F0AD9187DA0B9988BDC8B2044104498
:102A3C0080B2B0F5806F0CD801200880142101FB06
:102A4C000033002059890A445A8130BD48F208608D
:102A5C00FBE748F20660F8E7200500200B4A0C491A
:102A6C005388142000FB0311CB6833B90420496848
:102A7C0010700122074801F073BA0749052313703F
:102A8C0002238B80012209680023F3E7080500204C
:102A9C0020050020000000201805002007B50023A9
:102AAC0005490093054A09680548082301F0ACF96B
:102ABC0003B05DF804FB00BF180500208462000021
:102ACC000000002007B5002301460093034A044888
:102ADC00082301F099F903B05DF804FB7C62000057
:102AEC000000002013B500230C4600930146084A51
:102AFC000848042301F088F938B90749142202FB6D
:102B0C00041101230B7402B010BD48F20D60FAE7FA
:102B1C0078620000000000202005002037B50A482C
:102B2C000A4B42689C881968538803250333057047
:102B3C009BB2002000909B0001EB8401044801F043
:102B4C0063F903B030BD00BF080500201805002054
:102B5C000000002010B50146044800F026FE1C229F
:102B6C000446002102F012FE204610BD480500204C
:102B7C002DE9F0410D460223154F2B80164600F52A
:102B8C00805100F108044FF001088C420ED22368EA
:102B9C0001330BD02046FFF705FF48B10EB186F884
:102BAC000080022809D14FF480632B80BDE8F081AE
:102BBC00A3683A68934200D93B602B886288033340
:102BCC0013442B806388033304EB8304DDE700BFDD
:102BDC00E405002038B5134B14220D4602FB0033DC
:102BEC005C682B6804F580518BB15C88033403EB73
:102BFC0084048C4209D22368013306D02046FFF7A7
:102C0C00D1FE012808D0022803D1002003E00834AB
:102C1C00EFE72C60012038BD6388033304EB830499
:102C2C00E7E700BF2005002043682DE9F341054686
:102C3C000E46002B46D0254AD1688B4242D31269EE
:102C4C0093423FD813F003043CD1214A01891289E5
:102C5C00914238D101689A68914234D11D494A6831
:102C6C00934203D902F5805293420ED38A69934260
:102C7C000DD902F58052934209D201233380B4FA64
:102C8C0084F0400902B0BDE8F0812346F6E748F233
:102C9C000964F4E7CDF8048001A93846FFF79AFFE0
:102CAC0030B90134A7B2022C3780F3D10020E9E708
:102CBC00019B2A6899689142EED16B60044B1B8989
:102CCC002B81DFE700244FF00008EBE70000002029
:102CDC0008050020200500202DE9F0471C461E4B5E
:102CEC001B7807468846164683B392B38CB3DFF83D
:102CFC006C904FF0140AA588012D02D948F2096096
:102D0C0022E00AFB05F319F803302BB921462846BB
:102D1C00FFF760FF18B920600135A580EBE7236849
:102D2C001FB199883A889142F0D1B8F1000F04D0C4
:102D3C001988B8F800209142E8D19A68C6E90023B6
:102D4C00074B1B8933810020BDE8F08748F20160F6
:102D5C00FAE748F20460F7E700060020200500209F
:102D6C000805002008B5074B5888191DFFF732FFDE
:102D7C0018B1BDE80840FFF7D1BEBDE80840FFF729
:102D8C006DBE00BF080500202DE9F0439D4F89B0B2
:102D9C0006463D682DB99C499C4800F03BFD054614
:102DAC0038602A78531E052B00F20A81DFE813F0F5
:102DBC00060071007100FE00FE005401E6B1944B58
:102DCC0000225A604FF406441422002103A802F09A
:102DDC00DDFC41F61D539C4208BF00243B68049463
:102DEC001A78023A042A00F2ED81DFE812F0CE01E3
:102DFC00DA01FC0104020B022B79032B1CD8DFE84F
:102E0C0003F014022A35834A1378022B1AD0137D4F
:102E1C00022B4FF0010317D114214B43D118002082
:102E2C00D0544868FFF74EFE03E001232B71FFF7E7
:102E3C0035FE002800F0E380754B00225A6048F202
:102E4C000D64C1E70023E7E7714A13700023536058
:102E5C0041F61D54B8E770497048002302222B71CB
:102E6C008A800968012201F07BF8E2E76C4B694C1F
:102E7C005B88694A14214B43E11800262E714D687A
:102E8C0010681560958848600D810221E654918088
:102E9C00C8E7B5F81490DFF87C81A6B1AA7DEB8861
:102EAC00022A06D9142101FB0981DA1C0889024483
:102EBC000A81142202FB0982C3F57F435189FD3339
:102ECC000B4453817EE7142303FB098319895C6847
:102EDC00AB7D04EB8104062B62D8DFE803F00F4CCA
:102EEC003442045864004F4A4F4900235360104643
:102EFC00AB691360FFF798FE002870D00223AB7506
:102F0C00002300930423EA182146444800F07CFF78
:102F1C00002874D048F20D64AA7DEB88022A06D9E9
:102F2C00142101FB0981DA1C088902440A8114224C
:102F3C0002FB0988C3F57F43B8F80A20FD3313441C
:102F4C00A8F80A3040E72B69002B0CBF01230323A0
:102F5C00AB750023009305F10C02042304F1080166
:102F6C00D3E70123AB750022EB8800922A699B0002
:102F7C0004F10C01C9E7032A14BF06230523AB7522
:102F8C0000230093042305F10802E118BDE7062392
:102F9C00AB75254B1988234B5868FFF7A3FDB7E792
:102FAC0048F20E64B8E741F61D54B5E7002E7FF4E5
:102FBC0009AF2B79012B39D0022B3FF449AF13B158
:102FCC0048F20E6400E702232B710DF10A01EB6845
:102FDC00039303A8CDE90466FFF726FE10B948F267
:102FEC000964F1E60498BDF80A108388EB80038825
:102FFC002B81FFF777FD044600287FF4E5AE09B07E
:10300C00BDE8F083040500200005002048050020E1
:10301C0000060020200500201805002000000020DC
:10302C0008050020F4040020F0040020DFF8DC8107
:10303C0003AA43463146A81DFFF74EFE044618B9B5
:10304C00B8F804100498D4E748F209639842C8E928
:10305C0000667FF4B9AEFBE6002E7FF4B3AE6C4B8A
:10306C001A7BAAB11E731A78013A062AA8D801A1B4
:10307C0051F822F02B310000513100006F3100006B
:10308C0075310000CD2F00007B3100008D31000028
:10309C001A78072AE7D801A151F822F0C9300000AC
:1030AC007330000073300000EF300000033100007B
:1030BC002731000027310000EB3000001A895549F8
:1030CC0001321A8100225A801A730A78B2FA82F2FB
:1030DC0052099A720A7DB2FA82F25209DA7201220C
:1030EC0007E04D4958688A884088033202448A8038
:1030FC0002221A70B7E75C88464A4749142505FB3B
:10310C0004220868546850608888108102200C6082
:10311C008880002111740622EBE70722E9E79A7AEE
:10312C0032B9DA7A8AB900221A705A805A608FE65C
:10313C00384900229A72CA68002AF2D1097C002907
:10314C00EFD05A80FFF70EFE55E70022DA72314AB3
:10315C00116A0029E7D192F82420002AE3D0012239
:10316C00EFE7FFF7DBFC46E7FFF778FC43E75A880D
:10317C00284B142101FB02335868FFF7A3FC3AE7F4
:10318C0000225A60FFF78AFC35E701228DF80C20EB
:10319C001A89ADF818209A88DB68ADF81A200593C7
:1031AC0010E002228DF80C201A89ADF818209A88AC
:1031BC00ADF81A20DA689B7D05929A1F5342534151
:1031CC008DF81C3003A8FFF7DDFB002613491448CB
:1031DC003E6000F04AFB1348012100F0A4FB0028DC
:1031EC007FF4D7AD0BE703228DF80C20DA88ADF80D
:1031FC0018201A89D0E704228DF80C20DB88ADF852
:10320C001830DFE705238DF80C30DBE7E8040020ED
:10321C0008050020200500201805002000050020CE
:10322C0048050020FC0500204068FFF7ADBD0000FC
:10323C0008B50548012100F05EFB18B9BDE808404F
:10324C00FFF7A2BD08BD00BFFC0500202DE9F3412E
:10325C001F46314B1B7806460D46002B4FD00029DC
:10326C0050D009884FF6FF7399424ED06B88002BD3
:10327C004BD06B689B074BD152B9B5F808800DF158
:10328C0002014046FFF7BCFB38B102B0BDE8F0814B
:10329C001388B2F80280ADF8023001A8FFF75AFC8F
:1032AC00002307708375BDF8023083826B6803615D
:1032BC0004460121194800F02AFB2B882381032F97
:1032CC006B88A38004BF0423A3754FF0000508BFCF
:1032DC003368E06008BFA3611148A4F806806581DB
:1032EC0001A900F08CFA36B1E36833600D4B7560C0
:1032FC001B89B5723381FFF79BFF0020C5E748F2AD
:10330C000160C2E748F20460BFE748F20360BCE723
:10331C0048F20260B9E700BF00060020E405002077
:10332C00480500200805002008B503460748026838
:10333C00042A08D00168064A42F82130012100F025
:10334C00E6FA002008BD48F20B60FBE7F805002008
:10335C00E80500202DE9F04F724F87B014220021B0
:10336C0001A802F013FA3B7803F0FF0B1BB101A884
:10337C00FFF708FB03E0381D00F0E1FA20B1002450
:10338C00204607B0BDE8F08F4FF010234FF080526D
:10339C005B691269DFF890A1591C04BF30235343B9
:1033AC00CAF810306149A3F5405300225046CAF8C0
:1033BC000C3000F0F7FC04460028E1D15C495D4874
:1033CC001C238C2200F0DEF9A1464FF003082546A1
:1033DC00DAF80C604E443046FFF7FAFA01285CD05C
:1033EC00032848D133685A1C02D0534A934234D133
:1033FC00331D06F58052196801312ED104339342E6
:10340C00F9D14E4B1A682AB902221E609A804FF0ED
:10341C00010B0BE014236B4349480221C218C15421
:10342C00484B56605D8001351181ADB244F001040A
:10343C0009F58059B9F5405FCAD1B8F1010F06D929
:10344C00E4B2062C4BD04FD814F0FD0F4CD1002316
:10345C003B7048F20A647B6092E7394A14236B4351
:10346C00D11808F1FF384E600321D1541FFA88F8A7
:10347C000135ADB2DCE7324914236B43CA18002086
:10348C00C854566003F1100208330A4430461944FC
:10349C00FFF76EFB44F00204EAE7284BBBF1000F88
:1034AC000FD0DFF89CC014226A430CEB02010220FF
:1034BC000CF802001A684A60224A088155800135CE
:1034CC00ADB221491E6000223046FFF751FB1B4B69
:1034DC009B88022B14BF082304231C43A8E7012359
:1034EC003B7000237B6042E76846FFF733FB013CEF
:1034FC00012303700A2C09D8DFE804F0060806083B
:10350C00070807080F110F000023037169460948CB
:10351C0000F075F9FFF78CFE31E70323F5E7022382
:10352C00F3E700BF0006002000000020D46200007A
:10353C005805002048050020DEC0ADDE180500202F
:10354C0020050020080500201C05002073B50D4641
:10355C000446C0B1B9B10DF10601FFF765FBA8B186
:10356C000C4BBDF806206668142000FB02300121CC
:10357C0000F0CDF963682E600C336B600123A372ED
:10358C00002002B070BD48F20460FAE748F209600E
:10359C00F7E700BF2C05002013B50446A8B10DF1C8
:1035AC000601FFF741FB98B1BDF806200B4B142127
:1035BC0001FB0233DA6872B1A27A62B1DA680020D8
:1035CC00013ADA60A07202B010BD48F20460FAE76A
:1035DC0048F20960F7E748F20560F4E7200500209F
:1035EC0002230022FFF732BE18B103230022FFF79B
:1035FC002DBE48F2046070470D4B1B7807B59BB18C
:10360C0001A8FFF7A7FA0623037001A9094800F0E7
:10361C00F6F8094B1A780AB101221A73FFF708FE63
:10362C00002003B05DF804FB48F20160F9E700BF2D
:10363C0000060020480500200805002007B5ADF85D
:10364C000600ADF804100DF1060001A9FFF744FBCC
:10365C0003B05DF804FB00003F4B1B782DE9F74FDE
:10366C000446002B71D0002872D0102200210230A9
:10367C00002602F08BF8394F03232380B046B14665
:10368C00B3464FF0010A79687A893D890192084660
:10369C001544FFF79DF9032808BF20882F4B019A8A
:1036AC0004BF00F1FF302080142000FB0630ADB2C7
:1036BC00C0684A441FFA82F9A844A289A4F8089069
:1036CC00C5F58065ADB25844AA421FFA80FB1FFABB
:1036DC0088F838BFA581A4F802B001F10805A4F858
:1036EC000A8001F58051A94224D92A68013221D0DF
:1036FC002846FFF757F9012805D0022810D0A288D8
:10370C000132A28007E0E2880132E280E289688817
:10371C0003320244E2816A88033205EB8205E2E758
:10372C00E28884F810A00132E280E289491B02EBA6
:10373C00A101E181721C022A07F114074FF0010666
:10374C00A1D1002003B0BDE8F08F48F20160F9E789
:10375C0048F20460F6E700BF0006002020050020B8
:10376C0050E8012FC2EA024240E80123002BF7D1B6
:10377C00704750E8022FC2EA224240E80223002B95
:10378C00F7D1704710B561B1B2FBF3F403FB14240D
:10379C00A4B244B9C0E9001484608281C38120467C
:1037AC0010BD0E20FCE70920FAE737B550E8013FC1
:1037BC009DB2C48925448489A54228BF2D1B048948
:1037CC00A54202BFBFF32F8F002207E0C5EA030515
:1037DC0040E80154002CE9D14FF001028DF8032090
:1037EC000193019A0A609DF8031001F0FF0321B1C7
:1037FC00006810FA82F003B030BD1846FBE708B53C
:10380C000A884B889A4203D1FFF7AAFF012008BD12
:10381C000020FCE737B550E8023F1FFAA3F5C48837
:10382C00A54202BFBFF32F8F00220DE0C4892544AF
:10383C008489A54228BF2D1BC3EA054540E80254E4
:10384C00002CE8D14FF001028DF803200193019A6E
:10385C000A609DF8031001F0FF0321B1006800EB32
:10386C00124003B030BD1846FBE708B50A884B88F8
:10387C009A4203D1FFF77DFF012008BD0020FCE731
:10388C0010B5034653E8000F0A4643E8002494F0B1
:10389C00000FF7D110BD10B5034653E8000F40EAF6
:1038AC00010243E8002494F0000FF6D110BD10B5CE
:1038BC00034653E8002F42EA010043E8000494F069
:1038CC00000FF6D110BD10B5034653E8000F00EA07
:1038DC00010243E8002494F0000FF6D110BD10B59E
:1038EC00034653E8002F02EA010043E8000494F079
:1038FC00000FF6D110BD10B5034653E8000F00EBD6
:10390C00010243E8002494F0000FF6D110BD10B56D
:10391C00034653E8002F02EB010043E8000494F047
:10392C00000FF6D110BD10B5034653E8002FA2EBE3
:10393C00010043E8000494F0000FF6D110BD012102
:10394C00FFF7A9BF0121FFF7B2BF0021FFF7BBBFF3
:10395C000021FFF7C4BF10B590B1D0E90123016875
:10396C009B1ADBB20A60013BDBB2FF2B026802D16F
:10397C000020107110BD11684C1C14600B70F2E724
:10398C000E20F7E738B504460020FEF7C1FE22688A
:10399C00616813688B4213D9591E116013F8013CEE
:1039AC00208AE56800FB0355A3685B1A1179DBB22A
:1039BC00994200D213710020FEF7ACFE284638BDA8
:1039CC000025F8E738B5054600200C46FEF7A0FEAA
:1039DC002A681368591C1160EA68A41A2A8AB4FB75
:1039EC00F2F41C70BDE838400020FEF793BE8268EC
:1039FC0010B504462AB14369016800699847002351
:103A0C00A36010BD0EB403B5039921B104AB01AA98
:103A1C00019300F06FF802B05DF804EB03B070474F
:103A2C00826830B40468551C8560A154D0E9013219
:103A3C009A4202D330BCFFF7DABF30BC70470000AB
:103A4C002DE9F84F9846DDE90A43164682460F46A3
:103A5C000A464FF00109B2420FD2C14538BFC146E8
:103A6C0013F0010B01D16CB900240125B8F1010F41
:103A7C001CD908F1FF387543F8E709F10109B2FBCD
:103A8C00F6F2E8E79B070ED5B8F1000F0CBF302516
:103A9C002025A145E9D2013C29465046FFF7C0FF3D
:103AAC00002CF6D1E0E72025F3E77543B7FBF5F3DF
:103ABC009E42FAD9DFF83880B7FBF5F3504618F878
:103ACC00031005FB1377FFF7ABFF2B46B342B5FB97
:103ADC00F6F5F1D2BBF1000F00D034B9BDE8F88F88
:103AEC0020215046013CFFF79BFF4C45F8D8F5E7E9
:103AFC008C6200002DE9F74F054690460F460029D1
:103B0C0000F04C8117F8011B49B92B7B002B00F0FE
:103B1C004581284603B0BDE8F04FFFF768BF252963
:103B2C0040F0BE80002602E046F001061F463B46F0
:103B3C0013F8011B2D29F7D0302920D02B2921D0A7
:103B4C002A291A4621D1D8F80020111D1468C8F86A
:103B5C0000101F4639782E2926D101374FF0000A64
:103B6C000A203A4612F8011BA1F1300CBCF1090FE6
:103B7C001CD800FB0A11A1F1300A1746F1E746F0F8
:103B8C000206D3E746F00406D0E7002412F8013C05
:103B9C00A3F130010929DDD80A2101FB04331746B2
:103BAC00A3F130040132F1E74FF0000A7A1C01F066
:103BBC00FB006828174602D112F8011BF7E7782999
:103BCC0009D86F290BD8632964D021D8252967D04F
:103BDC00582900F08D803B78002B93D195E77039F4
:103BEC000829F8D801A252F821F000BF7F3D00004F
:103BFC00E33B0000E33B0000113D0000E33B000011
:103C0C00E73C0000E33B0000E33B0000FD3C000010
:103C1C00642901D06929DED1D8F80020D2F80090AF
:103C2C00111D89EAE972C8F80010A2EBE9724FF095
:103C3C00010B0A21092A37DCD34538BFD3462CB1F6
:103C4C00B9F1000F01DB720700D5013CB30702D5B7
:103C5C00BAF1000F03D0F00701D454BB0024B9F122
:103C6C00000F2EDAC9F100092D212846FFF7D8FEE6
:103C7C0006F00302022A04D1BAF1000F01D124BBD1
:103C8C000024CDE9004653460A2249462846FFF750
:103C9C00D7FEA0E7D8F800301A1D1978C8F8002014
:103CAC002846FFF7BDFE96E70BF1010BB2FBF1F2D4
:103CBC00C0E7A345D3D220212846013CFFF7B0FE34
:103CCC00CBE77107D4D52B21CFE7A345D9D230212F
:103CDC002846013CFFF7A4FED1E7D8F800100A1DD6
:103CEC00C8F80020CDE9004653460A220968CDE702
:103CFC00D8F800100A1DC8F800205346CDE900463C
:103D0C001022F3E7D8F800301A1DC8F8002016F07E
:103D1C000106D3F8009024D1B9F1000F03D0484626
:103D2C0001F0D5FC0646B4421DD809F1FF3919F84B
:103D3C00011F00293FF44FAF2846FFF771FEF6E74D
:103D4C0028460136FFF76CFE19F806100029F7D14A
:103D5C00A642BFF440AF20212846013CFFF760FE8D
:103D6C00F6E70026F0E720212846013CFFF758FE35
:103D7C00D9E7D8F800301A1DC8F8002030212846A1
:103D8C001C68FFF74DFE78212846FFF749FE0022FC
:103D9C000823CDE900322146102277E703B0BDE8B5
:103DAC00F08F00BF13B50B46114680B9104B11486C
:103DBC00114AC01A0E23C0080093104B000410497E
:103DCC0040F0010000F095FD0E2002B010BD4BB983
:103DDC00074B08480B4AC01AC0080E230093000476
:103DEC00064BECE703601B6802B0BDE810401847B7
:103DFC00E0580000205900001A5F0000C262000069
:103E0C001F5F00004E5F00002DE9F743DDF82880AE
:103E1C0088B9474B4748484AC01A0E23C00800933C
:103E2C00464B000440F00100454900F062FD0E20B5
:103E3C0003B0BDE8F0834AB93D4B3E48414AC01A35
:103E4C00C0080E23009300043C4BEBE7D0F800E0D5
:103E5C00BEF1000F0FD1364B36483B4A3849C01AD9
:103E6C00C0080824000440F00100344B009400F01A
:103E7C0040FD2046DCE77BB92D4B2E48334AC01A57
:103E8C000923C00800932D4B000440F001002C497D
:103E9C0000F02FFD0920CBE74768D7F80490B3FB5F
:103EAC00F9F709FB17374FB1214B2248284AC01AA2
:103EBC00C008092300930004204BE6E78F070FD0BE
:103ECC001B4B1C48234AC01A1023C00800931B4BE1
:103EDC00000440F001001A4900F00BFD1020A7E788
:103EEC0012F0030F09D0124B12481B4AC01AC0081B
:103EFC00102300930004114BEBE7C768B9420DD3B4
:103F0C0005694C1E1C44AC4208D8CDF82880DEF85C
:103F1C000C40A44603B0BDE8F0436047044B054891
:103F2C000E4AC01AC008102300930004034BD0E7BC
:103F3C00E0580000205900001A5F0000AF6200003A
:103F4C001F5F00009C5F0000485F00005B5F00008B
:103F5C00A25F0000CC5F0000E45F0000076000007F
:103F6C00F7B580B92D4B2E482E4AC01AC0080E2426
:103F7C002D4B009400042D4940F0010000F0B9FCD9
:103F8C00204603B0F0BDD0F800C0BCF1000F09D141
:103F9C00224B2348264AC01AC0080824224B0094FE
:103FAC000004E8E74AB91D4B1D48224AC01AC00854
:103FBC0009241D4B00940004DDE74768D7F800E0A6
:103FCC000EF1FF370F420FD0144B15481A4AC01A86
:103FDC001023C0080093144B0004144940F0010056
:103FEC0000F087FC1024CBE7C768B9420CD30569F5
:103FFC004C1E0EFB0244AC4206D8DCF81040A44622
:10400C0003B0BDE8F0406047044B05480B4AC01AAA
:10401C00C008102300930004034BDEE7E0580000B7
:10402C00205900001A5F00009C6200001F5F000016
:10403C00485F00005B5F00002E60000054600000D1
:10404C00014B436000207047F46200000846704743
:10405C0000207047024B1868003818BF01207047C9
:10406C000806002008B50248FFF772FC002008BDC6
:10407C000806002008B510461A4601F055FB002032
:10408C0008BD00002DE9F041804686B011480F466E
:10409C0016461D46FFF753FC0446C8B9AA0831461C
:1040AC003846FDF767F90B48FFF752FCD8F8083093
:1040BC0053B101228DF800200C9A0592CDE90147ED
:1040CC00CDE9036568469847204606B0BDE8F08107
:1040DC001124F9E7080600202DE9F043814687B04A
:1040EC0014480E4615469846FFF729FC0446F0B9CD
:1040FC000746BD4215D10F48FFF72AFCD9F8083006
:10410C005BB102228DF800200022CDE90126CDE919
:10411C000325CDF8148068469847204607B0BDE8C3
:10412C00F08306EB0730FDF70DF90137E1E71124B9
:10413C00F3E700BF080600202DE9F84FB0F806A001
:10414C004579D2F800B09DF828900AFB05F5043D9E
:10415C0088460BEB0301A94203F1040488BFA5EBCD
:10416C00030BB4FBFAF607460AFB1644C2F800B080
:10417C004EB9AAEB04055D4528BF5D46BBF1000FA7
:10418C0004D1BDE8F88F3F68013EF1E7043408EB39
:10419C0006003C442A46B9F1000F0DD02146ABEB8A
:1041AC00050B01F0C1FADA452E443F6855464FF035
:1041BC00000428BF5D46E1E701462046EFE7FFF724
:1041CC00CABBF8B546790146721E054600239342D8
:1041DC002D6803D30024A64202D8F8BD0133F6E7BC
:1041EC000F682846FFF7EEFB01343946F3E72DE95B
:1041FC00F041078ACD1C0646FFF7C4FB043F3D4443
:10420C000446B5FBF7F5D0B14FF48073EDB2C7801F
:10421C008380013D066080460027AF4210D23046B5
:10422C00FFF7B0FB40B16379013363710137C8F814
:10423C00000006608046F0E72046FFF7C2FF00242E
:10424C002046BDE8F08101210430FFF760BB10B5BA
:10425C00012104460430FFF766FBC0B220B92046AA
:10426C00BDE81040FFF7ADBF10BD1FB50392002293
:10427C00009203AAFFF760FF05B05DF804FB1FB5C1
:10428C0003920122009203AAFFF756FF05B05DF8D6
:10429C0004FB20BF40BF20BF7047836800225A60D8
:1042AC00C3E904229A60DA601A60704770B54468FA
:1042BC0006460D46206820B1B36829469847236806
:1042CC0018B923682B60256070BD1C46F2E7436863
:1042DC00186808B102681A6070474368186870471C
:1042EC004368186800B970471A688A4203D10A6893
:1042FC001A60012070471346F3E7704707B5054B6A
:10430C000093054A4FF4807300F039F803B05DF860
:10431C0004FB00BF294300000C0600202DE9F843E4
:10432C0089461446D2B1124F124D03264FF00008A5
:10433C0047F00107224609EB0801002001F08EF935
:10434C008044241A78B92B7843B14FF47A40B8479B
:10435C004FF47A40B847013E02D12E70BDE8F88385
:10436C0001232B70E6E701232B70002CE2D1F5E73B
:10437C00006300000C070020704701F09BB9F0B5FA
:10438C0095B01D46164608460C46FFF75CFF1A9B77
:10439C000D93CDE9086500252B46082205A920467A
:1043AC000A958DF82C500C95FFF769FF079B02932B
:1043BC00069B03939DF814308DF8115003F0030203
:1043CC00012A1DD1BDF81450059EC3F3C203C5F3D9
:1043DC0083158DF81030AA0008230EA92046FFF78C
:1043EC004EFFC6F3952608AB00932A4602AB0EA9E6
:1043FC00304600F04BFB2046FFF729FF15B0F0BD0F
:10440C00022AF8D1BDF81650C3F3C203C5F38915BF
:10441C008DF810300827082D2E4628BF08263B465D
:10442C0032460EA92046FFF72AFFAD1B08AB02AAA5
:10443C0031460EA8374400F08DFB002DEBD1DAE7A6
:10444C0008B5FFF79AFF0448042100F08FFA034BDC
:10445C0001225A7108BD00BF385900009C00002091
:10446C00037813F0040215D003F00303012B03D0DF
:10447C00022B09D0012070470B6802880233C2F36B
:10448C00831213440B60F5E70B684288023303EB8D
:10449C009213F7E7104670472DE9FF413C4C8846D4
:1044AC000546861C00201746FEF732F96268C8F8EC
:1044BC000020A36803F580739B1A9E4216D8002235
:1044CC00002F61D005F00F05AD0145F0050565F332
:1044DC000F026168CBB203330E44002044F8232052
:1044EC00666004B0BDE8F041FEF714B9012129481B
:1044FC00FFF70DFA2848FFF725FA2848FFF722FAAC
:10450C00A0680090C0B2033004EB80006946FFF74E
:10451C00A7FF009AD3B200BB04EB8303911CDB68AA
:10452C0001930132D2B204EB820203F00303012B9C
:10453C00D268009120D0022B13D080461748FFF789
:10454C0004FA08B1009BA36012484146FFF7DFF95B
:10455C00A368626803F58073AEE7033304EB830052
:10456C00D4E7BDF80630C3F3891303334FEA12487E
:10457C0001EB93030093E1E7BDF80430C3F383131D
:10458C004FEA12480B44F5E7AD0545F00602A0E7EB
:10459C00100700202C0B0020280B0020240B0020DF
:1045AC00064B074810B500221A70FFF708FE0446A8
:1045BC0010B90448FFF771FE204610BD100700200B
:1045CC00CC5800001463000030B50A4C71B10A4B92
:1045DC000A491B1BDA0800239A4201D1002030BD86
:1045EC0031F82350854202D00133F5E7034654F8E5
:1045FC003300F4E7E05800003859000014000020A4
:10460C00094B013903EBC000032909D8DFE801F09D
:10461C00020A0406022070470079704740797047FF
:10462C000020704704207047E058000070470000DD
:10463C00034BD3E90130C31A58425841704700BFAD
:10464C00100700202DE9F04385B0FFF7F1FF00289B
:10465C007CD1724CC4F81804BFF34F8FA068009043
:10466C00C0B2033004EB80006946FFF7F9FE009BF3
:10467C0018B1D4F81824002A64D0DAB29F1C013384
:10468C0004EB8202DBB204EB8303D268DB68029397
:10469C0002F00303022B0192009760D1BDF80630A3
:1046AC005F48C3F389184646502E28BF502666F340
:1046BC008F1306F10801ADF80630FFF798FD05469B
:1046CC00002800F09580FFF7BEFD002301A9082209
:1046DC002846FFF7CAFDFB43DBB20133F9B20331C5
:1046EC00B6EB830F4FEA830904EB810134D908231D
:1046FC004A46A6EB09062846FFF7B7FDF6B249492C
:10470C0009F10803324608F10308284607EB98071D
:10471C00FFF7ABFD0097D4F81834002B54D1D4F824
:10472C001064002E59D12846FFF791FD3046FDF755
:10473C00EFFFD4F818340BB9009BA3600020FDF7F1
:10474C00E9FF44E062689A4204D8A260002005B0F8
:10475C00BDE8F083D8B284E708233246D3E7012BB7
:10476C0046D1BDF804302E48C3F38311062928BF67
:10477C00062161F38913023101F00F018900ADF8B4
:10478C000430FFF734FD054690B3FFF75CFD0023C2
:10479C00082201A92846FFF768FD0026BDF8042071
:1047AC00C2F38312B300B24203F10803B3D90099E8
:1047BC004A1CC9B20331009204EB81010422284641
:1047CC00FFF753FD0136E9E72846FFF740FDFFF7F9
:1047DC002FFF80F00100C0B2B9E7F3685B7923B119
:1047EC00336829461B6830469847F3681E6898E77B
:1047FC00D4F8104454B90C4B0C480D49C01AC008DD
:10480C00000440F0020000F05DF8E0E72368204669
:10481C009B689847E3681C68ECE700BF1007002012
:10482C00CC5800001C070020E0580000085900007C
:10483C00D26000002DE9F34704460E461846914617
:10484C0001A901229A46FFF727FE019D1B4FAB1CC5
:10485C004FF00008D04508EB030125D11848002182
:10486C00FFF70EF880F310006B1C000440EA1440B4
:10487C00DBB2E40007EB830304F03804EDB244F040
:10488C000104D860033544EA88143B7844EA862452
:10489C0047F825401BB1FFF7D5FE0028FBD1FFF7E9
:1048AC00C5FE02B0BDE8F087C9B207EB810159F82B
:1048BC002820CA6008F10108CCE700BF10070020CF
:1048CC002C0B002000231A46FFF7B4BF07B50123B9
:1048DC00019201AAFFF7AEFF03B05DF804FB07B528
:1048EC00CDE9002302236A46FFF7A4FF03B05DF86D
:1048FC0004FB1FB5CDE90123069B039301AA0323F7
:10490C00FFF798FF05B05DF804FB1FB5CDE9002358
:10491C00069B0293079B03936A460423FFF78AFFC7
:10492C0005B05DF804FB7FB5CDE90123089B03932B
:10493C00099B04930A9B059301AA0523FFF77AFFB1
:10494C0007B05DF804FB7FB5CDE90023089B02930B
:10495C00099B03930A9B04930B9B05936A460623BE
:10496C00FFF768FF07B05DF804FB000030B50F4C93
:10497C00D4F8102403460020114631B9D9680871C7
:10498C007AB9C4F810340A600AE0C9680D79A842F3
:10499C0001D00968F1E701300A28EDD14FF0FF3062
:1049AC0030BDD26814680C601360F9E71007002062
:1049BC0038B5084B0125D3F810441D7004B938BD27
:1049CC00E3685D71236820465B689847E3681C6860
:1049DC00F4E700BF1007002010B5037A052B0C4636
:1049EC000FD0437A23B1084A08492046FFF70AF84A
:1049FC0007492046FFF706F82046BDE81040FEF7B1
:104A0C00F6BF002AF8D0F3E7E7600000EC60000086
:104A1C000C610000C38873B504460D4633B1144ACB
:104A2C0000921449144A2846FEF7ECFF217A052916
:104A3C001CD0637A4BB1A088FFF7E2FD0F4B1049F5
:104A4C0053F820202846FEF7DDFF227A0D4BA08874
:104A5C0053F822600021FFF7B7FD0B49034632469D
:104A6C00284602B0BDE87040FEF7CCBF02B070BD66
:104A7C00E7600000F7600000EF60000020630000BA
:104A8C00EC600000446300000F6100002DE9F0436E
:104A9C0085B01F460C9D002395F80C902B73064691
:104AAC000C46904629463846FFF7B4FFB8F1060F7E
:104ABC0009D8DFE808F00412181F283340003146EB
:104ACC002846FEF79FFF002229463846FFF784FF51
:104ADC0085F80C9005B0BDE8F08322683146284675
:104AEC00FEF790FFEFE7D4E9002331462846FEF7A6
:104AFC0089FFE8E7A3680093D4E9002331462846F0
:104B0C00FEF780FFDFE7E3680193A3680093D4E925
:104B1C00002331462846FEF775FFD4E7236902933C
:104B2C00E3680193A3680093D4E900233146284637
:104B3C00FEF768FFC7E76369039323690293E36891
:104B4C000193A3680093D4E9002331462846FEF76D
:104B5C0059FFB8E708292DE9F04780460E4617465D
:104B6C001C4635D8002593F80C901D731946104639
:104B7C00FFF750FFAE422DD918F805201B492046EF
:104B8C00FEF740FF0135082DF4D119492046FEF7F8
:104B9C0039FF4FF0000A564523D918F80A507E2DDC
:104BAC001DD8284600F042FE002814BF2A462E22AB
:104BBC0010492046FEF726FF0AF1010ABAF1080F48
:104BCC00E9D1012221463846FFF706FF84F80C9004
:104BDC00BDE8F08708492046FEF714FFD2E72E22E5
:104BEC00E6E706492046FEF70DFFE5E7EE5D00001F
:104BFC001D6100001F610000196100001B610000B5
:104C0C000649074BC1F81435064B5A7C064B013A42
:104C1C0043EA0243C1F81835704700BF001000404A
:104C2C0006000300A800002020000001074A084BE2
:104C3C00C2F81435074B5B7C013B40EA034343EA63
:104C4C00002040F08070C2F818057047001000403A
:104C5C0000010100A80000200F4B10491A7AC1F87E
:104C6C001025042A16D8DFE802F00E03150E0300F7
:104C7C000B4A302111600A4998890A683E329042E9
:104C8C0004D301207047064A4921F3E70A683E32F3
:104C9C009A81F6E700207047401000200010004079
:104CAC00A00C0020044A0023C2E908339362034A93
:104CBC00C2E9083393627047EC0E0020980D002077
:104CCC0038B5104D104C2B68C4F800320F4A104BFD
:104CDC00D07C1B6898470F4BC4F804350023C4F8EC
:104CEC00103101232361D4F81031002BFBD00023A9
:104CFC00C4F810312B6843F00403C4F800320123CC
:104D0C00636038BDA400002000100040401000205B
:104D1C00980C0020540D00200B4B0C4A1B6810B54E
:104D2C000B4C43F00403C4F800320A4BD07C1B68D4
:104D3C009847094BC4F80435084B094A1A60094BCB
:104D4C0004221A7010BD00BFA400002040100020E7
:104D5C0000100040980C0020540D00209C0C0020EA
:104D6C00254E0000601000202DE9F0411B4BDFF8B0
:104D7C0070801A78012A07460E4624D198F8002034
:104D8C00202A29D8174B1C6A53F824502A7016492C
:104D9C00681D00F0C9FC154B6F70D3F84835AB702B
:104DAC0098F801302E71DB4303F00103EB700D4BCF
:104DBC0001349A6A082C28BF002401321C629A62C2
:104DCC000120BDE8F08107495A780C6A51F824504B
:104DDC00002ADBD0DA7CD9E70020F2E74010002073
:104DEC00540D0020980D0020560D0020001000409E
:104DFC0007498B6893FAA3F3064A1BBAC2F8243509
:104E0C00CB6893FAA3F31BBAC2F82835704700BFDE
:104E1C00A8000020001000402DE9F84F664BD3F895
:104E2C0000241AB9BDE8F84FFFF74ABFDFF88CA190
:104E3C00DAF82820072AF5D8D3F80824604DDFF8D3
:104E4C008491D3F80C0435F8223099F8014098423B
:104E5C004FEA54014FEA820603D1AB199B788B427F
:104E6C002CD04FF001080023A81981705249D1F8B9
:104E7C000C0425F822005448027D1AB3E20721D411
:104E8C00FFF71EFFB8F1000F16D04B4BD3F80804F8
:104E9C00DAF82830072B0FD83544C0B2A978FFF7C1
:104EAC0063FF48B1494A136843F004031360484B4D
:104EBC004FF48012C3F80021BDE8F88F4FF00008C2
:104ECC000123D1E7434A444F126842F00802C1F86B
:104EDC0000220478002C66D0012C45D1DFF8FCC0F0
:104EEC00DCF82820002A55D0D1F808443C4850F86A
:104EFC002440002C4ED0D1F80844DFF8E8B050F82C
:104F0C00244005EB060E24689EF803E0CBF8004025
:104F1C00BEF1000F15D0A3B9D1F8081450F82140F8
:104F2C00013A2371A46840F82140CCF828204AB3F8
:104F3C0004B12468254ACBF80040136843F0010300
:104F4C001360294B1A68AB19F4B10121D970207880
:104F5C009047DBF80010254811F8052B3A7000F04B
:104F6C00E3FB99F801307B70214B05221A70124B30
:104F7C00D3F80824C3F82C25C3F804751D4B1E4A1E
:104F8C001A607FE71C46D5E7DC7020469047124B31
:104F9C001C70E6E7AB190024DC70134B20461B6831
:104FAC0098473C70DDE7104B20461B68984799F8F2
:104FBC0000303B707C70D7E700100040980D00204B
:104FCC00A80C0020540D002040100020D00C002014
:104FDC0000E100E0A4000020760D0020EC0E002083
:104FEC00D40C00205C100020980C0020780D0020C0
:104FFC00601000209C0C0020254D0000124BD3F8B3
:10500C00002132B1D3F80423D00744BF0022C3F8E7
:10501C000021D3F80C2132B1D3F80423110744BF7B
:10502C000022C3F80C21084BD3F8102152B1D3F84D
:10503C000423D20606D50022C3F81021034B1B68AB
:10504C0003B11847704700BF001000409C0C0020B3
:10505C00114B12484FF4705210B5C3F80825104B81
:10506C0000241C700F4B21461C70FFF71BFE2022E6
:10507C0000F08CFB0C4B1C605C600C4B4FF48012F2
:10508C00C3F88020BFF34F8FBFF36F8F084B032201
:10509C00C3F80022204610BD00F00140A80C0020EF
:1050AC006010002061100020C80C002000E100E01E
:1050BC00001000402DE9F0410446002800F0D98092
:1050CC006E4D2B780BB1FFF7C3FF6D4B62681A6006
:1050DC006C4A234604F1180714461868596816469A
:1050EC0003C60833BB423246F7D10027664B6748EC
:1050FC001F602022394600F049FB654BDFF8948194
:10510C001F605F60A37AC8F80C35FFF7A5FD237804
:10511C00614A0646002B00F08E80012B40F08D80FA
:10512C005E4B1360637A012B00F09580022B00F02C
:10513C008680002B00F0978000261368E07C98474F
:10514C00002E00F09880534B554956484FF0E732EB
:10515C00C3F81C254FF04332C3F82025524AC3F83C
:10516C002425524AC3F82825FFF79CFD0A46002344
:10517C000133082B40F8042B02F12502F8D14C4ADC
:10518C004C4800230133082B40F8042B02F1250274
:10519C00F8D10022484B16460132082A19601E71BC
:1051AC009E6001F1250103F10C03F5D120220021B1
:1051BC00424800F0EBFA424A42490423C2F8103547
:1051CC0040F20223C2F80865C2F800323E4BC3F825
:1051DC006015C3F86425A2F50E42FC3AC3F86825A5
:1051EC0002F50F420C32C3F86C2502F59872C3F825
:1051FC007025A2F51142303AC3F8742502F511421C
:10520C003432C3F87825234AC3F87C25637C2F4AB3
:10521C005B01DBB282F80133A37C5B01DBB282F869
:10522C0014334FF480131360294B1E7001232B7021
:10523C000020BDE8F081274B73E73E4672E7154925
:10524C004FF6FF70C1F83C052348C1F838051149E9
:10525C00C1F8343571E7FF21C8F83C1540F207114D
:10526C00C8F83815F3E70B49C1F83C35C1F83835A7
:10527C00EDE70E20DDE70720DBE700BF6110002023
:10528C005810002040100020D00C0020A80C00204A
:10529C00C80C002000100040980C00200D4C0000A1
:1052AC00180F0020EC0E0020E743C323A363E31385
:1052BC00C40D0020980D0020F40C0020D40C00200C
:1052CC0000A000400011004000F0014000E100E0AF
:1052DC0060100020394C00002110010037B5174B2D
:1052EC001B680193164B1B782BB3164B0221C3F88A
:1052FC008010BFF34F8FBFF36F8F134800220568E8
:10530C0002601960114C2368ABB1E90703D58DF825
:10531C00002068469847AA0705D501238DF8003070
:10532C006846236898476B0705D502238DF8003033
:10533C0068462368984703B030BD00BFA40C00201A
:10534C006110002000E100E0D00C0020581000207B
:10535C00194B1B7870B54BB350B3184CA36A4BB3B5
:10536C00174D0226C5F88060BFF34F8FBFF36F8FC8
:10537C00636A54F823100A7802704B78437091F9E1
:10538C00023083700B790371CB78C3700531053013
:10539C0000F0CAF9636A0133082B28BF002363624B
:1053AC00A36A013BA3622E60002070BD0820FCE7BD
:1053BC000E20FAE70520F8E761100020980D002078
:1053CC0000E100E010B51A490B7803F0FF0063BB55
:1053DC00184B194C4FF0FF32C3F80823174AC3F887
:1053EC0010011460164A126842F00402C3F800223D
:1053FC001022C3F8042304220A70124A917CC3F8C9
:10540C003015D27CC3F808250F4AC3F804250F4A7F
:10541C000221C2F8801111600122C3F80401C3F803
:10542C000801C3F810015A6010BD1120FCE700BF41
:10543C006010002000100040254E00009C0C002045
:10544C00A4000020A8000020540D002000E100E082
:10545C00094B1B7873B1094A0221C2F88010BFF3C3
:10546C004F8FBFF36F8F064B00209862C3E9080083
:10547C0011607047082070476110002000E100E0C7
:10548C00EC0E0020094A1278034602F0FF004AB9DC
:10549C0053B1074A1B68136093FAA3F3054AC2F889
:1054AC001C357047112070470E207047601000208B
:1054BC00A800002000100040094A1278034602F0B0
:1054CC00FF004AB953B1074A1B68536093FAA3F320
:1054DC00054AC2F820357047112070470E207047DE
:1054EC0060100020A80000200010004038B50F4BC1
:1054FC001B780C4603F0FF0593B998B1082913D813
:10550C000A4601460A4800F00FF90A4AFF231474B0
:10551C00C4F1080423419374FFF76AFC284638BD94
:10552C001120FCE70E20FAE70720F8E760100020B6
:10553C00B0000020A8000020074A1278034602F0B1
:10554C00FF0022B9642B04D8044AD374704711208D
:10555C0070470720704700BF60100020A800002093
:10556C000369C26893429CBF81685B18013B981A1F
:10557C0070472DE9F041D0E902840546A8EB0406FA
:10558C004068964220440F46144404D900F0CCF8ED
:10559C00EC60BDE8F0813246A4EB080400F0C4F8DE
:1055AC0068682246B919F1E72DE9F843C568064643
:1055BC00894617464FF000083369B46870689D42FD
:1055CC0028BF1B19641BBC4203F1FF3328BF3C46A8
:1055DC005B1B9C4228BF1C4649462844224600F0CF
:1055EC00A3F8B3682544AB4208BF00253F1BA04479
:1055FC00A144F560E0D14046BDE8F8831149124A58
:10560C00022310B5C1E90433104B8A61CB618A6463
:10561C004FF400730E4A0B620C460023CA6410222E
:10562C008B624B62CB628B654B65CB650A65E01D6B
:10563C00084900F061F80849204600F05DF8202385
:10564C00A37110BD741200206D6100007210002057
:10565C0062100020766100007A610000F8B5144BEE
:10566C00182700FB07751D4407FB00330E46DB6A49
:10567C00012B14460AD0022B14D023B92846FFF76D
:10568C006FFF844208D900242046F8BD2846FFF756
:10569C0067FF844228BF0446224631462846FFF75E
:1056AC0068FFF1E72846BDE8F840FFF77DBF00BF73
:1056BC0074120020FFF7A2BF082907D341F2EC2295
:1056CC00C2F2000210600022C0E90021704701788C
:1056DC0081B100214FF001324358C2FA53F3043127
:1056EC00002BF9D093FAA3F0B0FA80F001EBD000C4
:1056FC0004387047002070470246F0B44FF0013771
:10570C00FB0151F8044BE51BA5431D4002D142F8A7
:10571C00044BF6E70439F0BC11F8013B02F8013BED
:10572C00002BF9D1704700BF5AB3844690EA0103AD
:10573C009B071FD1830707D011F8013B00F8013BF1
:10574C00013AF7D11CE08446203A09D32DE9F00741
:10575C00B1E8F807A0E8F807203AF9D2BDE8F0075D
:10576C001C3205D451F8043B40F8043B043AF9D2FE
:10577C00043205D011F8013B00F8013B013AF9D194
:10578C006046704700220B0011001A0084465AB381
:10579C00830704D000F8011B013AF9D124E0C9B207
:1057AC0041EA012141EA0141202A11D3203A2DE995
:1057BC00F0030B460C460D460E460F4688468946AE
:1057CC00A0E8FA03203AFBD2BDE8F00320320BD05C
:1057DC00042A05D340F8041B043A05D0042AF9D254
:1057EC0000F8011B013AFBD160467047844600204B
:1057FC00002918BF002A0ED0097848B200280BD413
:10580C00BCF1000F18BFCCF800100021C3E9001147
:10581C00002818BF012070476FF0010070477F29E6
:10582C008EBF6FF0010001700120704741F2F02132
:10583C00C2F200010968002904BF40F2BC01C2F2A7
:10584C000001496889680A68092110477F280BD82C
:10585C0046F2EC42C0F20002105C46F26C52C0F20E
:10586C000002515C0840704700207047A0F16101B4
:10587C001A2938BF20387047A0F141011A2938BFC6
:10588C0040F0200070477F280BD846F2EC42C0F263
:10589C000002105C46F26C52C0F20002515C0840EF
:1058AC00704700207047A0F161011A2938BF2038D9
:1058BC007047A0F141011A2938BF40F02000704711
:1058CC00C80B0020900C0020980C0020D00B00205E
:0458DC0018000000B0
:1058E000A75E000000000000AD5E000000000000A8
:1058F000B45E000000000000B85E00000000000080
:10590000BD5E000000000000E36000000000030333
:10591000DC5E000000000000A15E0000000000004E
:10592000A360000000000303B0600000000000005E
:08593000B96000000000000056
:105938000863000000000000C26000009C00002016
:1059480000000000000000003532000000000000E8
:04595800000000004B
:10595C005541525420494E49540A0046445320495B
:10596C004E49540A00456E68616E63656420536845
:10597C006F636B42757273742052656365697665EB
:10598C007220494E49542E0A0045534220537461EB
:10599C0072740A001B5B313B33326D4576656E7455
:1059AC003A20257320726563656976656420284EFC
:1059BC0052465F5355434345535329001B5B313BC0
:1059CC0033326D4576656E743A20257320726563AB
:1059DC0065697665642028257329005265636F72AA
:1059EC00642049443A093078253034780046696C93
:1059FC00652049443A093078253034780052656383
:105A0C006F7264206B65793A0930782530347800F0
:105A1C004553422064617461205570646174696EF1
:105A2C00672E2E2E2E004E6F2073706163652069D9
:105A3C006E20666C6173682C2064656C65746520DF
:105A4C00736F6D65207265636F72647320746F2061
:105A5C007570646174652074686520636F6E666927
:105A6C00672066696C652E006664735F67633A2015
:105A7C00256400496E697469616C697A696E672086
:105A8C006664732E2E2E0052656164696E67206603
:105A9C006C617368207573616765207374617469D8
:105AAC0073746963732E2E2E00466F756E642025F9
:105ABC00642076616C6964207265636F7264732E06
:105ACC0000466F756E6420256420646972747920B9
