:10000000006000204902000001020000030200001D
:1000100005020000070200000902000000000000C5
:100020000000000000000000000000000B020000C3
:100030000D020000000000000F020000110200008D
:10004000991400009D500000B51600001302000036
:1000500013020000000000006915000013020000F8
:10006000130200001302000013020000130200003C
:10007000130200001302000013020000130200002C
:1000800013020000A1290000130200001302000067
:100090008953000013020000130200001302000045
:1000A0001302000013020000000000000000000026
:1000B0001302000013020000000000000000000016
:1000C0000000000000000000000000000000000030
:1000D0000000000000000000000000000000000020
:1000E0000000000000000000000000000000000010
:1000F0000000000000000000000000000000000000
:1001000000000000000000000000000000000000EF
:1001100000000000000000000000000000000000DF
:1001200000000000000000000000000000000000CF
:1001300000000000000000000000000000000000BF
:1001400000000000000000000000000000000000AF
:10015000000000000000000000000000000000009F
:10016000000000000000000000000000000000008F
:10017000000000000000000000000000000000007F
:10018000000000000000000000000000000000006F
:10019000000000000000000000000000000000005F
:1001A000000000000000000000000000000000004F
:1001B000000000000000000000000000000000003F
:1001C000000000000000000000000000000000002F
:1001D000000000000000000000000000000000001F
:1001E000000000000000000000000000000000000F
:1001F00000000000000000000000000000000000FF
:10020000FEE7FEE7FEE7FEE7FEE7FEE7FEE7FEE7C6
:10021000FEE7FEE709480068094909680A280AD18B
:10022000002908D1074802686FF070031A404FF0A8
:1002300040031A43026000F009B8000030010010CA
:1002400034010010E40E0040FFF7E4BF0B484FF00C
:100250000701884385460A48804700F019B80948D5
:1002600009490A4A884207D0521A05D0037801305A
:100270000B700131013AF9D1704700000060002095
:10028000C1040000F059000000000020140000200C
:100290003A493B480A1A02D0072291438D46394910
:1002A00039480A1A06D00722914381F309880222AD
:1002B00082F3148835483649364A00F041F836480A
:1002C0003649374A00F03CF836483749374A00F09B
:1002D00037F837483749384A00F032F83748384954
:1002E000384A00F02DF838483849394A00F028F8E3
:1002F00038483949394A00F023F839483949002249
:1003000000F036F838483949002200F031F8384812
:100310003849091A05F092FA374A90472548264984
:10032000884205D00268043003B4904703BCF7E765
:1003300000208646EC4600200021304A9047FEE728
:10034000884214D0521A12D003460B43134303249D
:10035000234206D1036804300B600431043AF9D11A
:100360007047037801300B700131013AF9D17047C1
:10037000884202D002700130FAE770470060002026
:100380000058002000600020006000202C66000063
:1003900014000020D0000020000400000004000031
:1003A000745900002C660000140000201400002086
:1003B000045A0000045A0000045A0000045A0000C5
:1003C000045A0000045A0000045A0000045A0000B5
:1003D00029660000E8660000D0000020D000002060
:1003E000D0000020E4360020E4360020E43600206F
:1003F000E4360020E43E00205F020000010400001B
:1004000008B500F06DFE08B101F006FE002000F016
:10041000BBFE002000F086FE00F024FF0028FBD089
:1004200000F0AAFE0028F7D001F002FF08B101F0A9
:10043000F3FD4FF48041002004F0F0F808B101F022
:10044000EBFD04F02BF8144C00F00CFE134B144998
:10045000E41AE408240444F00304204604F078FA83
:1004600000F076F90F49204604F072FA00F0AAFB7A
:100470000D49204604F06CFA00F0E0FB0B492046E1
:1004800004F066FA00F024FB04F01AF90028FBD10E
:1004900003F02FFFF8E700BFB059000088590000B3
:1004A000045A00000F5A0000195A00003D5A00007B
:1004B000024AD2F80034002BFBD0704700E0014024
:1004C0004FF0805310B5D3F830210A2A5BD1D3F80E
:1004D00044224FF08041C2F34232C1F83C25002251
:1004E000C1F80C21C1F81021C1F83825484AD3F8C9
:1004F0000404C2F82005D3F80804C2F82405D3F890
:100500000C04C2F82805D3F81004C2F82C05D3F85F
:100510001404C2F83005D3F81804C2F83405D3F82F
:100520001C04C2F84005D3F82004C2F84405D3F8EF
:100530002404C2F84805D3F82804C2F84C05D3F8BF
:100540002C04C2F85005D3F83004C2F85405D3F88F
:100550003404C2F86005D3F83804C2F86405D3F84F
:100560003C04C2F86805D3F84004C2F86C05D3F81F
:100570004434C2F87035D1F80034DB0709D56FF088
:100580000103C1F800344FF08053D3F830310A2B07
:100590000CD14FF08053D3F834313BB14FF080424F
:1005A000D2F8E43E43F00F03C2F8E43E4FF01023CC
:1005B000D3F80022002A03DBD3F80432002B22DA1E
:1005C000144901234FF01020C1F804351524FFF71A
:1005D0006FFFC0F80042FFF76BFFC0F80442FFF75F
:1005E00067FF0023C1F80435FFF762FFBFF34F8FA9
:1005F00009490A4BCA6802F4E0621343CB60BFF3B7
:100600004F8F00BFFDE7064B064A1A6010BD00BFC2
:1006100000C0004000E0014000ED00E00400FA05E9
:10062000140000200090D00338B51E4A1E4C0178FB
:100630004368A41AE4081D4A240452F82120054600
:1006400044F003047BB91A49204604F085F92B785D
:10065000012B12D0032B10D023B96B6813B9154BA3
:1006600001221A7038BD1449A3F50643204651F8FB
:100670002330124904F079F9E9E76B68002BF1D1D6
:10068000AA680F49204604F067F9AA890D49204657
:1006900004F062F9EA890C492046BDE8384004F0CC
:1006A0005BB900BF88590000B059000078620000B3
:1006B000485A0000D00000203C620000705A000040
:1006C0008F5A0000A15A0000B15A000010B586B040
:1006D0000023CDE90333CDE901330593164C174BC5
:1006E0001749E41AE408240444F00304204604F003
:1006F0002FF901AB03AA47F2100148F2100002F0F3
:10070000D3FF90B90F4903A802F0A0FF48F2066298
:1007100090420CD10C49204604F01AF902F09EFFD9
:100720000A490246204604F017F906B010BD002819
:10073000FBD001F071FCF8E7B059000088590000C7
:10074000C45A000090620000DA5A00001C5B0000EE
:10075000F0B55D485D4C5E4D8FB002F011FE5D4B13
:100760005D49E41AE408240444F00304204604F03C
:10077000EFF800232B7002F019FE08B101F04CFCD9
:100780002B78002B7AD05549204604F0E1F812224C
:10079000002109A805F0BEF809A802F093FF08B1EE
:1007A00001F03AFCBDF828204D49204604F0D4F869
:1007B000BDF82A204B49204604F0CEF80023CDE9AD
:1007C0000633CDE90233089306AA02AB47F21001C3
:1007D00048F2100002F068FF002851D1CDE9040072
:1007E00004A906A802F0E4FE08B101F015FC059B7F
:1007F0003D4A03F11007154618685968164603C6A6
:100800000833BB423246F7D11B7833703749204654
:1008100004F09EF82A7C3649204604F09DF8EB78D7
:100820000193AB7800936B782A783249204604F024
:10083000B2F8EB790193AB7900936B792A792E4961
:10084000204604F0A8F8EB7A0193AB7A00936B7A18
:100850002A7A2A49204604F09EF8EB7B0193AB7B71
:10086000009320466B7B2A7B254904F094F806A868
:1008700002F0C4FE08B301F0CFFB1EE020BF7FE70B
:100880002049204604F064F81F4906A802F0DAFE69
:100890001E4905460246204604F05EF848F206630B
:1008A0009D420CD11A49204604F052F802F0D6FEBF
:1008B00018490246204604F04FF80FB0F0BD002D55
:1008C000FBD02846D7E700BF29060000B05900003A
:1008D000D000002088590000275B00003B5B00002F
:1008E0005D5B0000755B000018000020AD5B000040
:1008F000C45B0000D05B0000EB5B0000065C000006
:10090000275C0000485C000090620000605C000012
:100910007A5C00001C5B000084B030B585B008AC88
:1009200084E80F001B4B1C489DF821409DF8205087
:100930001A49C01A9DF824300293C0089DF823304C
:10094000019300049DF9223000932A46234640F08B
:10095000030004F02EF834B1012C10D005B0BDE82E
:10096000304004B070470E4B0E4801221A700E4BF7
:100970002A461C600DF1250104F09AFFEEE70B4BAF
:100980000B481C700B4B00221A600DF125012A4602
:10099000F2E700BF88590000B0590000365E000041
:1009A000DD00002015010020D8000020DC00002020
:1009B000F5000020D400002038B501F05BFEFF20D8
:1009C00001F07EFE172001F07BFE082001F078FE8A
:1009D000074D162415F8010B013C01F071FE14F0CF
:1009E000FF04F7D1BDE83840FE2001F069BE00BF2A
:1009F000DF00002038B5244B1A785AB100221A7053
:100A0000224A234B11681960516859601189927A02
:100A100019819A721F4B1A785AB100221A701E4A15
:100A20001E4B11681960516859601189927A1981B9
:100A30009A721B4B1A7862B11A4C00224FF4207044
:100A400044F001041A70A047FFF7B6FF4FF420707E
:100A5000A0471548154902680B68154D013201334E
:100A6000AA4202600B6005D9094C00222260626034
:100A700022720260AB4205D90E4A00231360536014
:100A800013720B6038BD00BFDD000020150100208F
:100A9000DF000020DC000020F5000020EA0000203C
:100AA000DE000020A0620000D8000020D40000205A
:100AB000A0860100E8000020FFF79CBFA0F17303AF
:100AC00058425841014B1870704700BFDE000020AB
:100AD00008B5094A0948012101F0DCFB08B101F021
:100AE0009BFA07480022102101F0E6FB18B1BDE88F
:100AF000084001F091BA08BDB90A0000A8620000E0
:100B0000300000202DE9F0410378012B86B03CD065
:100B1000022B20D1244E244804F070FC002831D14F
:100B2000224CD6F800E0D6F804C0B268F3686D46EF
:100B300004F11008206861682F4603C70834444553
:100B40003D46F7D120683860217939717046614699
:100B5000FFF7E2FEDFE7ABB9154A164B1648174917
:100B6000C01A92F824300393137A0293D379019335
:100B700093790093C00800045379127840F0030081
:100B800003F027FF06B0BDE8F0810A4B0A480C4984
:100B9000C01AC008000440F0040003F0D9FE06B0FB
:100BA000BDE8F04104F0AABC350100204501002059
:100BB0005000002088590000B0590000665E000017
:100BC0009C5E000030B5184D0FCD87B06C460FC449
:100BD00095E80300012384E803008DF8013068469E
:100BE000124B019304F0B6FA08B101F015FA104B5C
:100BF000187C04F0F7FC08B101F00EFA0C4804F080
:100C000097FC08B101F008FA0A4804F0ABFC08B1FF
:100C100001F002FA0848082104F0BEFC08B101F016
:100C2000FBF907B030BD00BFAC620000050B00004F
:100C3000180000201C0000202000002008B504F04F
:100C400017FC18B1BDE8084001F0E6B908BD000086
:100C500038B504F04DFA1C4B0220C3F88000BFF3F6
:100C60004F8FBFF36F8F4FF48061C3F88010BFF3D5
:100C70004F8FBFF36F8F4FF48012C3F88020BFF304
:100C80004F8FBFF36F8F114DC3F880010A24C3F853
:100C9000801145F00105C3F880214FF47A40A84740
:100CA000013CFAD1FFF78EFFFFF7C8FFBFF34F8F6C
:100CB0000749084BCA6802F4E0621343CB60BFF3F4
:100CC0004F8F00BFFDE700BF00E100E0D0620000F1
:100CD00000ED00E00400FA052DE9F74F0578012D3D
:100CE00000F0B181022D00F0A181D5B9BF4CC04FF9
:100CF000204601F0CFFC38782378BE4ABE4C00F085
:100D0000FF0188B9FF2B0AD10123BC483B70217039
:100D10001170402203B0BDE8F04F04F0FBBD21701C
:100D2000117003B0BDE8F08F217801F0FF0079B9B0
:100D3000B3490B700B78082B84BF387020700B7888
:100D4000B049CB5C137023780133DBB22370E8E742
:100D500021781278914240F24381FE2B2AD1A84B90
:100D60001E78F6B2082E25D8DFE816F00900280014
:100D70006C008300B300D60007011501350101F0B6
:100D800079FCFF20A04D01F09BFC052001F098FCB0
:100D9000002001F095FC287801F092FC687801F0C1
:100DA0008FFCA87801F08CFCE87801F089FCFE202B
:100DB00001F086FC00233B702370C4E701F05AFC6D
:100DC0009248934BDFF840A2DFF830B29149C01A45
:100DD000C008000440F003004FF00009D0464A4626
:100DE0009BF80030019003F0C0FD1BF8013B1AF89E
:100DF000012B01988749934209F101091CBF0AF8A8
:100E0000013C3546B9F1040FE9D11DB1FFF75EFC95
:100E1000FFF71EFFFF2001F053FC052001F050FCFE
:100E2000012001F04DFC98F8000001F049FC98F811
:100E3000010001F045FC98F8020001F041FC98F82F
:100E40000300B2E701F016FCFF2001F039FC052099
:100E500001F036FC02206C4D01F032FC287901F0E3
:100E60002FFC687901F02CFCA87901F029FCE879C5
:100E70009BE701F0FFFB654E654BDFF88091DFF8E3
:100E800098A1DFF898B1F61AF608360446F0030682
:100E90004FF00008424699F800305946304603F0BA
:100EA00064FD19F8013B1AF8012F08F101089A4274
:100EB0001CBF8AF800300125B8F1040FEAD1002DDB
:100EC000A4D1FF2001F0FCFB052001F0F9FB032079
:100ED000C1E701F0CFFBFF2001F0F2FB092001F098
:100EE000EFFB0420484D01F0EBFB287A01F0E8FB12
:100EF000687A01F0E5FBA87A01F0E2FBE87A01F0FC
:100F0000DFFB287B01F0DCFB687B01F0D9FBA87BD1
:100F100001F0D6FBE87B48E701F0ACFB3B4E3C4BD5
:100F2000DFF8D890DFF8F8A0DFF8F8B0F61AF60886
:100F3000360446F003064FF00008424699F80030A8
:100F40005946304603F011FD19F8013B1AF8012FFC
:100F500008F101089A421CBF8AF800300125B8F157
:100F6000080FEAD1002D7FF451AFFF2001F0A8FB5C
:100F7000092001F0A5FB0520B4E701F07BFBFF2071
:100F800001F09EFB022001F09BFB062001F098FB84
:100F90001D4B187C09E701F06DFB1D4B1B48174DDD
:100FA00021492A78C01AC008000440F0030003F069
:100FB000D3FC2B78144D2A7C9A420AD1FF2001F0F1
:100FC0007FFB022001F07CFB072001F079FB287CED
:100FD000EBE62B741AE7094B1878FFF76FFDE9E68B
:100FE0002178064A0A4402F8013CACE6750000206C
:100FF000DD020020DB020020DC020020DE020020F7
:10100000DA0200207600002018000020B05900000D
:1010100088590000AC5E00001B000020CB5E000081
:101020001F000020EA5E00000B5F000009480A4B29
:101030000A49C01AC008000440F0030003B0BDE82C
:10104000F04F03F085BC0348034B0549C01AC008A4
:101050000004F1E7B0590000885900002C5F00003F
:10106000475F000030B5114D0FCD8BB004AC0FC4FD
:101070000F4B009395E803004FF4807301930D4BE1
:101080000293802384E803000B4A039369460523F7
:1010900004A801F097FA4FF0A0430C22C3F81827D8
:1010A00008B100F0B9FF0BB030BD00BFD86200003E
:1010B000DA0100205A010020D90C000038B5074C95
:1010C000051EA4F1080308BF1C4623682BB11A684B
:1010D00022605B6828469847F7E738BD3003002058
:1010E00070B50D4C2578ADB90C486560A5602561DB
:1010F000E56000F07FF9064600F08AF9012384F8E4
:1011000020502370064BD3F800340BB10123A37099
:10111000304670BD8526F5E720030020051200004B
:101120000000014038B5134CA378054603F0FF00DA
:1011300073B115B16B6801209847002001F0FAFAED
:10114000E3680133E3600020BDE8384001F0F4BA01
:1011500001F0F0FA25B1226913463BB92A602561F6
:10116000E368002BECD100F065F9E9E79D42F7D088
:101170001B68F2E7200300204FF08043D3F81804E7
:10118000C0F300407047000038B5134C6378054643
:1011900003F0FF0073B115B16B6800209847002081
:1011A00001F0C8FA6368013363600020BDE838408D
:1011B00001F0C2BA01F0BEFA25B1A26813463BB9EC
:1011C0002A60A5606368002BECD100F040F9E9E7E4
:1011D0009D42F7D01B68F2E72003002038B5084C89
:1011E000002001F0A7FA6368013B6360656815B9E8
:1011F00000F03AF96570BDE83840002001F09CBA73
:101200002003002010B5044630B9144B01225A7057
:10121000BDE81040FFF752BF012802D10F4B987074
:10122000F6E7022804D1BDE810400D48FFF7ACBF37
:10123000032811D1FFF7D2FF084A002192F820308D
:1012400082F82010D269DBB232B1042B0CBF2046E9
:101250000220BDE81040104710BD00BF2003002051
:10126000340300204FF08043D3F80C0400F0011049
:10127000A0F1011358425841704700001FB5037890
:101280008DF800304368019383688DF80830C36897
:10129000054A0393054B684653F8213052F8211054
:1012A000984705B05DF804FB480300204C0300207C
:1012B0001FB503788DF800304368019383688DF87B
:1012C0000830C368054A0393054B684653F821303C
:1012D00052F82110984705B05DF804FB4803002040
:1012E0004C030020F0B5194B90F800C091F81DE0B8
:1012F00043F82C20164B16460A6943F82C20154B50
:101300000C4603F80CE007460FCC89B06D460FC5BC
:1013100094E80F0085E80F00CDF810C0BEF1000F73
:1013200009D0002E0C4A694608BF3246381D00F02D
:10133000EDFC09B0F0BD002E084A694608BF3246F0
:1013400007F10C0000F0C0FAF3E700BF4C030020E7
:1013500048030020440300207D120000B112000069
:10136000024AD2F80034002BFBD0704700E0014065
:101370000A4908B50223C1F80435BFF36F8FBFF3E4
:101380004F8FC1F80805FFF7EBFF0023C1F80435C4
:10139000BFF36F8FBFF34F8F08BD00BF00E0014068
:1013A00070B50E4E01231546C6F80435BFF36F8F96
:1013B000BFF34F8F0024AC4207D10023C6F8043599
:1013C000BFF36F8FBFF34F8F70BD51F8243040F8DB
:1013D0002430FFF7C5FF0134EDE700BF00E0014016
:1013E00000F18040002382B0036003680193019BF9
:1013F00002B07047054A13792BB90121106093712F
:101400009180184670478520704700BF5003002028
:10141000074B1A68D20704D4C02283F800230122A4
:101420001A604FF080430022C3F81825704700BFB0
:1014300000E100E008B54FF48270FFF7D1FF4FF0F4
:1014400080430222C3F8042301229A6008BD08B534
:101450004FF48070FFF7C4FF4FF080430122C3F8C0
:1014600004231A6008BD00004FF08042012108B536
:101470004FF48070C2F80813FFF7B2FF5160D2F842
:101480000C3403F00113B3F1011FF8D0014B00221B
:101490005A7108BD500300204FF0804110B5D1F8BB
:1014A000003163B14FF48070FFF79AFF1F4B5879FA
:1014B0000122C1F8082310B95A711B6898474FF0F0
:1014C0008042D2F8043153B14FF48270FFF788FFA5
:1014D0000223C2F80833154B01201B6898474FF0D0
:1014E0008042D2F8103153B14FF48870FFF778FF83
:1014F0001023C2F808330D4B02201B6898474FF0A9
:101500008042D2F80C3183B100214FF48670C2F8CA
:10151000341CFFF765FF0823C2F80833034B9971A9
:10152000BDE810401B680320184710BD5003002081
:1015300000F1804000F5C040002382B003600368E2
:101540000193019B02B07047800000F1A040D0F8E9
:10155000003723F44033C0F80037D0F8003743EAAF
:101560000143C0F8003770472DE9F34700244E4D82
:1015700001944FF48072012102F1804303F5C043CE
:101580001B68012B07D1D5F804330B4203D090B26E
:10159000FFF7CEFF0C430432B2F5907F4FEA4101D2
:1015A000EAD1414BD3F87C31012B0CD14FF4BE7002
:1015B000FFF7BEFF4FF0A04344F00044D3F82025CE
:1015C0000192C3F82025E3B2D3B1384F002501269C
:1015D000344210D0AB0003F1804303F5C043D3F88D
:1015E0001005D3F8101557F8253023B1C1F3014188
:1015F000C0F3042098470135082D4FEA4606E7D18D
:10160000002C48DA294C4FF0A047294D4FF0000834
:10161000012615F9013F5A1C31D0C3F3C20108312C
:101620006944DAB211F8041C03F03F0903F0070320
:1016300006FA03F3194222D009F5E073484657F839
:101640002330C3F3014ABAF1020F14BF0221032170
:10165000FFF77AFF06FA09F3C7F8203504EB090310
:1016600093F9483054F823304BB19109032904D041
:10167000BAF1020F12D1012901D14846984708F169
:101680000108B8F10A0FC4D1D7F820350193C7F883
:101690002035002BB9D102B0BDE8F087BAF1030FB5
:1016A000EDD10229E8E700BF0060004058030020A8
:1016B000BF030020014B1B68184700BFD003002068
:1016C00038B50A4B98420C460CD1002001F032F894
:1016D000074B1D7915B901221C601A71002001F019
:1016E0002BF80DB9002038BD1120FCE70020004088
:1016F000D00300200023435082B043580193019B44
:1017000002B070470A4610B54FF48E71FFF7F2FF32
:10171000136A9168C95C136A01331362C0F81C151F
:1017200010BD8B690A4610B54FF4847123B9FFF7D9
:10173000E1FFD0F8183510BDFFF7DCFF536AD16820
:10174000D0F81805C854536A01335362F3E7000018
:101750001FB501238DF80030044BCDE90110D3E90A
:1017600000126846904705B05DF804FBD8030020DE
:1017700008B54FF49271FFF7BDFF4FF48471FFF786
:10178000B9FF0123036008BD30B54D4DD5F80433D2
:101790009A0585B051D5D5F82431002B4DD04FF4A2
:1017A00092712846FFF7A6FF4FF40173C5F808337E
:1017B000444B93F829200AB901226A604049022269
:1017C0008DF80020D1F88024C1F8802403929A6912
:1017D0000292DA6801920022C3E906226846D3E940
:1017E000001290473648D0F81C315BB1354A516938
:1017F000136A99424DD992F82830002B49D11146ED
:10180000FFF780FF2E48D0F84431002B56D04FF41C
:10181000A271FFF76FFF2B4B93F829200AB1012229
:1018200002609A69002A49D0586AD96800229A61F0
:1018300005B0BDE83040FFF78BBFD5F804335B0738
:10184000D0D5D5F80831002BCCD01E4C1C482146F1
:10185000FFF767FF636AA2699A42C3D1E369E1684F
:101860004BB1A3612369E3600023606AE3616362B3
:10187000FFF76EFFB6E794F829300BB901236B60D0
:101880000F4B4FF40172C3F808230023606AA36171
:10189000EEE70B484FF48E71FFF72CFF5369002BD6
:1018A000B0D051690291002391688DF80030019108
:1018B00053616846D2E900139847A3E705B030BDED
:1018C00000200040D80300202DE9F843524D90F845
:1018D00004802C2303FB0853064693F82A300C4659
:1018E0009146002B40F094804C490068FFF7E8FED9
:1018F0000746002840F08E8021683368481C0BD0D2
:101900004FF0A04001228A40C0F8082501F5E0729E
:101910004FF0030C40F822C06068421C1FBF00F566
:10192000E0724FF0A04C4FF0000E4CF822E0A2699C
:10193000C3F8242594F814C0627DBCF1010F4CEA71
:101940000202C3F86C25C3F81405C3F80C151DD1A9
:10195000A1684A1C1FBF01F5E0724FF0A0404FF094
:10196000000C40F822C0E268501C0BD04FF0A04C95
:1019700001209040CCF8080502F5E0704FF0030E0E
:101980004CF820E0C3F80825C3F810152C2303FBFE
:1019900008F3EA18C2F804902269EA50B9F1000F7E
:1019A0001ED03068227F4FF48E71FFF7A3FE4FF4F4
:1019B000A271FFF79FFE1A4BC0F8043340F30733C0
:1019C0005201002BD2B21EDB1649C81880F8002342
:1019D0000122580903F01F0302FA03F341F82030F3
:1019E00033680422C3F800252C2303FB085300228C
:1019F000C3E9062283F829205A61012283F82A20AC
:101A00003846BDE8F883084903F00F03CA54E7E7F6
:101A10000827F5E71127F3E7D8030020891700000E
:101A20008000020000E100E014ED00E00279044BC8
:101A30002C2101FB02335869003818BF0120704780
:101A4000D80300202DE9F84F074690F80480894616
:101A50009346FFF7EBFF0446002839D11E4E2C2594
:101A600008FB056A4FF48E71CAF814B0CAF820005A
:101A70008AF828003868CAF80890FFF73BFE01236F
:101A800083605146FFF73EFEDAF8043055460BBB43
:101A9000DAF814402B6A9C4210D8D0F81C31002B85
:101AA000FBD00123C36000202C2303FB0866002326
:101AB0007361BDE8F88F95F828303BB9D0F81C3138
:101AC000002BF8D05146FFF71DFEE3E70F20EBE7B0
:101AD0001120EEE72046ECE7D80300202DE9F8437B
:101AE000374C06792C2303FB064305465F6827B174
:101AF00003684FF40170C3F808032C2303FB06436B
:101B0000986950B1D86900283DD027B12B684FF4AF
:101B10000172C3F80423112033E09A61D96058623E
:101B2000024601462C2303FB0643DA6193F8293071
:101B3000286813B909B9FFF71BFEBFBB4FF4A271A8
:101B40004FF02C08FFF7D6FD06FB0847B84628687B
:101B5000D0F82421D0F80811D0F84431194315D118
:101B6000002AF4D000232C2101FB06440021A161AE
:101B70000ABB13BB94F829102B680122A1B11A608B
:101B80000020BDE8F88319610121CBE753EA02097F
:101B9000E9D13946FFF7C5FDD8F82430D8F8182028
:101BA0009A42D4D84A46DDE75A60E9E74FF4017318
:101BB000C0F80433E4E70320E3E70F20E1E700BFC8
:101BC000D80300200023435082B043580193019B67
:101BD00002B070471FB501238DF80030044BCDE9EA
:101BE0000110D3E900126846904705B05DF804FB88
:101BF000040400207FB5434AD2F82461002E60D04F
:101C000010464FF49271FFF7DDFF02238DF800308C
:101C1000D2F88034C2F880340393D2F83C35029372
:101C2000394BDA6801920022C3E906226846D3E9FB
:101C3000001290473348D0F8443173B14FF4A27189
:101C4000FFF7C0FF304B9A693AB10022D0F83C054B
:101C5000D968C3E90622FFF7BDFF2A48D0F8203132
:101C6000ABB14FF49071FFF7ADFF0123C360264B7A
:101C70005A6962B1D0F84C150291002299688DF82A
:101C8000002001915A616846D3E9001290471D482F
:101C9000D0F858319BB14FF4AC71FFF793FF1A4B5A
:101CA0005A6962B1D0F84C150291002299688DF8FA
:101CB000002001915A616846D3E90012904704B0B0
:101CC00070BDD2F81031002BB4D04FF4887110469B
:101CD000FFF778FF0C4BD2F83C0599698842A9D1EF
:101CE000DC69D96864B1D2F8005225F02005C2F849
:101CF00000521A699C61DA60DE61FFF76BFF99E7B9
:101D00009C61FAE700200040040400202DE9F8431C
:101D1000574D90F80480242303FB0853064693F89C
:101D200020300C469146002B40F09E8051490068BF
:101D3000FFF7C6FC0746002840F09880216833680A
:101D4000481C0BD04FF0A04001228A40C0F8082563
:101D500001F5E0724FF0030C40F822C06068421CAD
:101D60001FBF00F5E0724FF0A04C4FF0000E4CF892
:101D700022E0A269C3F8242594F814C0627DBCF166
:101D8000010F4CEA0202C3F86C25C3F80C15C3F826
:101D900014051DD1A1684A1C1FBF01F5E0724FF068
:101DA000A0404FF0000C40F822C0E268501C0BD05D
:101DB0004FF0A04C01209040CCF8080502F5E070EF
:101DC0004FF0030E4CF820E0C3F80825C3F81015B7
:101DD000242303FB08F3EA18C2F804902269EA50AE
:101DE000B9F1000F2AD03068227F4FF48871FFF7D5
:101DF000E9FE4FF49071FFF7E5FE4FF49271FFF7A3
:101E0000E1FE4FF4A271FFF7DDFE4FF4AC71FFF776
:101E1000D9FE194BC0F8043340F307335201002BAD
:101E2000D2B21CDB1549C81880F8002301225809DA
:101E300003F01F0302FA03F341F82030336808224D
:101E4000C3F80025242303FB08550023C5E9063306
:101E50006B61012385F820303846BDE8F8830849D6
:101E600003F00F03CA54E9E70827F5E71127F3E762
:101E700004040020F51B00001003420000E100E014
:101E800014ED00E00279044B242101FB0233586970
:101E9000003818BF012070470404002001F060439F
:101EA000B3F1005F2DE9F04781460E46924636D1E8
:101EB00090F80480FFF7E6FF044690BB1B4FD9F86B
:101EC0000020242505FB08754FF490711046C5F8D5
:101ED00014A0AE60FFF776FE4FF4AC71FFF772FE10
:101EE0006B69C2F84465C2F84835012393606B689A
:101EF000CBB9D2F82031D2F858010343F9D060B9F8
:101F00000123D360D2F85831002BFBD0242303FBEC
:101F1000087700237B61BDE8F0870F20F6E71020EB
:101F2000F9E71120F7E72046F5E700BF0404002099
:101F30002DE9F84301F06043B3F1005F0E4667D12D
:101F40000779344D242303FB0753D3F80480B8F1F9
:101F5000000F04D003684FF40471C3F8081324235E
:101F600003FB0753996969B1D96900293ED0B8F1DB
:101F7000000F04D003684FF40472C3F80423112047
:101F8000BDE8F8839A61DE6089462423046803FB78
:101F900007532046D9614FF48871FFF713FE4FF4C1
:101FA000A271FFF70FFEC4F83465C4F83825B9F103
:101FB000000F20D101232360B8F1000F22D1D4F803
:101FC0001021D4F84431D4F824011A4302D1002856
:101FD000F5D01346242202FB07550022904218BF79
:101FE00003209342AA6118BF0F20C9E71E61114662
:101FF0004FF00109C9E7D4F8003243F02003C4F8D8
:102000000032D9E74FF40473C4F804330020B7E773
:102010001020B5E7040400201FB50021039001AA99
:1020200044F20100CDE9011100F004F805B05DF8BB
:1020300004FB000038B572B602F0FEFC02F040FB73
:102040000028FBD1104B114C114D1249E41AE40841
:10205000240444F0010002F07BFCD5F8F030DB07EB
:1020600000D500BE0C4944F0020002F071FCBFF341
:102070004F8FEA68094B02F4E0621343EB60BFF351
:102080004F8F00BFFDE700BF88590000B059000026
:1020900000ED00E07B5F0000875F00000400FA05B0
:1020A00010B5034649B152B1541E14EA020006D1DC
:1020B000986019609C80D86010BD0E20FCE7092054
:1020C000FAE710B58468C2688388121B934208D36C
:1020D000C26813400268D154C3680133C360002052
:1020E00010BD0420FCE78268C3689A420AD0826867
:1020F000838813400268D35C0B708368013383606C
:102100000020704705207047C36883600020704737
:1021100010B5D0E90242D1E90203A04293412CBF9D
:102120000120002010BD000008B50A4800F021FC85
:10213000094AD2E90031C018084BD3E9002341F124
:102140000001904271EB030303D210F1807041F162
:10215000000108BD80000020A00400209804002099
:10216000234B70B51E78044616B90026304670BD64
:102170000028FAD0FFF7D8FFD4E902239042994112
:102180002FD3002000F0D6FA23692BB94FF0FF328D
:102190004FF0FF33C4E90223002000F0CDFAD4E968
:1021A00005309847002000F0C5FA25696DB1D4E9E3
:1021B0000212B2F1FF3F08BFB1F1FF3F0FD0691823
:1021C00042F10002C4E902123546002000F0B4FAE0
:1021D000002DCAD00748214602F098F8C6E700252E
:1021E000F3E7B3F1FF3F08BFB2F1FF3FBDD0F1E726
:1021F000A8040020F062000037B505460C460A48E6
:1022000001A901F0F2FA68B10570446001A906481D
:1022100001F015FB10B9002003B030BD034800F0F9
:10222000ADFBF8E70420F7E72C0400208000002035
:1022300013B5114B11491868019008231048582212
:1022400001F0C0FA044698B90E4A0F4801A900F0FF
:1022500081FA044660B90C48012100F06DFB0123AE
:102260000A4A0948194600F0CFFA094B01221A70B0
:10227000204602B010BD00BFFC6200003C040020FC
:102280002C0400201923000080000020FFFF7F00A5
:10229000A804002030B56AB103684FF0FF344FF056
:1022A000FF355A614A1E5142C3E902455141196145
:1022B000002030BD0720FCE7F8B504460020174693
:1022C0000D4600F037FAD4E90223B3F1FF3F08BF0F
:1022D000B2F1FF3F15D1FFF727FF281841F10001A8
:1022E000C4E902010126002000F026FA5EB123694C
:1022F000A76103B1256121460020BDE8F840FFF742
:102300007BBF0026EFE73046F8BD0000014800F033
:1023100030BB00BF800000202DE9F743064600F0E7
:1023200013FB40B1624AD2E9003113F1807341F1ED
:102330000001C2E900310021304600F014FB38B141
:102340005C4C236823B12068FFF70AFF0023236059
:102350000121304600F007FB20B1FFF7E5FE564BA8
:10236000C3E900015548534F01A901F078FA4FF035
:10237000FF344FF0FF35A0B9DFF844814D4D4046A2
:1023800001F0DAFF002800F08980D0E90223B3F1E0
:10239000FF3F08BFB2F1FF3F36D1404601F0C6FF14
:1023A000EDE70378012B21D0022B09D1DFF8108152
:1023B000404601F0BBFF20BB424B01221A700CE0EB
:1023C0005BB94168D1E90223B3F1FF3F08BFB2F125
:1023D000FF3F02D03A4801F099FF01A9374801F0C8
:1023E00069FA01A9354801F03AFAC4E741683B6847
:1023F000994202D100233B60EFE7314801F09FFF93
:10240000EBE7C0E90245D3E7296891B12968D1E932
:10241000020182428B412FD22B68D3E90223B3F110
:10242000FF3F08BFB2F1FF3F03D02968404601F0EB
:102430006DFF404601F07AFFD0E902490746FFF7F9
:1024400073FE201A69EB0109012879F1000918DBF4
:10245000B0F5350F13D3FFF759FF1B4A02441B4851
:102460004FF49603002100F0EFF990B92B6813B9EF
:10247000304600F0C1F92F6003B0BDE8F08322467A
:10248000EDE71248002100F064FA3846FFF768FED5
:1024900001E00D28F9D000232B6070E7054B1B6885
:1024A000002BE9D1304603B0BDE8F04300F0A8B9F5
:1024B000A0040020AC040020980400202C0400207C
:1024C000F0620000A8040020FFFFB400800000209C
:1024D0000648074A03780749D35C012213B1043048
:1024E000FFF726BD0C30FFF7F9BA00BF88000020C7
:1024F00044030020D10400200648074A0378074916
:10250000D35C012213B10430FFF7C8BC0C30FFF7D5
:1025100099BA00BF8800002044030020D2040020A4
:1025200037B50578012D05D0022D27D0002D30D0EC
:1025300003B030BD037A13B9FFF7CAFFF8E7436869
:102540001B4C19782046FFF7BCFD80B18DF8005078
:102550000190184B68461B689847A168E368A288F9
:102560005B1A9A42E8D2144B01221A70E0E7A26883
:10257000E3689A42F1D08DF80000EAE7C3688DF86D
:1025800000500193FFF7A4FF0A4B68461B68984769
:10259000CEE70A490A48FFF7A6FD20B903B0BDE817
:1025A0003040FFF7A9BF03238DF80030ECE700BFF0
:1025B000C0040020D4040020D0040020D204002055
:1025C000B0040020F0B51F46234B89B004461A60C2
:1025D0000D4600293DD08A8820480968FFF760FD34
:1025E000002834D1AA89A9681D48FFF759FD0028A1
:1025F0002DD11C4E0FCE6D460FC596E80F0085E815
:102600000F0063690693237C174A18488DF81C70E5
:10261000003B18BF01238DF81430637C002B0CBFE6
:1026200000230E238DF81530E3680293A36803930B
:1026300023680193694663680093FEF753FE30B93F
:102640000B4B18702368013301D0FFF741FF09B02D
:10265000F0BD0720FBE700BFD4040020C004002029
:10266000B004002000630000212500008800002045
:10267000D004002008B50548FFF746FD20B9BDE8A5
:1026800008400348FFF740BD08BD00BFC00400205C
:10269000B004002070B5084D014608482E78FFF7B9
:1026A00022FD044636B100232B70FFF711FF08B15D
:1026B000FFF7B2FC204670BDD0040020C00400200B
:1026C00010B501460E48FFF7FCFC0446A8B90D48BA
:1026D0000D4A0378D35C63B10430FFF7D3FB60B9D4
:1026E0000A490748FFF7FFFC38B9BDE81040FFF77B
:1026F00003BF0C30FFF79AF9F1E7204610BD00BF89
:10270000B00400208800002044030020D2040020F0
:1027100072B6024A1368013313607047D804002070
:10272000034A1368013B136003B962B6704700BFE8
:10273000D8040020FFF7ECBFFFF7F2BF0346405874
:1027400082B028B100225A505B580193019B0120AE
:1027500002B0704770B5204B4579204E43F82520D4
:102760001F4B204A06EBC5059B1ADB0804461804DC
:102770002B7933B140F002001B4902F0E9F8082040
:1027800070BD23680A88C3F8082594F904308A7854
:10279000002B4FEA4212D2B219DB1449CD1885F84A
:1027A000002301225D0903F01F0302FA03F341F83D
:1027B0002530637906EBC3020121117140F003005B
:1027C0000B4946F8334002F0C3F80020D8E7094926
:1027D00003F00F03CA54ECE7E4040020DC040020FB
:1027E000B8590000885900009E5F000000E100E039
:1027F000C05F000014ED00E0036801221A6070471A
:10280000036801225A60704773B501F15005AD00AD
:102810000068ADB24FF480348C400026C0F8084305
:10282000C0F84843465101F5A8714559019522F079
:102830007F42019D40F82120C0F844430BB1C0F80D
:10284000044302B070BD00002DE9F74F0D4622F0A1
:102850007F4402684FF4803705F150068F40804670
:10286000B60002EB8500C2F84873B6B2C2F808732E
:10287000D2F8041599464FF0000BD0F84035C0F857
:10288000401542F806B05B1A9259009223F07F433C
:10289000012B009A4FEA850A0CD1264B4FF4806039
:1028A00043F001039847D8F8003043F806B09B592D
:1028B0000193019BD8F80020D2F80465C2F8447354
:1028C000A31B23F07F43012B1CD11A4B05F5A875E0
:1028D000013443F0010342F825404FF480609847EB
:1028E000D8F80030D3F804359E4209D1D8F800302A
:1028F0000020C3F84473C3F8047303B0BDE8F08F3D
:102900000D20FAE79244C9F1FF13CAF84045D2F806
:102910000405211A013921F07F4103F57F438B42E1
:10292000EED30029E2D10134CAF84045D2F804358B
:102930009842DAE72063000003680222C3F84423C8
:1029400009B1C3F80423704700684FF48271FFF7A0
:10295000F5BE4FF4803303FA01F10368C3F848135E
:10296000C3F80813704750318900006889B2FFF737
:10297000E5BE0368D3F804057047000090F9043001
:10298000002B09DB5A09012103F01F03994002F1D2
:102990004003024A42F82310704700BF00E100E004
:1029A000024B034A1B681068184700BFE40400206C
:1029B000DC04002070B5064E0546002456F8043BA2
:1029C0000BB1284698470134042CF7D170BD00BFE5
:1029D000E80500204388033300EB830399420BD3BF
:1029E00082884FF6FF739A4208D0038833B180681B
:1029F000431C5842584170470220704701207047DD
:102A000068B10268084B9A4209D14068074B984266
:102A100007D00133984214BF0320012070470320E0
:102A200070470020704700BFDEC0ADDEFE011EF122
:102A3000C21C92B240F2FE339A4230B51ED8124BFD
:102A4000187838B91C895D892C441444A4B2B4F5B3
:102A5000806F0AD9187DA0B9988BDC8B2044104474
:102A600080B2B0F5806F0CD801200880142101FBE2
:102A70000033002059890A445A8130BD48F2086069
:102A8000FBE748F20660F8E7200500200B4A0C49F6
:102A90005388142000FB0311CB6833B90420496824
:102AA00010700122074801F08BBA07490523137003
:102AB00002238B80012209680023F3E70805002028
:102AC00020050020000000201805002007B5002385
:102AD00005490093054A09680548082301F0C4F92F
:102AE00003B05DF804FB00BF18050020346300004C
:102AF0000000002007B5002301460093034A044864
:102B0000082301F0B1F903B05DF804FB2C63000069
:102B10000000002013B500230C4600930146084A2C
:102B20000848042301F0A0F938B90749142202FB30
:102B3000041101230B7402B010BD48F20D60FAE7D6
:102B400028630000000000202005002037B50A4857
:102B50000A4B42689C881968538803250333057023
:102B60009BB2002000909B0001EB8401044801F01F
:102B70007BF903B030BD00BF080500201805002018
:102B80000000002010B50146044800F02EFE1C2273
:102B90000446002102F0BEFE204610BD480500207C
:102BA0002DE9F0410D460223154F2B80164600F506
:102BB000805100F108044FF001088C420ED22368C6
:102BC00001330BD02046FFF705FF48B10EB186F860
:102BD0000080022809D14FF480632B80BDE8F0818A
:102BE000A3683A68934200D93B602B88628803331C
:102BF00013442B806388033304EB8304DDE700BFB9
:102C0000E405002038B5144B14220D4602FB0033B6
:102C10005C682B6804F58051A3B15C88033403EB36
:102C200084048C4215D22368013312D02046FFF76A
:102C3000D1FE012808D002280BD00028F1D12C6049
:102C4000012038BD0834ECE76388033304EB8304C8
:102C5000E7E70020F5E700BF200500204368F7B54F
:102C600005460E4633B900240027022C34802FD1AC
:102C7000002026E0204AD1688B42F4D312699342A7
:102C8000F1D813F00304EED11C4A01891289914254
:102C9000EAD101689A689142E6D119494A6893429B
:102CA00003D902F5805293420DD38A6993420CD91D
:102CB00002F58052934208D201233380B4FA84F0A3
:102CC000400903B0F0BD2346F7E748F20964F5E791
:102CD000019701A92046FFF795FF10B90134A4B26E
:102CE000C3E7019B2A6899689142F2D16B60034B5C
:102CF0001B892B81E5E700BF0000002008050020AC
:102D0000200500202DE9F0471C461E4B1B78074686
:102D10008846164683B392B38CB3DFF86C904FF0BD
:102D2000140AA588012D02D948F2096022E00AFBA5
:102D300005F319F803302BB921462846FFF762FF47
:102D400018B920600135A580EBE723681FB1998889
:102D50003A889142F0D1B8F1000F04D01988B8F840
:102D600000209142E8D19A68C6E90023074B1B89ED
:102D700033810020BDE8F08748F20160FAE748F2AD
:102D80000460F7E700060020200500200805002069
:102D900008B5074B5888191DFFF734FF18B1BDE877
:102DA0000840FFF7D3BEBDE80840FFF76FBE00BF85
:102DB000080500202DE9F0479D4FDFF8788288B0A4
:102DC00006463B6823B99C48414600F048FD386000
:102DD0003D6829784B1E052B00F20D81DFE813F0CA
:102DE000060071007100010101015D01E6B1934B24
:102DF00000225A604FF406441422002103A802F076
:102E000089FD41F61D539C4208BF00243B68049491
:102E10001A78023A042A00F2F781DFE812F0D801AA
:102E2000E40106020E0215022B79032B1CD8DFE801
:102E300003F014022A35824A1378022B1AD0137D2C
:102E4000022B4FF0010317D114214B43D11800205E
:102E5000D0544868FFF74EFE03E001232B71FFF7C3
:102E600035FE002800F0B780744B00225A6048F20B
:102E70000D64C1E70023E7E7704A13700023536035
:102E800041F61D54B8E76F496F48002302222B71A9
:102E90008A800968012201F093F8E2E76B4B684CE5
:102EA0005B88684A14214B43E11800262E714D6857
:102EB00010681560958848600D810221E654918064
:102EC000C8E7B5F814A0AA7DDFF874919EB1022A74
:102ED000EB8806D9142101FB0A91DA1C0889024407
:102EE0000A81142202FB0A92C3F57F435189FD3304
:102EF0000B4453817EE7142303FB0A9318895C6813
:102F000004EB8004062A05D8DFE802F0274E364499
:102F10001D5A680048F20E64AA7DEB88022A06D981
:102F2000142101FB0A91DA1C088902440A81142247
:102F300002FB0A99C3F57F43B9F80A20FD33134415
:102F4000A9F80A3058E74248424900234360AB6978
:102F50000360FFF783FE00285CD00223AB750023DB
:102F600000930423EA182146374800F07DFF00282B
:102F700031D048F20D64CFE72B69002B0CBF012341
:102F80000323AB750023009305F10C02042304F125
:102F90000801E9E70123AB750022EB8800922A695A
:102FA0009B0004F10C01DFE7032914BF062305236E
:102FB000AB7500230093042305F10802E118D3E761
:102FC0000623AB75234B1988214B5868FFF7A2FDE8
:102FD00004460028A0D108B0BDE8F08741F61D5492
:102FE0009AE7002E7FF406AF2B79012B34D0022B09
:102FF0003FF446AF13B148F20E64FDE602232B7195
:103000000DF10A01EB68039303A8CDE90466FFF70D
:1030100025FE10B948F20964EEE60498BDF80A10DE
:103020008388EB8003882B81FFF774FD044628E03A
:1030300004050020000500204805002000060020AF
:1030400020050020180500200000002008050020B1
:10305000F4040020F0040020DFF8F49103AA4B46AA
:103060003146A81DFFF74EFE044670B9B9F80410AA
:103070000498FFF74FFD48F20963984204463FF475
:10308000FFAE002C7FF4B8AEA5E748F20963984282
:10309000C9E900667FF4B0AEF2E6002E7FF4AAAE76
:1030A0006C4B197B1A78A9B11E731A78013A062A5B
:1030B000A1D801A151F822F063310000893100004C
:1030C000A7310000AD310000F72F0000B331000040
:1030D000C5310000072AE8D801A151F822F000BF4D
:1030E00001310000AB300000AB30000027310000A0
:1030F0003B3100005F3100005F31000023310000F0
:103100001A89554901321A8100225A801A730A78A5
:10311000B2FA82F252099A720A7DB2FA82F2520926
:10312000DA72012207E04D4958688A8840880332E4
:1031300002448A8002221A70B7E75C88464A4749EF
:10314000142505FB042208685468506088881081A3
:1031500002200C608880002111740622EBE7072210
:10316000E9E79A7A32B9DA7A8AB900221A705A8073
:103170005A6085E6384900229A72CA68002AF2D15C
:10318000097C0029EFD05A80FFF702FE4EE70022AB
:10319000DA72314A116A0029E7D192F82420002A14
:1031A000E3D00122EFE7FFF7D1FC3FE7FFF76EFC2A
:1031B0003CE75A88284B142101FB02335868FFF77B
:1031C00099FC33E700225A60FFF780FC2EE70122CA
:1031D0008DF80C201A89ADF818209A88DB68ADF8B4
:1031E0001A20059310E002228DF80C201A89ADF800
:1031F00018209A88ADF81A20DA689B7D05929A1FEC
:10320000534253418DF81C3003A8FFF7D3FB00262F
:10321000414613483E6000F04DFB1248012100F08A
:10322000ACFB00287FF4CDADD5E603228DF80C2051
:10323000DA88ADF818201A89D0E704228DF80C201E
:10324000DB88ADF81830DFE705238DF80C30DBE7BD
:10325000E8040020080500202005002018050020B3
:1032600048050020FC0500204068FFF7A3BD0000D2
:1032700008B50548012100F068FB18B9BDE8084011
:10328000FFF798BD08BD00BFFC0500202DE9F34104
:103290009846364B1B7806460D46002B5AD000291F
:1032A0005BD009884FF6FF73994259D06B88002B89
:1032B00056D06B689B0756D14AB92F890DF1020190
:1032C0003846FFF7B5FB30B102B0BDE8F081138896
:1032D0005788ADF8023001A8FFF754FCBDF8022072
:1032E000044650B9224B142101FB0233588903389C
:1032F000C01B588148F20760E6E780F80080002391
:1033000083756B680361828201211A4800F029FBF2
:103310002B882381B8F1030F6B88A38004BF04239B
:10332000A3754FF0000508BF3368E06008BFA361D4
:103330001148E780658101A900F081FA36B1E368A0
:1033400033600E4B75601B89B5723381FFF790FFB8
:103350000020B9E748F20160B6E748F20460B3E73D
:1033600048F20360B0E748F20260ADE700060020D3
:1033700020050020E4050020480500200805002065
:1033800008B5034607480268042A08D00168064ABF
:1033900042F82130012100F0E4FA002008BD48F293
:1033A0000B60FBE7F8050020E80500202DE9F04F51
:1033B000754F87B01422002101A802F0ABFA3B78C8
:1033C00003F0FF0B1BB101A8FFF7F4FA03E0381D6F
:1033D00000F0DFFA20B10024204607B0BDE8F08FEE
:1033E0004FF010234FF080525B691269DFF89CA107
:1033F000591C04BF30235343CAF810306449A3F565
:10340000405300225046CAF80C3000F0FBFC044642
:103410000028E1D15F4960481C238C2200F0D2F9DA
:10342000A1464FF003082546DAF80C604E443046BA
:10343000FFF7E6FA01285ED0032816D0002849D00D
:1034400009F58059B9F5405FEED1B8F1010F06D901
:10345000E4B2062C71D075D814F0FD0F72D10023A0
:103460003B7048F20A647B60B6E733685A1C02D0AE
:103470004A4A934220D1331D06F580521968013122
:103480001AD104339342F9D1454B1A682AB9022262
:103490001E609A804FF0010B0BE014236B434148F0
:1034A0000221C218C154404B56605D800135118124
:1034B000ADB244F00104C3E73A4A14236B43D11878
:1034C00008F1FF384E600321D1541FFA88F8013506
:1034D000ADB2B5E7334914236B43CA18C8545660DC
:1034E00003F1100208330A4430461944FFF758FB31
:1034F00044F00204EBE72A4BBBF1000F0FD0DFF8DA
:10350000A4C014226A430CEB020102200CF8020052
:103510001A684A60244A088155800135ADB22349B2
:103520001E6000223046FFF73BFB1D4B9B88022BA1
:1035300014BF082304231C4382E701233B700023AC
:103540007B6040E76846FFF71DFBC8B10123013CE3
:1035500003700A2C09D8DFE804F0060806080708FB
:1035600007080F110F000023037169460A4800F095
:1035700066F9FFF77DFE2EE70323F5E70223F3E765
:1035800048F2076428E700BF000600200000002082
:10359000846300005805002048050020DEC0ADDE31
:1035A0001805002020050020080500201C0500202B
:1035B00073B50D460446C0B1B9B10DF10601FFF770
:1035C0004DFBA8B10C4BBDF806206668142000FB2B
:1035D0000230012100F0C5F963682E600C336B6086
:1035E0000123A372002002B070BD48F20460FAE724
:1035F00048F20960F7E700BF2C05002013B5044628
:10360000A8B10DF10601FFF729FB98B1BDF806201E
:103610000B4B142101FB0233DA6872B1A27A62B15A
:10362000DA680020013ADA60A07202B010BD48F2F8
:103630000460FAE748F20960F7E748F20560F4E74A
:103640002005002002230022FFF720BE18B103232B
:103650000022FFF71BBE48F2046070470F4B1B7837
:1036600007B5A3B101A8FFF78DFA98B1062303703F
:1036700001A90B4800F0E3F80A4B1A780AB10122BD
:103680001A73FFF7F5FD002003B05DF804FB48F264
:103690000160F9E748F20760F6E700BF0006002086
:1036A000480500200805002007B5ADF80600ADF874
:1036B00004100DF1060001A9FFF724FB03B05DF82B
:1036C00004FB00002DE9F84F3C4B1B780446002B0F
:1036D0006ED000286FD0DFF8E89010220021023071
:1036E00002F018F9032323804FF0000A4F461426F6
:1036F0004FF00108D9F80410B9F80AB0B9F8085029
:103700000846FFF77DF9032808BF2388628804BFB5
:1037100003F1FF33238006FB0A735D44DB68134427
:10372000638023899B446389A4F808B0ADB22B441D
:103730006381C5F58065A389ADB2AB4238BFA58171
:1037400001F1080501F58051A94229D92B680133FF
:1037500026D02846FFF73EF901280AD0022815D0C6
:103760000028F1D1A3880133A3800AE04FF0010AB9
:10377000C0E7E3880133E380E3896A8803331344B5
:10378000E3816B88033305EB8305DDE7E38884F889
:1037900010800133E380E389491B03EBA101E18140
:1037A00009F11409BAF1000FE0D00020BDE8F88F4C
:1037B00048F20160FAE748F20460F7E700060020EB
:1037C0002005002010B561B1B2FBF3F403FB142413
:1037D000A4B244B9C0E9001484608281C381204648
:1037E00010BD0E20FCE70920FAE737B550E8013F8D
:1037F0009DB2C48925448489A54228BF2D1B048914
:10380000A54202BFBFF32F8F002207E0C5EA0305E0
:1038100040E80154002CE9D14FF001028DF803205B
:103820000193019A0A609DF8031001F0FF0321B192
:10383000006810FA82F003B030BD1846FBE70A8832
:103840004B889A4209D150E8012FC2EA024240E86F
:103850000123002BF7D1012070470020704737B5B6
:1038600050E8023F1FFAA3F5C488A54202BFBFF388
:103870002F8F00220DE0C48925448489A54228BFEA
:103880002D1BC3EA054540E80254002CE8D14FF057
:1038900001028DF803200193019A0A609DF803103C
:1038A00001F0FF0321B1006800EB124003B030BD0E
:1038B0001846FBE70A884B889A4209D150E8022F44
:1038C000C2EA224240E80223002BF7D101207047D0
:1038D0000020704710B5034653E8000F0A4643E83E
:1038E000002494F0000FF7D110BD10B5034653E843
:1038F000000F40EA010243E8002494F0000FF6D1E3
:1039000010BD10B5034653E8002F42EA010043E81A
:10391000000494F0000FF6D110BD10B5034653E833
:10392000000F00EA010243E8002494F0000FF6D1F2
:1039300010BD10B5034653E8002F02EA010043E82A
:10394000000494F0000FF6D110BD10B5034653E803
:10395000000F00EB010243E8002494F0000FF6D1C1
:1039600010BD10B5034653E8002F02EB010043E8F9
:10397000000494F0000FF6D110BD10B5034653E8D3
:10398000002FA2EB010043E8000494F0000FF6D1F1
:1039900010BD0121FFF7A9BF0121FFF7B2BF002130
:1039A000FFF7BBBF0021FFF7C4BF10B590B1D0E94E
:1039B000012301689B1ADBB20A60013BDBB2FF2BDB
:1039C000026802D10020107110BD11684C1C1460F7
:1039D0000B70F2E70E20F7E738B504460020FEF73B
:1039E000A9FE2268616813688B4213D9591E1160C1
:1039F00013F8013C208AE56800FB0355A3685B1AB5
:103A00001179DBB2994200D213710020FEF794FEC7
:103A1000284638BD0025F8E738B5054600200C4695
:103A2000FEF788FE2A681368591C1160EA68A41A18
:103A30002A8AB4FBF2F41C70BDE838400020FEF77F
:103A40007BBE826810B504462AB1436901680069EB
:103A500098470023A36010BD0EB403B5039921B1AC
:103A600004AB01AA019300F06FF802B05DF804EB1B
:103A700003B07047826830B40468551C8560A15457
:103A8000D0E901329A4202D330BCFFF7DABF30BC32
:103A9000704700002DE9F84F9946DDE90A431546C5
:103AA000824688460A460127AA420FD24F4538BFB0
:103AB0004F4613F0010B01D164B900240126B9F17E
:103AC000010F1CD909F1FF396E43F8E70137B2FB4A
:103AD000F5F2E9E79B0710D5B9F1000F0CBF3026CE
:103AE0002026BC42EAD9013C31465046FFF7C2FFCE
:103AF000002CE2D0BC42F6D1E0E72026F1E7B8FB8B
:103B0000F6F39D42E0D9DFF83C90B8FBF6F350465F
:103B100019F8031006FB1388FFF7ACFF3346AB42DE
:103B2000B6FBF5F6F1D2BBF1000F00D034B9BDE819
:103B3000F88F20215046013CFFF79CFFBC42F8D88B
:103B4000F5E700BF3C6300002DE9F74F06469046BD
:103B50000F46002900F0528117F8011B49B9337B49
:103B6000002B00F04B81304603B0BDE8F04FFFF76B
:103B700068BF252940F0BC8000253A4612F8013B79
:103B80002D2B25D0302B27D02B2B28D000242A2BCF
:103B900007F1010226D1D8F80030191D1B68C8F8BA
:103BA00000101C4417463B782E2B27D101374FF0CD
:103BB000000A0A20394611F8012BA2F1300CBCF1A1
:103BC000090F1DD800FB0A22A2F1300A0F46F1E7C7
:103BD00045F001051746D0E745F00205FAE745F044
:103BE0000405F7E712F8013CA3F130010929DAD8FE
:103BF0000A2101FB0434303C1746C8E74FF0000AA5
:103C00003A4612F8011B01F0FB0068281746F8D06D
:103C1000782909D86F290BD8632963D020D82529A2
:103C200066D0582900F094803B78002B94D196E719
:103C300070390829F8D801A252F821F0D33D0000CC
:103C4000293C0000293C0000653D0000293C0000A3
:103C50003B3D0000293C0000293C0000513D000094
:103C6000642901D06929DFD1D8F80020D2F800B04A
:103C7000111D8BEAEB72C8F80010A2EBEB724FF04B
:103C800001090A21092A37DCD14538BFD1462CB1B8
:103C9000BBF1000F01DB6A0700D5013CAB0702D581
:103CA000BAF1000F03D0E80701D454BB0024BBF1E4
:103CB000000F32DACBF1000B2D213046FFF7DAFE90
:103CC00005F00302022A04D1BAF1000F01D144BB6E
:103CD0000024CDE9004553460A2259463046FFF7F5
:103CE000D9FEA1E7D8F800301A1D1978C8F80020CD
:103CF0003046FFF7BFFE97E709F10109B2FBF1F289
:103D0000C0E7A145D3D2013C20213046FFF7B2FEE7
:103D1000002CCBD0A145F6D1C9E76907D0D52B211E
:103D2000CBE7A145D5D2013C30213046FFF7A2FEBA
:103D3000002CCDD0A145F6D1CBE7D8F800100A1D54
:103D4000C8F80020CDE9004553460A220968C5E7B6
:103D5000D8F800100A1DC8F800205346CDE90045E8
:103D60001022F3E7D8F800301A1DC8F8002015F02B
:103D70000105D3F8009024D1B9F1000F03D04846D3
:103D800001F068FD0546AC421DD809F1FF3919F86C
:103D9000011F00293FF448AF3046FFF76BFEF6E7FE
:103DA00030460135FFF766FE19F805100029F7D1F6
:103DB000A542BFF439AF20213046013CFFF75AFE3F
:103DC000F6E70025F0E720213046013CFFF752FEE0
:103DD000D9E7D8F800301A1DC8F800203021304645
:103DE0001C68FFF747FE78213046FFF743FE0022AC
:103DF0000823CDE90032214610226FE703B0BDE869
:103E0000F08F00BF13B50B46114680B9104B114817
:103E1000114AC01A0E23C0080093104B0004104929
:103E200040F0010000F0ABFD0E2002B010BD4BB918
:103E3000074B08480B4AC01AC0080E230093000421
:103E4000064BECE703601B6802B0BDE81040184762
:103E500088590000C8590000D25F0000726300005A
:103E6000D75F0000066000002DE9F743DDF82880E9
:103E700088B9474B4748484AC01A0E23C0080093E8
:103E8000464B000440F00100454900F078FD0E204B
:103E900003B0BDE8F0834AB93D4B3E48414AC01AE1
:103EA000C0080E23009300043C4BEBE7D0F800E081
:103EB000BEF1000F0FD1364B36483B4A3849C01A85
:103EC000C0080824000440F00100344B009400F0C6
:103ED00056FD2046DCE77BB92D4B2E48334AC01AED
:103EE0000923C00800932D4B000440F001002C4929
:103EF00000F045FD0920CBE74768D7F80490B3FBF5
:103F0000F9F709FB17374FB1214B2248284AC01A4D
:103F1000C008092300930004204BE6E78F070FD069
:103F20001B4B1C48234AC01A1023C00800931B4B8C
:103F3000000440F001001A4900F021FD1020A7E71D
:103F400012F0030F09D0124B12481B4AC01AC008C6
:103F5000102300930004114BEBE7C768B9420DD35F
:103F600005694C1E1C44AC4208D8CDF82880DEF808
:103F70000C40A44603B0BDE8F0436047044B05483D
:103F80000E4AC01AC008102300930004034BD0E768
:103F900088590000C8590000D25F00005F6300002C
:103FA000D75F000054600000006000001360000054
:103FB0005A600000846000009C600000BF60000048
:103FC000F7B580B92D4B2E482E4AC01AC0080E24D2
:103FD0002D4B009400042D4940F0010000F0CFFC6F
:103FE000204603B0F0BDD0F800C0BCF1000F09D1ED
:103FF000224B2348264AC01AC0080824224B0094AA
:104000000004E8E74AB91D4B1D48224AC01AC008FF
:1040100009241D4B00940004DDE74768D7F800E051
:104020000EF1FF370F420FD0144B15481A4AC01A31
:104030001023C0080093144B0004144940F0010001
:1040400000F09DFC1024CBE7C768B9420CD305698A
:104050004C1E0EFB0244AC4206D8DCF81040A446CD
:1040600003B0BDE8F0406047044B05480B4AC01A56
:10407000C008102300930004034BDEE788590000BA
:10408000C8590000D25F00004C630000D75F0000F9
:104090000060000013600000E66000000C6100009A
:1040A000014B436000207047A4630000084670473E
:1040B00000207047024B1868003818BF0120704775
:1040C0000806002008B50248FFF76CFC002008BD78
:1040D0000806002008B510461A4601F0E9FB00204A
:1040E00008BD00002DE9F041804686B011480F461A
:1040F00016461D46FFF74DFC0446C8B9AA083146CE
:104100003846FDF74DF90B48FFF74CFCD8F808305E
:1041100053B101228DF800200C9A0592CDE9014798
:10412000CDE9036568469847204606B0BDE8F081B2
:104130001124F9E7080600202DE9F043814687B0F5
:1041400014480E4615469846FFF723FC0446F0B97E
:104150000746BD4215D10F48FFF724FCD9F80830B7
:104160005BB102228DF800200022CDE90126CDE9C5
:104170000325CDF8148068469847204607B0BDE86F
:10418000F08306EB0730FDF7F3F80137E1E7112480
:10419000F3E700BF080600202DE9F84FB0F806A0AD
:1041A0004579D2F800B09DF828900AFB05F5043D4A
:1041B00088460BEB0301A94203F1040488BFA5EB79
:1041C000030BB4FBFAF607460AFB1644C2F800B02C
:1041D0004EB9AAEB04055D4528BF5D46BBF1000F53
:1041E00004D1BDE8F88F3F68013EF1E7043408EBE5
:1041F00006003C442A46B9F1000F0DD02146ABEB36
:10420000050B01F055FBDA452E443F6855464FF04B
:10421000000428BF5D46E1E701462046EFE7FFF7CF
:10422000C4BBF8B546790146721E05460023934289
:104230002D6803D30024A64202D8F8BD0133F6E767
:104240000F682846FFF7E8FB01343946F3E72DE90C
:10425000F041078ACD1C0646FFF7BEFB043F3D44F4
:104260000446B5FBF7F5D0B14FF48073EDB2C780CB
:104270008380013D066080460027AF4210D2304661
:10428000FFF7AAFB40B16379013363710137C8F8C6
:10429000000006608046F0E72046FFF7C2FF0024DA
:1042A0002046BDE8F08101210430FFF75ABB10B56C
:1042B000012104460430FFF760FBC0B220B920465C
:1042C000BDE81040FFF7ADBF10BD1FB5039200223F
:1042D000009203AAFFF760FF05B05DF804FB1FB56D
:1042E00003920122009203AAFFF756FF05B05DF882
:1042F00004FB20BF40BF20BF7047836800225A6084
:10430000C3E904229A60DA601A60704770B54468A5
:1043100006460D46206818B1B3682946984718B973
:1043200023682B60256070BD2468F3E74368186834
:1043300008B102681A60704743681868704743689C
:10434000186800B97047884203D102681A600120DA
:10435000704703460068F4E77047000007B5054B57
:104360000093054A4FF4805300F037F803B05DF82E
:1043700004FB00BF7D4300000C0600202DE9F8433C
:1043800089461446D2B1114E114F05254FF0000851
:1043900046F00106224609EB0801002001F0B4F9BD
:1043A0008044241A60B93B7843B14FF47A40B04757
:1043B0004FF47A40B047013D02D13D70BDE8F8832B
:1043C00001233B70002CE5D1F8E700BFB06300008B
:1043D0000C160020704701F0C3B9F0B595B01D462A
:1043E000164608460C46FFF75EFF1A9B0D93CDE973
:1043F000086500252B46082205A920460A958DF858
:104400002C500C95FFF76BFF079B0293069B0393C1
:104410009DF814308DF8115003F00302012A1DD1CC
:10442000BDF81420059DC3F3C203C2F383168DF8B3
:104430001030B20008230EA92046FFF750FFC5F345
:10444000952508AB0093324602AB0EA9284600F032
:1044500061FB2046FFF72BFF15B0F0BD022AF8D113
:10446000BDF81650C3F3C203C5F389158DF810309B
:104470000827082D2E4628BF08263B4632460EA99F
:104480002046FFF72CFFAD1B08AB02AA31460EA851
:10449000374400F0A3FB002DEBD1DAE708B5FFF7B6
:1044A0009AFF0448042100F0A7FA034B01225A7135
:1044B00008BD00BFE05900009C000020037813F005
:1044C000040215D003F00303012B03D0022B09D003
:1044D000012070470B6802880233C2F38312134431
:1044E0000B60F5E70B684288023303EB9213F7E7A2
:1044F000104670472DE9F04FDFF818A10F4685B040
:104500000446861C00201546FEF714F9DAF804204C
:104510003A60DAF80830404F03F580639B1AA7F140
:104520000409A7F10808B3421AD30021002D6DD069
:1045300004F00F04A40144F0050464F30F01DAF859
:104540000430C3F30902033233444AF82210002036
:10455000CAF80430FEF7F0F8012005B0BDE8F08F8E
:1045600001213846FFF7FDF94846FFF715FA4046A6
:10457000FFF712FADAF808000090C0F309000330E0
:104580000AEB80006946FFF799FF009B40BBC3F32D
:1045900009020AEB8202D16801919A1C0133C3F32C
:1045A00009030AEB83030092D3F80CB001F0030374
:1045B000012B23D0022B16D083464046FFF7EFF99C
:1045C00010B1009BCAF8083059463846FFF7C9F9C0
:1045D000DAF80830DAF8042003F580639B1AA2E7C2
:1045E000C3F30900CBE7BDF80630C3F389130333E7
:1045F0004FEA1B4B02EB93030093DEE7BDF8043058
:10460000C3F383134FEA1B4B1344F5E7A40544F0AF
:10461000060194E7101600202C260020064B0748C0
:1046200010B500221A70FFF7FAFD044610B90448CD
:10463000FFF763FE204610BD1016002074590000DD
:10464000C463000030B50A4C71B10A4A0A49121B12
:10465000D20800239A4201D1002030BD31F8235006
:10466000854202D00133F5E7034654F83300F4E7FE
:1046700088590000E059000014000020094B01395E
:1046800003EBC000032909D8DFE801F0020A0406A1
:1046900002207047007970474079704700207047CA
:1046A000042070478859000070470000034BD3E98D
:1046B0000130C31A58425841704700BF10160020FD
:1046C0002DE9FF47FFF7F2FF00287AD1744C04F57B
:1046D0008055A861BFF34F8FA0680090C0F3090018
:1046E000033004EB80006946FFF7E8FE009B10B141
:1046F000AA69002A61D0C3F309029F1C013304EBAD
:104700008202C3F3090304EB8303D268DB680293DC
:1047100002F00303022B019200975CD1BDF8063032
:104720006048C3F38919B9F1500FC84628BF4FF04C
:10473000500868F38F1308F10801ADF80630FFF751
:1047400086FD0646002800F09780FFF7ACFD0023A9
:1047500001A908223046FFF7B8FDFB43C3F3090364
:104760000133C7F309010331B8EB830F4FEA830A22
:1047700004EB81012CD908235246A8EB0A083046E5
:10478000FFF7A3FD5FFA88F847490AF1080342469C
:1047900009F10309304607EB9907FFF796FD0097EB
:1047A000AB692F69002B57D03046FFF780FDFFF72C
:1047B0007DFF80F00100C0B204E062689A4204D834
:1047C000A260002004B0BDE8F087C3F3090087E7CA
:1047D00008234246DCE7012B4ED1BDF804303148B6
:1047E000C3F38311062928BF062161F3891302311F
:1047F00001F00F018900ADF80430FFF728FD0646EF
:10480000002839D0FFF74FFD0023082201A93046C8
:10481000FFF75BFD0027BDF80420C2F38312BB0045
:10482000BA4203F10803BBD900994A1CC1F309013C
:104830000331009204EB810104223046FFF745FD6D
:104840000137E8E7FB685B7923B13B6831461B68B9
:1048500038469847FB681F68002FF3D13046FFF7B2
:1048600026FD3846FDF766FFAB690BB9009BA360D8
:104870000020FDF761FF9AE72C6954B90B4B0C48F7
:104880000C49C01AC008000440F0020000F060F8B3
:104890008DE7236820469B689847E3681C68ECE72F
:1048A00010160020745900001C16002088590000C2
:1048B000B05900008A6100002DE9F34704460E4616
:1048C000924601A9012218469946FFF713FE1E4F92
:1048D00020B3019D4FF00008AA1CC84508EB020157
:1048E00027D11A480021FEF7F5FF80F310000004DD
:1048F00040EA1440E4006B1C04F03804C3F30903DD
:10490000C5F3090544F0010407EB8303033544EACA
:10491000881444EA8624D86047F825403B781BB1C8
:10492000FFF7CEFE0028FBD1FFF7BEFE02B0BDE8C8
:10493000F087C1F3090107EB81015AF82830CB60F9
:1049400008F10108C9E700BF101600202C2600203E
:1049500000231A46FFF7B0BF07B50123019201AA51
:10496000FFF7AAFF03B05DF804FB07B5CDE900230C
:1049700002236A46FFF7A0FF03B05DF804FB1FB5F2
:10498000CDE90123069B039301AA0323FFF794FFBC
:1049900005B05DF804FB1FB5CDE90023069B02932B
:1049A000079B03936A460423FFF786FF05B05DF873
:1049B00004FB7FB5CDE90123089B0393099B049376
:1049C0000A9B059301AA0523FFF776FF07B05DF860
:1049D00004FB7FB5CDE90023089B0293099B039359
:1049E0000A9B04930B9B05936A460623FFF764FF1B
:1049F00007B05DF804FB000030B50E4C2269034699
:104A00000020114629B9D968087172B923610A607A
:104A10000AE0C9680D79854201D00968F2E70130E2
:104A20000A28EED14FF0FF3030BDD26814680C6018
:104A30001360F9E71026002038B5084B03F58052C3
:104A4000012514691D7004B938BDE3685D712368E0
:104A500020465B689847E3681C68F4E7101600205E
:104A600010B5037A052B0C460FD0437A23B1084AC0
:104A700008492046FEF7F0FF07492046FEF7ECFF05
:104A80002046BDE81040FEF7DCBF002AF8D0F3E76F
:104A90009F610000A4610000C4610000C38873B579
:104AA00004460D4633B1144A00921449144A28466C
:104AB000FEF7D2FF217A05291CD0637A4BB1A0887A
:104AC000FFF7DCFD0F4B104953F820202846FEF776
:104AD000C3FF227A0D4BA08853F822600021FFF714
:104AE000B1FD0B4903463246284602B0BDE870408E
:104AF000FEF7B2BF02B070BD9F610000AF61000061
:104B0000A7610000D0630000A4610000F46300000E
:104B1000C76100002DE9F04385B01F460C9D0023BE
:104B200095F80C902B7306460C469046294638465D
:104B3000FFF7B4FFB8F1060F09D8DFE808F0041258
:104B4000181F2833400031462846FEF785FF002213
:104B500029463846FFF784FF85F80C9005B0BDE87C
:104B6000F083226831462846FEF776FFEFE7D4E966
:104B7000002331462846FEF76FFFE8E7A36800935D
:104B8000D4E9002331462846FEF766FFDFE7E368F5
:104B90000193A3680093D4E9002331462846FEF729
:104BA0005BFFD4E723690293E3680193A368009352
:104BB000D4E9002331462846FEF74EFFC7E7636974
:104BC000039323690293E3680193A3680093D4E9F4
:104BD000002331462846FEF73FFFB8E708292DE9B4
:104BE000F84F80460E4617461C463BD8002593F8E2
:104BF0000C901D7319461046FFF750FFDFF880A098
:104C0000DFF880B0AE422FD918F80520594620466B
:104C1000FEF722FF0135082DF4D11B49DFF86CB0F7
:104C20002046FEF719FF4FF0000A564523D918F821
:104C30000A507E2D1DD8284600F0C5FD002814BF5F
:104C40002A462E2259462046FEF706FF0AF1010A9F
:104C5000BAF1080FE9D1012221463846FFF700FFDB
:104C600084F80C90BDE8F88F51462046FEF7F4FE1C
:104C7000D0E72E22E6E706492046FEF7EDFEE5E7FF
:104C8000D1610000965E0000D5610000D761000090
:104C9000D36100000649074BC1F81435064B5A7C16
:104CA000064B013A43EA0243C1F81835704700BF8A
:104CB0000010004006000300A800002020000001B2
:104CC000074A084BC2F81435074B5B7C013B40EAAE
:104CD000034343EA002040F08070C2F81805704793
:104CE0000010004000010100A80000200F4B1049F7
:104CF0001A7AC1F81025042A16D8DFE802F00E034C
:104D0000150E03000B4A302111600A4998890A6880
:104D10003E32904204D301207047064A4921F3E70E
:104D20000A683E329A81F6E700207047302E002054
:104D300000100040A0270020044A0023C2E91033DD
:104D40009364034AC2E9103393647047942B0020A4
:104D5000F828002038B5104D104C2B68C4F80032EC
:104D60000F4A104BD07C1B6898470F4BC4F8043592
:104D70000023C4F8103101232361D4F81031002B33
:104D8000FBD00023C4F810312B6843F00403C4F8AF
:104D900000320123636038BDA400002000100040F1
:104DA000302E002098270020B42800200B4B0C4AFE
:104DB0001B6810B50B4C43F00403C4F800320A4BD7
:104DC000D07C1B689847094BC4F80435084B094A46
:104DD0001A60094B04221A7010BD00BFA400002005
:104DE000302E00200010004098270020B42800201A
:104DF0009C270020BD4E0000502E002007498B68E4
:104E000093FAA3F3064A1BBAC2F82435CB6893FA87
:104E1000A3F31BBAC2F82835704700BFA8000020D2
:104E2000001000402DE9F8431F4BDFF880901A78FE
:104E3000012A80460F4609D199F80030202B30D83E
:104E40001B4A116C52F82120137006E0184A116CAD
:104E500052F82120597811BB1170154D15492C6C51
:104E600055F824603046013410F8052B00F020FD81
:104E7000114B86F80180D3F84835B37099F80130AA
:104E80003771DB4303F00103F370AB6C102C28BFC8
:104E9000002401332C64AB640120BDE8F883DB7C83
:104EA000D2E70020F9E700BF302E0020B428002010
:104EB000F8280020B628002000100040664A2DE99E
:104EC000F84FD2F800341BB9BDE8F84FFFF742BFE6
:104ED000DFF88891D9F848300F2BF5D8D2F808348C
:104EE0005F4CDFF88081D2F80C5434F8231098F826
:104EF00001008D424FEA50024FEA830534D1611917
:104F0000897891420BBF4FF0000A4FF0010A01214E
:104F10000021DFF844E16619B270DEF80C2424F8B1
:104F20002320514A137D1BB3C30721D4FFF712FF7F
:104F3000BAF1000F16D0484BD3F80804D9F848301E
:104F40002C440F2BA1780DD8C0B2FFF76BFF48B1EE
:104F5000464A136843F004031360454B4FF4801234
:104F6000C3F80021BDE8F88F4FF0010A0021D0E717
:104F7000404B414E1B6843F00803CEF800321778CF
:104F8000002F5FD0012F41D13C4F3D48BA6C002A21
:104F900051D0DEF80834DFF8ECC05CF82330002B89
:104FA00049D0DEF80834DFF8E0B05CF823301B6845
:104FB000CBF800306319DB78A3B199B9DEF808E4C7
:104FC0005CF82E30013A19719B684CF82E30BA64A7
:104FD00052B303B11B68254ACBF80030136843F085
:104FE00001031360DBF8007002686319F7B1012157
:104FF000D97038789047DBF80010244811F8052B59
:10500000327000F055FC98F801307370204B052287
:105010001A70114BD3F80824C3F82C25C3F8046583
:105020001C4B1D4A1A6083E70B46D4E7DF703846F5
:1050300090473770E7E763190027DF700368384649
:105040009847F6E70E4B38461B68984798F80030AB
:1050500033707770DAE700BF00100040F8280020B6
:10506000A8270020B4280020302E0020D0270020C0
:1050700000E100E0A4000020D6280020942B0020AE
:1050800098270020D42700204C2E0020D82800206C
:10509000502E00209C270020AD4D0000124BD3F86D
:1050A000002132B1D3F80423D00744BF0022C3F853
:1050B0000021D3F80C2132B1D3F80423110744BFE7
:1050C0000022C3F80C21084BD3F8102152B1D3F8B9
:1050D0000423D20606D50022C3F81021034B1B6817
:1050E00003B11847704700BF001000409C27002004
:1050F000114B12484FF4705210B5C3F80825104BED
:1051000000241C700F4B21461C70FFF715FE202257
:1051100000F000FC0C4B1C605C600C4B4FF48012E8
:10512000C3F88020BFF34F8FBFF36F8F084B03226C
:10513000C3F80022204610BD00F00140A82700203F
:10514000502E0020512E0020C827002000E100E052
:1051500000100040F8B50446002800F0E080724DD1
:105160002B78002B40F0B580704B62681A60704A53
:10517000234604F11807164618685968144603C4F4
:105180000833BB422246F7D100246A4B6A481C60B0
:105190002022214600F0BEFB684BB27A1C605C60A6
:1051A000674BC3F80C25FFF7A1FD3378654A002B48
:1051B00000F09580012B00F09680737A012B00EAB5
:1051C000040000F09F80022B00F08F80002B00F085
:1051D000A080002300EA03041368F07C9847002CA9
:1051E00000F09F80564B584958484FF0E732C3F8BB
:1051F0001C254FF04332C3F82025554AC3F8242517
:10520000544AC3F82825FFF797FD0A4600230133C7
:10521000102B40F8042B02F12502F8D14E4A4F48DA
:1052200000230133102B40F8042B02F12502F8D1A2
:1052300000224B4B14460132102A19601C719C60ED
:1052400001F1250103F10C03F5D12022002145488D
:1052500000F060FB444A45490423C2F8103540F28F
:105260000223C2F80845C2F80032414BC3F860156A
:10527000C3F86425A2F50E42FC3AC3F8682502F58E
:105280000F420C32C3F86C2502F59872C3F87025F2
:10529000A2F51142303AC3F8742502F511423432B6
:1052A000C3F87825264AC3F87C25737C314A5B0114
:1052B000DBB282F80133B37C5B01DBB282F81433DA
:1052C0004FF4801313602C4B1C7001232B700020B3
:1052D00004E0FFF70DFF00283FF446AFF8BD274B71
:1052E0001360012469E7264BFAE715494FF6FF746E
:1052F000C1F83C45234CC1F838451149C1F8343553
:10530000012367E70E49FF24C1F83C4540F207142A
:10531000F1E70B49C1F83C35C1F83835EDE70E200F
:10532000DCE70720DAE700BF512E0020482E0020DE
:10533000302E0020D0270020A8270020C8270020DA
:105340000010004098270020E02B0020942B002024
:10535000E743C323A363E31344290020F828002074
:10536000F4270020D427002000A0004000110040B6
:1053700000F0014000E100E0502E0020C14C000090
:10538000954C00002110010037B5174B1B680193A5
:10539000164B1B782BB3164B0221C3F88010BFF3BA
:1053A0004F8FBFF36F8F13480022056802601960AA
:1053B000114C2368ABB1E90703D58DF8002068468E
:1053C0009847AA0705D501238DF800306846236861
:1053D00098476B0705D502238DF80030684623688F
:1053E000984703B030BD00BFA4270020512E0020F5
:1053F00000E100E0D0270020482E0020194B1B7848
:1054000070B54BB350B3184CA36C4BB3174D022679
:10541000C5F88060BFF34F8FBFF36F8F636C54F894
:1054200023100A7802704B78437091F90230837030
:105430000B790371CB78C3700531053000F038FA71
:10544000636C0133102B28BF00236364A36C013B02
:10545000A3642E60002070BD0820FCE70E20FAE750
:105460000520F8E7512E0020F828002000E100E098
:1054700010B51A490B7803F0FF0063BB184B194CA9
:105480004FF0FF32C3F80823174AC3F81001146025
:10549000164A126842F00402C3F800221022C3F830
:1054A000042304220A70124A917CC3F83015D27C7E
:1054B000C3F808250F4AC3F804250F4A0221C2F891
:1054C000801111600122C3F80401C3F80801C3F878
:1054D00010015A6010BD1120FCE700BF502E0020C3
:1054E00000100040BD4E00009C270020A4000020BA
:1054F000A8000020B428002000E100E0094B1B7840
:1055000073B1094A0221C2F88010BFF34F8FBFF375
:105510006F8F064B00209864C3E91000116070473C
:1055200008207047512E002000E100E0942B00205D
:10553000094A1278034602F0FF004AB953B1074AFC
:105540001B68136093FAA3F3054AC2F81C35704731
:10555000112070470E207047502E0020A800002018
:1055600000100040094A1278034602F0FF004AB9D1
:1055700053B1074A1B68536093FAA3F3054AC2F874
:1055800020357047112070470E207047502E0020A4
:10559000A80000200010004038B50F4B1B780C46C7
:1055A00003F0FF0593B998B1082913D80A460146BC
:1055B0000A4800F07DF90A4AFF231474C4F1080474
:1055C00023419374FFF71AFC284638BD1120FCE7ED
:1055D0000E20FAE70720F8E7502E0020B000002048
:1055E000A8000020074A1278034602F0FF0022B903
:1055F000642B04D8044AD3747047112070470720E5
:10560000704700BF502E0020A80000200369C26828
:1056100093429CBF81685B18013B981A70472DE943
:10562000F041D0E902840546A8EB040640689642A2
:1056300020440F46144404D900F03AF9EC60BDE868
:10564000F0813246A4EB080400F032F96868224683
:10565000B919F1E72DE9F843C568064689461746AA
:105660004FF000083369B46870689D4228BF1B1969
:10567000641BBC4203F1FF3328BF3C465B1B9C42CA
:1056800028BF1C4649462844224600F011F9B36859
:105690002544AB4208BF00253F1BA044A144F56050
:1056A000E0D14046BDE8F88310B5114C114AA26123
:1056B0000223C4E90433104BE361A2644FF4006396
:1056C0000E4A0F492362E26400231022E01DA36208
:1056D0006362E362A3656365E365226500F0D0F869
:1056E0000849204600F0CCF82023A37110BD00BF6C
:1056F0006436002025620000622E0020522E002019
:105700002E62000032620000F8B5144B182700FB2F
:1057100007751D4407FB00330E46DB6A012B144658
:105720000AD0022B14D023B92846FFF76FFF84421A
:1057300008D900242046F8BD2846FFF767FF8442B9
:1057400028BF0446224631462846FFF768FFF1E7A6
:105750002846BDE8F840FFF77DBF00BF6436002053
:10576000FFF7A2BF84460020002918BF002A00D1FD
:105770007047097848B2002844BF6FF001007047B5
:10578000BCF1000F18BFCCF800100021C3E90011D4
:10579000002818BF012070477F298EBF6FF00100DD
:1057A00001700120704743F2DC62C2F2000213680C
:1057B000002B02BF40F2BC03C2F2000313605A6820
:1057C0009268126810470921FFF7EDBF7F2884BF58
:1057D0000020704746F29C52C0F20002105C46F274
:1057E0001C62C0F20002515C08407047A0F16101E8
:1057F0001A2938BF20387047A0F141011A2938BF53
:10580000203070477F2884BF0020704746F29C52AA
:10581000C0F20002105C46F21C62C0F20002515C51
:1058200008407047A0F161011A2938BF203870473D
:10583000A0F141011A2938BF20307047082938BF2C
:1058400070470022C0E9002143F2E061C2F200018A
:10585000086070470178002904BF002070470021CC
:105860004FF001324358C2FA53F30431002BF9D000
:1058700093FAA3F0B0FA80F001EBD000043870473F
:105880000246F0B44FF00137FB0151F8044BE51B21
:10589000A5431D4002D142F8044BF6E70439F0BCA1
:1058A00011F8013B02F8013B002BF9D1704700BF12
:1058B0005AB3844690EA01039B071FD1830707D0A0
:1058C00011F8013B00F8013B013AF7D11CE0844696
:1058D000203A09D32DE9F007B1E8F807A0E8F80766
:1058E000203AF9D2BDE8F0071C3205D451F8043B48
:1058F00040F8043B043AF9D2043205D011F8013BD8
:1059000000F8013B013AF9D16046704700220B00D4
:1059100011001A0084465AB3830704D000F8011B13
:10592000013AF9D124E0C9B241EA012141EA014139
:10593000202A11D3203A2DE9F0030B460C460D46E0
:105940000E460F4688468946A0E8FA03203AFBD265
:10595000BDE8F00320320BD0042A05D340F8041B25
:10596000043A05D0042AF9D200F8011B013AFBD110
:0459700060467047D6
:10597400C82600209027002098270020D026002049
:045984001800000007
:105988005F5F000000000000655F0000000000008D
:105998006C5F000000000000705F00000000000065
:1059A800755F0000000000009B6100000000040417
:1059B800945F000000000000595F00000000000034
:1059C8005B61000000000404686100000000000042
:0859D8007161000000000000F5
:1059E000B8630000000000007A6100009C00002005
:1059F000000000000000000069320000000000000C
:045A000000000000A2
:105A04005541525420494E49540A004644532049B2
:105A14004E49540A00456E68616E6365642053689C
:105A24006F636B4275727374205265636569766542
:105A34007220494E49542E0A004553422053746142
:105A440072740A001B5B313B33326D4576656E74AC
:105A54003A20257320726563656976656420284E53
:105A640052465F5355434345535329001B5B313B17
:105A740033326D4576656E743A2025732072656302
:105A840065697665642028257329005265636F7201
:105A9400642049443A093078253034780046696CEA
:105AA400652049443A0930782530347800526563DA
:105AB4006F7264206B65793A093078253034780048
:105AC4004553422064617461205570646174696E49
