:10000000006000204902000001020000030200001D
:1000100005020000070200000902000000000000C5
:100020000000000000000000000000000B020000C3
:100030000D020000000000000F020000110200008D
:100040001D0B00006D580000151100001302000088
:100050001302000000000000B90F00009111000021
:10006000130200001302000013020000130200003C
:10007000130200001302000013020000130200002C
:1000800013020000312E00001302000013020000D2
:100090004D5B000013020000130200001302000079
:1000A0001302000013020000000000000000000026
:1000B0001302000013020000000000000000000016
:1000C0000000000000000000000000000000000030
:1000D0000000000000000000000000000000000020
:1000E0000000000000000000000000000000000010
:1000F0000000000000000000000000000000000000
:1001000000000000000000000000000000000000EF
:1001100000000000000000000000000000000000DF
:1001200000000000000000000000000000000000CF
:1001300000000000000000000000000000000000BF
:1001400000000000000000000000000000000000AF
:10015000000000000000000000000000000000009F
:10016000000000000000000000000000000000008F
:10017000000000000000000000000000000000007F
:10018000000000000000000000000000000000006F
:10019000000000000000000000000000000000005F
:1001A000000000000000000000000000000000004F
:1001B000000000000000000000000000000000003F
:1001C000000000000000000000000000000000002F
:1001D000000000000000000000000000000000001F
:1001E000000000000000000000000000000000000F
:1001F00000000000000000000000000000000000FF
:10020000FEE7FEE7FEE7FEE7FEE7FEE7FEE7FEE7C6
:10021000FEE7FEE709480068094909680A280AD18B
:10022000002908D1074802686FF070031A404FF0A8
:1002300040031A43026000F009B8000030010010CA
:1002400034010010E40E0040FFF7E4BF0B484FF00C
:100250000701884385460A48804700F019B80948D5
:1002600009490A4A884207D0521A05D0037801305A
:100270000B700131013AF9D1704700000060002095
:10028000D90400009071000000000020140000203C
:1002900039493A480A1A02D0072291438D46384913
:1002A00038480A1A06D00722914381F309880222AE
:1002B00082F3148834483549354A00F03EF8354811
:1002C0003549364A00F039F835483649364A00F0A3
:1002D00034F836483649374A00F02FF8364837495F
:1002E000374A00F02AF837483749384A00F025F8ED
:1002F00037483849384A00F020F838483849002251
:1003000000F033F837483849002200F02EF837481B
:100310003749091A06F0F6FD364A90472448254920
:10032000884205D00268043003B4904703BCF7E765
:1003300000200021304A9047FEE7884214D0521A2C
:1003400012D003460B4313430324234206D1036810
:1003500004300B600431043AF9D17047037801305E
:100360000B700131013AF9D17047884202D0027016
:100370000130FAE7704700000060002000580020BC
:100380000060002000600020DC8E000014000020CF
:10039000F0000020FC030000FC0300000C710000D2
:1003A000DC8E00001400002014000020A471000066
:1003B000A4710000A4710000A4710000A4710000E9
:1003C000A4710000A4710000A4710000D98E000087
:1003D000B88F0000F0000020F0000020F0000020A6
:1003E00038340020383400203834002038340020DD
:0C03F000383C00205F020000FD0300000C
:1003FC0008B500F033F918B1284A752101F01EFF39
:10040C00002000F09BF9002000F04AF900F026FAD9
:10041C000028FBD000F07EF90028F7D002F042F85B
:10042C0018B11E4A7D2101F009FF4FF480410020D4
:10043C0004F042FC18B1194A582101F0FFFE04F0F7
:10044C0077FB174C06F01CFD164B1749E41AE40811
:10045C00240444F00304204604F0DAFD05F07AFE8F
:10046C001249204604F0D4FD06F0ACFA104920469F
:10047C0004F0CEFD06F028FA0E49204604F0C8FD23
:10048C0006F05AF90C49204604F0C2FD04F066FC53
:10049C000028FBD104F020FAF8E700BFA47100009B
:1004AC0050710000207100001572000020720000D5
:1004BC002A720000517200005C720000024AD2F8ED
:1004CC000034002BFBD0704700E001404FF080530C
:1004DC0010B5D3F830210A2A5BD1D3F844224FF05F
:1004EC008041C2F34232C1F83C250022C1F80C21F4
:1004FC00C1F81021C1F83825484AD3F80404C2F8D1
:10050C002005D3F80804C2F82405D3F80C04C2F86B
:10051C002805D3F81004C2F82C05D3F81404C2F83B
:10052C003005D3F81804C2F83405D3F81C04C2F80B
:10053C004005D3F82004C2F84405D3F82404C2F8CB
:10054C004805D3F82804C2F84C05D3F82C04C2F89B
:10055C005005D3F83004C2F85405D3F83404C2F86B
:10056C006005D3F83804C2F86405D3F83C04C2F82B
:10057C006805D3F84004C2F86C05D3F84434C2F8CB
:10058C007035D1F80034DB0709D56FF00103C1F8E1
:10059C0000344FF08053D3F830310A2B0CD14FF08C
:1005AC008053D3F834313BB14FF08042D2F8E43E63
:1005BC0043F00F03C2F8E43E4FF01023D3F80022AF
:1005CC00002A03DBD3F80432002B22DA144901236E
:1005DC004FF01020C1F804351524FFF76FFFC0F859
:1005EC000042FFF76BFFC0F80442FFF767FF0023E0
:1005FC00C1F80435FFF762FFBFF34F8F09490A4B6F
:10060C00CA6802F4E0621343CB60BFF34F8F00BFA4
:10061C00FDE7064B064A1A6010BD00BF00C0004043
:10062C0000E0014000ED00E00400FA051400002099
:10063C000090D00338B5084B051EA3F1080214BF77
:10064C001C46144623682BB11A6822605B68284646
:10065C009847F7E738BD00BF0001002070B50D4C7E
:10066C002578ADB90C486560A5602561E56000F0A2
:10067C00C9F9064600F0DCF9012384F820502370F8
:10068C00064BD3F800340BB10123A370304670BD78
:10069C008526F5E7F0000020090800000000014065
:1006AC0038B51A4C237805461BB91949F62003F0C6
:1006BC00C5FAA37803F0FF00ABB115B16B6801204C
:1006CC009847002002F0E0F9E3680133E360002072
:1006DC0002F0EAF9E368C3B9BDE838400C494FF4BD
:1006EC00897003F0ABBA02F0CFF925B12269134639
:1006FC003BB92A602561E368002BE5D100F0B6F91F
:10070C00E2E79D42F7D01B68F2E738BDF00000200D
:10071C007072000008B5074B1B7823B9064940F2EC
:10072C00251003F08BFA4FF08043D3F81804C0F374
:10073C00004008BDF00000207072000038B51B4C62
:10074C002378054623B91A4940F2331003F076FAA0
:10075C00637803F0FF00ABB115B16B6800209847CC
:10076C00002002F091F9636801336360002002F00D
:10077C009BF96368C3B9BDE838400D4940F24F108E
:10078C0003F05CBA02F080F925B1A26813463BB9BC
:10079C002A60A5606368002BE5D100F07FF9E2E7E1
:1007AC009D42F7D01B68F2E738BD00BFF000002077
:1007BC007072000038B50F4C237823B90E494FF4F2
:1007CC00AA7003F03BFA636823B90B4940F2551049
:1007DC0003F034FA002002F057F96368013B6360C0
:1007EC00656815B900F072F96570BDE838400020F5
:1007FC0002F05AB9F00000207072000010B50446E7
:10080C0030B9144B01225A70BDE81040FFF712BFEB
:10081C00012802D10F4B9870F6E7022804D1BDE8ED
:10082C0010400D48FFF78ABF032811D1FFF7C2FF14
:10083C00084A002192F8203082F82010D269DBB2ED
:10084C0032B1042B0CBF20460220BDE810401047EB
:10085C0010BD00BFF00000200401002008B5094BBA
:10086C001B7823B908494FF4B17003F0E7F94FF046
:10087C008043D3F80C0400F00110A0F1011358428E
:10088C00584108BDF0000020707200001FB50378BD
:10089C008DF800304368019383688DF80830C36885
:1008AC00054A0393054B684653F8213052F8211042
:1008BC00984705B05DF804FB180100201C010020CE
:1008CC001FB503788DF800304368019383688DF869
:1008DC000830C368054A0393054B684653F821302A
:1008EC0052F82110984705B05DF804FB1801002060
:1008FC001C010020F0B5194B90F800C091F81DE0D8
:10090C0089B043F82C20164B16460A6943F82C2064
:10091C00144B0C4603F80CE007460FCC6D460FC584
:10092C0094E80F0085E80F00CDF810C0BEF1000F61
:10093C0009D0002E0C4A694608BF3246381D01F01A
:10094C003BFA09B0F0BD002E084A694608BF324692
:10095C0007F10C0000F082FFF3E700BF1C01002040
:10096C00180100201401002099080000CD08000097
:10097C00024AD2F80034002BFBD0704700E0014053
:10098C000A4908B50223C1F80435BFF36F8FBFF3D2
:10099C004F8FC1F80805FFF7EBFF0023C1F80435B2
:1009AC00BFF36F8FBFF34F8F08BD00BF00E0014056
:1009BC0070B50E4E01231546C6F80435BFF36F8F84
:1009CC00BFF34F8F0024AC4207D10023C6F8043587
:1009DC00BFF36F8FBFF34F8F70BD51F8243040F8C9
:1009EC002430FFF7C5FF0134EDE700BF00E0014004
:1009FC0000F18040002382B0036003680193019BE7
:100A0C0002B0704710B5044618B90749A42003F08A
:100A1C0015F9064B187920B9012298711C609A803F
:100A2C0010BD8520FCE700BFDC7200002001002017
:100A3C0008B50B4B1B791BB90A49BD2003F0FEF816
:100A4C00094B1A68D20704D4C02283F80023012270
:100A5C001A604FF080430022C3F8182508BD00BF70
:100A6C0020010020DC72000000E100E008B5094B19
:100A7C001B791BB90849EA2003F0E0F84FF48270A7
:100A8C00FFF7B6FF4FF080430222C3F80423012284
:100A9C009A6008BD20010020DC72000008B5094BEB
:100AAC001B7923B908494FF4817003F0C7F84FF450
:100ABC008070FFF79DFF4FF080430122C3F80423A1
:100ACC001A6008BD20010020DC72000010B50E4C2D
:100ADC00237923B90D494FF4857003F0AFF84FF02B
:100AEC0080420121C2F808134FF48070FFF780FF99
:100AFC005160D2F80C3403F00113B3F1011FF8D09C
:100B0C000023637110BD00BF20010020DC720000C7
:100B1C004FF0804110B5D1F8003163B14FF48070C3
:100B2C00FFF766FF1F4B58790122C1F8082310B953
:100B3C005A711B6898474FF08042D2F8043153B178
:100B4C004FF48270FFF754FF0223C2F80833154BA1
:100B5C0001201B6898474FF08042D2F8103153B1F6
:100B6C004FF48870FFF744FF1023C2F808330D4B85
:100B7C0002201B6898474FF08042D2F80C3183B1A9
:100B8C0000214FF48670C2F8341CFFF731FF0823A4
:100B9C00C2F80833034B9971BDE810401B68032061
:100BAC00184710BD2001002000F1804000F5C04026
:100BBC00002382B0036003680193019B02B070476D
:100BCC004309B3FA83F35B095B4200F01F0023FA7D
:100BDC0000F000F001007047054B4FF0FF32072882
:100BEC0043F8202084BF1B1883F86020704700BF97
:100BFC002801002010B5C108044C00F00700635C0C
:100C0C000122824023EA0203635410BD9A010020A2
:100C1C0008B5FFF7D5FF30B9BDE8084002494FF4DD
:100C2C00F67003F00BB808BD4673000038B50446E7
:100C3C000D46FFF7EDFFA00000F1A040D0F8003703
:100C4C0023F44033C0F80037D0F8003743EA0543AB
:100C5C00C0F8003738BD000038B5174C94F8762032
:100C6C0042BB04F14801FF251046FFF7A9FF00B174
:100C7C008D540132202AF7D10021C8B20131FFF77F
:100C8C00ABFF1229F9D10D4B00221A600C4BC0217D
:100C9C0083F80613402119604FF4BE70FFF784FFF0
:100CAC00084B4FF00041C3F80413012384F876304D
:100CBC00104638BD0820FCE7280100209A010020CE
:100CCC0000E100E0006000402DE9F84304460F46C7
:100CDC009146FFF775FF20B93F494FF40C7002F0B5
:100CEC00ADFFDFF8F88008EB040393F94830002BD4
:100CFC0070DABB789D07C3F3400047BF082200237E
:100D0C0008231222934202D10420BDE8F88358F83C
:100D1C00231001314FEA830542D108EB04025EB285
:100D2C0048F8239082F8486010B9434483F8604037
:100D3C00BB78590716D4DA0734D52046FFF768FF7D
:100D4C00A30003F1A043D3F8002722F00202C3F85A
:100D5C0000272349E20804F0070001238340885C44
:100D6C0003438B54BB783A789B0729D505F1804314
:100D7C0003F5C0432402D3F8101521F4473121F4B4
:100D8C004071C3F810151204D3F8101504F4F8547C
:100D9C0002F4403214430C43C3F810450020B4E76E
:100DAC000133AFE797F801902046FFF731FF04F5C8
:100DBC00E0734FF0A0414FEA890241F82320C8E7C5
:100DCC00083E48FA86F696F8683043EA821386F8AD
:100DDC006830E3E7082098E77473000028010020CE
:100DEC009A01002070B504460D46FFF7E9FE20B9C4
:100DFC0026494FF4187002F021FF254E331993F950
:100E0C004830002B04DA214940F2612002F016FF31
:100E1C00331993F94820072A1ADD324492F86030CE
:100E2C009B09032B0FD12046FFF7F2FE4FF0A04396
:100E3C00D3F81015E14001F0010102312046BDE864
:100E4C007040FFF7F3BE012B0CBF02210321F5E725
:100E5C00D3B2072B19D8930003F1804303F5C04399
:100E6C0002F14000D3F81015800041F00101C3F8E5
:100E7C00101580B2FFF798FE3DB156F8223023B121
:100E8C0001239340034AC2F8043370BD747300000D
:100E9C00280100200060004038B50446FFF790FEA2
:100EAC0020B9174940F28B2002F0C8FE154D2B19C2
:100EBC0093F94830002B04DA11494FF4237002F0F7
:100ECC00BDFE254495F94820072A05DD2046002162
:100EDC00BDE83840FFF7AABED3B2072B0FD893005A
:100EEC0003F1804303F5C043D3F8101521F0010141
:100EFC00C3F8101501239340034AC2F8083338BDD8
:100F0C0074730000280100200060004038B50446CE
:100F1C00FFF756FE20B921494FF4277002F08EFEE0
:100F2C001F4D2B1993F94830002B04DA1B4940F262
:100F3C009D2002F083FE2046FFF7AEFF2A1992F99E
:100F4C00483092F84820072A9FBF164A03F5A2732F
:100F5C00002142F82310E308134A04F00701D25C85
:100F6C0001238B401A420CD02046FFF751FE04F5AA
:100F7C00E0734FF0A042022142F823102046FFF705
:100F8C0039FE2B1993F94800002802DBC0B2FFF799
:100F9C0023FE2544FF2385F8483038BD74730000C8
:100FAC0028010020006000409A0100202DE9F74F35
:100FBC000024524D01944FF48072012102F18043C0
:100FCC0003F5C0431B68012B07D1D5F804330B4242
:100FDC0003D090B2FFF7E8FD0C430432B2F5907FDA
:100FEC004FEA4101EAD1454BD3F87C31012B0CD1AE
:100FFC004FF4BE70FFF7D8FD4FF0A04344F000440F
:10100C00D3F820250192C3F82025E3B2D3B13C4F8D
:10101C0000250126344210D0AB0003F1804303F5C8
:10102C00C043D3F81005D3F8101557F8253023B169
:10103C00C1F30141C0F3042098470135082D4FEA54
:10104C004606E7D1002C50DA2D4E4FF0A0452D4F1F
:10105C004FF000094FF0010817F9013F5A1C38D026
:10106C00C3F3C20208326A445FFA83FA12F8042C02
:10107C0003F03F0403F0070308FA03F31A4228D0E5
:10108C002046FFF7C5FD04F5E073204655F82330E4
:10109C00C3F3014BBBF1020F14BF02210321FFF775
:1010AC00C5FD2046FFF7B4FD08FA04F3C5F820355A
:1010BC00331993F9483056F8233053B14FEA9A114B
:1010CC00032904D0BBF1020F12D1012901D1204612
:1010DC00984709F10109B9F10A0FBDD1D5F82035AE
:1010EC000193C5F82035002BB1D103B0BDE8F08FCA
:1010FC00BBF1030FEDD10229E8E700BF006000400F
:10110C00280100208F01002010B5054C23681BB965
:10111C0004494B2002F092FD2368BDE810401847AB
:10112C00A0010020E073000038B50C4628B90C492A
:10113C00772002F083FD002038BD0A4B9842FAD18B
:10114C00002001F0A1FC084B1D7915B901221C608F
:10115C001A71002001F0A8FC002DECD01120EBE757
:10116C00E073000000200040A001002000F180404E
:10117C0000F5E040002382B0036003680193019BFB
:10118C0002B07047F0B5534B534CD3F8043185B0D3
:10119C00002B3DD094F82E204FF48270FFF7E6FF21
:1011AC002AB394F82F3013BB4A4AD2F80031002BE3
:1011BC0032D04FF48070FFF7D9FF638B94F82D0079
:1011CC00834250D921891B1A9BB289B26383CB1AF3
:1011DC00616801EB4301C2F82C16C2F830064FF4DB
:1011EC008270FFF7C3FF3B4B01225A6014E0636827
:1011FC0002932389ADF80C30E36800218DF80410BC
:10120C0033BB2374236801A89847002384F82F303C
:10121C0094F82E30002BC7D12E4BD3F810315BB184
:10122C004FF48870FFF7A2FF0023237402238DF87C
:10123C00043001A823689847264BD3F814310BB31C
:10124C004FF48A70FFF792FF0023237405B0F0BDB2
:10125C00208B608363602081E160002AD2D11D4B1A
:10126C0001221A60CEE7BAD1E168012084F82F0080
:10127C0031B100206083C2F82C16C2F83036AEE7CC
:10128C006183ACE765694FF000470126002DDDD086
:10129C00B5FA85F227FA02F34632920025EA0305E5
:1012AC0002F1804303F5E0431B68002BEED010469F
:1012BC00FFF75CFFD308C2F38002233B82F00102EC
:1012CC008DF808308DF8046023688DF8092001A88A
:1012DC009847DBE700700040A801002070B50E466F
:1012EC00054618B92749D82002F0A8FC1EB9254993
:1012FC00D92002F0A3FC244C94F82C30002B3FD1C5
:10130C00224A29782660C2F8F0156978C2F8F415DB
:10131C00E97884F82E10237484F82D30636184F8F6
:10132C002F3001216FF0004384F82C104FF48270A1
:10133C00C2F80833FFF71AFF4FF48070FFF716FF5F
:10134C004FF48A70FFF712FFAD78072D03D91049BF
:10135C006B2002F073FC0F4B6D01EDB283F8075359
:10136C0080221A60094B94F82E100222C3F8042331
:10137C00012209B1C3F80423C3F80025002070BD75
:10138C000820FCE74A740000A8010020007000400F
:10139C00AE74000000E100E070B5424E96F82C30BF
:1013AC0004460D4623B9404940F2251002F046FC94
:1013BC00072C04D93C494FF4937002F03FFC3B4B93
:1013CC00D3F8F435DBB23BB196F82D3023B1364966
:1013DC004FF4947002F032FCEB79013B082B04D9EA
:1013EC0031494FF4987002F029FC2B7A092B04D95F
:1013FC002D494FF4997002F021FC337C03F0FF016E
:10140C00002B4CD12A79012A98BF284B04F10C00EF
:10141C0098BFC3F8001506EB40031B7923B996F867
:10142C002D30013386F82D3006EB4006E979287A09
:10143C006B7870713171AE781B01360206F4E06680
:10144C0003F0300333432E7806F003063343EE7873
:10145C00360306F480563343160406F4E026334371
:10146C006E79AD79360506F4801633432D060F4E92
:10147C0005F080752B43250106EB0414012AC4F8F2
:10148C00183505F1804303F5E043C3F81405C3F8A0
:10149C0010159CBF0123C6F80035002070BD11202B
:1014AC00FCE700BFA80100204A7400000070004057
:1014BC0070B5364C227C02F0FF03002A63D1344A0B
:1014CC00012503262574C2F80863C2F82C16C2F84D
:1014DC00305694F82D20AA420CD919461A0102F163
:1014EC00804202F5E0420133082BC2F81415C2F811
:1014FC001015F3D100F10C03000104EB430300F1D0
:10150C00804000F5E0401A795B79C0F81435C0F8DA
:10151C0010251F4A01231360536042F21073D2F856
:10152C00041131B9013BFAD11A494FF4D27002F0CF
:10153C0085FB4FF48070FFF719FE4FF48270FFF7B4
:10154C0015FE94F82D30012B11D9104900221301EE
:10155C0003F1804303F5E0430132087F4D7FC3F86C
:10156C001455082AC3F8100501F10201EFD194F8C3
:10157C002E20074B2AB103220020C3F80423207429
:10158C0070BD0222F8E71120FAE700BFA801002085
:10159C00007000404A74000070B52F4C94F82C3049
:1015AC0006460D4623B92D494FF4E47002F046FB74
:1015BC0094F82D20B5FBF2F302FB135323B127490A
:1015CC0040F2C91002F03AFB254A1223C2F8083344
:1015DC00217C022903D1C2F80433112070BD237C75
:1015EC00012B1AD1E3680BB10223F4E794F82E30E7
:1015FC00E66025835BB9D2F80031002BFBD04FF4A9
:10160C008070FFF7B3FDC2F82C66C2F83056144B4D
:10161C000222C3F804230020E0E70223C2F80433BB
:10162C000023E36094F82E3066600121217425813B
:10163C003BB194F82D306583C2F82C66C2F8303675
:10164C00E9E7C2F82C664FF48070C2F83056FFF709
:10165C008DFD1160DFE700BFA80100204A74000077
:10166C0000700040002382B0435043580193019B0B
:10167C0002B070470A4610B54FF48E71FFF7F2FFB7
:10168C00136A9168C95C136A01331362C0F81C15A4
:10169C0010BD8B690A4610B54FF4847123B9FFF75E
:1016AC00E1FFD0F8183510BDFFF7DCFF536AD168A5
:1016BC00D0F81805C854536A01335362F3E700009D
:1016CC001FB501238DF80030044BCDE90110D3E98F
:1016DC0000126846904705B05DF804FBD801002065
:1016EC0008B54FF49271FFF7BDFF4FF48471FFF70B
:1016FC00B9FF0123036008BD4309B3FA83F35B0907
:10170C005B4200F01F00C340DB0704D402494FF4D6
:10171C00F67002F093BA70474673000030B54D4D29
:10172C00D5F804339A0585B051D5D5F82431002B62
:10173C004DD04FF492712846FFF794FF4FF401738C
:10174C00C5F80833444B93F829200AB901226A6082
:10175C00404902228DF80020D1F88024C1F8802461
:10176C0003929A690292DA6801920022C3E9062276
:10177C006846D3E9001290473648D0F81C315BB16B
:10178C00354A5169136A99424DD992F82830002B89
:10179C0049D11146FFF76EFF2E48D0F84431002B8B
:1017AC0056D04FF4A271FFF75DFF2B4B93F8292015
:1017BC000AB1012202609A69002A49D0586AD96894
:1017CC0000229A6105B0BDE83040FFF779BFD5F82B
:1017DC0004335B07D0D5D5F80831002BCCD01E4C88
:1017EC001C482146FFF755FF636AA2699A42C3D190
:1017FC00E369E1684BB1A3612369E3600023606A8C
:10180C00E3616362FFF75CFFB6E794F829300BB92C
:10181C0001236B600F4B4FF40172C3F808230023B4
:10182C00606AA361EEE70B484FF48E71FFF71AFF65
:10183C005369002BB0D051690291002391688DF847
:10184C000030019153616846D2E900139847A3E731
:10185C0005B030BD00200040D80100202DE9F84F24
:10186C00064692460C4619B96B49AA2002F0E6F9D5
:10187C0096F80480694D2C2303FB085393F82A3007
:10188C00002B40F0C48066493068FFF74DFC0746DA
:10189C00002840F0BE80D4F80090B9F1FF3F13D07F
:1018AC004846FFF729FF4FF0A04B012303FA09F339
:1018BC00CBF80835D4F80090484609F5E079FFF7E5
:1018CC001BFF03234BF82930D4F80490B9F1FF3FE8
:1018DC0009D04846FFF710FF09F5E0794FF0A04317
:1018EC00002243F829203068A369C0F82435227DF2
:1018FC00637D1343C0F86C35D4E90013012AC0F89A
:10190C001435C0F80C152ED1D4F80890B9F1FF3F5E
:10191C0009D04846FFF7F0FE09F5E0794FF0A043F7
:10192C00002243F82920D4F80C90B9F1FF3F13D0D2
:10193C004846FFF7E1FE4FF0A04B012303FA09F3F1
:10194C00CBF80835D4F80C90484609F5E079FFF748
:10195C00D3FE03234BF82930D4E902323068C0F8A7
:10196C000825C0F810352C2303FB08F3EA18C2F83D
:10197C0004A02269EA50BAF1000F35D094F81C90FB
:10198C004FF48E71FFF76EFE4FF4A271FFF76AFEF3
:10199C00244BC0F80433B9F1070F40F3073403D9D3
:1019AC0021496B2002F04AF9002CB6BF1F4B04F101
:1019BC00604404F00F044FEA49195FFA89F9AABF91
:1019CC0004F5614403F8049084F80093336843F3FE
:1019DC000733002B08DB0122590903F01F0302FA1D
:1019EC0003F3134A42F8213033680422C3F800256C
:1019FC002C2303FB08530022C3E9062283F8292079
:101A0C005A61012283F82A203846BDE8F88F08274E
:101A1C00FAE71127F8E700BFE3740000D8010020B3
:101A2C002917000080000200AE74000014ED00E0E5
:101A3C0000E100E00279044B2C2101FB02335869D0
:101A4C00003818BF01207047D80100202DE9F0475D
:101A5C00304E90F804902C2303FB0963074693F84F
:101A6C002A30012B8846924604D02B494FF48C70B7
:101A7C0002F0E4F8B8F1000F04D1274940F2191034
:101A8C0002F0DCF8BAF1000F04D123494FF48D7049
:101A9C0002F0D4F83846FFF7CDFF0546002834D1C4
:101AAC002C2404FB09644FF48E71C4F814A020623A
:101ABC0084F828003868C4F80880FFF7D3FD0123A8
:101ACC0083602146FFF7D6FD636803BB6569236A13
:101ADC009D4210D8D0F81C31002BFBD00123C360E1
:101AEC0000202C2303FB096600237361BDE8F087FB
:101AFC0094F828303BB9D0F81C31002BF8D0214693
:101B0C00FFF7B8FDE3E70F20EBE71120EEE72846DF
:101B1C00ECE700BFD8010020E37400002DE9F04190
:101B2C00484C06792C2303FB0643054693F82A30D0
:101B3C00012B8846174604D043494FF4B67002F087
:101B4C007DF8B8F1000F04D13F4940F26D1002F05E
:101B5C0075F827B93C494FF4B77002F06FF82C2395
:101B6C0003FB06435A6822B12B684FF40171C3F88A
:101B7C0008132C2303FB0643996949B1D96999B31E
:101B8C0022B12B684FF40172C3F80423112029E011
:101B9C009F61C3F80C8059620F462C2303FB06434C
:101BAC00DF6193F829301BB911B92868FFF798FD4C
:101BBC002868002A40D12C274FF4A27107FB064756
:101BCC00FFF750FD2868D0F82421D0F80811D0F880
:101BDC00443119430CD1002AF4D02C2303FB0643C7
:101BEC0099610320BDE8F081C3F810800121D4E78E
:101BFC0053EA020813D13946FFF74BFD7B6ABA69E9
:101C0C009A42DFD8C7F818802C2202FB06442B68B6
:101C1C0094F82910012269B11A600020E2E72C2106
:101C2C0001FB064100208861002ADAD1002BEBD0A1
:101C3C000F20D7E75A60F0E74FF40173C0F8043374
:101C4C00EBE700BFD8010020E3740000002382B052
:101C5C00435043580193019B02B070471FB50123B9
:101C6C008DF80030044BCDE90110D3E90012684621
:101C7C00904705B05DF804FB040200204309B3FA59
:101C8C0083F35B095B4200F01F00C340DB0704D405
:101C9C0002494FF4F67001F0D1BF70474673000053
:101CAC007FB5434AD2F82461002E60D010464FF421
:101CBC009271FFF7CBFF02238DF80030D2F88034FD
:101CCC00C2F880340393D2F83C350293394BDA686E
:101CDC0001920022C3E906226846D3E9001290471C
:101CEC003348D0F8443173B14FF4A271FFF7AEFF13
:101CFC00304B9A693AB10022D0F83C05D968C3E957
:101D0C000622FFF7ABFF2A48D0F82031ABB14FF4D5
:101D1C009071FFF79BFF0123C360264B5A6962B198
:101D2C00D0F84C150291002299688DF80020019191
:101D3C005A616846D3E9001290471D48D0F85831D3
:101D4C009BB14FF4AC71FFF781FF1A4B5A6962B12A
:101D5C00D0F84C150291002299688DF80020019161
:101D6C005A616846D3E90012904704B070BDD2F8AE
:101D7C001031002BB4D04FF488711046FFF766FF7A
:101D8C000C4BD2F83C0599698842A9D1DC69D96819
:101D9C0064B1D2F8005225F02005C2F800521A693D
:101DAC009C61DA60DE61FFF759FF99E79C61FAE705
:101DBC0000200040040200202DE9F84F0646924610
:101DCC000C4619B97049CF2001F038FF96F8048001
:101DDC006E4D242303FB085393F82030002B40F066
:101DEC00CE806B493068FFF79FF90746002840F01A
:101DFC00C880D4F80090B9F1FF3F13D04846FFF7E4
:101E0C003DFF4FF0A04B012303FA09F3CBF8083543
:101E1C00D4F80090484609F5E079FFF72FFF03232B
:101E2C004BF82930D4F80490B9F1FF3F09D048465B
:101E3C00FFF724FF09F5E0794FF0A043002243F8A7
:101E4C0029203068A369C0F82435227D637D1343B3
:101E5C00C0F86C35D4E90031012AC0F80C35C0F853
:101E6C0014152ED1D4F80890B9F1FF3F09D048468B
:101E7C00FFF704FF09F5E0794FF0A043002243F887
:101E8C002920D4F80C90B9F1FF3F13D04846FFF746
:101E9C00F5FE4FF0A04B012303FA09F3CBF80835FC
:101EAC00D4F80C90484609F5E079FFF7E7FE0323D8
:101EBC004BF82930D4E902323068C0F80825C0F854
:101ECC001035242303FB08F3EA18C2F804A0226996
:101EDC00EA50BAF1000F41D04FF4887194F81C907D
:101EEC00FFF7B4FE4FF49071FFF7B0FE4FF4927110
:101EFC00FFF7ACFE4FF4A271FFF7A8FE4FF4AC71E4
:101F0C00FFF7A4FE234BC0F80433B9F1070F40F3DD
:101F1C00073403D920496B2001F090FE002CB6BF8A
:101F2C001E4B04F1604404F00F044FEA49195FFAA8
:101F3C0089F9AABF04F5614403F8049084F800936E
:101F4C00336843F30733002B08DB0122590903F0F4
:101F5C001F0302FA03F3124A42F8213033680822B5
:101F6C00C3F80025242303FB08550023C5E90633D9
:101F7C006B61012385F820303846BDE8F88F0827BF
:101F8C00FAE71127F8E700BF4B75000004020020A8
:101F9C00AD1C000010034200AE74000014ED00E014
:101FAC0000E100E00279044B242101FB0233586963
:101FBC00003818BF01207047040200202DE9F047BB
:101FCC00354F90F80480242303FB0873814693F863
:101FDC002030012B0E46924604D0304940F253106B
:101FEC0001F02CFE26B92D494FF4AA7001F026FE03
:101FFC00BAF1000F04D1294940F2551001F01EFE30
:10200C0099F8043013B9BAF5806F04D323494FF40F
:10201C00AB7001F013FE06F06043B3F1005F34D1F6
:10202C004846FFF7BFFF044688BBD9F8002024259B
:10203C0005FB08754FF490711046C5F814A0AE60FE
:10204C00FFF704FE4FF4AC71FFF700FE6B69C2F8AA
:10205C004465C2F84835012393606B68CBB9D2F85C
:10206C002031D2F858010343F9D060B90123D36071
:10207C00D2F85831002BFBD0242303FB0877002324
:10208C007B61BDE8F0870F20F6E71020F9E71120FF
:10209C00F7E72046F5E700BF040200204B7500006F
:1020AC002DE9F8434D4D0479242303FB04530646D4
:1020BC0093F82030012B8846174604D048494FF43A
:1020CC00D37001F0BBFDB8F1000F04D1444940F2CC
:1020DC00A71001F0B3FD27B941494FF4D47001F0BA
:1020EC00ADFD337913B9B7F5806F04D33C4940F299
:1020FC00A91001F0A3FD08F06043B3F1005F6AD1B1
:10210C00242303FB0453596821B133684FF4047240
:10211C00C3F80823242303FB04539A695AB1DA69E0
:10212C00002A39D021B133684FF40472C3F8042368
:10213C001120BDE8F8839F61C3F80C8091462423DD
:10214C0003FB04544FF48871E26134682046FFF7B6
:10215C007DFD4FF4A271FFF779FDC4F83485C4F806
:10216C003875B9F1000F1DD1012323603379242276
:10217C0002FB0352526842BBD4F81021D4F844112C
:10218C00D4F824010A4314D10028F5D0242101FBF2
:10219C00035303209A61CCE7C3F810803A464FF002
:1021AC000109CCE7D4F8003243F02003C4F8003224
:1021BC00DCE7242202FB03550023984218BF0320BE
:1021CC009942AB6118BF0F20B3E74FF40473C4F806
:1021DC0004330020ADE71020ABE700BF0402002061
:1021EC004B75000082B001238DF807309DF8073045
:1021FC00114B1860596044F2010188429A6012D068
:10220C0044F20201884206D1DA60DA6812689A61F7
:10221C00DA685268DA6172B69DF80730002BFBD190
:10222C0062B602B070471A611A6992685A611A69EB
:10223C0012689A611A69ECE72802002000B583B095
:10224C0002900091019244F2010071466A4600F03E
:10225C0003F803B000BD00002DE9FF4106460F4610
:10226C00154672B602F036FF02F078FD0028FBD15D
:10227C001E4B1F4CE41AE40844F2010324049E4252
:10228C0044F0010417D044F202039E4228D1D5E950
:10229C0000321849204602F0C8FE174BD3F8F03034
:1022AC00DB0700D500BE2A463946304604B0BDE8EF
:1022BC00F041FFF797BFD5F80880404602F08AFB43
:1022CC0002972A6801926A68009203460B492046DD
:1022DC00424602F0CEFE0A49204602F099FEDCE7A7
:1022EC0008493A46204602F097FED6E720710000D6
:1022FC0050710000B575000000ED00E0CF750000D6
:10230C00F57500000976000010B5034649B152B1CD
:10231C00541E14EA020006D1986019609C80D860A3
:10232C0010BD0E20FCE70920FAE710B58468C268DE
:10233C008388121B934208D3C26813400268D1549D
:10234C00C3680133C360002010BD0420FCE7826821
:10235C00C3689A420AD08268838813400268D35CAF
:10236C000B70836801338360002070470520704731
:10237C00C36883600020704710B5D0E90242D1E9F0
:10238C000203A04293412CBF0120002010BD00008D
:10239C0008B50A4800F02FFD094AD2E90031C018EF
:1023AC00084BD3E9002341F10001904271EB030388
:1023BC0003D210F1807041F1000108BD180000201B
:1023CC00C0020020B8020020436970B504461BB956
:1023DC002349A52001F032FC224B1E7816B90026A9
:1023EC00304670BDFFF7D4FFD4E9022390429941E7
:1023FC002FD3002000F048FB23692BB94FF0FF329C
:10240C004FF0FF33C4E90223002000F04DFBD4E968
:10241C0005309847002000F037FB25696DB1D4E9F1
:10242C000212B2F1FF3F08BFB1F1FF3F0FD06918A4
:10243C0042F10002C4E902123546002000F034FBE0
:10244C00002DCCD00848214602F054FAC8E70025EC
:10245C00F3E7B3F1FF3F08BFB2F1FF3FBFD0F1E7A5
:10246C0021760000C80200209089000037B505468F
:10247C000C460A4801A901F012FC68B105704460D1
:10248C0001A9064801F035FC10B9002003B030BD9D
:10249C00034800F0B5FCF8E70420F7E74C020020F5
:1024AC001800002013B5114B11491868019008232E
:1024BC001048582201F0E0FB044698B90E4A0F4828
:1024CC0001A900F039FB044660B90C48012100F069
:1024DC0079FC01230A4A0948194600F0CBFB094B49
:1024EC0001221A70204602B010BD00BF9C8900006A
:1024FC005C0200204C0200201D2600001800002069
:10250C00FFFF7F00C802002070B50C46154606463A
:10251C0020B90D4940F25A2001F090FB6DB1621EBA
:10252C00336854424FF0FF304FF0FF315441C3E950
:10253C0002015D611C61002070BD40F25B2002490C
:10254C0001F07CFB0720F7E721760000F8B50D467B
:10255C001746044620B9154940F26B2001F06EFB7A
:10256C00002000F091FAD4E90223B3F1FF3F08BF39
:10257C00B2F1FF3F15D1FFF70BFF281841F1000115
:10258C00C4E902010126002000F08EFA5EB1236935
:10259C00A76103B1256121460020BDE8F840FFF793
:1025AC0065BF0026EFE73046F8BD00BF217600007E
:1025BC0038B5044620B9124940F2932001F03EFB95
:1025CC00002000F061FAD4E90223B3F1FF3F08BF09
:1025DC00B2F1FF3F10D04FF0FF324FF0FF33C4E9A0
:1025EC0002230125002000F05FFA3DB121460120B5
:1025FC00BDE83840FFF73ABF0025F3E7284638BD61
:10260C0021760000014800F0F6BB00BF1800002046
:10261C002DE9F341044600F0D9FB40B16C4AD2E9F4
:10262C00003113F1807341F10001C2E90031002146
:10263C00204600F0D5FBD0B1664E3368BBB12046C6
:10264C0000F0D9FB00210546204600F0CEFB2D1AE8
:10265C0025F07F45B5F5960F04D35F4940F2411044
:10266C0001F0ECFA3068FFF7AFFE00233360012174
:10267C00204600F0B5FB20B1FFF78AFE574BC3E9AB
:10268C0000015748534D01A901F03EFB4FF0FF36B6
:10269C004FF0FF3790B94F4E524802F059F90028CD
:1026AC0000F08C80D0E90223B3F1FF3F08BFB2F1F8
:1026BC00FF3F34D14B4802F03BF9EDE70378012B97
:1026CC0017D0022B22D05BB94168D1E90223B3F1B8
:1026DC00FF3F08BFB2F1FF3F02D0424802F00AF9B7
:1026EC0001A93F4801F03BFB01A93D4801F00CFB5F
:1026FC00D0E741682B68994202D100232B60EFE7A9
:10270C00384802F031F9EBE7C0E90267354802F0CE
:10271C000FF90028F8D1344B01221A70E0E7316828
:10272C0091B13168D1E9020182428B412FD23368D9
:10273C00D3E90223B3F1FF3F08BFB2F1FF3F03D04F
:10274C003168284802F0D6F8264802F0F1F8D0E9B2
:10275C0002580746FFF71CFE281A68EB01080128EF
:10276C0078F1000818DBB0F5350F13D3FFF74AFFEB
:10277C001E4A02441E484FF49603002100F0A4FAAE
:10278C00A0B9336813B9204600F058FA376002B08C
:10279C00BDE8F0812A46EDE71548002100F01AFB50
:1027AC003846FFF711FE0023336075E70D28F7D08C
:1027BC0009494FF4867001F041FAF4E7054B1B68A8
:1027CC00002BE4D1204602B0BDE8F04100F044BA41
:1027DC00C0020020CC02002021760000B8020020AC
:1027EC004C02002090890000C8020020FFFFB400BA
:1027FC00180000200648074A03780749D35C0122D9
:10280C0013B10430FFF74CBC0C30FFF787B900BF95
:10281C002000002014010020F10200200648074A85
:10282C0003780749D35C012213B10430FFF7C6BB10
:10283C000C30FFF70BB900BF200000201401002062
:10284C00F202002037B50578012D05D0022D27D0D6
:10285C00002D30D003B030BD037A13B9FFF7CAFF97
:10286C00F8E743681B4C19782046FFF75EFD80B1F2
:10287C008DF800500190184B68461B689847A1686A
:10288C00E368A2885B1A9A42E8D2144B01221A70B0
:10289C00E0E7A268E3689A42F1D08DF80000EAE71D
:1028AC00C3688DF800500193FFF7A4FF0A4B6846EC
:1028BC001B689847CEE70A490A48FFF748FD20B93C
:1028CC0003B0BDE83040FFF7A9BF03238DF80030FB
:1028DC00ECE700BFE0020020F4020020F002002030
:1028EC00F2020020D0020020F0B51F46234B89B025
:1028FC0004461A600D4600293DD08A882048096894
:10290C00FFF702FD002834D1AA89A9681D48FFF7FA
:10291C00FBFC00282DD11C4E0FCE6D460FC596E842
:10292C000F0085E80F0063690693237C174A18484B
:10293C008DF81C70003B18BF01238DF81430637C9C
:10294C00002B0CBF00230E238DF81530E368029387
:10295C00A368039323680193694663680093FDF7AA
:10296C00C9FF30B90B4B18702368013301D0FFF746
:10297C0041FF09B0F0BD0720FBE700BFF4020020C7
:10298C00E0020020D0020020A089000051280000A5
:10299C0020000020F002002008B50548FFF7E8FCF5
:1029AC0020B9BDE808400348FFF7E2BC08BD00BFF2
:1029BC00E0020020D002002070B5044618B90B4983
:1029CC00CA2001F03BF90A4D0A482E782146FFF740
:1029DC00BEFC044646B100232B70FFF70BFF18B169
:1029EC00024AD621FFF72AFC204670BD91760000E2
:1029FC00F0020020E002002010B501460E48FFF75F
:102A0C0094FC0446A8B90D480D4A0378D35C63B115
:102A1C000430FFF7C7FA60B90A490748FFF797FC7B
:102A2C0038B9BDE81040FFF7F9BE0C30FFF702F8DB
:102A3C00F1E7204610BD00BFD0020020200000208E
:102A4C0014010020F202002072B6024A136801330E
:102A5C0013607047F8020020034A1368013B1360AF
:102A6C0003B962B6704700BFF8020020EFF305838C
:102A7C00C3F308032BB9EFF31480C04300F001003B
:102A8C00704701207047000008B5FFF7EFFF0128E1
:102A9C0003D00449432001F0D1F8BDE80840FFF70A
:102AAC00D3BF00BFF976000008B5FFF7DFFF0128A0
:102ABC0003D00449512001F0C1F8BDE80840FFF7EC
:102ACC00CBBF00BFF976000038B50C46054618B9E7
:102ADC000449B32001F0B2F82B68C3F84843C3F89B
:102AEC00084338BD6577000070B50C4616460546A0
:102AFC0018B90549A92001F0A1F82B68C3F8444383
:102B0C000EB1C3F8044370BD6577000037B50C46B1
:102B1C00054618B90749BA2001F090F82B681859E6
:102B2C0028B100221A511B590193019B012003B0BB
:102B3C0030BD00BF657700002DE9F8430F46154600
:102B4C00044618B93249552001F078F81FB93049BC
:102B5C00562001F073F81DB92D49572001F06EF87D
:102B6C0063792C4ADFF8B08042F823502B4E2C4A64
:102B7C0008EBC303B61A1B79F60836043BB146F0D2
:102B8C000200284902F044FA0820BDE8F8833D8889
:102B9C00D4F80090B5F5805F04D323494FF4BE7090
:102BAC0001F04CF8C9F80855BF7894F90450072F78
:102BBC0003D91E496B2001F041F8002DB6BF1C4B08
:102BCC0005F1604505F00F054FEA4717FFB2AABFA4
:102BDC0005F561455F5585F8007394F90430002BB9
:102BEC0008DB0122590903F01F0302FA03F3114A0F
:102BFC0042F82130637908EBC3020121117146F0D0
:102C0C0003000D4948F8334002F002FA0020BCE7FB
:102C1C006577000004030020FC02002058710000BE
:102C2C0020710000C8770000EA770000AE74000045
:102C3C0014ED00E000E100E01778000010B5044648
:102C4C0018B90449872000F0F9FF236801221A60A3
:102C5C0010BD00BF6577000010B5044618B90449D3
:102C6C008D2000F0EBFF236801225A6010BD00BFDD
:102C7C0065770000F7B50C4615461E46074618B991
:102C8C001049962000F0DAFF25F07F4204F1500540
:102C9C00AD003868ADB24FF48031A1400023C0F8CC
:102CAC000813C0F84813435104F5A8744359019311
:102CBC00019B40F82420C0F844130EB1C0F8041353
:102CCC0003B0F0BD657700002DE9F74F0E461546B1
:102CDC009A46804618B93949CD2000F0AFFF4FF421
:102CEC00803909FA06F949464046FFF7EDFED8F857
:102CFC00004006F1500704EB8602BF00D4F804151F
:102D0C00D2F84035C2F84015BFB20022E2515B1A2E
:102D1C00E059009023F07F43012B009825F07F456C
:102D2C004FEA860B0CD1264B4FF4806043F0010325
:102D3C009847D8F800400022E251E3590193019BD7
:102D4C00D4F80475C4F84493EB1B23F07F43012B98
:102D5C001BD11B4B06F5A876013543F0010344F853
:102D6C0026504FF480609847D8F80030D3F80435DB
:102D7C009F4208D1404601224946FFF7B5FE00208C
:102D8C0003B0BDE8F08F0D20FAE7A3446B1ECBF81F
:102D9C004055D4F80425CAF1FF1A9B1A23F07F433F
:102DAC000AF57F4A9A45EED3002BE3D10135CBF8D7
:102DBC004055D4F804359A42DBE700BF6577000034
:102DCC00C08900000A460221FFF78EBE4FF48271C3
:102DDC00FFF79CBE4FF4803303FA01F1FFF774BE8A
:102DEC005031890089B2FFF791BE036801F5A871D3
:102DFC0053F8210070470368D3F8040570470000AE
:102E0C0090F90430002B09DB5A09012103F01F0350
:102E1C00994002F14003024A42F82310704700BF68
:102E2C0000E100E0024B034A1B681068184700BF22
:102E3C0004030020FC02002070B5064E0546002459
:102E4C0056F8043B0BB1284698470134042CF7D1B3
:102E5C0070BD00BF080400204388033300EB8303DC
:102E6C0099420BD382884FF6FF739A4208D003889D
:102E7C0033B18068431C5842584170470220704758
:102E8C000120704768B10268084B9A4209D140682A
:102E9C00074B984207D00133984214BF03200120FE
:102EAC007047032070470020704700BFDEC0ADDEC6
:102EBC00FE011EF1C21C92B240F2FE339A4230B5B2
:102ECC001ED8124B187838B91C895D892C441444CF
:102EDC00A4B2B4F5806F0AD9187DA0B9988BDC8B9D
:102EEC002044104480B2B0F5806F0CD801200880CB
:102EFC00142101FB0033002059890A445A8130BD4A
:102F0C0048F20860FBE748F20660F8E7400300204F
:102F1C000B4A0C495388142000FB0311CB6833B9BE
:102F2C000420496810700122074801F011BB0749C1
:102F3C000523137002238B80012209680023F3E719
:102F4C00280300204003002000000020380300204C
:102F5C0007B5002305490093054A0968054808236D
:102F6C0001F04AFA03B05DF804FB00BF38030020FF
:102F7C00D48900000000002007B50023014600930F
:102F8C00034A0448082301F037FA03B05DF804FB48
:102F9C00CC8900000000002013B500230C460093E0
:102FAC000146084A0848042301F026FA38B90749B3
:102FBC00142202FB041101230B7402B010BD48F261
:102FCC000D60FAE7C88900000000002040030020D3
:102FDC0037B50A480A4B42689C8819685388032500
:102FEC00033305709BB2002000909B0001EB840121
:102FFC00044801F001FA03B030BD00BF28030020E3
:10300C00380300200000002010B50146044800F0F1
:10301C0046FE1C220446002103F0D8FF204610BDBA
:10302C00680300202DE9F0410D460223154F2B803B
:10303C00164600F5805100F108044FF001088C424F
:10304C000ED2236801330BD02046FFF705FF48B1A1
:10305C000EB186F80080022809D14FF480632B80D2
:10306C00BDE8F081A3683A68934200D93B602B8895
:10307C006288033313442B806388033304EB83048B
:10308C00DDE700BF0404002038B5134B14220D46B5
:10309C0002FB00335C682B6804F580518BB15C88B3
:1030AC00033403EB84048C4209D22368013306D029
:1030BC002046FFF7D1FE012808D0022803D10020BA
:1030CC0003E00834EFE72C60012038BD638803333C
:1030DC0004EB8304E7E700BF4003002043682DE9BD
:1030EC00F34105460E46002B46D0254AD1688B424B
:1030FC0042D3126993423FD813F003043CD1214AC6
:10310C0001891289914238D101689A68914234D16F
:10311C001D494A68934203D902F5805293420ED35B
:10312C008A6993420DD902F58052934209D2012348
:10313C003380B4FA84F0400902B0BDE8F081234634
:10314C00F6E748F20964F4E7CDF8048001A93846A3
:10315C00FFF79AFF30B90134A7B2022C3780F3D1B4
:10316C000020E9E7019B2A6899689142EED16B60D7
:10317C00044B1B892B81DFE700244FF00008EBE7A1
:10318C000000002028030020400300202DE9F04718
:10319C001C461E4B1B7807468846164683B392B3D3
:1031AC008CB3DFF86C904FF0140AA588012D02D96E
:1031BC0048F2096022E00AFB05F319F803302BB939
:1031CC0021462846FFF760FF18B920600135A5801D
:1031DC00EBE723681FB199883A889142F0D1B8F196
:1031EC00000F04D01988B8F800209142E8D19A68F1
:1031FC00C6E90023074B1B8933810020BDE8F0870B
:10320C0048F20160FAE748F20460F7E72004002076
:10321C00400300202803002008B5074B5888191DCF
:10322C00FFF732FF18B1BDE80840FFF7D1BEBDE88B
:10323C000840FFF76DBE00BF280300202DE9F043C6
:10324C00A04F89B006463B6853B99F499F4800F090
:10325C005BFD386020B99E494FF4B46000F0EEFC81
:10326C003D682A78531E052B00F20A81DFE813F023
:10327C00060071007100FE00FE005601E6B1954B90
:10328C0000225A604FF406441422002103A803F0D4
:10329C009DFE41F61D539C4208BF00243B680494DC
:1032AC001A78023A042A00F2EF81DFE812F0D0011A
:1032BC00DC0107020F0216022B79032B1CD8DFE866
:1032CC0003F014022A35844A1378022B1AD0137D8A
:1032DC00022B4FF0010317D114214B43D1180020BE
:1032EC00D0544868FFF748FE03E001232B71FFF729
:1032FC002FFE002800F0E380764B00225A6048F243
:10330C000D64C1E70023E7E7724A13700023536092
:10331C0041F61D54B8E771497148002302222B7104
:10332C008A800968012201F013F9E2E76D4B6A4CBF
:10333C005B886A4A14214B43E11800262E714D68B4
:10334C0010681560958848600D810221E6549180C3
:10335C00C8E7B5F81490DFF88081A6B1AA7DEB8898
:10336C00022A06D9142101FB0981DA1C08890244BE
:10337C000A81142202FB0982C3F57F435189FD3374
:10338C000B4453817EE7142303FB098319895C6882
:10339C00AB7D04EB8104062B62D8DFE803F00F4C05
:1033AC00344204586400504A50490023536010467C
:1033BC00AB691360FFF792FE002870D00223AB7547
:1033CC00002300930423EA182146454801F014F821
:1033DC00002874D048F20D64AA7DEB88022A06D925
:1033EC00142101FB0981DA1C088902440A81142288
:1033FC0002FB0988C3F57F43B8F80A20FD33134458
:10340C00A8F80A3040E72B69002B0CBF01230323DB
:10341C00AB750023009305F10C02042304F10801A1
:10342C00D3E70123AB750022EB8800922A699B003D
:10343C0004F10C01C9E7032A14BF06230523AB755D
:10344C0000230093042305F10802E118BDE70623CD
:10345C00AB75264B1988244B5868FFF79DFDB7E7D1
:10346C0048F20E64B8E741F61D54B5E7002E7FF420
:10347C0009AF2B79012B3BD0022B3FF449AF13B191
:10348C0048F20E6400E702232B710DF10A01EB6880
:10349C00039303A8CDE90466FFF720FE10B948F2A8
:1034AC000964F1E60498BDF80A108388EB80038860
:1034BC002B81FFF771FD044600287FF4E5AE09B0BF
:1034CC00BDE8F083240300202003002068030020C3
:1034DC00297800002004002040030020380300203D
:1034EC0000000020280300201403002010030020FB
:1034FC00DFF8F08103AA43463146A81DFFF746FECC
:10350C00044618B9B8F804100498D2E748F20963D5
:10351C009842C8E900667FF4B7AEF9E6002E7FF456
:10352C00B1AE714B1A7BAAB11E731A78013A062AF6
:10353C00A6D801A151F822F0EF3500001536000095
:10354C0033360000393600008D3400003F36000061
:10355C00513600001A78072AE7D801A151F822F059
:10356C008D3500003735000037350000B3350000CD
:10357C00C7350000EB350000EB350000AF3500001F
:10358C001A895A4901321A8100225A801A730A7810
:10359C00B2FA82F252099A720A7DB2FA82F2520996
:1035AC00DA72012207E0524958688A88408803324F
:1035BC0002448A8002221A70B7E75C884B4A4C4955
:1035CC00142505FB04220868546850608888108113
:1035DC0002200C608880002111740622EBE7072280
:1035EC00E9E79A7A32B9DA7A8AB900221A705A80E3
:1035FC005A608DE63D4900229A72CA68002AF2D1BF
:10360C00097C0029EFD05A80FFF706FE53E7002211
:10361C00DA72364A116A0029E7D192F82420002A7E
:10362C00E3D00122EFE7FFF7D3FC44E7FFF770FC90
:10363C0041E75A882D4B142101FB02335868FFF7E0
:10364C009BFC38E700225A60FFF782FC33E701222B
:10365C008DF80C201A89ADF818209A88DB68ADF823
:10366C001A20059310E002228DF80C201A89ADF86F
:10367C0018209A88ADF81A20DA689B7D05929A1F5B
:10368C00534253418DF81C3003A8FFF7D5FB0023A0
:10369C00184919483B6000F062FB184B1B6823B9B2
:1036AC0017494FF4247000F0C9FA1448012100F0B6
:1036BC00B4FB00283FF403AF0026C4E503228DF8C9
:1036CC000C20DA88ADF818201A89C7E704228DF887
:1036DC000C20DB88ADF81830D6E705238DF80C30BC
:1036EC00D2E700BF0803002028030020400300207D
:1036FC003803002020030020680300201C04002055
:10370C00297800004068FFF799BD000008B505480E
:10371C00012100F06AFB18B9BDE80840FFF78EBD27
:10372C0008BD00BF1C0400202DE9F3411F46314B9E
:10373C001B7806460D46002B4FD0002950D0098827
:10374C004FF6FF7399424ED06B88002B4BD06B68B1
:10375C009B074BD152B9B5F808800DF102014046D8
:10376C00FFF7A8FB38B102B0BDE8F0811388B2F8BE
:10377C000280ADF8023001A8FFF746FC0023077069
:10378C008375BDF8023083826B68036104460121A6
:10379C00194800F036FB2B882381032F6B88A380FC
:1037AC0004BF0423A3754FF0000508BF3368E06025
:1037BC0008BFA3611148A4F80680658101A900F037
:1037CC0098FA36B1E36833600D4B75601B89B5729E
:1037DC003381FFF79BFF0020C5E748F20160C2E789
:1037EC0048F20460BFE748F20360BCE748F20260AD
:1037FC00B9E700BF20040020040400206803002067
:10380C002803002008B5034607480268042A08D09C
:10381C000168064A42F82130012100F0F2FA00203A
:10382C0008BD48F20B60FBE71804002008040020D8
:10383C002DE9F04F724F87B01422002101A803F03C
:10384C00C5FB3B7803F0FF0B1BB101A8FFF7F4FAA3
:10385C0003E0381D00F0EDFA20B10024204607B03B
:10386C00BDE8F08F4FF010234FF080525B69126966
:10387C00DFF890A1591C04BF30235343CAF8103011
:10388C006149A3F5405300225046CAF80C3000F0B1
:10389C0081FD04460028E1D15C495D481C238C2243
:1038AC0000F0EAF9A1464FF003082546DAF80C605F
:1038BC004E443046FFF7E6FA01285CD0032848D185
:1038CC0033685A1C02D0534A934234D1331D06F547
:1038DC008052196801312ED104339342F9D14E4BE9
:1038EC001A682AB902221E609A804FF0010B0BE075
:1038FC0014236B4349480221C218C154484B5660EB
:10390C005D8001351181ADB244F0010409F5805997
:10391C00B9F5405FCAD1B8F1010F06D9E4B2062C53
:10392C004BD04FD814F0FD0F4CD100233B7048F214
:10393C000A647B6092E7394A14236B43D11808F16F
:10394C00FF384E600321D1541FFA88F80135ADB20F
:10395C00DCE7324914236B43CA180020C854566064
:10396C0003F1100208330A4430461944FFF75AFB9E
:10397C0044F00204EAE7284BBBF1000F0FD0DFF84C
:10398C009CC014226A430CEB020102200CF80200CA
:10399C001A684A60224A088155800135ADB2214926
:1039AC001E6000223046FFF73DFB1B4B9B88022B11
:1039BC0014BF082304231C43A8E701233B700023F6
:1039CC007B6042E76846FFF71FFB013C0123037055
:1039DC000A2C09D8DFE804F00608060807080708CF
:1039EC000F110F00002303716946094800F081F99B
:1039FC00FFF78CFE31E70323F5E70223F3E700BF63
:103A0C002004002000000020248A000078030020FD
:103A1C0068030020DEC0ADDE380300204003002028
:103A2C00280300203C03002073B50D460446C0B1AA
:103A3C00B9B10DF10601FFF751FBA8B10C4BBDF864
:103A4C0006206668142000FB0230012100F0D9F931
:103A5C0063682E600C336B600123A372002002B0EC
:103A6C0070BD48F20460FAE748F20960F7E700BF5E
:103A7C004C03002013B50446A8B10DF10601FFF765
:103A8C002DFB98B1BDF806200B4B142101FB023322
:103A9C00DA6872B1A27A62B1DA680020013ADA60AF
:103AAC00A07202B010BD48F20460FAE748F2096057
:103ABC00F7E748F20560F4E74003002002230022F8
:103ACC00FFF732BE18B103230022FFF72DBE48F2D8
:103ADC00046070470D4B1B7807B59BB101A8FFF72D
:103AEC0093FA0623037001A9094800F002F9094B67
:103AFC001A780AB101221A73FFF708FE002003B0EE
:103B0C005DF804FB48F20160F9E700BF20040020D7
:103B1C00680300202803002007B5ADF80600ADF8B7
:103B2C0004100DF1060001A9FFF730FB03B05DF89E
:103B3C0004FB00003F4B1B782DE9F74F0446002B8C
:103B4C0071D0002872D0102200210230002603F020
:103B5C003DFA394F03232380B046B146B3464FF0AC
:103B6C00010A79687A893D89019208461544FFF764
:103B7C0089F9032808BF20882F4B019A04BF00F154
:103B8C00FF302080142000FB0630ADB2C0684A44E0
:103B9C001FFA82F9A844A289A4F80890C5F580659B
:103BAC00ADB25844AA421FFA80FB1FFA88F838BFFE
:103BBC00A581A4F802B001F10805A4F80A8001F56A
:103BCC008051A94224D92A68013221D02846FFF716
:103BDC0043F9012805D0022810D0A2880132A28016
:103BEC0007E0E2880132E280E2896888033202440D
:103BFC00E2816A88033205EB8205E2E7E28884F809
:103C0C0010A00132E280E289491B02EBA101E181A3
:103C1C00721C022A07F114074FF00106A1D10020F3
:103C2C0003B0BDE8F08F48F20160F9E748F2046098
:103C3C00F6E700BF200400204003002007B5CDE9C3
:103C4C0000016A46002144F20200FEF705FB03B0B6
:103C5C005DF804FB50E8012FC2EA024240E8012360
:103C6C00002BF7D1704750E8022FC2EA224240E8FD
:103C7C000223002BF7D1704710B561B1B2FBF3F4FE
:103C8C0003FB1424A4B244B9C0E9001484608281FB
:103C9C00C381204610BD0E20FCE70920FAE737B59A
:103CAC0050E8013F9DB2C48925448489A54228BFB0
:103CBC002D1B0489A54202BFBFF32F8F002207E002
:103CCC00C5EA030540E80154002CE9D14FF001028C
:103CDC008DF803200193019A0A609DF8031001F0FE
:103CEC00FF0321B1006810FA82F003B030BD184612
:103CFC00FBE708B50A884B889A4203D1FFF7AAFF65
:103D0C00012008BD0020FCE737B550E8023F1FFA40
:103D1C00A3F5C488A54202BFBFF32F8F00220DE08C
:103D2C00C48925448489A54228BF2D1BC3EA0545B7
:103D3C0040E80254002CE8D14FF001028DF803202A
:103D4C000193019A0A609DF8031001F0FF0321B161
:103D5C00006800EB124003B030BD1846FBE708B515
:103D6C000A884B889A4203D1FFF77DFF012008BDDA
:103D7C000020FCE710B5034653E8000F0A4643E861
:103D8C00002494F0000FF7D110BD10B5034653E892
:103D9C00000F40EA010243E8002494F0000FF6D132
:103DAC0010BD10B5034653E8002F42EA010043E86A
:103DBC00000494F0000FF6D110BD10B5034653E883
:103DCC00000F00EA010243E8002494F0000FF6D142
:103DDC0010BD10B5034653E8002F02EA010043E87A
:103DEC00000494F0000FF6D110BD10B5034653E853
:103DFC00000F00EB010243E8002494F0000FF6D111
:103E0C0010BD10B5034653E8002F02EB010043E848
:103E1C00000494F0000FF6D110BD10B5034653E822
:103E2C00002FA2EB010043E8000494F0000FF6D140
:103E3C0010BD0121FFF7A9BF0121FFF7B2BF00217F
:103E4C00FFF7BBBF0021FFF7C4BF000010B504464D
:103E5C00002834D003681BB91A49FF20FFF7EEFE87
:103E6C00636823B917494FF48070FFF7E7FEA36826
:103E7C0023B9144940F20110FFF7E0FEE36823B9BF
:103E8C0010494FF48170FFF7D9FE238A23B90D49ED
:103E9C0040F20310FFF7D2FED4E9012321689B1AEC
:103EAC00DBB20A60013BDBB2FF2B226802D100209F
:103EBC00107110BD1168481C10600B70F2E70E20D9
:103ECC00F7E700BF8678000038B5044620B91149E1
:103EDC004FF49270FFF7B2FE0020FEF7D5FD22687A
:103EEC00616813688B4213D9591E116013F8013C99
:103EFC00208AE56800FB0355A3685B1A1179DBB2D5
:103F0C00994200D213710020FEF7CEFD284638BD31
:103F1C000025F8E78678000038B50C46054620B930
:103F2C000E4940F24710FFF789FE24B90B494FF4B4
:103F3C00A470FFF783FE0020FEF7A6FD2A68136825
:103F4C00591C1160EA68A41A2A8AB4FBF2F41C709A
:103F5C00BDE838400020FEF7A7BD00BF8678000002
:103F6C0010B5044618B906493120FFF767FEA26860
:103F7C002AB163692168206998470023A36010BDAA
:103F8C00ED7800000EB433B5059D044618B91149FF
:103F9C004220FFF753FE63691BB90E494320FFF71C
:103FAC004DFE23681BB90B494420FFF747FE63689D
:103FBC001BB908494520FFF741FE35B106AB01AAF4
:103FCC0029462046019300F071F802B0BDE830405C
:103FDC0003B07047ED780000826830B40468551C5B
:103FEC008560A154D0E901329A4202D330BCFFF76C
:103FFC00B7BF30BC704700002DE9F84F9846DDE99B
:10400C000A43164682460F460A464FF00109B24251
:10401C000FD2C14538BFC14613F0010B01D16CB9A9
:10402C0000240125B8F1010F1CD908F1FF387543A4
:10403C00F8E709F10109B2FBF6F2E8E79B070ED5A8
:10404C00B8F1000F0CBF30252025A145E9D2013C69
:10405C0029465046FFF7C0FF002CF6D1E0E720259B
:10406C00F3E77543B7FBF5F39E42FAD9DFF83880D6
:10407C00B7FBF5F3504618F8031005FB1377FFF761
:10408C00ABFF2B46B342B5FBF6F5F1D2BBF1000FFB
:10409C0000D034B9BDE8F88F20215046013CFFF721
:1040AC009BFF4C45F8D8F5E7DC8900002DE9F74F6C
:1040BC000F469046054620B9B54940F25220FFF70D
:1040CC00BDFD6B6923B9B2494FF41570FFF7B6FD0E
:1040DC002B6823B9AE4940F25520FFF7AFFD6B6852
:1040EC0023B9AB4940F25620FFF7A8FD002F00F092
:1040FC004B8117F8011B49B92B7B002B00F0448135
:10410C00284603B0BDE8F04FFFF72ABF252940F041
:10411C00BD80002602E046F001061F463B4613F820
:10412C00011B2D29F7D0302920D02B2921D02A2969
:10413C001A4621D1D8F80020111D1468C8F80010B7
:10414C001F4639782E2926D101374FF0000A0A2054
:10415C003A4612F8011BA1F1300CBCF1090F1CD826
:10416C0000FB0A11A1F1300A1746F1E746F00206EE
:10417C00D3E746F00406D0E7002412F8013CA3F183
:10418C0030010929DDD80A2101FB04331746A3F1BC
:10419C0030040132F1E74FF0000A7A1C01F0FB0009
:1041AC006828174602D112F8011BF7E7782909D8BD
:1041BC006F290BD8632963D020D8252966D05829BC
:1041CC0000F08C803B78002B93D195E7703908294F
:1041DC00F8D801A252F821F06B430000D141000045
:1041EC00D1410000FD420000D1410000D34200004B
:1041FC00D1410000D1410000E9420000642901D006
:10420C006929DFD1D8F80020D2F80090111D89EA75
:10421C00E972C8F80010A2EBE9724FF0010B0A2109
:10422C00092A37DCD34538BFD3462CB1B9F1000F7E
:10423C0001DB720700D5013CB30702D5BAF1000FC0
:10424C0003D0F00701D454BB0024B9F1000F2EDACF
:10425C00C9F100092D212846FFF7BEFE06F0030226
:10426C00022A04D1BAF1000F01D124BB0024CDE9FC
:10427C00004653460A2249462846FFF7BDFEA1E7F1
:10428C00D8F800301A1D1978C8F800202846FFF716
:10429C00A3FE97E70BF1010BB2FBF1F2C0E7A345CC
:1042AC00D3D220212846013CFFF796FECBE77107BD
:1042BC00D4D52B21CFE7A345D9D230212846013CB8
:1042CC00FFF78AFED1E7D8F800100A1DC8F80020C5
:1042DC00CDE9004653460A220968CDE7D8F800100C
:1042EC000A1DC8F800205346CDE900461022F3E71A
:1042FC00D8F800301A1DC8F8002016F00106D3F8C3
:10430C00009024D1B9F1000F03D0484602F0FFFD14
:10431C000646B4421DD809F1FF3919F8011F0029CE
:10432C003FF450AF2846FFF757FEF6E72846013614
:10433C00FFF752FE19F806100029F7D1A642BFF478
:10434C0041AF20212846013CFFF746FEF6E7002648
:10435C00F0E720212846013CFFF73EFED9E7D8F8CC
:10436C0000301A1DC8F80020302128461C68FFF7C1
:10437C0033FE78212846FFF72FFE00220823CDE9D3
:10438C0000322146102277E703B0BDE8F08F00BF62
:10439C004A79000013B50B46114680B9104B1148F1
:1043AC00114AC01A0E23C0080093104B0004104988
:1043BC0040F0010000F043FE0E2002B010BD4BB9DE
:1043CC00074B08480B4AC01AC0080E230093000480
:1043DC00064BECE703601B6802B0BDE810401847C1
:1043EC002071000068710000AE790000128A000094
:1043FC00B3790000E27900002DE9F743DDF828805D
:10440C0088B9474B4748484AC01A0E23C008009346
:10441C00464B000440F00100454900F010FE0E2010
:10442C0003B0BDE8F0834AB93D4B3E48414AC01A3F
:10443C00C0080E23009300043C4BEBE7D0F800E0DF
:10444C00BEF1000F0FD1364B36483B4A3849C01AE3
:10445C00C0080824000440F00100344B009400F024
:10446C00EEFD2046DCE77BB92D4B2E48334AC01AB3
:10447C000923C00800932D4B000440F001002C4987
:10448C0000F0DDFD0920CBE74768D7F80490B3FBBB
:10449C00F9F709FB17374FB1214B2248284AC01AAC
:1044AC00C008092300930004204BE6E78F070FD0C8
:1044BC001B4B1C48234AC01A1023C00800931B4BEB
:1044CC00000440F001001A4900F0B9FD1020A7E7E4
:1044DC0012F0030F09D0124B12481B4AC01AC00825
:1044EC00102300930004114BEBE7C768B9420DD3BE
:1044FC0005694C1E1C44AC4208D8CDF82880DEF867
:10450C000C40A44603B0BDE8F0436047044B05489B
:10451C000E4AC01AC008102300930004034BD0E7C6
:10452C002071000068710000AE790000FF89000066
:10453C00B3790000307A0000DC790000EF790000DC
:10454C00367A0000607A0000787A00009B7A0000CE
:10455C00F7B580B92D4B2E482E4AC01AC0080E2430
:10456C002D4B009400042D4940F0010000F067FD34
:10457C00204603B0F0BDD0F800C0BCF1000F09D14B
:10458C00224B2348264AC01AC0080824224B009408
:10459C000004E8E74AB91D4B1D48224AC01AC0085E
:1045AC0009241D4B00940004DDE74768D7F800E0B0
:1045BC000EF1FF370F420FD0144B15481A4AC01A90
:1045CC001023C0080093144B0004144940F0010060
:1045DC0000F035FD1024CBE7C768B9420CD3056950
:1045EC004C1E0EFB0244AC4206D8DCF81040A4462C
:1045FC0003B0BDE8F0406047044B05480B4AC01AB5
:10460C00C008102300930004034BDEE72071000068
:10461C0068710000AE790000EC890000B3790000ED
:10462C00DC790000EF790000C27A0000E87A000023
:10463C00014B436000207047448A000008467047D5
:10464C0000207047024B1868003818BF01207047D3
:10465C002804002008B50248FFF7F4FB002008BD31
:10466C002804002008B510461A4602F07DFC0020F4
:10467C0008BD00002DE9F041804686B011480F4678
:10468C0016461D46FFF7D5FB0446C8B9AA083146A5
:10469C003846FCF78DF90B48FFF7D4FBD8F80830F7
:1046AC0053B101228DF800200C9A0592CDE90147F7
:1046BC00CDE9036568469847204606B0BDE8F08111
:1046CC001124F9E7280400202DE9F043814687B036
:1046DC0014480E4615469846FFF7ABFB0446F0B956
:1046EC000746BD4215D10F48FFF7ACFBD9F808308F
:1046FC005BB102228DF800200022CDE90126CDE924
:10470C000325CDF8148068469847204607B0BDE8CD
:10471C00F08306EB0730FCF733F90137E1E711249E
:10472C00F3E700BF280400202DE9F74F99469DF8C8
:10473C003030009388469346064618B92349B62074
:10474C00FFF77CFAF28871794A43043A4A4505D856
:10475C001E490192C420FFF771FA019ADBF8007030
:10476C00B6F806A007EB0901914209F1040488BFD1
:10477C00A2EB0907B4FBFAF5CBF800700AFB154461
:10478C0045B9AAEB040BBB4528BFBB462FB903B0F8
:10479C00BDE8F08F3668013DF2E7009B043408EB6E
:1047AC00050034445A466BB12146A7EB0B0702F0C7
:1047BC00DBFBBA455D443668D3464FF0000428BF96
:1047CC00BB46E3E701462046EFE700BF447B000011
:1047DC00FFF73CBBF8B546790146721E054600232F
:1047EC0093422D6803D30024A64202D8F8BD0133AE
:1047FC00F6E70F682846FFF78FFB01343946F3E7DD
:10480C002DE9F041078ACD1C0646FFF75DFB043FFE
:10481C003D440446B5FBF7F5D0B14FF48073EDB2CF
:10482C00C7808380013D066080460027AF4210D2CE
:10483C003046FFF749FB40B16379013363710137AF
:10484C00C8F8000006608046F0E72046FFF7C2FF7C
:10485C0000242046BDE8F08101210430FFF7D1BAD5
:10486C0010B5012104460430FFF7D7FAC0B220B9C5
:10487C002046BDE81040FFF7ADBF10BD1FB5144674
:10488C0003920022009203AAFFF74EFF039BA34260
:10489C0006D00449F62004B0BDE81040FFF7CEB9AD
:1048AC0004B010BD447B00001FB5144603920122D6
:1048BC00009203AAFFF738FF039BA34207D00549D8
:1048CC004FF4807004B0BDE81040FFF7B7B904B0E6
:1048DC0010BD00BF447B000020BF40BF20BF70470D
:1048EC00836800225A60C3E904229A60DA601A6075
:1048FC007047000070B50C46064618B90B493A20B3
:10490C00FFF79CF91CB909493B20FFF797F975682B
:10491C00286820B1B368214698472B6818B92B68D2
:10492C0023602C6070BD1D46F2E700BFB47B000015
:10493C0010B5044618B905495120FFF77FF9636893
:10494C00186808B102681A6010BD00BFB47B000083
:10495C0010B5044618B903495D20FFF76FF9636879
:10496C00186810BDB47B000038B50C46054618B964
:10497C000A496920FFF762F91CB908496A20FFF758
:10498C005DF96B68186828B11A68A24203D12268D5
:10499C001A60012038BD1346F4E700BFB47B000059
:1049AC0010B50B4AA2F594739A4201D800200CE082
:1049BC00D11A091103EBC10453F83110814205D807
:1049CC0002D204F10803EFE7606810BD2246EBE762
:1049DC00788B000008B5FFF7E3FF024B002808BFF7
:1049EC00184608BD788B00007047000007B5054BD2
:1049FC000093054A4FF4805300F039F803B05DF88A
:104A0C0004FB00BF194A00002C0400202DE9F843D8
:104A1C0089461446D2B1124F124D05264FF00008AC
:104A2C0047F00107224609EB0801002001F0CCFAFF
:104A3C008044241A78B92B7843B14FF47A40B847A4
:104A4C004FF47A40B847013E02D12E70BDE8F8838E
:104A5C0001232B70E6E701232B70002CE2D1F5E744
:104A6C00908B00002C140020704701F0D9BAF0B5DF
:104A7C0095B01D46164608460C46FFF7EDFE1A9BF0
:104A8C000D93CDE9086500252B46082205A9204683
:104A9C000A958DF82C500C95FFF706FF079B029397
:104AAC00069B03939DF814308DF8115003F003020C
:104ABC00012A1DD1BDF81450059EC3F3C203C5F3E2
:104ACC0083158DF81030AA0008230EA92046FFF795
:104ADC00EBFEC6F3952608AB00932A4602AB0EA953
:104AEC00304600F065FB2046FFF7BAFE15B0F0BD6E
:104AFC00022AF8D1BDF81650C3F3C203C5F38915C9
:104B0C008DF810300827082D2E4628BF08263B4666
:104B1C0032460EA92046FFF7C7FEAD1B08AB02AA12
:104B2C0031460EA8374400F0A7FB002DEBD1DAE795
:104B3C0008B5FFF79AFF0748042100F0ABFA0028EC
:104B4C0003DA05494120FFF779F8044B01225A7129
:104B5C0008BD00BF80710000E27F0000340000201F
:104B6C00037813F0040215D003F00303012B03D0D8
:104B7C00022B09D0012070470B6802880233C2F364
:104B8C00831213440B60F5E70B684288023303EB86
:104B9C009213F7E7104670472DE9FF41414F8846C5
:104BAC000446851C00201646FDF76EFF7A68C8F88F
:104BBC000020BB6803F580639B1A9D4217D8002226
:104BCC00002E6AD004F00F04A40144F0050464F331
:104BDC000F027968C1F3090303330D44002047F831
:104BEC0023207D6004B0BDE8F041FDF75DBF0121DD
:104BFC002D48FFF706F92D48FFF71EF92C48FFF753
:104C0C001BF9B8680090C0F30900033007EB800073
:104C1C006946FFF7A5FF009A8046C2F30903B8B9AD
:104C2C0007EB8303911CDB6801930132C2F3090289
:104C3C0007EB820203F00303012BD268009124D00E
:104C4C00022B09D01B494FF4C270FEF7F7FF0DE0A1
:104C5C00033307EB8300DBE7BDF80630C3F389139E
:104C6C0003334FEA124801EB930300931048FFF70C
:104C7C00E6F808B1009BBB600B484146FFF7C1F852
:104C8C00BB687A6803F5806396E7BDF80430C3F31C
:104C9C0083134FEA12480B44E7E7A40544F00602DD
:104CAC0097E700BF301400204C240020482400203B
:104CBC004424002068800000064B074810B50022F1
:104CCC001A70FFF785FD044610B90448FFF708FE7B
:104CDC00204610BD301400200C710000A48B000085
:104CEC0030B50A4C71B10A4B0A491B1BDA08002378
:104CFC009A4201D1002030BD31F82350854202D0B8
:104D0C000133F5E7034654F83300F4E72071000053
:104D1C008071000014000020094B013903EBC00026
:104D2C00032909D8DFE801F0020A040602207047C3
:104D3C000079704740797047002070470420704715
:104D4C002071000070470000034BD3E90130C31AF7
:104D5C0058425841704700BF301400202DE9FF47DE
:104D6C00FFF7F2FF002840F08280754C04F5805567
:104D7C00A861BFF34F8FA0680090C0F30900033007
:104D8C0004EB80006946FFF7EBFE009B10B1AA69AB
:104D9C00002A68D0C3F309029F1C013304EB820282
:104DAC00C3F3090304EB8303D268DB68029302F0BC
:104DBC000303022B0192009763D1BDF806306148C2
:104DCC00C3F38919B9F1500FC84628BF4FF05008EA
:104DDC0068F38F1308F10801ADF80630FFF710FDEA
:104DEC000646002800F09780FFF736FD002301A946
:104DFC0008223046FFF742FDFB43C3F3090301339E
:104E0C00C7F309010331B8EB830F4FEA830A04EBB4
:104E1C00810133D908235246A8EB0A083046FFF724
:104E2C002DFD5FFA88F848490AF10803424609F15A
:104E3C000309304607EB9907FFF720FD0097AB6994
:104E4C00002B54D12F69002F5AD13046FFF708FDA3
:104E5C003846FDF719FEAB690BB9009BA360002027
:104E6C00FDF722FE46E062689A4204D8A260002058
:104E7C0004B0BDE8F087C3F3090080E7082342467D
:104E8C00D5E7012B47D1BDF804302E48C3F383116D
:104E9C00062928BF062161F38913023101F00F01A5
:104EAC008900ADF80430FFF7ABFC064698B3FFF76A
:104EBC00D3FC0023082201A93046FFF7DFFC0027B2
:104ECC00BDF80420C2F38312BB00BA4203F10803FD
:104EDC00B5D900994A1CC1F309010331009204EBC6
:104EEC00810104223046FFF7C9FC0137E8E7304660
:104EFC00FFF7B6FCFFF728FF80F00100C0B2B7E760
:104F0C00FB685B7923B13B6831461B683846984790
:104F1C00FB681F6897E72C6954B90C4B0C480D497A
:104F2C00C01AC008000440F0020000F071F8E1E77C
:104F3C00236820469B689847E3681C68ECE700BF31
:104F4C00301400200C7100003C1400202071000073
:104F5C0050710000D68000002DE9F34704460F463F
:104F6C001846914601A901221E46FFF715FE019D28
:104F7C00DFF88880A81C0023B34203EB000134D176
:104F8C001F480021FEF7F6FE80F3100A1D4B1E4A47
:104F9C004FEA14499B1AB9EBD30F04D31B4940F2C7
:104FAC00A910FEF74BFE6B1CC3F30903E40008EBDE
:104FBC00830304F0380449EA0A40C5F3090544F0B8
:104FCC000104D860033544EA861343EA872348F882
:104FDC00253098F800301BB1FFF7C0FE0028FBD13C
:104FEC00FFF7B0FE02B0BDE8F087C1F3090108EB92
:104FFC00810159F82320CA600133BDE73014002029
:10500C004C2400208071000020710000688000009A
:10501C0000231A46FFF7A0BF07B50123019201AA8E
:10502C00FFF79AFF03B05DF804FB07B5CDE9002349
:10503C0002236A46FFF790FF03B05DF804FB1FB52F
:10504C00CDE90123069B039301AA0323FFF784FFF9
:10505C0005B05DF804FB1FB5CDE90023069B029358
:10506C00079B03936A460423FFF776FF05B05DF8B0
:10507C0004FB7FB5CDE90123089B0393099B0493A3
:10508C000A9B059301AA0523FFF766FF07B05DF89D
:10509C0004FB000030B50E4C22690346002011467B
:1050AC0029B9D968087172B923610A600AE0C96824
:1050BC000D79A84201D00968F2E701300A28EED137
:1050CC004FF0FF3030BDD26814680C601360F9E704
:1050DC003024002038B5084B03F5805201251469A3
:1050EC001D7004B938BDE3685D71236820465B68A8
:1050FC009847E3681C68F4E73014002010B5037A75
:10510C00052B0C460FD0437A23B1084A0849204698
:10511C00FEF738FF07492046FEF734FF2046BDE86E
:10512C001040FEF71DBF002AF8D0F3E7EB8000001B
:10513C00F080000010810000C38873B504460D4652
:10514C0033B1144A00921449144A2846FEF71AFF48
:10515C00217A05291CD0637A4BB1A088FFF7DCFDBE
:10516C000F4B104953F820202846FEF70BFF227AEC
:10517C000D4BA08853F822600021FFF7B1FD0B49BD
:10518C0003463246284602B0BDE87040FEF7FABE30
:10519C0002B070BDEB800000FB800000F3800000CB
:1051AC00B08B0000F0800000D48B00001381000055
:1051BC002DE9F04385B01F460C9D002395F80C900B
:1051CC002B7306460C46904629463846FFF7B4FF2B
:1051DC00B8F1060F09D8DFE808F00412181F2833BD
:1051EC00400031462846FEF7CDFE002229463846BF
:1051FC00FFF784FF85F80C9005B0BDE8F0832268BA
:10520C0031462846FEF7BEFEEFE7D4E900233146CF
:10521C002846FEF7B7FEE8E7A3680093D4E900231D
:10522C0031462846FEF7AEFEDFE7E3680193A3683C
:10523C000093D4E9002331462846FEF7A3FED4E7B9
:10524C0023690293E3680193A3680093D4E90023D4
:10525C0031462846FEF796FEC7E763690393236938
:10526C000293E3680193A3680093D4E900233146C9
:10527C002846FEF787FEB8E708292DE9F047804657
:10528C000E4617461C4635D8002593F80C901D7316
:10529C0019461046FFF750FFAE422DD918F80520DD
:1052AC001B492046FEF76EFE0135082DF4D1194935
:1052BC002046FEF767FE4FF0000A564523D918F832
:1052CC000A507E2D1DD8284601F0D0FE002814BFB0
:1052DC002A462E2210492046FEF754FE0AF1010AF6
:1052EC00BAF1080FE9D1012221463846FFF706FF33
:1052FC0084F80C90BDE8F08708492046FEF742FE82
:10530C00D2E72E22E6E706492046FEF73BFEE5E70C
:10531C001D810000278100002981000023810000ED
:10532C00258100000649074BC1F81435064B5A7C01
:10533C00064B013A43EA0243C1F81835704700BFE7
:10534C000010004006000300400000202000000177
:10535C00074A084BC2F81435074B5B7C013B40EA0B
:10536C00034343EA002040F08070C2F818057047F0
:10537C000010004000010100400000200F4B1049BC
:10538C001A7AC1F81025042A16D8DFE802F00E03A9
:10539C00150E03000B4A302111600A4998890A68DE
:1053AC003E32904204D301207047064A4921F3E76C
:1053BC000A683E329A81F6E7002070476429002083
:1053CC0000100040C0250020044A0023C2E9083325
:1053DC009362034AC2E90833936270471028002095
:1053EC00BC260020184B19491B6810B5184CC4F882
:1053FC000032184B1A68184BC3F840258A89823A38
:10540C00C3F844250122DA600022C3F84021C3F816
:10541C00442103F5A8334FF4E050C3F804054FF4CE
:10542C000050C3F80805C4F80C21087810B90B4BD0
:10543C001B6898470A4BC4F804350A4B0A4A1A6091
:10544C000A4B03221A7010BD3C0000206429002076
:10545C0000100040C025002000A00040B82500200E
:10546C0078260020BC250020095700008429002044
:10547C002DE9F0411B4BDFF870801A78012A0746A2
:10548C000E4624D198F80020202A29D8174B1C6AE4
:10549C0053F824502A701649681D01F065FD154B10
:1054AC006F70D3F84835AB7098F801302E71DB4330
:1054BC0003F00103EB700D4B01349A6A082C28BFE2
:1054CC00002401321C629A620120BDE8F081074978
:1054DC005A780C6A51F82450002ADBD0DA7CD9E7D0
:1054EC000020F2E76429002078260020BC2600204A
:1054FC007A2600200010004007498B6893FAA3F32A
:10550C00064A1BBAC2F82435CB6893FAA3F31BBA2C
:10551C00C2F82835704700BF400000200010004042
:10552C002DE9F041414B424FDFF808813E78424D66
:10553C0001221A60414B5A6A53F82240C8F80040C5
:10554C00FEB1012E40D062783D4B0121C3F82C25D1
:10555C0001FA02F2C3F830253A4AD27CC3F8082586
:10556C00394AC3F804550220C2F8800110600022A9
:10557C00C3F80421C3F80821C3F810211960BDE851
:10558C00F081324B20781B689847D8F800406E7039
:10559C0023792B702146A81C11F8052B01F0E4FC93
:1055AC002B4B274A1B6843F00803C2F80032112327
:1055BC00C2F80433274BFA891A60274B274A1A6022
:1055CC00274B02221A70BEE7E37813B13E7D86F0BA
:1055DC00010622782A70B3FA83F3227921485B09F9
:1055EC0043EA420321466B7011F8052B01F0BCFC19
:1055FC00174A134B18481A49126876B142F0080240
:10560C00C3F800221122C3F80423124BFA891A6042
:10561C00124B036002230B7095E7C3F80022102293
:10562C00C3F80423104B03600123F4E7C4250020C6
:10563C0064290020802900209A26002010280020B0
:10564C00001000404000002000E100E0B8250020E0
:10565C003C000020C8250020BC250020F153000090
:10566C00842900209C260020C55600000F4B1B7877
:10567C00B3B10F4A936AABB10E490220C1F8800056
:10568C00BFF34F8FBFF36F8F936A013B9362536AE3
:10569C000133082B28BF0023536208600020704799
:1056AC00082070474FF48070704700BF8529002098
:1056BC001028002000E100E00C4A08B5136843F004
:1056CC0001031360FFF7D2FF094B996A094B4FF4A2
:1056DC00801221B908480170C3F8002108BDC3F835
:1056EC000021BDE80840FFF71BBF00BFF4250020D8
:1056FC001028002000E100E084290020464B70B502
:10570C004FF4E052454EC3F80825D6F80C11444A24
:10571C00002943D0D6F8001400293FD04149424C0F
:10572C00424D012008614FF40051C3F8081523685D
:10573C00034323601268EB899B1A3D4A03441360B0
:10574C00FFF794FF2B7893B13A4B1A787AB13A4A17
:10575C00D6F82C05926A072A09D85978C0B249089C
:10576C00FFF786FE18B1236843F004032360334B24
:10577C009A6A334B12B12A7C012A07D1314A002193
:10578C0011704FF48012C3F8002170BD4FF48012D9
:10579C00BDE87040C3F80021FFF7C2BE1368294D65
:1057AC00591E1160ABB91F4A0121116102F5A832D3
:1057BC004FF40051C2F808151C4A1D49D289013218
:1057CC000A6019490A6842F002020A602B701C4BED
:1057DC00D7E71D4B114C1B6843F00803C4F800328B
:1057EC001A4B1A681A4B10781B689847194BC4F857
:1057FC000435194B194A1A6007490A4A02232B70BF
:10580C004FF4005001231360C1F80405D2F8442171
:10581C00002ABAD02360B8E700F001400010004025
:10582C00C825002000A00040F42500206429002099
:10583C00C425002078260020BC260020102800203B
:10584C0000E100E0842900203C0000208029002099
:10585C00B82500209A260020BC250020F15300001A
:10586C00124BD3F8002132B1D3F80423D00744BF34
:10587C000022C3F80021D3F80C2132B1D3F8042351
:10588C00110744BF0022C3F80C21084BD3F8102198
:10589C0052B1D3F80423D20606D50022C3F8102146
:1058AC00034B1B6803B11847704700BF0010004042
:1058BC00BC250020114B12484FF4705210B5C3F8A0
:1058CC000825104B00241C700F4B21461C70FFF751
:1058DC007BFD202201F07AFB0C4B1C605C600C4BB6
:1058EC004FF48012C3F88020BFF34F8FBFF36F8F3C
:1058FC00084B0322C3F80022204610BD00F00140E3
:10590C00CC2500208429002085290020EC250020AE
:10591C0000E100E0001000402DE9F04104460028B1
:10592C0000F0D9806E4D2B780BB1FFF7C3FF6D4B98
:10593C0062681A606C4A234604F11807144618680A
:10594C005968164603C60833BB423246F7D10027C6
:10595C00664B67481F602022394601F037FB654BC8
:10596C00DFF894811F605F60A37AC8F80C35FFF7ED
:10597C0005FD2378614A0646002B00F08E80012B32
:10598C0040F08D805E4B1360637A012B00F09580A4
:10599C00022B00F08680002B00F097800026136805
:1059AC00E07C9847002E00F09880534B55495648A0
:1059BC004FF0E732C3F81C254FF04332C3F82025D3
:1059CC00524AC3F82425524AC3F82825FFF7FCFC99
:1059DC000A4600230133082B40F8042B02F1250260
:1059EC00F8D14C4A4C4800230133082B40F8042BC7
:1059FC0002F12502F8D10022484B16460132082A42
:105A0C0019601E719E6001F1250103F10C03F5D1A3
:105A1C0020220021424801F0D9FA424A424904238B
:105A2C00C2F8103540F20223C2F80865C2F8003201
:105A3C003E4BC3F86015C3F86425A2F50E42FC3A40
:105A4C00C3F8682502F50F420C32C3F86C2502F539
:105A5C009872C3F87025A2F51142303AC3F8742538
:105A6C0002F511423432C3F87825234AC3F87C2559
:105A7C00637C2F4A5B01DBB282F80133A37C5B01B0
:105A8C00DBB282F814334FF480131360294B1E7071
:105A9C0001232B700020BDE8F081274B73E73E46B5
:105AAC0072E715494FF6FF70C1F83C052348C1F861
:105ABC0038051149C1F8343571E7FF21C8F83C1598
:105ACC0040F20711C8F83815F3E70B49C1F83C351B
