:10000000006000204902000001020000030200001D
:1000100005020000070200000902000000000000C5
:100020000000000000000000000000000B020000C3
:100030000D020000000000000F020000110200008D
:10004000050A000059460000250C000013020000BC
:100050001302000000000000D50A00001302000097
:10006000130200001302000013020000130200003C
:10007000130200001302000013020000130200002C
:1000800013020000391F00001302000013020000D9
:100090004549000013020000130200001302000093
:1000A0001302000013020000000000000000000026
:1000B0001302000013020000000000000000000016
:1000C0000000000000000000000000000000000030
:1000D0000000000000000000000000000000000020
:1000E0000000000000000000000000000000000010
:1000F0000000000000000000000000000000000000
:1001000000000000000000000000000000000000EF
:1001100000000000000000000000000000000000DF
:1001200000000000000000000000000000000000CF
:1001300000000000000000000000000000000000BF
:1001400000000000000000000000000000000000AF
:10015000000000000000000000000000000000009F
:10016000000000000000000000000000000000008F
:10017000000000000000000000000000000000007F
:10018000000000000000000000000000000000006F
:10019000000000000000000000000000000000005F
:1001A000000000000000000000000000000000004F
:1001B000000000000000000000000000000000003F
:1001C000000000000000000000000000000000002F
:1001D000000000000000000000000000000000001F
:1001E000000000000000000000000000000000000F
:1001F00000000000000000000000000000000000FF
:10020000FEE7FEE7FEE7FEE7FEE7FEE7FEE7FEE7C6
:10021000FEE7FEE709480068094909680A280AD18B
:10022000002908D1074802686FF070031A404FF0A8
:1002300040031A43026000F009B8000030010010CA
:1002400034010010E40E0040FFF7E4BF0B484FF00C
:100250000701884385460A48804700F019B80948D5
:1002600009490A4A884207D0521A05D0037801305A
:100270000B700131013AF9D1704700000060002095
:10028000C104000074590000000000201400002088
:100290003A493B480A1A02D0072291438D46394910
:1002A00039480A1A06D00722914381F309880222AD
:1002B00082F3148835483649364A00F041F836480A
:1002C0003649374A00F03CF836483749374A00F09B
:1002D00037F837483749384A00F032F83748384954
:1002E000384A00F02DF838483849394A00F028F8E3
:1002F00038483949394A00F023F839483949002249
:1003000000F036F838483949002200F031F8384812
:100310003849091A05F054FA374A904725482649C2
:10032000884205D00268043003B4904703BCF7E765
:1003300000208646EC4600200021304A9047FEE728
:10034000884214D0521A12D003460B43134303249D
:10035000234206D1036804300B600431043AF9D11A
:100360007047037801300B700131013AF9D17047C1
:10037000884202D002700130FAE770470060002026
:10038000005800200060002000600020B8650000D8
:1003900014000020CC000020000400000004000035
:1003A000F8580000B8650000140000201400002078
:1003B00088590000885900008859000088590000B9
:1003C00088590000885900008859000088590000A9
:1003D000B565000070660000CC000020CC00002055
:1003E000CC0000201815002018150020181500203A
:1003F00018150020181D00205F02000001040000F5
:1004000008B500F023F908B101F0D6F8002000F09B
:1004100071F9002000F03CF900F0DAF90028FBD077
:1004200000F060F90028F7D001F0D0F908B101F030
:10043000C3F84FF48041002003F0E4FB08B101F061
:10044000BBF803F02BFB144C05F020F9134B1449B7
:10045000E41AE408240444F00304204603F064FD95
:1004600004F0F2FC0F49204603F05EFD04F002FFA9
:100470000D49204603F058FD04F038FF0B49204693
:1004800003F052FD04F088FE03F00EFC0028FBD1BF
:1004900003F033FAF8E700BF345900000C590000AC
:1004A00088590000935900009D590000C15900006F
:1004B000024AD2F80034002BFBD0704700E0014024
:1004C0004FF0805310B5D3F830210A2A5BD1D3F80E
:1004D00044224FF08041C2F34232C1F83C25002251
:1004E000C1F80C21C1F81021C1F83825484AD3F8C9
:1004F0000404C2F82005D3F80804C2F82405D3F890
:100500000C04C2F82805D3F81004C2F82C05D3F85F
:100510001404C2F83005D3F81804C2F83405D3F82F
:100520001C04C2F84005D3F82004C2F84405D3F8EF
:100530002404C2F84805D3F82804C2F84C05D3F8BF
:100540002C04C2F85005D3F83004C2F85405D3F88F
:100550003404C2F86005D3F83804C2F86405D3F84F
:100560003C04C2F86805D3F84004C2F86C05D3F81F
:100570004434C2F87035D1F80034DB0709D56FF088
:100580000103C1F800344FF08053D3F830310A2B07
:100590000CD14FF08053D3F834313BB14FF080424F
:1005A000D2F8E43E43F00F03C2F8E43E4FF01023CC
:1005B000D3F80022002A03DBD3F80432002B22DA1E
:1005C000144901234FF01020C1F804351524FFF71A
:1005D0006FFFC0F80042FFF76BFFC0F80442FFF75F
:1005E00067FF0023C1F80435FFF762FFBFF34F8FA9
:1005F00009490A4BCA6802F4E0621343CB60BFF3B7
:100600004F8F00BFFDE7064B064A1A6010BD00BFC2
:1006100000C0004000E0014000ED00E00400FA05E9
:10062000140000200090D00338B5074C051E04F1DB
:10063000080318BF1C4623682BB11A6822605B6848
:1006400028469847F7E738BDD400002070B50D4C18
:100650002578ADB90C486560A5602561E56000F0BE
:100660007FF9064600F08AF9012384F820502370B0
:10067000064BD3F800340BB10123A370304670BD94
:100680008526F5E7CC00002071070000000001403E
:1006900038B5134CA378054603F0FF0073B115B1CC
:1006A0006B6801209847002001F010FBE3680133DC
:1006B000E3600020BDE8384001F00ABB01F006FB12
:1006C00025B1226913463BB92A602561E368002BF6
:1006D000ECD100F065F9E9E79D42F7D01B68F2E73D
:1006E000CC0000204FF08043D3F81804C0F3004042
:1006F0007047000038B5134C6378054603F0FF00DF
:1007000073B115B16B6800209847002001F0DEFA44
:100710006368013363600020BDE8384001F0D8BA57
:1007200001F0D4FA25B1A26813463BB92A60A5604E
:100730006368002BECD100F040F9E9E79D42F7D067
:100740001B68F2E7CC00002038B5084C002001F00F
:10075000BDFA6368013B6360656815B900F03AF95A
:100760006570BDE83840002001F0B2BACC0000202E
:1007700010B5044630B9144B01225A70BDE8104040
:10078000FFF752BF012802D10F4B9870F6E70228FD
:1007900004D1BDE810400D48FFF7ACBF032811D1CC
:1007A000FFF7D2FF084A002192F8203082F820108B
:1007B000D269DBB232B1042B0CBF20460220BDE867
:1007C0001040104710BD00BFCC000020E00000200A
:1007D0004FF08043D3F80C0400F00110A0F1011396
:1007E00058425841704700001FB503788DF800301B
:1007F0004368019383688DF80830C368054A039302
:10080000054B684653F8213052F82110984705B03F
:100810005DF804FBF4000020F80000201FB5037809
:100820008DF800304368019383688DF80830C36801
:10083000054A0393054B684653F8213052F82110BE
:10084000984705B05DF804FBF4000020F800002094
:10085000F0B5194B90F800C091F81DE043F82C203A
:10086000164B16460A6943F82C20154B0C4603F824
:100870000CE007460FCC89B06D460FC594E80F0019
:1008800085E80F00CDF810C0BEF1000F09D0002E92
:100890000C4A694608BF3246381D00F0FBFC09B01F
:1008A000F0BD002E084A694608BF324607F10C0029
:1008B00000F0C4FAF3E700BFF8000020F4000020C5
:1008C000F0000020E90700001D080000024AD2F8ED
:1008D0000034002BFBD0704700E001400A4908B506
:1008E0000223C1F80435BFF36F8FBFF34F8FC1F8F8
:1008F0000805FFF7EBFF0023C1F80435BFF36F8F46
:10090000BFF34F8F08BD00BF00E0014070B50E4E31
:1009100001231546C6F80435BFF36F8FBFF34F8F21
:100920000024AC4207D10023C6F80435BFF36F8F13
:10093000BFF34F8F70BD51F8243040F82430FFF7DB
:10094000C5FF0134EDE700BF00E0014000F1804049
:10095000002382B0036003680193019B02B07047DB
:10096000054A13792BB901211060937191801846C3
:1009700070478520704700BFFC000020074B1A68B5
:10098000D20704D4C02283F8002301221A604FF05A
:1009900080430022C3F81825704700BF00E100E043
:1009A00008B54FF48270FFF7D1FF4FF08043022269
:1009B000C3F8042301229A6008BD08B54FF4807083
:1009C000FFF7C4FF4FF080430122C3F804231A60ED
:1009D00008BD00004FF08042012108B54FF480703F
:1009E000C2F80813FFF7B2FF5160D2F80C3403F0DD
:1009F0000113B3F1011FF8D0014B00225A7108BD59
:100A0000FC0000204FF0804110B5D1F8003163B1F7
:100A10004FF48070FFF79AFF1F4B58790122C1F8FD
:100A2000082310B95A711B6898474FF08042D2F8DA
:100A3000043153B14FF48270FFF788FF0223C2F8EC
:100A40000833154B01201B6898474FF08042D2F8BD
:100A5000103153B14FF48870FFF778FF1023C2F8BC
:100A600008330D4B02201B6898474FF08042D2F8A4
:100A70000C3183B100214FF48670C2F8341CFFF7AB
:100A800065FF0823C2F80833034B9971BDE8104095
:100A90001B680320184710BDFC00002000F18040B7
:100AA00000F5C040002382B0036003680193019BFE
:100AB00002B07047800000F1A040D0F8003723F466
:100AC0004033C0F80037D0F8003743EA0143C0F89C
:100AD000003770472DE9F34700244F4D01944FF440
:100AE0008072012102F1804303F5C0431B68012B92
:100AF00007D1D5F804330B4203D090B2FFF7CEFFF5
:100B00000C430432B2F5907F4FEA4101EAD1424BE7
:100B1000D3F87C31012BE2B229D14FF4BE70FFF73C
:100B2000BDFF4FF0A043D3F820150191C3F8201565
:100B30000AB344F00044394F00250126344210D056
:100B4000AB0003F1804303F5C043D3F81005D3F89D
:100B5000101557F8253023B1C1F30141C0F304202B
:100B600098470135082D4FEA4606E7D101E0002AF3
:100B7000E1D1002C48DA294C4FF0A047284D4FF026
:100B80000008012615F9013F5A1C31D0C3F3C201F8
:100B900008316944DAB211F8041C03F03F0903F08C
:100BA000070306FA03F3194222D009F5E073484619
:100BB00057F82330C3F3014ABAF1020F0CBF0321E7
:100BC0000221FFF777FF06FA09F3C7F8203504EB97
:100BD000090393F9483054F823304BB191090329A4
:100BE00004D0BAF1020F12D1012901D14846984729
:100BF00008F10108B8F10A0FC4D1D7F820350193E4
:100C0000C7F82035002BB9D102B0BDE8F087BAF1A2
:100C1000030FEDD10229E8E7006000400401002045
:100C20006B010020014B1B68184700BF7C010020AE
:100C30000B4B984210B50C4601D0002010BD00208F
:100C400001F044F8074B187920B1002001F040F87A
:100C50001120F3E701221C601A7101F039F8ECE76A
:100C6000002000407C0100200023435082B0435804
:100C70000193019B02B070470A4610B54FF48E7184
:100C8000FFF7F2FF136A9168C95C136A01331362BC
:100C9000C0F81C1510BD8B690A4610B54FF484715D
:100CA00023B9FFF7E1FFD0F8183510BDFFF7DCFFDF
:100CB000536AD168D0F81805C854536A0133536297
:100CC000F3E700001FB501238DF80030044BCDE998
:100CD0000110D3E900126846904705B05DF804FBA7
:100CE0008401002008B54FF49271FFF7BDFF4FF467
:100CF0008471FFF7B9FF0123036008BD30B54D4D86
:100D0000D5F804339A0585B051D5D5F82431002B98
:100D10004DD04FF492712846FFF7A6FF4FF40173B0
:100D2000C5F80833444B93F829200AB901226A60B8
:100D3000404902228DF80020D1F88024C1F8802497
:100D400003929A690292DA6801920022C3E90622AC
:100D50006846D3E9001290473648D0F81C315BB1A1
:100D6000354A5169136A99424DD992F82830002BBF
:100D700049D11146FFF780FF2E48D0F84431002BAF
:100D800056D04FF4A271FFF76FFF2B4B93F8292039
:100D90000AB1012202609A69002A49D0586AD968CA
:100DA00000229A6105B0BDE83040FFF78BBFD5F84F
:100DB00004335B07D0D5D5F80831002BCCD01E4CBE
:100DC0001C482146FFF767FF636AA2699A42C3D1B4
:100DD000E369E1684BB1A3612369E3600023606AC2
:100DE000E3616362FFF76EFFB6E794F829300BB951
:100DF00001236B600F4B4FF40172C3F808230023EB
:100E0000606AA361EEE70B484FF48E71FFF72CFF89
:100E10005369002BB0D051690291002391688DF87D
:100E20000030019153616846D2E900139847A3E767
:100E300005B030BD00200040840100202DE9F843BA
:100E4000524D90F804802C2303FB0853064693F878
:100E50002A300C469146002B40F094804C490068A3
:100E6000FFF7E6FE0746002840F08E8021683368D1
:100E7000481C0BD04FF0A04001228A40C0F8082542
:100E800001F5E0724FF0030C40F822C06068421C8C
:100E90001FBF00F5E0724FF0A04C4FF0000E4CF871
:100EA00022E0A269C3F8242594F814C0627DBCF145
:100EB000010F4CEA0202C3F86C25C3F81405C3F80D
:100EC0000C151DD1A1684A1C1FBF01F5E0724FF03F
:100ED000A0404FF0000C40F822C0E268501C0BD03C
:100EE0004FF0A04C01209040CCF8080502F5E070CE
:100EF0004FF0030E4CF820E0C3F80825C3F8101596
:100F00002C2303FB08F3EA18C2F804902269EA5084
:100F1000B9F1000F1ED03068227F4FF48E71FFF7B9
:100F2000A3FE4FF4A271FFF79FFE1A4BC0F80433E3
:100F300040F307335201002BD2B21EDB1649C8180A
:100F400080F800230122580903F01F0302FA03F37B
:100F500041F8203033680422C3F800252C2303FB1A
:100F600008530022C3E9062283F829205A6101228E
:100F700083F82A203846BDE8F883084903F00F03B8
:100F8000CA54E7E70827F5E71127F3E784010020B3
:100F9000FD0C00008000020000E100E014ED00E024
:100FA0000279044B2C2101FB02335869003818BF29
:100FB00001207047840100202DE9F84F074690F882
:100FC000048089469346FFF7EBFF0446002839D199
:100FD0001E4E2C2508FB056A4FF48E71CAF814B01A
:100FE000CAF820008AF828003868CAF80890FFF785
:100FF0003BFE012383605146FFF73EFEDAF80430E2
:1010000055460BBBDAF814402B6A9C4210D8D0F836
:101010001C31002BFBD00123C36000202C2303FBD9
:10102000086600237361BDE8F88F95F828303BB956
:10103000D0F81C31002BF8D05146FFF71DFEE3E736
:101040000F20EBE71120EEE72046ECE784010020BB
:101050002DE9F0473C4D06792C2303FB065304464B
:101060005F68D3F8188037B9B8F1000F13D0D8698A
:1010700010B311204BE0D0F800C000684FF4017E9F
:10108000CCF808E3B8F1000F05D0DC69002C40D0A3
:10109000CCF804E3EDE72C2303FB06539A6100220E
:1010A000D9605A62DA6193F8293013B92068FFF7E2
:1010B00019FE20687FBB02E020681961DA614FF4F5
:1010C000A2712C27FFF7D0FD06FB07584746206882
:1010D000D0F824A1D0F80831D0F8449103BBB9F17D
:1010E000000F02D1BAF1000FF1D02C2303FB0655FB
:1010F0000023AB61BAF1000F22D1B9F1000F21D169
:1011000095F8291023680122C1B11A600020BDE8BA
:10111000F0871961DA614FF40173C0F80433F5E721
:10112000BAF1000FE1D1B9F1000FDED14146FFF76E
:10113000B2FD7B6ABA699A42C9D8D6E75A60E5E738
:101140000320E4E70F20E2E784010020002343505E
:1011500082B043580193019B02B070471FB5012331
:101160008DF80030044BCDE90110D3E90012684638
:10117000904705B05DF804FBB00100207FB5434AFD
:10118000D2F82461002E60D010464FF49271FFF720
:10119000DDFF02238DF80030D2F88034C2F88034AD
:1011A0000393D2F83C350293394BDA68019200225E
:1011B000C3E906226846D3E9001290473348D0F8C5
:1011C000443173B14FF4A271FFF7C0FF304B9A69FD
:1011D0003AB10022D0F83C05D968C3E90622FFF7EE
:1011E000BDFF2A48D0F82031ABB14FF49071FFF722
:1011F000ADFF0123C360264B5A6962B1D0F84C158C
:101200000291002299688DF8002001915A61684688
:10121000D3E9001290471D48D0F858319BB14FF4E4
:10122000AC71FFF793FF1A4B5A6962B1D0F84C15B5
:101230000291002299688DF8002001915A61684658
:10124000D3E90012904704B070BDD2F81031002BE2
:10125000B4D04FF488711046FFF778FF0C4BD2F8EA
:101260003C0599698842A9D1DC69D96864B1D2F892
:10127000005225F02005C2F800521A699C61DA601C
:10128000DE61FFF76BFF99E79C61FAE70020004001
:10129000B00100202DE9F843574D90F80480242335
:1012A00003FB0853064693F820300C469146002B6A
:1012B00040F09E8051490068FFF7BAFC07460028BD
:1012C00040F0988021683368481C0BD04FF0A04054
:1012D00001228A40C0F8082501F5E0724FF0030CA6
:1012E00040F822C06068421C1FBF00F5E0724FF05A
:1012F000A04C4FF0000E4CF822E0A269C3F8242560
:1013000094F814C0627DBCF1010F4CEA0202C3F8EC
:101310006C25C3F80C15C3F814051DD1A1684A1C2F
:101320001FBF01F5E0724FF0A0404FF0000C40F8F5
:1013300022C0E268501C0BD04FF0A04C012090401E
:10134000CCF8080502F5E0704FF0030E4CF820E0F1
:10135000C3F80825C3F81015242303FB08F3EA1883
:10136000C2F804902269EA50B9F1000F2AD030681F
:10137000227F4FF48871FFF7E9FE4FF49071FFF779
:10138000E5FE4FF49271FFF7E1FE4FF4A271FFF713
:10139000DDFE4FF4AC71FFF7D9FE194BC0F80433F2
:1013A00040F307335201002BD2B21CDB1549C81899
:1013B00080F800230122580903F01F0302FA03F307
:1013C00041F8203033680822C3F80025242303FBAA
:1013D00008550023C5E906336B61012385F82030E9
:1013E0003846BDE8F883084903F00F03CA54E9E71B
:1013F0000827F5E71127F3E7B00100207D11000071
:101400001003420000E100E014ED00E00279044B1B
:10141000242101FB02335869003818BF01207047AE
:10142000B001002001F06043B3F1005F2DE9F04707
:1014300081460E46924636D190F80480FFF7E6FFCB
:10144000044690BB1B4FD9F80020242505FB0875E6
:101450004FF490711046C5F814A0AE60FFF776FE09
:101460004FF4AC71FFF772FE6B69C2F84465C2F8C5
:101470004835012393606B68CBB9D2F82031D2F89C
:1014800058010343F9D060B90123D360D2F8583131
:10149000002BFBD0242303FB087700237B61BDE8EE
:1014A000F0870F20F6E71020F9E71120F7E7204634
:1014B000F5E700BFB00100202DE9F84301F06043DB
:1014C000B3F1005F0F4673D106793A4D242303FB35
:1014D0000653D3F80480D3F818C0B8F1000F08D130
:1014E000BCF1000F12D0DB69002B40D01120BDE809
:1014F000F88301684FF40474C1F80843BCF1000F8D
:1015000004D0DB699BB3C1F80443EFE7242303FB5A
:10151000065300219A61DF6089462423046803FB97
:1015200006532046D9614FF48871FFF70FFE4FF440
:10153000A271FFF70BFEC4F83475C4F83825B9F171
:10154000000F1CD101232360B8F1000F2AD1D4F879
:101550001031D4F84421D4F82401134316D10028C3
:10156000F5D0242202FB065203209361BFE7242317
:1015700003FB065311461F614FF00109CDE7D4F874
:10158000003243F02003C4F80032DDE7242303FBDC
:1015900006550023984218BF03209A42AB6118BF3A
:1015A0000F20A4E74FF40473C4F8043300209EE72F
:1015B00010209CE7B00100201FB50021039001AA74
:1015C00044F20100CDE9011100F004F805B05DF826
:1015D00004FB000038B572B602F00CFD02F064FBAB
:1015E0000028FBD1104B114C114D1249E41AE408AC
:1015F000240444F0010002F097FCD5F8F030DB073A
:1016000000D500BE0C4944F0020002F08DFCBFF38F
:101610004F8FEA68094B02F4E0621343EB60BFF3BB
:101620004F8F00BFFDE700BF0C5900003459000088
:1016300000ED00E0EE590000FA5900000400FA0540
:1016400010B5034649B152B1541E14EA020006D146
:10165000986019609C80D86010BD0E20FCE70920BE
:10166000FAE710B58468C2688388121B934208D3D6
:10167000C26813400268D154C3680133C3600020BC
:1016800010BD0420FCE78268C3689A420AD08268D1
:10169000838813400268D35C0B70836801338360D6
:1016A0000020704705207047C368836000207047A2
:1016B00010B5D0E90242D1E90203A04293412CBF08
:1016C0000120002010BD000008B50A4800F01DFCF4
:1016D000094AD2E90031C018084BD3E9002341F18F
:1016E0000001904271EB030303D210F1807041F1CD
:1016F000000108BD18000020480200204002002020
:1017000038B5224B1D780446ADB3A0B3FFF7DCFF1C
:10171000D4E902239042994130D3002000F0D6FA58
:1017200023692BB94FF0FF324FF0FF33C4E9022396
:10173000002000F0CDFAD4E905309847002000F0F1
:10174000C5FA2369A3B1D4E90212B2F1FF3F08BF81
:10175000B1F1FF3F0CD05B1842F10002C4E9023244
:10176000002000F0B5FA0A48214602F0D3F803E061
:10177000002000F0ADFA0025284638BDB3F1FF3F48
:1017800008BFB2F1FF3FF6D0EDE700BF50020020E6
:10179000085A000037B505460C460A4801A901F071
:1017A0000EFB68B10570446001A9064801F031FBE9
:1017B00010B9002003B030BD034800F0ABFBF8E7E0
:1017C0000420F7E7D80100201800002013B5114BC2
:1017D00011491868019008231048582201F0DCFADA
:1017E000044698B90E4A0F4801A900F07FFA044652
:1017F00060B90C48012100F06BFB01230A4A09483B
:10180000194600F0CDFA094B01221A70204602B0A9
:1018100010BD00BF1E5A0000E8010020D8010020C2
:10182000B118000018000020FFFF7F0050020020C8
:1018300030B56AB103684FF0FF344FF0FF355A619D
:101840004A1E5142C3E9024551411961002030BD91
:101850000720FCE770B50446002016460D4600F050
:1018600035FAD4E90223B3F1FF3F08BFB2F1FF3FDD
:1018700013D1FFF729FF281841F10001C4E9020143
:10188000002000F025FA2369A66103B125612146F5
:101890000020BDE87040FFF77DBF002000F018FA7F
:1018A000002070BD014800F030BB00BF18000020D0
:1018B0002DE9F743074600F013FB40B1634AD2E934
:1018C000003113F1807341F10001C2E900310021C0
:1018D000384600F014FB38B15D4C236823B1206812
:1018E000FFF70EFF002323600121384600F007FBBD
:1018F00020B1FFF7E9FE574BC3E900015648544EAB
:1019000001A901F096FA4FF0FF344FF0FF35A0B96E
:10191000DFF848814E4C404602F012F8002800F0F3
:101920008A80D0E90223B3F1FF3F08BFB2F1FF3F45
:1019300036D1404601F0FEFFEDE70378012B21D0C0
:10194000022B09D1DFF81481404601F0F3FF20BBE0
:10195000434B01221A700CE05BB94168D1E90223C4
:10196000B3F1FF3F08BFB2F1FF3F02D03B4801F0A7
:10197000D1FF01A9384801F087FA01A9364801F0E2
:1019800058FAC4E741683368994202D100233360B2
:10199000EFE7324801F0D7FFEBE7C0E90245D3E7B4
:1019A000216891B12168D1E9020182428B412CD298
:1019B0002368D3E90223B3F1FF3F08BFB2F1FF3F31
:1019C00003D02168404601F0A5FF404601F0B2FF78
:1019D000D0E902590646FFF777FE281A69EB01099C
:1019E000012879F1000915DBB0F5350F10D3FFF7A9
:1019F00059FF1C4A02441C484FF49603002100F092
:101A0000EFF978B9236893B1266003B0BDE8F0839D
:101A10002A46F0E71448002100F067FA3046FFF745
:101A20006FFE01E00D28F9D00023236073E73846EC
:101A300000F0AEF9E8E7064B1B68002BE5D138460D
:101A400003B0BDE8F04300F0A7B900BF4802002092
:101A50005402002040020020D8010020085A000053
:101A600050020020FFFFB400180000200648074A7B
:101A700003780749D35C012213B10430FFF71CBD82
:101A80000C30FFF7E5BA00BF20000020F000002076
:101A9000790200200648074A03780749D35C0122EF
:101AA00013B10430FFF7BEBC0C30FFF785BA00BF9E
:101AB00020000020F00000207A02002037B50578D1
:101AC000012D0DD0022D30D075B91F491F48FFF7E9
:101AD000DAFD002834D103B0BDE83040FFF7DABFAB
:101AE000037A1BB9FFF7C2FF03B030BD4368184C3F
:101AF00019782046FFF7B5FD80B18DF800500190B0
:101B0000144B68461B689847A168E368A2885B1A73
:101B10009A42E7D2104B01221A70E5E7A268E36807
:101B20009A42F1D08DF80000EAE7C3688DF80050C2
:101B30000193FFF79BFF074B68461B689847D3E765
:101B400003238DF80030F6E77A02002058020020C7
:101B5000680200207C02002078020020F0B51F46B9
:101B6000234B89B004461A600D4600293DD08A886F
:101B700020480968FFF764FD002834D1AA89A968C4
:101B80001D48FFF75DFD00282DD11C4E0FCE6D4680
:101B90000FC596E80F0085E80F0063690693237C64
:101BA000174A18488DF81C70003B18BF01238DF8A8
:101BB0001430637C002B0CBF00230E238DF81530EE
:101BC000E3680293A36803932368019369466368FB
:101BD0000093FEF73DFE30B90B4B187023680133BC
:101BE00001D0FFF743FF09B0F0BD0720FBE700BFBE
:101BF0007C0200206802002058020020245A0000C5
:101C0000BD1A0000200000207802002008B5054819
:101C1000FFF74AFD20B9BDE808400348FFF744BD7F
:101C200008BD00BF680200205802002070B5084DB2
:101C3000014608482E78FFF726FD044636B10023FA
:101C40002B70FFF713FF08B1FFF7B6FC204670BDFD
:101C5000780200206802002010B501460E48FFF708
:101C600000FD0446A8B90D480D4A0378D35C63B162
:101C70000430FFF7CBFB60B90A490748FFF703FDC3
:101C800038B9BDE81040FFF705BF0C30FFF788F901
:101C9000F1E7204610BD00BF5802002020000020C0
:101CA000F00000207A02002072B6024A1368013365
:101CB0001360704780020020034A1368013B1360E1
:101CC00003B962B6704700BF80020020FFF7ECBF87
:101CD000FFF7F2BF0346405882B028B100225A50A5
:101CE0005B580193019B012002B0704770B5204BF7
:101CF0004579204E43F825201F4B204A06EBC505A9
:101D00009B1ADB08044618042B7933B140F002001B
:101D10001B4902F009F9082070BD23680A88C3F83E
:101D2000082594F904308A78002B4FEA4212D2B287
:101D300019DB1449CD1885F8002301225D0903F051
:101D40001F0302FA03F341F82530637906EBC3025F
:101D50000121117140F003000B4946F8334002F0B5
:101D6000E3F80020D8E7094903F00F03CA54ECE771
:101D70008C020020840200203C5900000C59000015
:101D8000445A000000E100E0665A000014ED00E053
:101D9000036801221A607047036801225A60704785
:101DA00073B501F15005AD000068ADB24FF4803459
:101DB0008C400026C0F80843C0F84843465101F55E
:101DC000A8714559019522F07F42019D40F82120DC
:101DD000C0F844430BB1C0F8044302B070BD00002A
:101DE0002DE9F74F0D4622F07F4402684FF480370B
:101DF00005F150068F408046B60002EB8500C2F820
:101E00004873B6B2C2F80873D2F8041599464FF079
:101E1000000BD0F84035C0F8401542F806B05B1A08
:101E20009259009223F07F43012B009A4FEA850AD2
:101E30000CD1264B4FF4806043F001039847D8F84B
:101E4000003043F806B09B590193019BD8F800205D
:101E5000D2F80465C2F84473A31B23F07F43012B1F
:101E60001CD11A4B05F5A875013443F0010342F863
:101E700025404FF480609847D8F80030D3F80435F7
:101E80009E4209D1D8F800300020C3F84473C3F84B
:101E9000047303B0BDE8F08F0D20FAE79244C9F156
:101EA000FF13CAF84045D2F80405211A013921F080
:101EB0007F4103F57F438B42EED30029E2D1013409
:101EC000CAF84045D2F804359842DAE7805A000053
:101ED00003680222C3F8442309B1C3F804237047FE
:101EE00000684FF48271FFF7F5BE4FF4803303FAB8
:101EF00001F10368C3F84813C3F808137047503161
:101F00008900006889B2FFF7E5BE0368D3F80405CD
:101F10007047000090F90430002B09DB5A090121B9
:101F200003F01F03994002F14003024A42F82310D4
:101F3000704700BF00E100E0024B034A1B681068D5
:101F4000184700BF8C0200208402002070B5064EA6
:101F50000546002456F8043B0BB128469847013447
:101F6000042CF7D170BD00BF9003002043880333D9
:101F700000EB830399420BD382884FF6FF739A429A
:101F800008D0038833B18068431C584258417047D9
:101F9000022070470120704768B10268084B9A42DE
:101FA00009D14068074B984207D0013398420CBFD3
:101FB000012003207047032070470020704700BFB6
:101FC000DEC0ADDEFE011EF1C21C92B240F2FE3355
:101FD0009A4230B51ED8124B187838B91C895D89E1
:101FE0002C441444A4B2B4F5806F0AD9187DA0B96A
:101FF000988BDC8B2044104480B2B0F5806F0CD8F5
:1020000001200880142101FB0033002059890A4473
:102010005A8130BD48F20860FBE748F20660F8E7F5
:10202000C80200200B4A0C495388142000FB0311FE
:10203000CB6833B90420496810700122074801F0C9
:10204000C3BA07490523137002238B800122096854
:102050000023F3E7B0020020C802002000000020A7
:10206000C002002007B5002305490093054A09680E
:102070000548082301F0FCF903B05DF804FB00BF3C
:10208000C0020020945A00000000002007B5002381
:1020900001460093034A0448082301F0E9F903B01C
:1020A0005DF804FB8C5A00000000002013B50023EB
:1020B0000C4600930146084A0848042301F0D8F969
:1020C00038B90749142202FB041101230B7402B032
:1020D00010BD48F20D60FAE7885A000000000020A9
:1020E000C802002037B50A480A4B42689C88196824
:1020F00053880325033305709BB2002000909B009A
:1021000001EB8401044801F0B3F903B030BD00BF16
:10211000B0020020C00200200000002010B50146DF
:10212000044800F04CFE1C220446002103F0B4FBDE
:10213000204610BDF00200202DE9F0410D4602239B
:10214000154F2B80164600F5805100F108044FF022
:1021500001088C420ED2236801330BD02046FFF7D2
:1021600005FF48B10EB186F80080022809D14FF46E
:1021700080632B80BDE8F081A3683A68934200D960
:102180003B602B886288033313442B8063880333BE
:1021900004EB8304DDE700BF8C03002038B5144B4B
:1021A00014220D4602FB00335C682B6804F5805155
:1021B000A3B15C88033403EB84048C4215D22368FA
:1021C000013312D02046FFF7D1FE012808D00228A3
:1021D0000BD00028F1D12C60012038BD0834ECE789
:1021E0006388033304EB8304E7E70020F5E700BFCF
:1021F000C80200204368F7B505460E461BB1244AC5
:10220000D1688B4206D200240027022C34802BD1C7
:10221000002022E012699342F5D813F00304F2D1B2
:102220001C4A018912899142EED101689A68914253
:10223000EAD119494A68934203D902F58052934280
:102240000DD38A6993420CD902F58052934208D289
:1022500001233380B4FA84F0400903B0F0BD234673
:10226000F7E748F20964F5E7019701A92046FFF76F
:1022700095FF10B90134A4B2C7E7019B2A68996899
:102280009142F2D16B60034B1B892B81E5E700BFC4
:1022900000000020B0020020C80200202DE9F04715
:1022A0001C461E4B1B7807468846164683B392B3DE
:1022B0008CB3DFF86C904FF0140AA588012D02D979
:1022C00048F2096022E00AFB05F319F803302BB944
:1022D00021462846FFF762FF18B920600135A58026
:1022E000EBE723681FB199883A889142F0D1B8F1A1
:1022F000000F04D01988B8F800209142E8D19A68FC
:10230000C6E90023074B1B8933810020BDE8F08715
:1023100048F20160FAE748F20460F7E7A8030020FA
:10232000C8020020B002002008B5074B5888191DCC
:10233000FFF734FF18B1BDE80840FFF7D3BEBDE892
:102340000840FFF76FBE00BFB00200202DE9F04744
:102350009C4FDFF8748288B006463B6823B99B48DF
:10236000414600F066FD38603D6829784B1E052B1C
:1023700000F21381DFE813F0060065006500080134
:10238000080176014EB1924B00215960142203A836
:1023900003F082FA4FF4064406E12B79032B1CD894
:1023A000DFE803F01402313C8A4A1378022B1ED076
:1023B000137D022B4FF001031BD114214B43D11885
:1023C0000020D0544868FFF761FE03E001232B7121
:1023D000FFF748FE002800F0D1807D4B0021142239
:1023E00003A8596048F20D6403F056FADCE00023BC
:1023F000E3E7774A002113705160142203A803F029
:102400004BFA0024D0E074497448002302222B7157
:102410008A800968012201F0D7F8DBE7704B6D4C28
:102420005B886D4A14214B43E11800262E714D68DC
:1024300010681560958848600D810221E6549180EE
:10244000C1E7B5F814A0AA7DDFF88891B6B1022AD9
:10245000EB8806D9142101FB0A91DA1C0889024491
:102460000A81142202FB0A99C3F57F43B9F80A10C6
:10247000FD330B44A9F80A30002188E7142303FB3D
:102480000A9318895C6804EB8004062A05D8DFE803
:1024900002F0375E4654266A780048F20E64AA7D40
:1024A000EB88022A06D9142101FB0A91DA1C08895B
:1024B00002440A81142202FB0A99C3F57F43B9F84A
:1024C0000A20FD331344A9F80A301422002103A87E
:1024D00003F0E2F941F61D539C4292D064E041487A
:1024E000414900234360AB690360FFF783FE014667
:1024F00030B9142203A803F0CFF948F2096453E07D
:102500000223AB75002300930423EA1821463348C5
:1025100000F0AEFF002831D048F20D64BFE72B6910
:10252000002B0CBF01230323AB750023009305F19F
:102530000C02042304F10801E9E70123AB75002232
:10254000EB8800922A699B0004F10C01DFE7032964
:1025500014BF06230523AB7500230093042305F164
:102560000802E118D3E70623AB751F4B19881D4BF2
:102570005868FFF79BFD0446002890D108B0BDE8DD
:10258000F08741F61D548AE70EB1142274E72B79C7
:10259000012B48D0022B5AD043B31422002103A8A8
:1025A00003F07AF948F20E643B6804941A78023A10
:1025B000042A00F20D81DFE812F0EE00FA001C019F
:1025C00024012B01AC020020A8020020F002002010
:1025D000A8030020C8020020C00200200000002044
:1025E000B00200209C0200209802002002232B71E0
:1025F0000DF10A01EB68039303A8CDE90466FFF728
:10260000F9FD10B91422314674E70498BDF80A1098
:102610008388EB8003882B81FFF748FD0446002C5C
:102620007FF453AFAAE7DFF8F09103AA4B46314697
:10263000A81DFFF733FE044660B9B9F804100498EA
:10264000FFF734FD48F2096398420446E7D11422AB
:102650000021D3E648F209639842C9E900667FF495
:1026600034AFF4E7002E90D16C4B197B1A78A9B1E6
:102670001E731A78013A062A8FD801A151F822F068
:102680002B270000512700006F270000752700004E
:102690009B2500007B2700008D270000072AE8D833
:1026A00001A151F822F000BFC926000073260000E6
:1026B00073260000EF2600000327000027270000F4
:1026C00027270000EB2600001A89554901321A819C
:1026D00000225A801A730A78B2FA82F252099A7268
:1026E0000A7DB2FA82F25209DA72012207E04D49FC
:1026F00058688A884088033202448A8002221A700D
:10270000B7E75C88464A4749142505FB0422086858
:10271000546850608888108102200C6088800021F5
:1027200011740622EBE70722E9E79A7A32B9DA7ADE
:102730008AB900211970598059605EE63849002233
:102740009A72CA68002AF2D1097C0029EFD05A8017
:10275000FFF7EAFD62E70022DA72314A116A0029C6
:10276000E7D192F82420002AE3D00122EFE7FFF717
:10277000B9FC53E7FFF756FC50E75A88284B142161
:1027800001FB02335868FFF781FC47E700225A60DB
:10279000FFF768FC42E701228DF80C201A89ADF89A
:1027A00018209A88DB68ADF81A20059310E0022201
:1027B0008DF80C201A89ADF818209A88ADF81A20E7
:1027C000DA689B7D05929A1F534253418DF81C3065
:1027D00003A8FFF7BBFB0026414613483E6000F00C
:1027E00053FB1248012100F0B2FB00287FF4B5AD85
:1027F000C4E603228DF80C20DA88ADF818201A8977
:10280000D0E704228DF80C20DB88ADF81830DFE724
:1028100005238DF80C30DBE790020020B002002089
:10282000C8020020C0020020F0020020A403002003
:102830004068FFF78BBD000008B50548012100F096
:102840006EFB18B9BDE80840FFF780BD08BD00BFAA
:10285000A40300202DE9F74398463A4B1B7806461F
:102860000D46002B62D0002963D009884FF6FF7314
:10287000994261D06B88002B5ED06B689B075ED15C
:102880004AB92F890DF102013846FFF79DFB30B19F
:1028900003B0BDE8F08313885788ADF8023001A873
:1028A000FFF73CFCBDF80220044650B9264B14212A
:1028B00001FB023358890338C01B588148F2076076
:1028C000E6E780F800806B6803614FF0000980F84C
:1028D0001690828201211D4800F02DFB2B88238158
:1028E000B8F1030F6B88E060A380E78012D1042366
:1028F000A37533681648A361A4F80A9001A900F0F3
:1029000088FA0023E2687360B372124B32601B894D
:10291000338107E00E48A4F80A9001A900F079FA83
:10292000002EEED1FFF788FF0020B1E748F20160EA
:10293000AEE748F20460ABE748F20360A8E748F26C
:102940000260A5E7A8030020C80200208C03002035
:10295000F0020020B002002008B5034607480268D4
:10296000042A08D00168064A42F82130012100F00B
:10297000E2FA002008BD48F20B60FBE7A00300204C
:10298000900300202DE9F04F744F87B014220021EE
:1029900001A802F081FF3B7803F0FF0B1BB101A8F7
:1029A000FFF7D4FA03E0381D00F0DDFA20B100246F
:1029B000204607B0BDE8F08F4FF010234FF0805253
:1029C0005B691269DFF898A1591C04BF3023534397
:1029D000CAF810306349A3F5405300225046CAF8A4
:1029E0000C3000F013FD04460028E1D15E495F4839
:1029F0001C238C2200F0D0F9A1464FF00308254695
:102A0000DAF80C604E443046FFF7C6FA01285DD074
:102A1000032812D0002836D1554914236B43CA1815
:102A2000C854566003F1100208330A443046194472
:102A3000FFF782FB44F0020445E033685A1C02D0E1
:102A40004C4A934234D1331D06F580521968013146
:102A50002ED104339342F9D1474B1A682AB9022286
:102A60001E609A804FF0010B0BE014236B4340482B
:102A70000221C218C154414B56605D80013511815D
:102A8000ADB244F0010409F58059B9F5405FB7D102
:102A9000B8F1010F06D9E4B2062C39D03DD814F0B4
:102AA000FD0F3AD100233B7048F20A647B607FE758
:102AB0002F4A14236B43D11808F1FF384E600321CD
:102AC000D1541FFA88F80135ADB2DCE72A4BBBF1CF
:102AD000000F0FD0DFF898C014226A430CEB0201FC
:102AE00002200CF802001A684A60244A08815580C6
:102AF0000135ADB222491E6000223046FFF71CFBB3
:102B00001D4B9B88022B14BF082304231C43BAE7E8
:102B100001233B7000237B6041E76846FFF7FEFA24
:102B2000C8B10123013C03700A2C09D8DFE804F086
:102B300006080608070807080F110F000023037195
:102B400069460A4800F065F9FFF776FE2FE7032390
:102B5000F5E70223F3E748F2076429E7A80300201A
:102B6000000000207C5C000000030020F002002038
:102B7000C8020020DEC0ADDEC0020020B00200208E
:102B8000C402002073B50D460446C0B1B9B10DF1C1
:102B90000601FFF72FFBA8B10C4BBDF806206668B5
:102BA000142000FB0230012100F0C5F963682E609B
:102BB0000C336B600123A372002002B070BD48F299
:102BC0000460FAE748F20960F7E700BFD40200208A
:102BD00013B50446A8B10DF10601FFF70BFB98B140
:102BE000BDF806200B4B142101FB0233DA6872B1E9
:102BF000A27A62B1DA680020013ADA60A07202B00B
:102C000010BD48F20460FAE748F20960F7E748F2BD
:102C10000560F4E7C802002002230022FFF71ABE75
:102C200018B103230022FFF715BE48F20460704775
:102C30000F4B1B7807B5A3B101A8FFF76FFA98B146
:102C40000623037001A90B4800F0E3F80A4B1A7839
:102C50000AB101221A73FFF7EFFD002003B05DF8FF
:102C600004FB48F20160F9E748F20760F6E700BFAD
:102C7000A8030020F0020020B002002007B5ADF844
:102C80000600ADF804100DF1060001A9FFF706FBE0
:102C900003B05DF804FB00002DE9F84F3C4B1B78B6
:102CA0000446002B6ED000286FD0DFF8E890102289
:102CB0000021023002F0F0FD032323804FF0000AD0
:102CC0004F4614264FF00108D9F80410B9F80AB09D
:102CD000B9F808500846FFF75FF9032808BF2388B2
:102CE000628804BF03F1FF33238006FB0A735D444F
:102CF000DB681344638023899B446389A4F808B08C
:102D0000ADB22B446381C5F58065A389ADB2AB42FA
:102D100038BFA58101F1080501F58051A94229D9E3
:102D20002B68013326D02846FFF720F901280AD066
:102D3000022815D00028F1D1A3880133A3800AE02E
:102D40004FF0010AC0E7E3880133E380E3896A8832
:102D500003331344E3816B88033305EB8305DDE71D
:102D6000E38884F810800133E380E389491B03EB97
:102D7000A101E18109F11409BAF1000FE0D00020AE
:102D8000BDE8F88F48F20160FAE748F20460F7E71F
:102D9000A8030020C802002010B561B1B2FBF3F413
:102DA00003FB1424A4B244B9C0E9001484608281F6
:102DB000C381204610BD0E20FCE70920FAE737B595
:102DC00050E8013F9DB2C48925448489A54228BFAB
:102DD0002D1B0489A54202BFBFF32F8F002207E0FD
:102DE000C5EA030540E80154002CE9D14FF0010287
:102DF0008DF803200193019A0A609DF8031001F0F9
:102E0000FF0321B1006810FA82F003B030BD18460C
:102E1000FBE70A884B889A4209D150E8012FC2EAA1
:102E2000024240E80123002BF7D101207047002027
:102E3000704737B550E8023F1FFAA3F5C488A54292
:102E400002BFBFF32F8F00220DE0C489254484897F
:102E5000A54228BF2D1BC3EA054540E80254002CBB
:102E6000E8D14FF001028DF803200193019A0A6026
:102E70009DF8031001F0FF0321B1006800EB124040
:102E800003B030BD1846FBE70A884B889A4209D147
:102E900050E8022FC2EA224240E80223002BF7D179
:102EA000012070470020704710B5034653E8000F1B
:102EB0000A4643E8002494F0000FF7D110BD10B586
:102EC000034653E8000F40EA010243E8002494F06F
:102ED000000FF6D110BD10B5034653E8002F42EAAB
:102EE000010043E8000494F0000FF6D110BD10B5C6
:102EF000034653E8000F00EA010243E8002494F07F
:102F0000000FF6D110BD10B5034653E8002F02EABA
:102F1000010043E8000494F0000FF6D110BD10B595
:102F2000034653E8000F00EB010243E8002494F04D
:102F3000000FF6D110BD10B5034653E8002F02EB89
:102F4000010043E8000494F0000FF6D110BD10B565
:102F5000034653E8002FA2EB010043E8000494F07D
:102F6000000FF6D110BD0121FFF7A9BF0121FFF726
:102F7000B2BF0021FFF7BBBF0021FFF7C4BF10B5F0
:102F800090B1D0E9012301689B1ADBB20A60013BD2
:102F9000DBB2FF2B026802D10020107110BD116856
:102FA0004C1C14600B70F2E70E20F7E770B5044676
:102FB0000020FEF78BFE216862680B68934213D9EC
:102FC000581E086013F8015CA368E268268A1B1A81
:102FD0000879DBB2984238BF0B7106FB052500204B
:102FE000FEF776FE284670BD0025F8E738B50546A1
:102FF00000200C46FEF76AFE2A681368591C11600F
:10300000EA68A41A2A8AB4FBF2F41C70BDE83840BE
:103010000020FEF75DBE826810B504462AB1436900
:103020000168006998470023A36010BD0EB403B582
:10303000039921B104AB01AA019300F06FF802B02B
:103040005DF804EB03B07047826830B40468551C27
:103050008560A154D0E901329A4202D330BCFFF717
:10306000DABF30BC704700002DE9F84F9946DDE922
:103070000A431546824688460A460127AA420FD2CD
:103080004F4538BF4F4613F0010B01D164B90024FE
:103090000126B9F1010F1CD909F1FF396E43F8E798
:1030A0000137B2FBF5F2E9E79B0710D5B9F1000F44
:1030B00014BF20263026BC42EAD9013C3146504696
:1030C000FFF7C2FF002CE2D0BC42F6D1E0E7202699
:1030D000F1E7B8FBF6F39D42E0D9DFF83C90B8FB8E
:1030E000F6F3504619F8031006FB1388FFF7ACFF00
:1030F0003346AB42B6FBF5F6F1D2BBF1000F00D080
:1031000034B9BDE8F88F20215046013CFFF79CFF01
:10311000BC42F8D8F5E700BF9C5A00002DE9F74FF4
:10312000064617468846002900F06C8118F8011BF6
:1031300049B9337B002B00F06581304603B0BDE810
:10314000F04FFFF768BF252940F09380002598F8DD
:1031500000102D29424608F1010806D0302907D079
:103160002B2908D145F00405F1E745F00105EEE70C
:1031700045F00205EBE72A2943461AD13B681A1DA0
:103180001C683A60424613782E2B21D101324FF051
:10319000000A4FF00A0C104610F8011BA1F1300E86
:1031A000BEF1090F16D80CFB0A11A1F1300A024634
:1031B000F1E7002413F8011CA1F130000928E2D83E
:1031C0000A2202FB0411A1F130041A460133F1E78F
:1031D0004FF0000A12F8011B01F0FB00682890462E
:1031E000F8D0782909D86F290CD863293DD021D887
:1031F00025293ED0582900F0B18098F80030002BE6
:1032000094D196E770390829F7D801A252F821F035
:10321000D7330000FB310000FB3100006D330000AC
:10322000FB3100004B330000FB310000FB3100009C
:103230005D330000642901D06929DED13A68D2F8F3
:1032400000B0111D8BEAEB723960A2EBEB724FF00C
:1032500001090A21092A10DCD14538BFD1468CB9B1
:103260000024BBF1000F25DA4BE03B681A1D1978EA
:103270003A603046FFF7E8FEBFE709F10109B2FB0B
:10328000F1F2E7E7BBF1000F05F0020225DB68076A
:1032900050D452B9E90740F1B18005F00302022A87
:1032A0003FD1BAF1000F3CD10CE0BAF1000F05D0CC
:1032B000EA0717D569072AD52B2125E005F0030277
:1032C000022A2ED1A1452CD2013C30213046FFF7F5
:1032D000BBFE2CB3A145F7D123E0013C72B9EB074B
:1032E0000FD474B14C45BCD9013C20213046FFF7C6
:1032F000ABFE002CB4D0A145F6D1B2E7BAF1000F75
:10330000EDD1CBF1000B2D213046FFF79DFE05F0EE
:103310000302022A05D1BAF1000F02D1002CD1D14B
:103320000024CDE9004553460A2259463046FFF7AE
:103330009BFE62E7013C22B9E807BBD4002CD1D147
:10334000B8E7BAF1000FB5D0F6E739680A1D3A6060
:10335000CDE9004553460A220968E7E739680A1DA6
:103360003A605346CDE900451022F5E73B681A1D47
:103370003A6015F00105D3F8009024D1B9F1000F9F
:1033800003D0484602F028FA0546AC421DD809F1A0
:10339000FF3919F8011F00293FF42FAF3046FFF71E
:1033A00053FEF6E730460135FFF74EFE19F80510DB
:1033B0000029F7D1A542BFF420AF20213046013CBF
:1033C000FFF742FEF6E70025F0E720213046013CFA
:1033D000FFF73AFED9E73B681A1D3A6030213046C4
:1033E0001C68FFF731FE78213046FFF72DFE0022E2
:1033F0000823CDE900322146102297E74C453FF6DD
:1034000073AF57E703B0BDE8F08F00BF13B50B46AD
:10341000114680B9104B1148114AC01A0E23C0083A
:103420000093104B0004104940F0010000F093FDA0
:103430000E2002B010BD4BB9074B08480B4AC01A0A
:10344000C0080E2300930004064BECE703601B68E2
:1034500002B0BDE8104018470C5900004C5900005C
:10346000AC5A00005B5C0000B15A0000E05A00005A
:103470002DE9F743DDF8288088B9474B4748484A8B
:10348000C01A0E23C0080093464B000440F0010010
:10349000454900F060FD0E2003B0BDE8F0834AB955
:1034A0003D4B3E48414AC01AC0080E230093000419
:1034B0003C4BEBE7D0F800E0BEF1000F0FD1364BEC
:1034C00036483B4A3849C01AC0080824000440F076
:1034D0000100344B009400F03EFD2046DCE77BB950
:1034E0002D4B2E48334AC01A0923C00800932D4B98
:1034F000000440F001002C4900F02DFD0920CBE72D
:103500004768D7F80490B3FBF9F709FB17374FB1B9
:10351000214B2248284AC01AC008092300930004FE
:10352000204BE6E78F070FD01B4B1C48234AC01ADD
:103530001023C00800931B4B000440F001001A49FF
:1035400000F009FD1020A7E712F0030F09D0124B7D
:1035500012481B4AC01AC008102300930004114BE4
:10356000EBE7C768B9420DD305694C1E1C44AC4259
:1035700008D8CDF82880DEF80C40A44603B0BDE89A
:10358000F0436047044B05480E4AC01AC008102398
:1035900000930004034BD0E70C5900004C59000085
:1035A000AC5A0000485C0000B15A00002E5B0000DD
:1035B000DA5A0000ED5A0000345B00005E5B000048
:1035C000765B0000995B0000F7B580B92D4B2E4863
:1035D0002E4AC01AC0080E242D4B009400042D4919
:1035E00040F0010000F0B7FC204603B0F0BDD0F879
:1035F00000C0BCF1000F09D1224B2348264AC01A53
:10360000C0080824224B00940004E8E74AB91D4B87
:103610001D48224AC01AC00809241D4B009400040A
:10362000DDE74768D7F800E00EF1FF370F420FD013
:10363000144B15481A4AC01A1023C0080093144BA3
:103640000004144940F0010000F085FC1024CBE791
:10365000C768B9420CD305694C1E0EFB0244AC424C
:1036600006D8DCF81040A44603B0BDE8F04060473F
:10367000044B05480B4AC01AC008102300930004ED
:10368000034BDEE70C5900004C590000AC5A000017
:10369000355C0000B15A0000DA5A0000ED5A000013
:1036A000C05B0000E65B0000014B436000207047F8
:1036B0009C5C00000846704700207047024B186869
:1036C000003818BF01207047B003002008B5024839
:1036D000FFF752FC002008BDB003002008B51046DB
:1036E0001A4602F0A7F8002008BD00002DE9F041BD
:1036F000804686B011480F4616461D46FFF733FC3C
:103700000446C8B9AA0831463846FDF7FFF80B4809
:10371000FFF732FCD8F8083053B101228DF80020B1
:103720000C9A0592CDE90147CDE9036568469847B3
:10373000204606B0BDE8F0811124F9E7B00300206F
:103740002DE9F043814687B014480E461546984649
:10375000FFF709FC0446F0B90746BD4215D10F48F2
:10376000FFF70AFCD9F808305BB102228DF800207F
:103770000022CDE90126CDE90325CDF81480684665
:103780009847204607B0BDE8F08306EB0730FDF709
:10379000A5F80137E1E71124F3E700BFB0030020EB
:1037A0002DE9F84FB0F806A04579D2F800B09DF8A1
:1037B00028900AFB05F5043D88460BEB0301A9425E
:1037C00003F1040488BFA5EB030BB4FBFAF607462C
:1037D0000AFB1644C2F800B04EB9AAEB04055D45D9
:1037E00028BF5D46BBF1000F04D1BDE8F88F3F68EC
:1037F000013EF1E7043408EB06003C442A46B9F1E7
:10380000000F0DD02146ABEB050B02F013F8DA45A3
:103810002E443F6855464FF0000428BF5D46E1E75F
:1038200001462046EFE7FFF7AABBF8B54679014607
:10383000721E0546002393422D6803D30024A6423E
:1038400002D8F8BD0133F6E70F682846FFF7CEFB34
:1038500001343946F3E72DE9F041078ACD1C0646CD
:10386000FFF7A4FB043F3D440446B5FBF7F5D0B198
:103870004FF48073EDB2C7808380013D06608046BF
:103880000027AF4210D23046FFF790FB40B163797A
:10389000013363710137C8F8000006608046F0E725
:1038A0002046FFF7C2FF00242046BDE8F081012139
:1038B0000430FFF740BB10B5012104460430FFF788
:1038C00046FBC0B220B92046BDE81040FFF7ADBFAF
:1038D00010BD1FB503920022009203AAFFF760FFFC
:1038E00005B05DF804FB1FB503920122009203AA04
:1038F000FFF756FF05B05DF804FB20BF40BF20BFB7
:103900007047836800225A60C3E904229A60DA6033
:103910001A60704770B5446806460D46206818B1B5
:10392000B3682946984718B923682B60256070BD95
:103930002468F3E74368186808B102681A607047A2
:103940004368186870474368186800B97047884230
:1039500003D102681A600120704703460068F4E74B
:103960007047000007B5044B0093044A402300F061
:1039700034F803B05DF804FB81390000B403002083
:103980002DE9F84388461446B2B1104B104D03267A
:10399000002743F00109224608EB0701002001F04F
:1039A00091F90744241A60B92B782BB14FF47A406F
:1039B000C847013E02D12E70BDE8F88301232B7069
:1039C000E9E701232B70002CE5D1F5E7C05C00008E
:1039D000F4030020704701F0A1B9F0B595B01D4681
:1039E000164608460C46FFF762FF1A9B0D93CDE979
:1039F000086500252B46082205A920460A958DF862
:103A00002C500C95FFF76FFF079B0293069B0393C7
:103A10009DF814308DF8115003F00302012A1DD1D6
:103A2000BDF81420059DC3F3C203C2F383168DF8BD
:103A30001030B20008230EA92046FFF754FFC5F34B
:103A4000952508AB0093324602AB0EA9284600F03C
:103A50003FFB2046FFF72FFF15B0F0BD022AF8D13B
:103A6000BDF81650C3F3C203C5F389158DF81030A5
:103A70000827082D2E4628BF08263B4632460EA9A9
:103A80002046FFF730FFAD1B08AB02AA31460EA857
:103A9000374400F081FB002DEBD1DAE708B5FFF7E2
:103AA0009AFF0448042100F083FA034B01225A7163
:103AB00008BD00BF6459000034000020037813F0F3
:103AC000040215D003F00303012B03D0022B09D00D
:103AD000012070470B6802880233C2F3831213443B
:103AE0000B60F5E70B684288023303EB9213F7E7AC
:103AF000104670472DE9F04F414C884685B0054689
:103B0000871C00201646FEF7E1F86268C8F800201E
:103B1000A36803F580739B1A04F21C4804F5836ABA
:103B200004F21449BB4217D30021002E63D005F0E4
:103B30000F05AD0145F0050565F30F016368DAB2C5
:103B400003323B4444F8221000206360FEF7C0F8C3
:103B5000012005B0BDE8F08F01214046FFF7EBF9E9
:103B60005046FFF703FA4846FFF700FAA0680090B6
:103B7000C0B2033004EB80006946FFF79FFF20BB13
:103B8000009BDAB204EB8202D16801919A1C0133E6
:103B9000DBB204EB83030092D3F80CB001F0030313
:103BA000012B20D0022B13D083464846FFF7E1F9C2
:103BB00008B1009BA36059464046FFF7BCF9A368D3
:103BC000626803F580739B1AACE79DF80000D0E7AC
:103BD000BDF80630C3F3891303334FEA1B4B02EBE6
:103BE00093030093E1E7BDF80430C3F383134FEA76
:103BF0001B4B1344F5E7AD0545F006019EE700BFFA
:103C0000F8030020064B074810B500221A70FFF792
:103C10000AFE044610B90448FFF773FE204610BDA3
:103C2000F8030020F8580000FC5C000030B50A4C96
:103C300071B10A4A0A49121BD20800239A4201D1E3
:103C4000002030BD31F82350854202D00133F5E722
:103C5000034654F83300F4E70C590000645900009F
:103C600014000020094B013903EBC000032909D8D7
:103C7000DFE801F0020A040602207047007970476D
:103C80004079704700207047042070470C590000AD
:103C900070470000034BD3E90130C31A5842584122
:103CA000704700BFF80300202DE9F04385B0FFF70F
:103CB000F1FF002874D1724CC4F81804BFF34F8F81
:103CC000A0680090C0B2033004EB80006946FFF7A3
:103CD000F5FE009B18B1D4F81824002A5CD0DAB2A3
:103CE0009F1C013304EB8202DBB204EB8303D26836
:103CF000DB68029302F00303022B0192009758D174
:103D0000BDF806305F48C3F389184646502E28BFD9
:103D1000502666F38F1306F10801ADF80630FFF761
:103D20009AFD0546002800F09580FFF7C0FD0023AE
:103D300001A908222846FFF7CCFDFB43DBB2013383
:103D4000F9B20331B6EB830F4FEA830904EB81012B
:103D50002CD908234A46A6EB09062846FFF7B9FDE9
:103D6000F6B2494909F10803324608F1030828462A
:103D700007EB9807FFF7ADFD0097D4F81834D4F897
:103D80001064002B55D02846FFF795FDFFF782FF02
:103D900080F00100C0B204E062689A4204D8A260D8
:103DA000002005B0BDE8F083D8B28CE70823324686
:103DB000DBE7012B4ED1BDF804303248C3F3831149
:103DC000062928BF062161F38913023101F00F0192
:103DD0008900ADF80430FFF73EFD0546002839D0D4
:103DE000FFF765FD0023082201A92846FFF771FDB2
:103DF0000026BDF80420C2F38312B300B24203F1DF
:103E00000803BAD900994A1CC9B20331009204EBE5
:103E1000810104222846FFF75CFD0136E9E7F368DB
:103E20005B7923B1336829461B6830469847F368AD
:103E30001E68002EF3D12846FFF73DFD3046FDF702
:103E400045FFD4F818340BB9009BA3600020FDF7A0
:103E50003FFF9BE7D4F8104454B90C4B0C480D4974
:103E6000C01AC008000440F0020000F05DF88DE7C1
:103E7000236820469B689847E3681C68ECE700BF0E
:103E8000F8030020F8580000040400200C5900003A
:103E900034590000E45C00002DE9F34704460E4667
:103EA000924601A9012218469946FFF723FE1C4FAE
:103EB00010B3019D4FF00008AA1CC84508EB020191
:103EC00025D118480021FEF7EFFF80F31000000411
:103ED00040EA1440E4006B1C04F03804DBB2EDB29D
:103EE00044F0010407EB8303033544EA881444EAF1
:103EF0008624D86047F825403B781BB1FFF7D4FEF5
:103F00000028FBD1FFF7C4FE02B0BDE8F087C9B2BC
:103F100007EB81015AF82830CB6008F10108CCE7A3
:103F2000F80300201408002000231A46FFF7B4BF4E
:103F300007B50123019201AAFFF7AEFF03B05DF8B8
:103F400004FB07B5CDE9002302236A46FFF7A4FF6F
:103F500003B05DF804FB1FB5CDE90123069B039375
:103F600001AA0323FFF798FF05B05DF804FB1FB516
:103F7000CDE90023069B0293079B03936A46042323
:103F8000FFF78AFF05B05DF804FB7FB5CDE900239C
:103F9000089B0293099B03930A9B04930B9B059335
:103FA0006A460623FFF778FF07B05DF804FB0000C0
:103FB00030B50F4CD4F8102403460020114631B917
:103FC000D96808717AB9C4F810340A600AE0C9687F
:103FD0000D79854201D00968F1E701300A28EDD159
:103FE0004FF0FF3030BDD26814680C601360F9E701
:103FF000F803002038B5084B0125D3F810441D7094
:1040000004B938BDE3685D71236820465B68984752
:10401000E3681C68F4E700BFF803002010B5037ADA
:10402000052B0C460FD0437A23B1084A0849204695
:10403000FEF7FCFF07492046FEF7F8FF2046BDE8E3
:104040001040FEF7E8BF002AF8D0F3E7085D000053
:104050000D5D00002D5D0000C38873B504460D465C
:1040600033B1144A00921449144A2846FEF7DEFF81
:10407000217A05291CD0637A4BB1A088FFF7F2FDA5
:104080000F4B104953F820202846FEF7CFFF227A25
:104090000D4BA08853F822600021FFF7C7FD0B49A4
:1040A00003463246284602B0BDE87040FEF7BEBF68
:1040B00002B070BD085D0000185D0000105D0000DA
:1040C000905D00000D5D0000B45D0000305D0000FB
:1040D0002DE9F04385B01F460C9D002395F80C9008
:1040E0002B7306460C46904629463846FFF7B4FF28
:1040F000B8F1060F09D8DFE808F00412181F2833BA
:10410000400031462846FEF791FF002229463846F6
:10411000FFF784FF85F80C9005B0BDE8F0832268B6
:1041200031462846FEF782FFEFE7D4E90023314607
:104130002846FEF77BFFE8E7A3680093D4E9002355
:1041400031462846FEF772FFDFE7E3680193A36874
:104150000093D4E9002331462846FEF767FFD4E7F1
:1041600023690293E3680193A3680093D4E90023D1
:1041700031462846FEF75AFFC7E763690393236970
:104180000293E3680193A3680093D4E900233146C6
:104190002846FEF74BFFB8E708292DE9F84F80467F
:1041A0000E4617461C463BD8002593F80C901D730D
:1041B00019461046FFF750FFDFF880A0DFF880B007
:1041C000AE422FD918F8052059462046FEF72EFF9B
:1041D0000135082DF4D11B49DFF86CB02046FEF7FD
:1041E00025FF4FF0000A564523D918F80A507E2DB6
:1041F0001DD8284601F0A9FA002814BF2A462E220D
:1042000059462046FEF712FF0AF1010ABAF1080FDB
:10421000E9D1012221463846FFF700FF84F80C90CF
:10422000BDE8F88F51462046FEF700FFD0E72E226A
:10423000E6E706492046FEF7F9FEE5E73A5D0000AD
:104240007C6200003E5D0000405D00003C5D0000BF
:104250000649074BC1F81435064B5A7C064B013A08
:1042600043EA0243C1F81835704700BF0010004010
:10427000060003004000002020000001074A084B10
:10428000C2F81435074B5B7C013B40EA034343EA29
:10429000002040F08070C2F8180570470010004000
:1042A00000010100400000200F4B10491A7AC1F8AC
:1042B0001025042A16D8DFE802F00E03150E0300BD
:1042C0000B4A302111600A4998890A683E329042AF
:1042D00004D301207047064A4921F3E70A683E32B9
:1042E0009A81F6E700207047181000200010004067
:1042F00088090020044A0023C2E910339364034A6A
:10430000C2E91033936470477C0D0020E00A00205E
:1043100038B5104D104C2B68C4F800320F4A104BC2
:10432000D07C1B6898470F4BC4F804350023C4F8B1
:10433000103101232361D4F81031002BFBD000236E
:10434000C4F810312B6843F00403C4F80032012391
:10435000636038BD3C0000200010004018100020B1
:10436000800900209C0A00200B4B0C4A1B6810B5EA
:104370000B4C43F00403C4F800320A4BD07C1B689A
:104380009847094BC4F80435084B094A1A60094B91
:1043900004221A7010BD00BF3C000020181000203D
:1043A00000100040800900209C0A002084090020A1
:1043B000794400003810002007498B6893FAA3F372
:1043C000064A1BBAC2F82435CB6893FAA3F31BBA8A
:1043D000C2F82835704700BF4000002000100040A0
:1043E0002DE9F8431F4BDFF880901A78012A8046A8
:1043F0000F4609D199F80030202B30D81B4A116C98
:1044000052F82120137006E0184A116C52F821204E
:10441000597811BB1170154D15492C6C55F8246055
:104420003046013410F8052B01F004FA114B86F8E0
:104430000180D3F84835B37099F801303771DB4308
:1044400003F00103F370AB6C102C28BF0024013380
:104450002C64AB640120BDE8F883DB7CD2E700204C
:10446000F9E700BF181000209C0A0020E00A002095
:104470009E0A002000100040664A2DE9F84FD2F84D
:1044800000341BB9BDE8F84FFFF742BFDFF8889151
:10449000D9F848300F2BF5D8D2F808345F4CDFF844
:1044A0008081D2F80C5434F8231098F801008D4222
:1044B0004FEA50024FEA830534D16119897891425D
:1044C00015BF4FF0010A4FF0000A00210121DFF86B
:1044D00044E16619B270DEF80C2424F82320514A16
:1044E000137D1BB3C30721D4FFF712FFBAF1000FEE
:1044F00016D0484BD3F80804D9F848302C440F2B79
:10450000A1780DD8C0B2FFF76BFF48B1464A1368D7
:1045100043F004031360454B4FF48012C3F80021AD
:10452000BDE8F88F4FF0010A0021D0E7404B414E23
:104530001B6843F00803CEF800321778002F5FD0D5
:10454000012F41D13C4F3D48BA6C002A51D0DEF8D2
:104550000834DFF8ECC05CF82330002B49D0DEF8DB
:104560000834DFF8E0B05CF823301B68CBF800308B
:104570006319DB78A3B199B9DEF808E45CF82E3052
:10458000013A19719B684CF82E30BA6452B303B1EA
:104590001B68254ACBF80030136843F00103136011
:1045A000DBF8007002686319F7B10121D97038781F
:1045B0009047DBF80010244811F8052B327001F009
:1045C00039F998F801307370204B05221A70114B9D
:1045D000D3F80824C3F82C25C3F804651C4B1D4AE6
:1045E0001A6083E70B46D4E7DF7038469047377090
:1045F000E7E763190027DF70036838469847F6E756
:104600000E4B38461B68984798F800303370777027
:10461000DAE700BF00100040E00A00209009002007
:104620009C0A002018100020B809002000E100E0DA
:104630003C000020BE0A00207C0D002080090020E4
:10464000BC09002034100020C00A002038100020CF
:104650008409002069430000124BD3F8002132B1D5
:10466000D3F80423D00744BF0022C3F80021D3F8B5
:104670000C2132B1D3F80423110744BF0022C3F840
:104680000C21084BD3F8102152B1D3F80423D206E1
:1046900006D50022C3F81021034B1B6803B118474D
:1046A000704700BF0010004084090020114B1248E1
:1046B0004FF4705210B5C3F80825104B00241C703D
:1046C0000F4B21461C70FFF715FE202201F0E4F885
:1046D0000C4B1C605C600C4B4FF48012C3F88020C4
:1046E000BFF34F8FBFF36F8F084B0322C3F8002235
:1046F000204610BD00F00140900900203810002035
:1047000039100020B009002000E100E00010004056
:10471000F8B50446002800F0E080724D2B78002B9D
:1047200040F0B580704B62681A60704A234604F10D
:104730001807164618685968144603C40833BB4264
:104740002246F7D100246A4B6A481C602022214689
:1047500001F0A2F8684BB27A1C605C60674BC3F84A
:104760000C25FFF7A1FD3378654A002B00F09580FA
:10477000012B00F09680737A012B00EA040000F010
:104780009F80022B00F08F80002B00F0A080002380
:1047900000EA03041368F07C9847002C00F09F8027
:1047A000564B584958484FF0E732C3F81C254FF094
:1047B0004332C3F82025554AC3F82425544AC3F888
:1047C0002825FFF797FD0A4600230133102B40F8F8
:1047D000042B02F12502F8D14E4A4F480023013341
:1047E000102B40F8042B02F12502F8D100224B4B8C
:1047F00014460132102A19601C719C6001F12501D8
:1048000003F10C03F5D120220021454801F044F8C2
:10481000444A45490423C2F8103540F20223C2F845
:104820000845C2F80032414BC3F86015C3F864254F
:10483000A2F50E42FC3AC3F8682502F50F420C328D
:10484000C3F86C2502F59872C3F87025A2F51142E1
:10485000303AC3F8742502F511423432C3F8782592
:10486000264AC3F87C25737C314A5B01DBB282F8AF
:104870000133B37C5B01DBB282F814334FF4801355
:1048800013602C4B1C7001232B70002004E0FFF7F9
:104890000DFF00283FF446AFF8BD274B13600124FD
:1048A00069E7264BFAE715494FF6FF74C1F83C4516
:1048B000234CC1F838451149C1F83435012367E765
:1048C0000E49FF24C1F83C4540F20714F1E70B49BB
:1048D000C1F83C35C1F83835EDE70E20DCE707209C
:1048E000DAE700BF39100020301000201810002037
:1048F000B809002090090020B009002000100040F5
:1049000080090020C80D00207C0D0020E743C32350
:10491000A363E3132C0B0020E00A0020DC09002035
:10492000BC09002000A000400011004000F0014040
:1049300000E100E0381000207D42000051420000FC
:104940002110010037B5174B1B680193164B1B78DC
:104950002BB3164B0221C3F88010BFF34F8FBFF368
:104960006F8F13480022056802601960114C23689C
:10497000ABB1E90703D58DF8002068469847AA0730
:1049800005D501238DF800306846236898476B07EA
:1049900005D502238DF8003068462368984703B098
:1049A00030BD00BF8C0900203910002000E100E07C
:1049B000B809002030100020194B1B7870B54BB39C
:1049C00050B3184CA36C4BB3174D0226C5F880604A
:1049D000BFF34F8FBFF36F8F636C54F823100A78C7
:1049E00002704B78437091F9023083700B79037138
:1049F000CB78C3700531053000F01CFF636C0133C8
:104A0000102B28BF00236364A36C013BA3642E60BA
:104A1000002070BD0820FCE70E20FAE70520F8E72B
:104A200039100020E00A002000E100E010B51A492A
:104A30000B7803F0FF0063BB184B194C4FF0FF32AB
:104A4000C3F80823174AC3F810011460164A126805
:104A500042F00402C3F800221022C3F80423042207
:104A60000A70124A917CC3F83015D27CC3F808252D
:104A70000F4AC3F804250F4A0221C2F880111160C1
:104A80000122C3F80401C3F80801C3F810015A60F9
:104A900010BD1120FCE700BF3810002000100040BE
:104AA00079440000840900203C00002040000020E0
:104AB0009C0A002000E100E0094B1B7873B1094A11
:104AC0000221C2F88010BFF34F8FBFF36F8F064BE8
:104AD00000209864C3E910001160704708207047F7
:104AE0003910002000E100E07C0D0020094A127816
:104AF000034602F0FF004AB953B1074A1B6813602E
:104B000093FAA3F3054AC2F81C3570471120704789
:104B10000E20704738100020400000200010004098
:104B2000094A1278034602F0FF004AB953B1074A16
:104B30001B68536093FAA3F3054AC2F82035704707
:104B4000112070470E2070473810002040000020D0
:104B50000010004038B50F4B1B780C4603F0FF05E2
:104B600093B998B1082913D80A4601460A4800F0BB
:104B700061FE0A4AFF231474C4F1080423419374AC
:104B8000FFF71AFC284638BD1120FCE70E20FAE793
:104B90000720F8E7381000204800002040000020DF
:104BA000074A1278034602F0FF0022B9642B04D8AA
:104BB000044AD3747047112070470720704700BF24
:104BC00038100020400000200369C26893429CBF57
:104BD00081685B18013B981A70472DE9F041D0E9D4
:104BE00002840546A8EB04064068964220440F461E
:104BF000144404D900F01EFEEC60BDE8F08132469A
:104C0000A4EB080400F016FE68682246B919F1E723
:104C10002DE9F843C5680646894617464FF0000857
:104C20003369B46870689D4228BF1B19641BBC427D
:104C300003F1FF3328BF3C465B1B9C4228BF1C4648
:104C400049462844224600F0F5FDB3682544AB42AE
:104C500008BF00253F1BA044A144F560E0D14046B9
:104C6000BDE8F88310B5114C114AA2610223C4E9D2
:104C70000433104BE361A2644FF400730E4A0F49F2
:104C80002362E26400231022E01DA3626362E362F8
:104C9000A3656365E365226500F0B4FD084920461D
:104CA00000F0B0FD2023A37110BD00BF4C12002006
:104CB000C85D00004A1000203A100020D15D0000BD
:104CC000D55D0000F8B5144B182700FB07751D448F
:104CD00007FB00330E46DB6A012B14460AD0022B79
:104CE00014D023B92846FFF76FFF844208D9002467
:104CF0002046F8BD2846FFF767FF844228BF0446D8
:104D0000224631462846FFF768FFF1E72846BDE80E
:104D1000F840FFF77DBF00BF4C120020FFF7A2BF95
:104D200038B51E4A1E4C01784368A41AE4081D4A8F
:104D3000240452F82120054644F003047BB91A49A3
:104D40002046FFF7F5F82B78012B12D0032B10D05B
:104D500023B96B6813B9154B01221A7038BD144979
:104D6000A3F50643204651F823301249FFF7E9F82E
:104D7000E9E76B68002BF1D1AA680F492046FFF7DD
:104D8000D7F8AA890D492046FFF7D2F8EA890C49DD
:104D90002046BDE83840FFF7CBB800BF0C590000F3
:104DA0003459000008620000DC5D0000C4120020DD
:104DB000CC610000045E0000235E0000355E000050
:104DC000455E000010B586B00023CDE90333CDE980
:104DD00001330593164C174B1749E41AE4082404D1
:104DE00044F003042046FFF79FF801AB03AA47F203
:104DF000100148F21000FDF741FF90B90F4903A8D8
:104E0000FDF70EFF48F2066290420CD10C49204695
:104E1000FFF78AF8FDF70CFF0A4902462046FFF724
:104E200087F806B010BD0028FBD0FCF7C5FBF8E7FB
:104E3000345900000C590000585E00002062000048
:104E40006E5E0000B05E0000F0B55D485D4C5E4DEA
:104E50008FB0FDF781FD5D4B5D49E41AE408240441
:104E600044F003042046FFF75FF800232B70FDF7A2
:104E700089FD08B1FCF7A0FB2B78002B7AD05549AF
:104E80002046FFF751F81222002109A800F004FD86
:104E900009A8FDF701FF08B1FCF78EFBBDF828203B
:104EA0004D492046FFF744F8BDF82A204B492046DB
:104EB000FFF73EF80023CDE90633CDE9023308932E
:104EC00006AA02AB47F2100148F21000FDF7D6FE29
:104ED000002851D1CDE9040004A906A8FDF752FE2F
:104EE00008B1FCF769FB059B3D4A03F11007154625
:104EF00018685968164603C60833BB423246F7D1D4
:104F00001B78337037492046FFF70EF82A7C364964
:104F10002046FFF70DF8EB780193AB7800936B78A0
:104F20002A7832492046FFF722F8EB790193AB79D2
:104F300000936B792A792E492046FFF718F8EB7A0F
:104F40000193AB7A00936B7A2A7A2A492046FFF7BD
:104F50000EF8EB7B0193AB7B009320466B7B2A7BA7
:104F60002549FFF704F806A8FDF732FE08B3FCF761
:104F700023FB1EE020BF7FE720492046FEF7D4FF39
:104F80001F4906A8FDF748FE1E4905460246204671
:104F9000FEF7CEFF48F206639D420CD11A49204627
:104FA000FEF7C2FFFDF744FE184902462046FEF711
:104FB000BFFF0FB0F0BD002DFBD02846D7E700BFE4
:104FC000214D000034590000C41200200C5900008B
:104FD000BB5E0000CF5E0000F15E0000095F0000D4
:104FE00054000020415F0000585F0000645F000033
:104FF0007F5F00009A5F0000BB5F0000DC5F000085
:1050000020620000F45F00000E600000B05E00004F
:1050100084B008B50DF1080C8CE80F009DF809303C
:105020002BB1012B0FD0BDE8084004B070470B4AEC
:105030000B48012111700B4A02A9136011F8052BCE
:1050400000F0F8FBEFE7084A0848137002A9084B84
:1050500000221A6011F8052BF2E700BFD1120020E0
:1050600005130020CC120020D0120020E5120020F1
:10507000C812002038B5FCF7C9FDFF20FCF7ECFD95
:105080001320FCF7E9FD0820FCF7E6FD074D00249E
:10509000013415F8010BE4B2FCF7DEFD122CF7D158
:1050A000BDE83840FE20FCF7D7BD00BFD31200207A
:1050B00038B5254B1A784AB100221A70234A244B7E
:1050C000116819605168127A59601A72214B1A7866
:1050D0004AB100221A70204A204B116819605168A9
:1050E000127A59601A721E4B1A789AB100221A70FD
:1050F0001C481D4B1D49C01AC008000440F00300A5
:10510000FEF712FFFFF7B6FF194B4FF4207043F084
:10511000010398471748184902680B68174D013278
:105120000133AA4202600B6005D9094C00222260BB
:10513000626022720260AB4205D9084A0023136004
:10514000536013720B6038BDD1120020051300208C
:10515000D3120020D0120020E5120020DC12002023
:10516000D2120020345900000C5900002C620000BB
:1051700040620000CC120020C8120020A08601006E
:10518000FFF796BFA0F1730358425841014B1870C6
:10519000704700BFD212002008B5094A0948012112
:1051A000FCF746FB08B1FCF707FA0748002210217C
:1051B000FCF750FB18B1BDE80840FCF7FDB908BD8D
:1051C0008151000048620000680000202DE9F04194
:1051D0000378012B86B03CD0022B20D11F4E1F48F4
:1051E000FFF7EAFB002831D11D4CD6F800E0D6F8D5
:1051F00004C0B268F3686D4604F110082068616865
:105200002F4603C7083444453D46F7D1206838602F
:105210002179397170466146FFF7FAFEDFE7ABB9D5
:10522000104A114B11481249C01A92F824300393C6
:10523000137A0293D379019393790093C008000401
:105240005379127840F00300FEF79FFE06B0BDE8E8
:10525000F08106B0BDE8F041FFF72EBC2513002019
:1052600035130020880000200C590000345900003C
:105270004C62000030B5184D0FCD87B06C460FC49E
:1052800095E80300012384E803008DF801306846A7
:10529000124B0193FFF73CFA08B1FCF78DF9104B64
:1052A000187CFFF77DFC08B1FCF786F90C48FFF786
:1052B0001DFC08B1FCF780F90A48FFF731FC08B182
:1052C000FCF77AF908480821FFF744FC08B1FCF71D
:1052D00073F907B030BD00BF84620000CD510000FB
:1052E00054000020580000205C00002008B5FFF7A3
:1052F0009DFB18B1BDE80840FCF75EB908BD000091
:105300002DE9F74F0678012E00F0B181022E00F052
:10531000A1814EBBBC4DBD4CDFF8F4822846FCF7A2
:1053200085FCBC4B2A78BC49E41AE408240444F008
:1053300003042046FEF7FCFD98F800002A78B74BDE
:10534000B74D00F0FF0190B9FF2A0BD10122B548FB
:1053500088F8002040222970197003B0BDE8F04F92
:1053600000F09ABA2970197003B0BDE8F08F29785F
:1053700001F0FF00B1B9AC490A700A78082A84BF6D
:1053800088F8000028700A78A848825C1A700A78A9
:105390001B78A7492046FEF7D4FD2B780133DBB2FA
:1053A0002B70E1E729781B78994240F22681FE2A8A
:1053B0002FD19D4F9F493A782046FEF7B9FD3F789F
:1053C000FFB2082F25D8DFE817F009002900620096
:1053D0007900A000C300EA00F8001301FCF716FCF6
:1053E000FF20954CFCF738FC0520FCF735FC00202D
:1053F000FCF732FC2078FCF72FFC6078FCF72CFCE3
:10540000A078FCF729FCE078FCF726FCFE20FCF7EE
:1054100023FC002388F800302B70BEE7DFF818A2C9
:10542000DFF800B2FCF7F2FB84490022D1469BF87A
:10543000003001922046FEF784FD1BF8013B1AF86C
:10544000010B019A7D49834202F101021CBF0AF857
:10545000013C3E46042AEAD10EB1FFF7B3FCFF201F
:10546000FCF7FAFB0520FCF7F7FB0120FCF7F4FB47
:1054700099F80000FCF7F0FB99F80100FCF7ECFB51
:1054800099F80200FCF7E8FB99F80300BCE7FCF789
:10549000BDFBFF20FCF7E0FB0520FCF7DDFB022055
:1054A000654CFCF7D9FB2079FCF7D6FB6079FCF75B
:1054B000D3FBA079FCF7D0FBE079A5E7FCF7A6FBCE
:1054C000DFF860A1DFF87891DFF878B100273A467D
:1054D0009AF8003059462046FEF733FD1AF8013B92
:1054E00019F8012F01379A421CBF89F800300126B4
:1054F000042FECD10EB1FFF765FCFF20FCF7ACFBED
:105500000520FCF7A9FB0320CAE7FCF77FFBFF207F
:10551000FCF7A2FB0920FCF79FFB0420464CFCF79C
:105520009BFB207AFCF798FB607AFCF795FBA07A4E
:10553000FCF792FBE07AFCF78FFB207BFCF78CFBFF
:10554000607BFCF789FBA07BFCF786FBE07B5BE7DD
:10555000FCF75CFBDFF8CC90DFF8ECA0DFF8ECB0F8
:1055600000273A4699F8003059462046FEF7E9FCF4
:1055700019F8013B1AF8012F01379A421CBF8AF82B
:1055800000300126082FECD10EB1FFF71BFCFF20E5
:10559000FCF762FB0920FCF75FFB0520BEE7FCF788
:1055A00035FBFF20FCF758FB0220FCF755FB0620DB
:1055B000FCF752FB204B187C26E71A4EFCF726FB23
:1055C00020461D4C32782249FEF7B2FC3378227C0B
:1055D0009A4202D02374FFF7F5FBFF20FCF73CFB57
:1055E0000220FCF739FB0720FCF736FB207C0BE799
:1055F0000C4B1878FFF7C6FD0BE72978094B0B44D5
:1056000003F8012CC9E600BFAD00002034590000AA
:10561000CD1400200C5900009C620000CB14002027
:10562000CC140020CE140020CA140020AE000020AC
:10563000AD620000C262000054000020CD62000094
:1056400057000020EC6200005B0000200B630000AC
:105650002C63000009480A4B0A49C01AC00800041C
:1056600040F0030003B0BDE8F04FFEF75DBC034817
:10567000034B0549C01AC0080004F1E73459000083
:105680000C5900004D6300006863000030B5124DF6
:105690000FCD8BB004AC0FC4104B009395E8030002
:1056A0004FF4807301930E4B0293802384E8030030
:1056B0000C4A03936946072304A8FCF74FFA4FF0FE
:1056C000A0430C22C3F87827C3F8702708B1FBF772
:1056D00073FF0BB030BD00BF7C630000CA13002015
:1056E0004A1300200153000084460020002918BFFF
:1056F000002A00D17047097848B2002844BF6FF0F3
:1057000001007047BCF1000F18BFCCF80010002159
:10571000C3E90011002818BF012070477F298EBF00
:105720006FF0010001700120704741F21052C2F287
:1057300000021368002B02BF40F2B803C2F200035C
:1057400013605A689268126810470921FFF7EDBF8D
:105750007F2884BF0020704746F22852C0F2000222
:10576000105C46F2A852C0F20002515C084070473B
:10577000A0F161011A2938BF20387047A0F141011A
:105780001A2938BF203070477F2884BF0020704717
:1057900046F22852C0F20002105C46F2A852C0F253
:1057A0000002515C08407047A0F161011A2938BF1E
:1057B00020387047A0F141011A2938BF20307047C6
:1057C000082938BF70470022C0E9002141F2145176
:1057D000C2F20001086070470178002904BF002070
:1057E000704700214FF001324358C2FA53F304319D
:1057F000002BF9D093FAA3F0B0FA80F001EBD000BF
:10580000043870470246F0B44FF00137FB0151F8FD
:10581000044BE51BA5431D4002D142F8044BF6E7BB
:105820000439F0BC11F8013B02F8013B002BF9D11F
:10583000704700BF5AB3844690EA01039B071FD10B
:10584000830707D011F8013B00F8013B013AF7D17B
:105850001CE08446203A09D32DE9F007B1E8F807A7
:10586000A0E8F807203AF9D2BDE8F0071C3205D4C9
:1058700051F8043B40F8043B043AF9D2043205D015
:1058800011F8013B00F8013B013AF9D1604670473D
:1058900000220B0011001A0084465AB3830704D07B
:1058A00000F8011B013AF9D124E0C9B241EA012113
:1058B00041EA0141202A11D3203A2DE9F0030B4699
:1058C0000C460D460E460F4688468946A0E8FA0368
:1058D000203AFBD2BDE8F00320320BD0042A05D3D6
:1058E00040F8041B043A05D0042AF9D200F8011B41
:0858F000013AFBD1604670474C
:1058F800B00800207809002080090020B80800209E
:045908001800000083
:10590C00D259000000000000D8590000000000002F
:10591C00DF59000000000000E35900000000000007
:10592C00E859000000000000F55C000000000303D3
:10593C00145A000000000000CC59000000000000C8
:10594C006D5C000000000303A85C00000000000078
:08595C00B15C00000000000036
:10596400C85C000000000000D45C0000340000208B
:1059740000000000000000003128000000000000CA
:04598400000000001F
:105988005541525420494E49540A0046445320492F
:105998004E49540A00456E68616E63656420536819
:1059A8006F636B42757273742052656365697665BF
:1059B8007220494E49542E0A0045534220537461BF
:1059C80072740A00636C6F636B00434C4F434B0067
:1059D8004750494F544500505253005541525400C6
:1059E800554152544500466174616C206572726F6E
:1059F800720053797374656D207265736574000065
:105A080000000000D4010020B11600006170705F32
:105A180074696D657200010006000000FFFFFFFF5A
:105A2800FFFFFFFFFFFFFFFFFFFFFFFF000000007A
:105A3800000000000000D601060100005254432077
:105A4800696E7374616E636520616C7265616479F7
:105A580020696E697469616C697A65642E005254B4
:105A6800433A20696E697469616C697A65642E00CD
:105A780000000000000000000738FDD87047000053
:105A88000000FFFFDEC0ADDEFE011EF1DEC0ADDEB0
:105A9800FF011EF13031323334353637383941425F
:105AA80043444546705F66730025732063686563E9
:105AB8006B206661696C656420696E2025732829EE
:105AC80020776974682076616C7565203078257850
