:10000000006000204902000001020000030200001D
:1000100005020000070200000902000000000000C5
:100020000000000000000000000000000B020000C3
:100030000D020000000000000F020000110200008D
:10004000A109000079340000C10B00001302000078
:100050001302000000000000710A000013020000FB
:10006000130200001302000013020000130200003C
:10007000130200001302000013020000130200002C
:1000800013020000691E00001302000013020000AA
:100090006537000013020000130200001302000085
:1000A0001302000013020000000000000000000026
:1000B0001302000013020000000000000000000016
:1000C0000000000000000000000000000000000030
:1000D0000000000000000000000000000000000020
:1000E0000000000000000000000000000000000010
:1000F0000000000000000000000000000000000000
:1001000000000000000000000000000000000000EF
:1001100000000000000000000000000000000000DF
:1001200000000000000000000000000000000000CF
:1001300000000000000000000000000000000000BF
:1001400000000000000000000000000000000000AF
:10015000000000000000000000000000000000009F
:10016000000000000000000000000000000000008F
:10017000000000000000000000000000000000007F
:10018000000000000000000000000000000000006F
:10019000000000000000000000000000000000005F
:1001A000000000000000000000000000000000004F
:1001B000000000000000000000000000000000003F
:1001C000000000000000000000000000000000002F
:1001D000000000000000000000000000000000001F
:1001E000000000000000000000000000000000000F
:1001F00000000000000000000000000000000000FF
:10020000FEE7FEE7FEE7FEE7FEE7FEE7FEE7FEE7C6
:10021000FEE7FEE709480068094909680A280AD18B
:10022000002908D1074802686FF070031A404FF0A8
:1002300040031A43026000F009B8000030010010CA
:1002400034010010E40E0040FFF7E4BF0B484FF00C
:100250000701884385460A48804700F019B80948D5
:1002600009490A4A884207D0521A05D0037801305A
:100270000B700131013AF9D1704700000060002095
:100280005D040000E4410000000000201400002094
:100290003A493B480A1A02D0072291438D46394910
:1002A00039480A1A06D00722914381F309880222AD
:1002B00082F3148835483649364A00F041F836480A
:1002C0003649374A00F03CF836483749374A00F09B
:1002D00037F837483749384A00F032F83748384954
:1002E000384A00F02DF838483849394A00F028F8E3
:1002F00038483949394A00F023F839483949002249
:1003000000F036F838483949002200F031F8384812
:100310003849091A03F0FAFE374A9047254826491A
:10032000884205D00268043003B4904703BCF7E765
:1003300000208646EC4600200021304A9047FEE728
:10034000884214D0521A12D003460B43134303249D
:10035000234206D1036804300B600431043AF9D11A
:100360007047037801300B700131013AF9D17047C1
:10037000884202D002700130FAE770470060002026
:10038000005800200060002000600020E0420000D3
:10039000140000208A000020000400000004000077
:1003A000E4410000E042000014000020140000209E
:1003B000F8410000F8410000F8410000F841000059
:1003C000F8410000F8410000F8410000F841000049
:1003D000E0420000584300008C0000208C00002008
:1003E0008C0000208C0900208C0900208C09002042
:1003F0008C0900208C1100205F0200000104000025
:1004000008B500F0F1F808B101F0A4F8002000F000
:100410003FF9002000F00AF900F0A8F90028FBD00D
:1004200000F02EF90028F7D001F080F908B101F0B2
:1004300091F803F03FFE03F005FB03F06BFC03F0C3
:10044000A5FC03F019FC02F0E9FDFCE7024AD2F832
:100450000034002BFBD0704700E001404FF0805388
:1004600010B5D3F830210A2A5BD1D3F844224FF0DB
:100470008041C2F34232C1F83C250022C1F80C2170
:10048000C1F81021C1F83825484AD3F80404C2F84D
:100490002005D3F80804C2F82405D3F80C04C2F8E8
:1004A0002805D3F81004C2F82C05D3F81404C2F8B8
:1004B0003005D3F81804C2F83405D3F81C04C2F888
:1004C0004005D3F82004C2F84405D3F82404C2F848
:1004D0004805D3F82804C2F84C05D3F82C04C2F818
:1004E0005005D3F83004C2F85405D3F83404C2F8E8
:1004F0006005D3F83804C2F86405D3F83C04C2F8A8
:100500006805D3F84004C2F86C05D3F84434C2F847
:100510007035D1F80034DB0709D56FF00103C1F85D
:1005200000344FF08053D3F830310A2B0CD14FF008
:100530008053D3F834313BB14FF08042D2F8E43EDF
:1005400043F00F03C2F8E43E4FF01023D3F800222B
:10055000002A03DBD3F80432002B22DA14490123EA
:100560004FF01020C1F804351524FFF76FFFC0F8D5
:100570000042FFF76BFFC0F80442FFF767FF00235C
:10058000C1F80435FFF762FFBFF34F8F09490A4BEB
:10059000CA6802F4E0621343CB60BFF34F8F00BF21
:1005A000FDE7064B064A1A6010BD00BF00C00040C0
:1005B00000E0014000ED00E00400FA051400002016
:1005C0000090D00338B5074C051E04F1080318BF8E
:1005D0001C4623682BB11A6822605B68284698473E
:1005E000F7E738BD9400002070B50D4C2578ADB903
:1005F0000C486560A5602561E56000F07FF906465E
:1006000000F08AF9012384F820502370064BD3F8B8
:1006100000340BB10123A370304670BD8526F5E789
:100620008C0000200D0700000000014038B5134C7D
:10063000A378054603F0FF0073B115B16B68012084
:100640009847002001F0F2FAE3680133E3600020EC
:10065000BDE8384001F0ECBA01F0E8FA25B12269B2
:1006600013463BB92A602561E368002BECD100F00A
:1006700065F9E9E79D42F7D01B68F2E78C0000209E
:100680004FF08043D3F81804C0F3004070470000D7
:1006900038B5134C6378054603F0FF0073B115B10C
:1006A0006B6800209847002001F0C0FA63680133AE
:1006B00063600020BDE8384001F0BABA01F0B6FA34
:1006C00025B1A26813463BB92A60A5606368002B78
:1006D000ECD100F040F9E9E79D42F7D01B68F2E762
:1006E0008C00002038B5084C002001F09FFA6368A8
:1006F000013B6360656815B900F03AF96570BDE8C3
:100700003840002001F094BA8C00002010B5044657
:1007100030B9144B01225A70BDE81040FFF752BFA8
:10072000012802D10F4B9870F6E7022804D1BDE8EA
:1007300010400D48FFF7ACBF032811D1FFF7D2FFDF
:10074000084A002192F8203082F82010D269DBB2EA
:1007500032B1042B0CBF20460220BDE810401047E8
:1007600010BD00BF8C000020A00000204FF080438F
:10077000D3F80C0400F00110A0F1011358425841C5
:10078000704700001FB503788DF80030436801936F
:1007900083688DF80830C368054A0393054B6846A3
:1007A00053F8213052F82110984705B05DF804FB4A
:1007B000B4000020B80000201FB503788DF8003089
:1007C0004368019383688DF80830C368054A039332
:1007D000054B684653F8213052F82110984705B070
:1007E0005DF804FBB4000020B8000020F0B5194B00
:1007F00090F800C091F81DE043F82C20164B1646E7
:100800000A6943F82C20154B0C4603F80CE0074608
:100810000FCC89B06D460FC594E80F0085E80F0036
:10082000CDF810C0BEF1000F09D0002E0C4A694669
:1008300008BF3246381D00F0FBFC09B0F0BD002EA9
:10084000084A694608BF324607F10C0000F0C4FAB6
:10085000F3E700BFB8000020B4000020B000002083
:1008600085070000B9070000024AD2F80034002BC7
:10087000FBD0704700E001400A4908B50223C1F8E7
:100880000435BFF36F8FBFF34F8FC1F80805FFF733
:10089000EBFF0023C1F80435BFF36F8FBFF34F8F19
:1008A00008BD00BF00E0014070B50E4E01231546A3
:1008B000C6F80435BFF36F8FBFF34F8F0024AC42EF
:1008C00007D10023C6F80435BFF36F8FBFF34F8FF6
:1008D00070BD51F8243040F82430FFF7C5FF0134D3
:1008E000EDE700BF00E0014000F18040002382B04E
:1008F000036003680193019B02B07047054A1379B6
:100900002BB90121106093719180184670478520A2
:10091000704700BFBC000020074B1A68D20704D400
:10092000C02283F8002301221A604FF08043002286
:10093000C3F81825704700BF00E100E008B54FF488
:100940008270FFF7D1FF4FF080430222C3F80423E7
:1009500001229A6008BD08B54FF48070FFF7C4FF0C
:100960004FF080430122C3F804231A6008BD000041
:100970004FF08042012108B54FF48070C2F808138F
:10098000FFF7B2FF5160D2F80C3403F00113B3F15A
:10099000011FF8D0014B00225A7108BDBC00002095
:1009A0004FF0804110B5D1F8003163B14FF4807041
:1009B000FFF79AFF1F4B58790122C1F8082310B99D
:1009C0005A711B6898474FF08042D2F8043153B1F6
:1009D0004FF48270FFF788FF0223C2F80833154BEB
:1009E00001201B6898474FF08042D2F8103153B174
:1009F0004FF48870FFF778FF1023C2F808330D4BCF
:100A000002201B6898474FF08042D2F80C3183B126
:100A100000214FF48670C2F8341CFFF765FF0823ED
:100A2000C2F80833034B9971BDE810401B680320DE
:100A3000184710BDBC00002000F1804000F5C04008
:100A4000002382B0036003680193019B02B07047EA
:100A5000800000F1A040D0F8003723F44033C0F804
:100A60000037D0F8003743EA0143C0F80037704739
:100A70002DE9F34700244F4D01944FF4807201217A
:100A800002F1804303F5C0431B68012B07D1D5F861
:100A900004330B4203D090B2FFF7CEFF0C43043275
:100AA000B2F5907F4FEA4101EAD1424BD3F87C3155
:100AB000012BE2B229D14FF4BE70FFF7BDFF4FF01A
:100AC000A043D3F820150191C3F820150AB344F0D0
:100AD0000044394F01260025264210D0AB0003F117
:100AE000804303F5C043D3F81005D3F8101557F829
:100AF000253023B1C1F30141C0F3042098470135EB
:100B0000082D4FEA4606E7D101E0002AE1D1002C8A
:100B100048DA294C4FF0A047284D4FF00008012635
:100B200015F9013F5A1C31D0C3F3C20108316944A1
:100B3000DAB211F8041C03F03F0903F0070306FAC8
:100B400003F3194222D009F5E073484657F82330E1
:100B5000C3F3014ABAF1020F0CBF03210221FFF7D0
:100B600077FF06FA09F3C7F8203504EB090393F978
:100B7000483054F823304BB19109032904D0BAF11D
:100B8000020F12D1012901D14846984708F1010806
:100B9000B8F10A0FC4D1D7F820350193C7F8203532
:100BA000002BB9D102B0BDE8F087BAF1030FEDD147
:100BB0000229E8E700600040C40000202B0100206B
:100BC000014B1B68184700BF3C0100200B4B9842AB
:100BD00010B50C4601D0002010BD002001F026F811
:100BE000074B187920B1002001F022F81120F3E71B
:100BF00001221C601A7101F01BF8ECE70020004094
:100C00003C0100200023435082B043580193019BD4
:100C100002B070470A4610B54FF48E71FFF7F2FF2D
:100C2000136A9168C95C136A01331362C0F81C151A
:100C300010BD8B690A4610B54FF4847123B9FFF7D4
:100C4000E1FFD0F8183510BDFFF7DCFF536AD1681B
:100C5000D0F81805C854536A01335362F3E7000013
:100C60001FB501238DF80030044BCDE90110D3E905
:100C700000126846904705B05DF804FB440100206F
:100C800008B54FF49271FFF7BDFF4FF48471FFF781
:100C9000B9FF0123036008BD30B54D4DD5F80433CD
:100CA0009A0585B051D5D5F82431002B4DD04FF49D
:100CB00092712846FFF7A6FF4FF40173C5F8083379
:100CC000444B93F829200AB901226A604049022264
:100CD0008DF80020D1F88024C1F8802403929A690D
:100CE0000292DA6801920022C3E906226846D3E93B
:100CF000001290473648D0F81C315BB1354A516933
:100D0000136A99424DD992F82830002B49D11146E7
:100D1000FFF780FF2E48D0F84431002B56D04FF417
:100D2000A271FFF76FFF2B4B93F829200AB1012224
:100D300002609A69002A49D0586AD96800229A61EB
:100D400005B0BDE83040FFF78BBFD5F804335B0733
:100D5000D0D5D5F80831002BCCD01E4C1C482146EC
:100D6000FFF767FF636AA2699A42C3D1E369E1684A
:100D70004BB1A3612369E3600023606AE3616362AE
:100D8000FFF76EFFB6E794F829300BB901236B60CB
:100D90000F4B4FF40172C3F808230023606AA3616C
:100DA000EEE70B484FF48E71FFF72CFF5369002BD1
:100DB000B0D051690291002391688DF80030019103
:100DC00053616846D2E900139847A3E705B030BDE8
:100DD00000200040440100202DE9F843524D90F8D6
:100DE00004802C2303FB0853064693F82A300C4654
:100DF0009146002B40F094804C490068FFF7E6FED6
:100E00000746002840F08E8021683368481C0BD0CC
:100E10004FF0A04001228A40C0F8082501F5E07299
:100E20004FF0030C40F822C06068421C1FBF00F561
:100E3000E0724FF0A04C4FF0000E4CF822E0A26997
:100E4000C3F8242594F814C0627DBCF1010F4CEA6C
:100E50000202C3F86C25C3F81405C3F80C151DD1A4
:100E6000A1684A1C1FBF01F5E0724FF0A0404FF08F
:100E7000000C40F822C0E268501C0BD04FF0A04C90
:100E800001209040CCF8080502F5E0704FF0030E09
:100E90004CF820E0C3F80825C3F810152C2303FBF9
:100EA00008F3EA18C2F804902269EA50B9F1000F79
:100EB0001ED03068227F4FF48E71FFF7A3FE4FF4EF
:100EC000A271FFF79FFE1A4BC0F8043340F30733BB
:100ED0005201002BD2B21EDB1649C81880F800233D
:100EE0000122580903F01F0302FA03F341F82030EE
:100EF00033680422C3F800252C2303FB0853002287
:100F0000C3E9062283F829205A61012283F82A20A6
:100F10003846BDE8F883084903F00F03CA54E7E7F1
:100F20000827F5E71127F3E744010020990C00009A
:100F30008000020000E100E014ED00E00279044BC3
:100F40002C2101FB02335869003818BF012070477B
:100F5000440100202DE9F84F074690F804808946A7
:100F60009346FFF7EBFF0446002839D11E4E2C258F
:100F700008FB056A4FF48E71CAF814B0CAF8200055
:100F80008AF828003868CAF80890FFF73BFE01236A
:100F900083605146FFF73EFEDAF8043055460BBB3E
:100FA000DAF814402B6A9C4210D8D0F81C31002B80
:100FB000FBD00123C36000202C2303FB0866002321
:100FC0007361BDE8F88F95F828303BB9D0F81C3133
:100FD000002BF8D05146FFF71DFEE3E70F20EBE7AB
:100FE0001120EEE72046ECE7440100202DE9F04710
:100FF0003C4D06792C2303FB065304465F68D3F867
:10100000188037B9B8F1000F13D0D86910B3112088
:101010004BE0D0F800C000684FF4017ECCF808E344
:10102000B8F1000F05D0DC69002C40D0CCF804E307
:10103000EDE72C2303FB06539A610022D9605A6224
:10104000DA6193F8293013B92068FFF719FE206898
:101050007FBB02E020681961DA614FF4A2712C278E
:10106000FFF7D0FD06FB075847462068D0F824A1BB
:10107000D0F80831D0F8449103BBB9F1000F02D188
:10108000BAF1000FF1D02C2303FB06550023AB610E
:10109000BAF1000F22D1B9F1000F21D195F8291032
:1010A00023680122C1B11A600020BDE8F0871961F0
:1010B000DA614FF40173C0F80433F5E7BAF1000FB9
:1010C000E1D1B9F1000FDED14146FFF7B2FD7B6AF5
:1010D000BA699A42C9D8D6E75A60E5E70320E4E73F
:1010E0000F20E2E7440100200023435082B0435820
:1010F0000193019B02B070471FB501238DF80030AA
:10110000044BCDE90110D3E900126846904705B0C1
:101110005DF804FB700100207FB5434AD2F82461DA
:10112000002E60D010464FF49271FFF7DDFF0223CE
:101130008DF80030D2F88034C2F880340393D2F8AE
:101140003C350293394BDA6801920022C3E906224A
:101150006846D3E9001290473348D0F8443173B160
:101160004FF4A271FFF7C0FF304B9A693AB10022E9
:10117000D0F83C05D968C3E90622FFF7BDFF2A482D
:10118000D0F82031ABB14FF49071FFF7ADFF0123E0
:10119000C360264B5A6962B1D0F84C150291002207
:1011A00099688DF8002001915A616846D3E90012D0
:1011B00090471D48D0F858319BB14FF4AC71FFF700
:1011C00093FF1A4B5A6962B1D0F84C150291002274
:1011D00099688DF8002001915A616846D3E90012A0
:1011E000904704B070BDD2F81031002BB4D04FF44A
:1011F00088711046FFF778FF0C4BD2F83C059969CF
:101200008842A9D1DC69D96864B1D2F8005225F0CE
:101210002005C2F800521A699C61DA60DE61FFF7AE
:101220006BFF99E79C61FAE7002000407001002005
:101230002DE9F843574D90F80480242303FB08530D
:10124000064693F820300C469146002B40F09E80D5
:1012500051490068FFF7BAFC0746002840F0988023
:1012600021683368481C0BD04FF0A04001228A400F
:10127000C0F8082501F5E0724FF0030C40F822C0D9
:101280006068421C1FBF00F5E0724FF0A04C4FF0A9
:10129000000E4CF822E0A269C3F8242594F814C08B
:1012A000627DBCF1010F4CEA0202C3F86C25C3F861
:1012B0000C15C3F814051DD1A1684A1C1FBF01F508
:1012C000E0724FF0A0404FF0000C40F822C0E268FE
:1012D000501C0BD04FF0A04C01209040CCF80805DA
:1012E00002F5E0704FF0030E4CF820E0C3F808253B
:1012F000C3F81015242303FB08F3EA18C2F804907E
:101300002269EA50B9F1000F2AD03068227F4FF4E9
:101310008871FFF7E9FE4FF49071FFF7E5FE4FF497
:101320009271FFF7E1FE4FF4A271FFF7DDFE4FF47B
:10133000AC71FFF7D9FE194BC0F8043340F3073303
:101340005201002BD2B21CDB1549C81880F80023CB
:101350000122580903F01F0302FA03F341F8203079
:1013600033680822C3F80025242303FB0855002313
:10137000C5E906336B61012385F820303846BDE8A6
:10138000F883084903F00F03CA54E9E70827F5E793
:101390001127F3E77001002019110000100342002B
:1013A00000E100E014ED00E00279044B242101FB90
:1013B00002335869003818BF0120704770010020BF
:1013C00001F06043B3F1005F2DE9F04781460E461E
:1013D000924636D190F80480FFF7E6FF044690BBB2
:1013E0001B4FD9F80020242505FB08754FF4907198
:1013F0001046C5F814A0AE60FFF776FE4FF4AC714E
:10140000FFF772FE6B69C2F84465C2F848350123E4
:1014100093606B68CBB9D2F82031D2F858010343FE
:10142000F9D060B90123D360D2F85831002BFBD03A
:10143000242303FB087700237B61BDE8F0870F209E
:10144000F6E71020F9E71120F7E72046F5E700BF9F
:10145000700100202DE9F84301F06043B3F1005F13
:101460000F4673D106793A4D242303FB0653D3F874
:101470000480D3F818C0B8F1000F08D1BCF1000FF8
:1014800012D0DB69002B40D01120BDE8F883016841
:101490004FF40474C1F80843BCF1000F04D0DB69B9
:1014A0009BB3C1F80443EFE7242303FB0653002159
:1014B0009A61DF6089462423046803FB06532046B3
:1014C000D9614FF48871FFF70FFE4FF4A271FFF757
:1014D0000BFEC4F83475C4F83825B9F1000F1CD1DF
:1014E00001232360B8F1000F2AD1D4F81031D4F8C9
:1014F0004421D4F82401134316D10028F5D0242226
:1015000002FB065203209361BFE7242303FB06532B
:1015100011461F614FF00109CDE7D4F8003243F0C6
:101520002003C4F80032DDE7242303FB0655002323
:10153000984218BF03209A42AB6118BF0F20A4E75E
:101540004FF40473C4F8043300209EE710209CE796
:10155000700100201FB50021039001AA44F2010090
:10156000CDE9011100F004F805B05DF804FB0000BE
:1015700072B6094BD3F8F020D20700D500BEBFF3F6
:101580004F8FD968054A01F4E0610A43DA60BFF37E
:101590004F8F00BFFDE700BF00ED00E00400FA053B
:1015A00010B5034649B152B1541E14EA020006D1E7
:1015B000986019609C80D86010BD0E20FCE709205F
:1015C000FAE710B58468C2688388121B934208D377
:1015D000C26813400268D154C3680133C36000205D
:1015E00010BD0420FCE78268C3689A420AD0826872
:1015F000838813400268D35C0B7083680133836077
:101600000020704705207047C36883600020704742
:1016100010B5D0E90242D1E90203A04293412CBFA8
:101620000120002010BD000008B50A4800F005FCAC
:10163000094AD2E90031C018084BD3E9002341F12F
:101640000001904271EB030303D210F1807041F16D
:10165000000108BD18000020080200200002002040
:1016600038B5224B1D780446ADB3A0B3FFF7DCFFBD
:10167000D4E902239042994130D3002000F0D6FAF9
:1016800023692BB94FF0FF324FF0FF33C4E9022337
:10169000002000F0CDFAD4E905309847002000F092
:1016A000C5FA2369A3B1D4E90212B2F1FF3F08BF22
:1016B000B1F1FF3F0CD05B1842F10002C4E90232E5
:1016C000002000F0B5FA0A48214601F0ABFC03E027
:1016D000002000F0ADFA0025284638BDB3F1FF3FE9
:1016E00008BFB2F1FF3FF6D0EDE700BF10020020C7
:1016F000F841000037B505460C460A4801A901F03B
:10170000F6FA68B10570446001A9064801F019FBBA
:1017100010B9002003B030BD034800F093FBF8E798
:101720000420F7E7980100201800002013B5114BA2
:1017300011491868019008231048582201F0C4FA92
:10174000044698B90E4A0F4801A900F07FFA0446F2
:1017500060B90C48012100F053FB01230A4A0948F3
:10176000194600F0B5FA094B01221A70204602B062
:1017700010BD00BF04420000A80100209801002015
:101780001118000018000020FFFF7F001002002049
:1017900030B56AB103684FF0FF344FF0FF355A613E
:1017A0004A1E5142C3E9024551411961002030BD32
:1017B0000720FCE770B50446002016460D4600F0F1
:1017C00035FAD4E90223B3F1FF3F08BFB2F1FF3F7E
:1017D00013D1FFF729FF281841F10001C4E90201E4
:1017E000002000F025FA2369A66103B12561214696
:1017F0000020BDE87040FFF77DBF002000F018FA20
:10180000002070BD014800F018BB00BF1800002088
:101810002DE9F743074600F0FBFA40B1634AD2E9ED
:10182000003113F1807341F10001C2E90031002160
:10183000384600F0FCFA38B15D4C236823B12068CB
:10184000FFF70EFF002323600121384600F0EFFA76
:1018500020B1FFF7E9FE574BC3E900015648544E4B
:1018600001A901F07EFA4FF0FF344FF0FF35A0B927
:10187000DFF848814E4C404601F0EAFB002800F0BA
:101880008A80D0E90223B3F1FF3F08BFB2F1FF3FE6
:1018900036D1404601F0D6FBEDE70378012B21D08D
:1018A000022B09D1DFF81481404601F0CBFB20BBAD
:1018B000434B01221A700CE05BB94168D1E9022365
:1018C000B3F1FF3F08BFB2F1FF3F02D03B4801F048
:1018D000A9FB01A9384801F06FFA01A9364801F0C7
:1018E00040FAC4E741683368994202D1002333606B
:1018F000EFE7324801F0AFFBEBE7C0E90245D3E781
:10190000216891B12168D1E9020182428B412CD238
:101910002368D3E90223B3F1FF3F08BFB2F1FF3FD1
:1019200003D02168404601F07DFB404601F08AFB70
:10193000D0E902590646FFF777FE281A69EB01093C
:10194000012879F1000915DBB0F5350F10D3FFF749
:1019500059FF1C4A02441C484FF49603002100F032
:10196000D7F978B9236893B1266003B0BDE8F08356
:101970002A46F0E71448002100F04FFA3046FFF7FE
:101980006FFE01E00D28F9D00023236073E738468D
:1019900000F096F9E8E7064B1B68002BE5D13846C6
:1019A00003B0BDE8F04300F08FB900BF080200208B
:1019B000140200200002002098010020F8410000DD
:1019C00010020020FFFFB400180000200648074A5C
:1019D00003780749D35C012213B10430FFF73ABD05
:1019E0000C30FFF703BB00BF20000020B000002038
:1019F000390200200648074A03780749D35C0122D0
:101A000013B10430FFF7DCBC0C30FFF7A3BA00BF02
:101A100020000020B00000203A02002037B50578F1
:101A2000012D0DD0022D30D075B91F491F48FFF789
:101A3000DAFD002834D103B0BDE83040FFF7DABF4B
:101A4000037A1BB9FFF7C2FF03B030BD4368184CDF
:101A500019782046FFF7B5FD80B18DF80050019050
:101A6000144B68461B689847A168E368A2885B1A14
:101A70009A42E7D2104B01221A70E5E7A268E368A8
:101A80009A42F1D08DF80000EAE7C3688DF8005063
:101A90000193FFF79BFF074B68461B689847D3E706
:101AA00003238DF80030F6E73A02002018020020E8
:101AB000280200203C02002038020020F0B51F461A
:101AC000234B89B004461A600D4600293DD08A8810
:101AD00020480968FFF764FD002834D1AA89A96865
:101AE0001D48FFF75DFD00282DD11C4E0FCE6D4621
:101AF0000FC596E80F0085E80F0063690693237C05
:101B0000174A18488DF81C70003B18BF01238DF848
:101B10001430637C002B0CBF00230E238DF815308E
:101B2000E3680293A368039323680193694663689B
:101B30000093FEF75BFE30B90B4B1870236801333E
:101B400001D0FFF743FF09B0F0BD0720FBE700BF5E
:101B50003C02002028020020180200200842000059
:101B60001D1A0000200000203802002008B505489A
:101B7000FFF74AFD20B9BDE808400348FFF744BD20
:101B800008BD00BF280200201802002070B5084DD3
:101B9000014608482E78FFF726FD044636B100239B
:101BA0002B70FFF713FF08B1FFF7D4FC204670BD80
:101BB000380200202802002010B501460E48FFF729
:101BC00000FD0446A8B90D480D4A0378D35C63B103
:101BD0000430FFF7E9FB60B90A490748FFF703FD46
:101BE00038B9BDE81040FFF705BF0C30FFF7A6F984
:101BF000F1E7204610BD00BF1802002020000020A1
:101C0000B00000203A02002072B6024A1368013385
:101C10001360704740020020034A1368013B1360C1
:101C200003B962B6704700BF40020020FFF7ECBF67
:101C3000FFF7F2BF0346405882B028B100225A5045
:101C40005B580193019B012002B0704730B5184CDE
:101C5000437944F82320174C04EBC3031B792BBBB7
:101C600003680A88C3F8082590F904308A78002BA5
:101C70004FEA4212D2B214DB0F49CD1885F8002387
:101C800001225D0903F01F0302FA03F341F8253036
:101C9000437904EBC302012144F8330011710020A1
:101CA00030BD064903F00F03CA54F1E70820F7E7F7
:101CB0004C0200204402002000E100E014ED00E0AE
:101CC000036801221A607047036801225A60704756
:101CD00073B501F15005AD000068ADB24FF480342A
:101CE0008C400026C0F80843C0F84843465101F52F
:101CF000A8714559019522F07F42019D40F82120AD
:101D0000C0F844430BB1C0F8044302B070BD0000FA
:101D10002DE9F74F0D4622F07F4402684FF48037DB
:101D200005F150068F408046B60002EB8500C2F8F0
:101D30004873B6B2C2F80873D2F8041599464FF04A
:101D4000000BD0F84035C0F8401542F806B05B1AD9
:101D50009259009223F07F43012B009A4FEA850AA3
:101D60000CD1264B4FF4806043F001039847D8F81C
:101D7000003043F806B09B590193019BD8F800202E
:101D8000D2F80465C2F84473A31B23F07F43012BF0
:101D90001CD11A4B05F5A875013443F0010342F834
:101DA00025404FF480609847D8F80030D3F80435C8
:101DB0009E4209D1D8F800300020C3F84473C3F81C
:101DC000047303B0BDE8F08F0D20FAE79244C9F127
:101DD000FF13CAF84045D2F80405211A013921F051
:101DE0007F4103F57F438B42EED30029E2D10134DA
:101DF000CAF84045D2F804359842DAE7304200008C
:101E000003680222C3F8442309B1C3F804237047CE
:101E100000684FF48271FFF70DBF4FF4803303FA6F
:101E200001F10368C3F84813C3F808137047503131
:101E30008900006889B2FFF7FDBE0368D3F8040586
:101E40007047000090F90430002B09DB5A0901218A
:101E500003F01F03994002F14003024A42F82310A5
:101E6000704700BF00E100E0024B034A1B681068A6
:101E7000184700BF4C0200204402002070B5064EF7
:101E80000546002456F8043B0BB128469847013418
:101E9000042CF7D170BD00BF5003002043880333EA
:101EA00000EB830399420BD382884FF6FF739A426B
:101EB00008D0038833B18068431C584258417047AA
:101EC000022070470120704768B10268084B9A42AF
:101ED00009D14068074B984207D0013398420CBFA4
:101EE000012003207047032070470020704700BF87
:101EF000DEC0ADDEFE011EF1C21C92B240F2FE3326
:101F00009A4230B51ED8124B187838B91C895D89B1
:101F10002C441444A4B2B4F5806F0AD9187DA0B93A
:101F2000988BDC8B2044104480B2B0F5806F0CD8C5
:101F300001200880142101FB0033002059890A4444
:101F40005A8130BD48F20860FBE748F20660F8E7C6
:101F5000880200200B4A0C495388142000FB03110F
:101F6000CB6833B90420496810700122074800F09B
:101F7000B3BF07490523137002238B800122096830
:101F80000023F3E7700200208802002000000020F8
:101F90008002002007B5002305490093054A09681F
:101FA0000548082300F066FF03B05DF804FB00BF9E
:101FB00080020020444200000000002007B50023FA
:101FC00001460093034A0448082300F053FF03B07E
:101FD0005DF804FB3C4200000000002013B5002324
:101FE0000C4600930146084A0848042300F042FFCB
:101FF00038B90749142202FB041101230B7402B003
:1020000010BD48F20D60FAE73842000000000020E1
:102010008802002037B50A480A4B42689C88196834
:1020200053880325033305709BB2002000909B006A
:1020300001EB8401044800F01DFF03B030BD00BF78
:1020400070020020800200200000002010B5014630
:10205000044800F04CFE1C220446002102F092F8D5
:10206000204610BDB00200202DE9F0410D460223AC
:10207000154F2B80164600F5805100F108044FF0F3
:1020800001088C420ED2236801330BD02046FFF7A3
:1020900005FF48B10EB186F80080022809D14FF43F
:1020A00080632B80BDE8F081A3683A68934200D931
:1020B0003B602B886288033313442B80638803338F
:1020C00004EB8304DDE700BF4C03002038B5144B5C
:1020D00014220D4602FB00335C682B6804F5805126
:1020E000A3B15C88033403EB84048C4215D22368CB
:1020F000013312D02046FFF7D1FE012808D0022874
:102100000BD00028F1D12C60012038BD0834ECE759
:102110006388033304EB8304E7E70020F5E700BF9F
:10212000880200204368F7B505460E461BB1244AD5
:10213000D1688B4206D200240027022C34802BD198
:10214000002022E012699342F5D813F00304F2D183
:102150001C4A018912899142EED101689A68914224
:10216000EAD119494A68934203D902F58052934251
:102170000DD38A6993420CD902F58052934208D25A
:1021800001233380B4FA84F0400903B0F0BD234644
:10219000F7E748F20964F5E7019701A92046FFF740
:1021A00095FF10B90134A4B2C7E7019B2A6899686A
:1021B0009142F2D16B60034B1B892B81E5E700BF95
:1021C0000000002070020020880200202DE9F04766
:1021D0001C461E4B1B7807468846164683B392B3AF
:1021E0008CB3DFF86C904FF0140AA588012D02D94A
:1021F00048F2096022E00AFB05F319F803302BB915
:1022000021462846FFF762FF18B920600135A580F6
:10221000EBE723681FB199883A889142F0D1B8F171
:10222000000F04D01988B8F800209142E8D19A68CC
:10223000C6E90023074B1B8933810020BDE8F087E6
:1022400048F20160FAE748F20460F7E7680300200B
:10225000880200207002002008B5074B5888191D1D
:10226000FFF734FF18B1BDE80840FFF7D3BEBDE863
:102270000840FFF76FBE00BF700200202DE9F04755
:102280009C4FDFF8748288B006463B6823B99B48B0
:10229000414600F066FD38603D6829784B1E052BED
:1022A00000F21381DFE813F0060065006500080105
:1022B000080176014EB1924B00215960142203A807
:1022C00001F060FF4FF4064406E12B79032B1CD884
:1022D000DFE803F01402313C8A4A1378022B1ED047
:1022E000137D022B4FF001031BD114214B43D11856
:1022F0000020D0544868FFF761FE03E001232B71F2
:10230000FFF748FE002800F0D1807D4B0021142209
:1023100003A8596048F20D6401F034FFDCE00023AB
:10232000E3E7774A002113705160142203A801F0FB
:1023300029FF0024D0E074497448002302222B7145
:102340008A800968012200F0C7FDDBE7704B6D4C05
:102350005B886D4A14214B43E11800262E714D68AD
:1023600010681560958848600D810221E6549180BF
:10237000C1E7B5F814A0AA7DDFF88891B6B1022AAA
:10238000EB8806D9142101FB0A91DA1C0889024462
:102390000A81142202FB0A99C3F57F43B9F80A1097
:1023A000FD330B44A9F80A30002188E7142303FB0E
:1023B0000A9318895C6804EB8004062A05D8DFE8D4
:1023C00002F0375E4654266A780048F20E64AA7D11
:1023D000EB88022A06D9142101FB0A91DA1C08892C
:1023E00002440A81142202FB0A99C3F57F43B9F81B
:1023F0000A20FD331344A9F80A301422002103A84F
:1024000001F0C0FE41F61D539C4292D064E0414869
:10241000414900234360AB690360FFF783FE014637
:1024200030B9142203A801F0ADFE48F2096453E06C
:102430000223AB75002300930423EA182146334896
:1024400000F018FD002831D048F20D64BFE72B6979
:10245000002B0CBF01230323AB750023009305F170
:102460000C02042304F10801E9E70123AB75002203
:10247000EB8800922A699B0004F10C01DFE7032935
:1024800014BF06230523AB7500230093042305F135
:102490000802E118D3E70623AB751F4B19881D4BC3
:1024A0005868FFF79BFD0446002890D108B0BDE8AE
:1024B000F08741F61D548AE70EB1142274E72B7998
:1024C000012B48D0022B5AD043B31422002103A879
:1024D00001F058FE48F20E643B6804941A78023A00
:1024E000042A00F20D81DFE812F0EE00FA001C0170
:1024F00024012B016C02002068020020B0020020A1
:1025000068030020880200208002002000000020D4
:10251000700200205C0200205802002002232B7170
:102520000DF10A01EB68039303A8CDE90466FFF7F8
:10253000F9FD10B91422314674E70498BDF80A1069
:102540008388EB8003882B81FFF748FD0446002C2D
:102550007FF453AFAAE7DFF8F09103AA4B46314668
:10256000A81DFFF733FE044660B9B9F804100498BB
:10257000FFF734FD48F2096398420446E7D114227C
:102580000021D3E648F209639842C9E900667FF466
:1025900034AFF4E7002E90D16C4B197B1A78A9B1B7
:1025A0001E731A78013A062A8FD801A151F822F039
:1025B0005B260000812600009F260000A526000063
:1025C000CB240000AB260000BD260000072AE8D877
:1025D00001A151F822F000BFF9250000A325000059
:1025E000A32500001F260000332600005726000008
:1025F000572600001B2600001A89554901321A810E
:1026000000225A801A730A78B2FA82F252099A7238
:102610000A7DB2FA82F25209DA72012207E04D49CC
:1026200058688A884088033202448A8002221A70DD
:10263000B7E75C88464A4749142505FB0422086829
:10264000546850608888108102200C6088800021C6
:1026500011740622EBE70722E9E79A7A32B9DA7AAF
:102660008AB900211970598059605EE63849002204
:102670009A72CA68002AF2D1097C0029EFD05A80E8
:10268000FFF7EAFD62E70022DA72314A116A002997
:10269000E7D192F82420002AE3D00122EFE7FFF7E8
:1026A000B9FC53E7FFF756FC50E75A88284B142132
:1026B00001FB02335868FFF781FC47E700225A60AC
:1026C000FFF768FC42E701228DF80C201A89ADF86B
:1026D00018209A88DB68ADF81A20059310E00222D2
:1026E0008DF80C201A89ADF818209A88ADF81A20B8
:1026F000DA689B7D05929A1F534253418DF81C3036
:1027000003A8FFF7BBFB0026414613483E6000F0DC
:1027100053FB1248012100F08FFB00287FF4B5AD78
:10272000C4E603228DF80C20DA88ADF818201A8947
:10273000D0E704228DF80C20DB88ADF81830DFE7F5
:1027400005238DF80C30DBE75002002070020020DA
:102750008802002080020020B002002064030020D4
:102760004068FFF78BBD000008B50548012100F067
:102770004BFB18B9BDE80840FFF780BD08BD00BF9E
:10278000640300202DE9F74398463A4B1B78064630
:102790000D46002B62D0002963D009884FF6FF73E5
:1027A000994261D06B88002B5ED06B689B075ED12D
:1027B0004AB92F890DF102013846FFF79DFB30B170
:1027C00003B0BDE8F08313885788ADF8023001A844
:1027D000FFF73CFCBDF80220044650B9264B1421FB
:1027E00001FB023358890338C01B588148F2076047
:1027F000E6E780F800806B6803614FF0000980F81D
:102800001690828201211D4800F00AFB2B8823814B
:10281000B8F1030F6B88E060A380E78012D1042336
:10282000A37533681648A361A4F80A9001A900F0C3
:1028300088FA0023E2687360B372124B32601B891E
:10284000338107E00E48A4F80A9001A900F079FA54
:10285000002EEED1FFF788FF0020B1E748F20160BB
:10286000AEE748F20460ABE748F20360A8E748F23D
:102870000260A5E768030020880200204C030020C6
:10288000B00200207002002008B503460748026825
:10289000042A08D00168064A42F82130012100F0DC
:1028A000BFFA002008BD48F20B60FBE76003002080
:1028B000500300202DE9F04F744F87B014220021FF
:1028C00001A801F05FFC3B7803F0FF0B1BB101A8EE
:1028D000FFF7D4FA03E0381D00F0BAFA20B1002463
:1028E000204607B0BDE8F08F4FF010234FF0805224
:1028F0005B691269DFF898A1591C04BF3023534368
:10290000CAF810306349A3F5405300225046CAF874
:102910000C3000F0A3FA04460028E1D15E495F487C
:102920001C238C2200F0D0F9A1464FF00308254665
:10293000DAF80C604E443046FFF7C6FA01285DD045
:10294000032812D0002836D1554914236B43CA18E6
:10295000C854566003F1100208330A443046194443
:10296000FFF782FB44F0020445E033685A1C02D0B2
:102970004C4A934234D1331D06F580521968013117
:102980002ED104339342F9D1474B1A682AB9022257
:102990001E609A804FF0010B0BE014236B434048FC
:1029A0000221C218C154414B56605D80013511812E
:1029B000ADB244F0010409F58059B9F5405FB7D1D3
:1029C000B8F1010F06D9E4B2062C39D03DD814F085
:1029D000FD0F3AD100233B7048F20A647B607FE729
:1029E0002F4A14236B43D11808F1FF384E6003219E
:1029F000D1541FFA88F80135ADB2DCE72A4BBBF1A0
:102A0000000F0FD0DFF898C014226A430CEB0201CC
:102A100002200CF802001A684A60244A0881558096
:102A20000135ADB222491E6000223046FFF71CFB83
:102A30001D4B9B88022B14BF082304231C43BAE7B9
:102A400001233B7000237B6041E76846FFF7FEFAF5
:102A5000C8B10123013C03700A2C09D8DFE804F057
:102A600006080608070807080F110F000023037166
:102A700069460A4800F065F9FFF776FE2FE7032361
:102A8000F5E70223F3E748F2076429E7680300202B
:102A9000000000204C420000C0020020B0020020D4
:102AA00088020020DEC0ADDE80020020700200201F
:102AB0008402002073B50D460446C0B1B9B10DF1D2
:102AC0000601FFF72FFBA8B10C4BBDF80620666886
:102AD000142000FB0230012100F0A2F963682E608F
:102AE0000C336B600123A372002002B070BD48F26A
:102AF0000460FAE748F20960F7E700BF940200209B
:102B000013B50446A8B10DF10601FFF70BFB98B110
:102B1000BDF806200B4B142101FB0233DA6872B1B9
:102B2000A27A62B1DA680020013ADA60A07202B0DB
:102B300010BD48F20460FAE748F20960F7E748F28E
:102B40000560F4E78802002002230022FFF71ABE86
:102B500018B103230022FFF715BE48F20460704746
:102B60000F4B1B7807B5A3B101A8FFF76FFA98B117
:102B70000623037001A90B4800F0E3F80A4B1A780A
:102B80000AB101221A73FFF7EFFD002003B05DF8D0
:102B900004FB48F20160F9E748F20760F6E700BF7E
:102BA00068030020B00200207002002007B5ADF8D5
:102BB0000600ADF804100DF1060001A9FFF706FBB1
:102BC00003B05DF804FB00002DE9F84F3C4B1B7887
:102BD0000446002B6ED000286FD0DFF8E89010225A
:102BE0000021023001F0CEFA032323804FF0000AC7
:102BF0004F4614264FF00108D9F80410B9F80AB06E
:102C0000B9F808500846FFF75FF9032808BF238882
:102C1000628804BF03F1FF33238006FB0A735D441F
:102C2000DB681344638023899B446389A4F808B05C
:102C3000ADB22B446381C5F58065A389ADB2AB42CB
:102C400038BFA58101F1080501F58051A94229D9B4
:102C50002B68013326D02846FFF720F901280AD037
:102C6000022815D00028F1D1A3880133A3800AE0FF
:102C70004FF0010AC0E7E3880133E380E3896A8803
:102C800003331344E3816B88033305EB8305DDE7EE
:102C9000E38884F810800133E380E389491B03EB68
:102CA000A101E18109F11409BAF1000FE0D000207F
:102CB000BDE8F88F48F20160FAE748F20460F7E7F0
:102CC000680300208802002010B561B1B2FBF3F464
:102CD00003FB1424A4B244B9C0E9001484608281C7
:102CE000C381204610BD0E20FCE70920FAE737B566
:102CF00050E8013F9DB2C48925448489A54228BF7C
:102D00002D1B0489A54202BFBFF32F8F002207E0CD
:102D1000C5EA030540E80154002CE9D14FF0010257
:102D20008DF803200193019A0A609DF8031001F0C9
:102D3000FF0321B1006810FA82F003B030BD1846DD
:102D4000FBE70A884B889A4209D150E8012FC2EA72
:102D5000024240E80123002BF7D1012070470020F8
:102D6000704737B550E8023F1FFAA3F5C488A54263
:102D700002BFBFF32F8F00220DE0C4892544848950
:102D8000A54228BF2D1BC3EA054540E80254002C8C
:102D9000E8D14FF001028DF803200193019A0A60F7
:102DA0009DF8031001F0FF0321B1006800EB124011
:102DB00003B030BD1846FBE70A884B889A4209D118
:102DC00050E8022FC2EA224240E80223002BF7D14A
:102DD000012070470020704710B5034653E8000FEC
:102DE00040EA010243E8002494F0000FF6D110BD40
:102DF00010B5034653E8002F02EA010043E800043F
:102E000094F0000FF6D110BD10B5034653E8000F43
:102E100000EB010243E8002494F0000FF6D110BD4E
:102E200010B5034653E8002F02EB010043E800040D
:102E300094F0000FF6D110BD10B5034653E8002FF3
:102E4000A2EB010043E8000494F0000FF6D110BD9E
:102E50000121FFF7C1BF0021FFF7CABF0B4610B425
:102E6000114620B11BB1036010BC1B6818470E202F
:102E700010BC70472DE9F043DDF81C8018B312B385
:102E8000D0F800E0BEF1000F20D00BB34768D7F8B0
:102E90000490B3FBF9F709FB1737CFB942EA010CED
:102EA0001CF0030F16D1C768B94213D305694C1E35
:102EB0001C44AC420ED8CDF81C80DEF80C40A44671
:102EC000BDE8F04360470E20BDE8F0830820FBE733
:102ED0000920F9E71020F7E7F0B5D8B1D0F800C025
:102EE000BCF1000F18D0CAB14768D7F800E00EF166
:102EF000FF370F4214D1C768B94211D305694C1E80
:102F00000EFB0244AC420BD8DCF81040A446BDE8EE
:102F1000F04060470E20F0BD0820FCE70920FAE7EA
:102F20001020F8E7014B4360002070476C4200001E
:102F30000846704700207047024B1868003818BFD9
:102F4000012070477003002008B50248FFF783FF97
:102F5000002008BD7003002008B510461A4601F095
:102F6000DFF8002008BD00002DE9F041804686B062
:102F700011480F4616461D46FFF76AFF0446C8B9BA
:102F8000AA0831463846FDF78FFC0B48FFF763FF70
:102F9000D8F8083053B101228DF800200C9A059220
:102FA000CDE90147CDE9036568469847204606B05C
:102FB000BDE8F0811124F9E7700300202DE9F0430A
:102FC000814687B014480E4615469846FFF740FFE5
:102FD0000446F0B90746BD4215D10F48FFF73BFF45
:102FE000D9F808305BB102228DF800200022CDE92B
:102FF0000126CDE90325CDF8148068469847204680
:1030000007B0BDE8F08306EB0730FDF735FC01376C
:10301000E1E71124F3E700BF7003002020BF40BFA9
:1030200020BF704770B5446806460D46206818B149
:10303000B3682946984718B923682B60256070BD8E
:103040002468F3E74368186808B102681A6070479B
:103050004368186870474368186800B97047884229
:1030600003D102681A600120704703460068F4E744
:103070000649074BC1F81435064B5A7C064B013AFA
:1030800043EA0243C1F81835704700BF0010004002
:10309000060003003800002020000001074A084B0A
:1030A000C2F81435074B5B7C013B40EA034343EA1B
:1030B000002040F08070C2F81805704700100040F2
:1030C00000010100380000200F4B10491A7AC1F8A6
:1030D0001025042A16D8DFE802F00E03150E0300AF
:1030E0000B4A302111600A4998890A683E329042A1
:1030F00004D301207047064A4921F3E70A683E32AB
:103100009A81F6E7002070471C070020001000405D
:103110007C030020044A0023C2E908339362034A77
:10312000C2E9083393627047C80500207404002088
:1031300038B5104D104C2B68C4F800320F4A104BB4
:10314000D07C1B6898470F4BC4F804350023C4F8A3
:10315000103101232361D4F81031002BFBD0002360
:10316000C4F810312B6843F00403C4F80032012383
:10317000636038BD34000020001000401C070020B0
:1031800074030020300400200B4B0C4A1B6810B560
:103190000B4C43F00403C4F800320A4BD07C1B688C
:1031A0009847094BC4F80435084B094A1A60094B83
:1031B00004221A7010BD00BF340000201C0700203C
:1031C0000010004074030020300400207803002029
:1031D000993200003C07002007498B6893FAA3F35B
:1031E000064A1BBAC2F82435CB6893FAA3F31BBA7C
:1031F000C2F82835704700BF38000020001000409A
:103200002DE9F8431F4BDFF880901A78012A804699
:103210000F4609D199F80030202B30D81B4A116A8B
:1032200052F82120137006E0184A116A52F8212042
:10323000597811BB1170154D15492C6A55F8246049
:103240003046013410F8052B00F06AFF114B86F868
:103250000180D3F84835B37099F801303771DB43FA
:1032600003F00103F370AB6A082C28BF002401337C
:103270002C62AB620120BDE8F883DB7CD2E7002042
:10328000F9E700BF1C070020300400207404002070
:103290003204002000100040664A2DE9F84FD2F8B1
:1032A00000341BB9BDE8F84FFFF742BFDFF8889143
:1032B000D9F82830072BF5D8D2F808345F4CDFF85E
:1032C0008081D2F80C5434F8231098F801008D4214
:1032D0004FEA50024FEA830534D16119897891424F
:1032E00015BF4FF0010A4FF0000A00210121DFF85D
:1032F00044E16619B270DEF80C2424F82320514A08
:10330000137D1BB3C30721D4FFF712FFBAF1000FDF
:1033100016D0484BD3F80804D9F828302C44072B92
:10332000A1780DD8C0B2FFF76BFF48B1464A1368C9
:1033300043F004031360454B4FF48012C3F800219F
:10334000BDE8F88F4FF0010A0021D0E7404B414E15
:103350001B6843F00803CEF800321778002F5FD0C7
:10336000012F41D13C4F3D48BA6A002A51D0DEF8C6
:103370000834DFF8ECC05CF82330002B49D0DEF8CD
:103380000834DFF8E0B05CF823301B68CBF800307D
:103390006319DB78A3B199B9DEF808E45CF82E3044
:1033A000013A19719B684CF82E30BA6252B303B1DE
:1033B0001B68254ACBF80030136843F00103136003
:1033C000DBF8007002686319F7B10121D970387811
:1033D0009047DBF80010244811F8052B327000F0FC
:1033E0009FFE98F801307370204B05221A70114B24
:1033F000D3F80824C3F82C25C3F804651C4B1D4AD8
:103400001A6083E70B46D4E7DF7038469047377081
:10341000E7E763190027DF70036838469847F6E747
:103420000E4B38461B68984798F800303370777019
:10343000DAE700BF0010004074040020840300207D
:10344000300400201C070020AC03002000E100E055
:103450003400002052040020C8050020740300201E
:10346000B003002038070020540400203C0700204F
:103470007803002089310000124BD3F8002132B1CB
:10348000D3F80423D00744BF0022C3F80021D3F8A7
:103490000C2132B1D3F80423110744BF0022C3F832
:1034A0000C21084BD3F8102152B1D3F80423D206D3
:1034B00006D50022C3F81021034B1B6803B118473F
:1034C000704700BF0010004078030020114B1248E5
:1034D0004FF4705210B5C3F80825104B00241C702F
:1034E0000F4B21461C70FFF715FE202200F04AFE0C
:1034F0000C4B1C605C600C4B4FF48012C3F88020B6
:10350000BFF34F8FBFF36F8F084B0322C3F8002226
:10351000204610BD00F00140840300203C0700203D
:103520003D070020A403002000E100E0001000405F
:10353000F8B50446002800F0E080724D2B78002B8F
:1035400040F0B580704B62681A60704A234604F1FF
:103550001807164618685968144603C40833BB4256
:103560002246F7D100246A4B6A481C60202221467B
:1035700000F008FE684BB27A1C605C60674BC3F8D1
:103580000C25FFF7A1FD3378654A002B00F09580EC
:10359000012B00F09680737A012B00EA040000F002
:1035A0009F80022B00F08F80002B00F0A080002372
:1035B00000EA03041368F07C9847002C00F09F8019
:1035C000564B584958484FF0E732C3F81C254FF086
:1035D0004332C3F82025554AC3F82425544AC3F87A
:1035E0002825FFF797FD0A4600230133082B40F8F2
:1035F000042B02F12502F8D14E4A4F480023013333
:10360000082B40F8042B02F12502F8D100224B4B85
:1036100014460132082A19601C719C6001F12501D1
:1036200003F10C03F5D120220021454800F0AAFD4A
:10363000444A45490423C2F8103540F20223C2F837
:103640000845C2F80032414BC3F86015C3F8642541
:10365000A2F50E42FC3AC3F8682502F50F420C327F
:10366000C3F86C2502F59872C3F87025A2F51142D3
:10367000303AC3F8742502F511423432C3F8782584
:10368000264AC3F87C25737C314A5B01DBB282F8A1
:103690000133B37C5B01DBB282F814334FF4801347
:1036A00013602C4B1C7001232B70002004E0FFF7EB
:1036B0000DFF00283FF446AFF8BD274B13600124EF
:1036C00069E7264BFAE715494FF6FF74C1F83C4508
:1036D000234CC1F838451149C1F83435012367E757
:1036E0000E49FF24C1F83C4540F20714F1E70B49AD
:1036F000C1F83C35C1F83835EDE70E20DCE707208E
:10370000DAE700BF3D070020340700201C07002037
:10371000AC03002084030020A4030020001000401C
:1037200074030020F4050020C8050020E743C323EC
:10373000A363E313A004002074040020D00300203E
:10374000B003002000A000400011004000F0014044
:1037500000E100E03C0700209D30000071300000D7
:103760002110010037B5174B1B680193164B1B78CE
:103770002BB3164B0221C3F88010BFF34F8FBFF35A
:103780006F8F13480022056802601960114C23688E
:10379000ABB1E90703D58DF8002068469847AA0722
:1037A00005D501238DF800306846236898476B07DC
:1037B00005D502238DF8003068462368984703B08A
:1037C00030BD00BF800300203D07002000E100E085
:1037D000AC03002034070020194B1B7870B54BB3A5
:1037E00050B3184CA36A4BB3174D0226C5F880603E
:1037F000BFF34F8FBFF36F8F636A54F823100A78BB
:1038000002704B78437091F9023083700B79037129
:10381000CB78C3700531053000F082FC636A013358
:10382000082B28BF00236362A36A013BA3622E60BA
:10383000002070BD0820FCE70E20FAE70520F8E71D
:103840003D0700207404002000E100E010B51A4993
:103850000B7803F0FF0063BB184B194C4FF0FF329D
:10386000C3F80823174AC3F810011460164A1268F7
:1038700042F00402C3F800221022C3F804230422F9
:103880000A70124A917CC3F83015D27CC3F808251F
:103890000F4AC3F804250F4A0221C2F880111160B3
:1038A0000122C3F80401C3F80801C3F810015A60EB
:1038B00010BD1120FCE700BF3C07002000100040B5
:1038C00099320000780300203400002038000020E6
:1038D0003004002000E100E0094B1B7873B1094A75
:1038E0000221C2F88010BFF34F8FBFF36F8F064BDA
:1038F00000209862C3E908001160704708207047F3
:103900003D07002000E100E0C8050020094A1278C8
:10391000034602F0FF004AB953B1074A1B6813601F
:1039200093FAA3F3054AC2F81C357047112070477B
:103930000E2070473C070020380000200010004097
:10394000094A1278034602F0FF004AB953B1074A08
:103950001B68536093FAA3F3054AC2F820357047F9
:10396000112070470E2070473C07002038000020CF
:103970000010004038B50F4B1B780C4603F0FF05D4
:1039800093B998B1082913D80A4601460A4800F0AD
:10399000C7FB0A4AFF231474C4F10804234193743B
:1039A000FFF71AFC284638BD1120FCE70E20FAE785
:1039B0000720F8E73C0700204000002038000020E6
:1039C000074A1278034602F0FF0022B9642B04D89C
:1039D000044AD3747047112070470720704700BF16
:1039E0003C07002038000020037823B9436813B94E
:1039F000014B01221A7070473E0700207FB500235B
:103A0000CDE90333CDE90133059303AA01AB47F2B6
:103A1000100148F21000FFF7C9F848B9084903A897
:103A2000FFF796F848F20662904204D1FFF798F843
:103A300007B05DF804FB0028FAD0FDF78BFDF7E72F
:103A40007842000030B52C482C4C8DB0FEF71CFF9E
:103A500000232370FEF72EFF08B1FDF77BFD2378CE
:103A6000002B37D01222002107A800F08BFB07A8FB
:103A7000FFF7AAF808B1FDF76DFD0023CDE9043387
:103A8000CDE90033069304AA6B4647F2100148F2D1
:103A90001000FFF78BF8F8B9CDE9020002A904A8DD
:103AA000FFF708F808B1FDF755FD039B144A03F131
:103AB000100518685968144603C40833AB422246FF
:103AC000F7D11B78237004A8FFF71AF870B1FDF73F
:103AD00041FD0BE020BFC2E70A4904A8FFF734F814
:103AE00048F20662904203D1FFF73AF80DB030BDBC
:103AF0000028FBD0EBE700BFE93900003E070020BB
:103B00004C0000207842000084B008B50DF1080C8C
:103B10008CE80F009DF809302BB1012B0FD0BDE8C8
:103B2000084004B070470B4A0B48012111700B4A42
:103B300002A9136011F8052B00F0F2FAEFE7084A2A
:103B40000848137002A9084B00221A6011F8052BCF
:103B5000F2E700BF490700207D070020440700204E
:103B6000480700205D0700204007002038B5FDF71A
:103B7000FDFFFF20FEF720F81320FEF71DF80820B8
:103B8000FEF71AF8074D0024013415F8010BE4B2D2
:103B9000FEF712F8122CF7D1BDE83840FE20FEF7F0
:103BA0000BB800BF4B07002038B5224B1A784AB13A
:103BB00000221A70204A214B116819605168127A4C
:103BC00059601A721E4B1A784AB100221A701D4AA7
:103BD0001D4B116819605168127A59601A721B4B9B
:103BE0001A7862B11A4C00224FF420701A7044F017
:103BF0000104A047FFF7BAFF4FF42070A047154813
:103C0000154902680B68154D01320133AA42026062
:103C10000B6005D9094C00222260626022720260AA
:103C2000AB4205D9084A00231360536013720B603E
:103C300038BD00BF490700207D0700204B0700204A
:103C4000480700205D070020540700204A07002095
:103C5000904200004407002040070020A086010099
:103C6000FFF7A2BFA0F1730358425841014B1870EF
:103C7000704700BF4A07002008B5094A09480121DA
:103C8000FDF786FD08B1FDF765FC0748002210210D
:103C9000FDF790FD18B1BDE80840FDF75BBC08BD1D
:103CA000613C000098420000600000202DE9F041D6
:103CB0000378012B86B009D0022B04D1134E134890
:103CC000FFF78AFD38B106B0BDE8F08106B0BDE867
:103CD000F041FFF701BE0E4CD6F800E0D6F804C064
:103CE000B268F3686D4604F11008206861682F46D9
:103CF00003C7083444453D46F7D120683860217930
:103D0000397170466146FFF7FFFED8E79D07002036
:103D1000AD07002030B5184D0FCD87B06C460FC4ED
:103D200095E80300012384E803008DF8013068461C
:103D3000124B0193FFF7FCFB08B1FDF70BFC104B96
:103D4000187CFFF73DFE08B1FDF704FC0C48FFF7B7
:103D5000DDFD08B1FDF7FEFB0A48FFF7F1FD08B1F4
:103D6000FDF7F8FB08480821FFF704FE08B1FDF74E
:103D7000F1FB07B030BD00BF9C420000AD3C00002D
:103D80004C000020500000205400002008B5FFF730
:103D90005DFD18B1BDE80840FDF7DCBB08BD0000C3
:103DA00038B5FFF793FB164B0220C3F88000BFF332
:103DB0004F8FBFF36F8F4FF48061C3F88010BFF354
:103DC0004F8FBFF36F8F4FF48012C3F88020BFF383
:103DD0004F8FBFF36F8F0B4DC3F880010A24C3F8D8
:103DE000801145F00105C3F880214FF47A40A847BF
:103DF000013CFAD1FFF78EFFBDE83840FFF7C6BFA0
:103E000000E100E0C04200002DE9F0410578CDB9A5
:103E10009E4C9F4E9F4F2046FDF7B8FE337820788A
:103E20009D4C03F0FF017BB9FF2809D101233370BA
:103E300021703970BDE8F0419848402200F0A2B9E5
:103E400021703970BDE8F081237803F0FF027BB95F
:103E5000934B18701978082984BF327022701B7830
:103E6000904AD35C3B7023780133DBB22370E9E7DF
:103E700022783B789A4240F20281FE282AD1884B70
:103E80001F78FFB2082F25D8DFE817F009002800B7
:103E900058006F008D00B000CE00DC00F400FDF78C
:103EA00065FEFF20804DFDF787FE0520FDF784FEAF
:103EB0000020FDF781FE2878FDF77EFE6878FDF78B
:103EC0007BFEA878FDF778FEE878FDF775FEFE200A
:103ED000FDF772FE002333702370C4E7FDF746FE42
:103EE000714A6E490023904611F8010B12F801CB7C
:103EF00001336045DBB21CBF02F8010C3D46042BC8
:103F0000F2D11DB1FFF77AFDFFF74AFFFF20FDF761
:103F100053FE0520FDF750FE0120FDF74DFE98F8F9
:103F20000000FDF749FE98F80100FDF745FE98F8FE
:103F30000200FDF741FE98F80300C6E7FDF716FE04
:103F4000FF20FDF739FE0520FDF736FE0220564D15
:103F5000FDF732FE2879FDF72FFE6879FDF72CFE7C
:103F6000A879FDF729FEE879AFE7FDF7FFFD4B499A
:103F70004E4A042311F8010B12F8017F013B8742DE
:103F80001CBF1070012513F0FF03F3D11DB1FFF723
:103F900035FDFFF705FFFF20FDF70EFE0520FDF7BD
:103FA0000BFE0320D3E7FDF7E1FDFF20FDF704FE44
:103FB0000920FDF701FE04203B4DFDF7FDFD287AA9
:103FC000FDF7FAFD687AFDF7F7FDA87AFDF7F4FD35
:103FD000E87AFDF7F1FD287BFDF7EEFD687BFDF744
:103FE000EBFDA87BFDF7E8FDE87B6EE7FDF7BEFD86
:103FF0002A492F4A002311F8010B12F8017F0133DF
:104000008742DBB21CBF10700125082BF3D11DB114
:10401000FFF7F4FCFFF7C4FEFF20FDF7CDFD0920FC
:10402000FDF7CAFD0520C7E7FDF7A0FDFF20FDF75E
:10403000C3FD0220FDF7C0FD0620FDF7BDFD1A4BB4
:10404000187C42E7FDF792FD174D144B2A7C1B7834
:104050009A4204D02B74FFF7D1FCFFF7A1FEFF209A
:10406000FDF7AAFD0220FDF7A7FD0720FDF7A4FD3F
:10407000287C2AE7094B1878FFF7F4FD2AE7227815
:10408000064B134403F8010CEDE600BF800000204E
:10409000450900204309002044090020460900206A
:1040A00042090020810000204C0000204F00002029
:1040B0005300002030B5114D0FCD8BB004AC0FC4B0
:1040C0000F4B009395E803004FF4807301930D4B61
:1040D0000293802384E803000B4A03936946072375
:1040E00004A8FDF7EBFC4FF0A0430C22C3F878279F
:1040F00008B1FDF72FFA0BB030BD00BFC842000079
:1041000042080020C2070020093E0000072904D908
:10411000024A416000231060036070478809002054
:104120005AB3844690EA01039B071FD1830707D047
:1041300011F8013B00F8013B013AF7D11CE084463D
:10414000203A09D32DE9F007B1E8F807A0E8F8070D
:10415000203AF9D2BDE8F0071C3205D451F8043BEF
:1041600040F8043B043AF9D2043205D011F8013B7F
:1041700000F8013B013AF9D16046704700220B007C
:1041800011001A0084465AB3830704D000F8011BBB
:10419000013AF9D124E0C9B241EA012141EA0141E1
:1041A000202A11D3203A2DE9F0030B460C460D4688
:1041B0000E460F4688468946A0E8FA03203AFBD20D
:1041C000BDE8F00320320BD0042A05D340F8041BCD
:1041D000043A05D0042AF9D200F8011B013AFBD1B8
:0441E000604670477E
:1041E4000000000000000000612700000000000043
:0441F40000000000C7
:1041F80000000000940100201116000001000600D4
:10420800FFFFFFFFFFFFFFFFFFFFFFFFFFFFFFFFB6
:1042180000000000000000000000D60106010000B8
:1042280000000000000000000738FDD870470000BB
:104238000000FFFFDEC0ADDEFE011EF1DEC0ADDE18
:10424800FF011EF1252F0000492F0000592F000003
:10425800692F0000BD2F0000312F0000352F00000E
:10426800392F0000001000000400000001000000C9
:10427800108010704C0000200500000000000000B5
:1042880000000000000000000738FDD8704700005B
:104298006000002001000000000000000102000092
:1042A800FA000300000102200000000000000000E6
:1042B80000000000000000000738FDD8704700002B
:1042C8000A000000090000000200000003000000CE
:0842D8000000000000B0AF037C
:1042E0000090D00300100140110004000000000005
:1042F00000200040000000000020004000000000FE
:1043000013010000E7E7E7E7C2C2C2C2E7C2C3C4C5
:10431000C5C6C7C80805FF029696969697979797C1
:10432000C1C2C3C4C5C6C7C84D000000000000001C
:1043300000000000FFFFFFFFFFFFFFFF0000000085
:10434000000000000000000000000000FF0004006A
:0643500004000800010159
:0400000300000249AE
:00000001FF
