:10000000006000204902000001020000030200001D
:1000100005020000070200000902000000000000C5
:100020000000000000000000000000000B020000C3
:100030000D020000000000000F020000110200008D
:10004000050A0000A9450000250C0000130200006D
:100050001302000000000000D50A00001302000097
:10006000130200001302000013020000130200003C
:10007000130200001302000013020000130200002C
:1000800013020000691E00001302000013020000AA
:100090009548000013020000130200001302000044
:1000A0001302000013020000000000000000000026
:1000B0001302000013020000000000000000000016
:1000C0000000000000000000000000000000000030
:1000D0000000000000000000000000000000000020
:1000E0000000000000000000000000000000000010
:1000F0000000000000000000000000000000000000
:1001000000000000000000000000000000000000EF
:1001100000000000000000000000000000000000DF
:1001200000000000000000000000000000000000CF
:1001300000000000000000000000000000000000BF
:1001400000000000000000000000000000000000AF
:10015000000000000000000000000000000000009F
:10016000000000000000000000000000000000008F
:10017000000000000000000000000000000000007F
:10018000000000000000000000000000000000006F
:10019000000000000000000000000000000000005F
:1001A000000000000000000000000000000000004F
:1001B000000000000000000000000000000000003F
:1001C000000000000000000000000000000000002F
:1001D000000000000000000000000000000000001F
:1001E000000000000000000000000000000000000F
:1001F00000000000000000000000000000000000FF
:10020000FEE7FEE7FEE7FEE7FEE7FEE7FEE7FEE7C6
:10021000FEE7FEE709480068094909680A280AD18B
:10022000002908D1074802686FF070031A404FF0A8
:1002300040031A43026000F009B8000030010010CA
:1002400034010010E40E0040FFF7E4BF0B484FF00C
:100250000701884385460A48804700F019B80948D5
:1002600009490A4A884207D0521A05D0037801305A
:100270000B700131013AF9D1704700000060002095
:10028000C1040000B4580000000000201400002049
:100290003A493B480A1A02D0072291438D46394910
:1002A00039480A1A06D00722914381F309880222AD
:1002B00082F3148835483649364A00F041F836480A
:1002C0003649374A00F03CF836483749374A00F09B
:1002D00037F837483749384A00F032F83748384954
:1002E000384A00F02DF838483849394A00F028F8E3
:1002F00038483949394A00F023F839483949002249
:1003000000F036F838483949002200F031F8384812
:100310003849091A05F0F4F9374A90472548264923
:10032000884205D00268043003B4904703BCF7E765
:1003300000208646EC4600200021304A9047FEE728
:10034000884214D0521A12D003460B43134303249D
:10035000234206D1036804300B600431043AF9D11A
:100360007047037801300B700131013AF9D17047C1
:10037000884202D002700130FAE770470060002026
:10038000005800200060002000600020046500008C
:1003900014000020A8000020000400000004000059
:1003A00038580000046500001400002014000020EC
:1003B000C8580000C8580000C8580000C8580000BD
:1003C000C8580000C8580000C8580000C8580000AD
:1003D0000165000098650000A8000020A80000202A
:1003E000A8000020F8140020F8140020F8140020C1
:1003F000F8140020F81C00205F0200000104000037
:1004000008B500F023F908B101F0D6F8002000F09B
:1004100071F9002000F03CF900F0DAF90028FBD077
:1004200000F060F90028F7D001F0B4F908B101F04C
:10043000C3F84FF48041002003F07CFB08B101F0C9
:10044000BBF803F0C3FA144C05F0C0F8134B144981
:10045000E41AE408240444F00304204603F0FCFCFE
:1004600004F09AFC0F49204603F0F6FC04F094FED9
:100470000D49204603F0F0FC04F0CAFE0B4920466B
:1004800003F0EAFC04F0DAFD03F0A6FB0028F9D142
:1004900003F0CBF9F6E700BF745800004C58000099
:1004A000C8580000D3580000DD5800000159000072
:1004B000024AD2F80034002BFBD0704700E0014024
:1004C0004FF0805310B5D3F830210A2A5BD1D3F80E
:1004D00044224FF08041C2F34232C1F83C25002251
:1004E000C1F80C21C1F81021C1F83825484AD3F8C9
:1004F0000404C2F82005D3F80804C2F82405D3F890
:100500000C04C2F82805D3F81004C2F82C05D3F85F
:100510001404C2F83005D3F81804C2F83405D3F82F
:100520001C04C2F84005D3F82004C2F84405D3F8EF
:100530002404C2F84805D3F82804C2F84C05D3F8BF
:100540002C04C2F85005D3F83004C2F85405D3F88F
:100550003404C2F86005D3F83804C2F86405D3F84F
:100560003C04C2F86805D3F84004C2F86C05D3F81F
:100570004434C2F87035D1F80034DB0709D56FF088
:100580000103C1F800344FF08053D3F830310A2B07
:100590000CD14FF08053D3F834313BB14FF080424F
:1005A000D2F8E43E43F00F03C2F8E43E4FF01023CC
:1005B000D3F80022002A03DBD3F80432002B22DA1E
:1005C000144901234FF01020C1F804351524FFF71A
:1005D0006FFFC0F80042FFF76BFFC0F80442FFF75F
:1005E00067FF0023C1F80435FFF762FFBFF34F8FA9
:1005F00009490A4BCA6802F4E0621343CB60BFF3B7
:100600004F8F00BFFDE7064B064A1A6010BD00BFC2
:1006100000C0004000E0014000ED00E00400FA05E9
:10062000140000200090D00338B5074C051E04F1DB
:10063000080318BF1C4623682BB11A6822605B6848
:1006400028469847F7E738BDB000002070B50D4C3C
:100650002578ADB90C486560A5602561E56000F0BE
:100660007FF9064600F08AF9012384F820502370B0
:10067000064BD3F800340BB10123A370304670BD94
:100680008526F5E7A8000020710700000000014062
:1006900038B5134CA378054603F0FF0073B115B1CC
:1006A0006B6801209847002001F0BAFAE368013333
:1006B000E3600020BDE8384001F0B4BA01F0B0FAC0
:1006C00025B1226913463BB92A602561E368002BF6
:1006D000ECD100F065F9E9E79D42F7D01B68F2E73D
:1006E000A80000204FF08043D3F81804C0F3004066
:1006F0007047000038B5134C6378054603F0FF00DF
:1007000073B115B16B6800209847002001F088FA9A
:100710006368013363600020BDE8384001F082BAAD
:1007200001F07EFA25B1A26813463BB92A60A560A4
:100730006368002BECD100F040F9E9E79D42F7D067
:100740001B68F2E7A800002038B5084C002001F033
:1007500067FA6368013B6360656815B900F03AF9B0
:100760006570BDE83840002001F05CBAA8000020A8
:1007700010B5044630B9144B01225A70BDE8104040
:10078000FFF752BF012802D10F4B9870F6E70228FD
:1007900004D1BDE810400D48FFF7ACBF032811D1CC
:1007A000FFF7D2FF084A002192F8203082F820108B
:1007B000D269DBB232B1042B0CBF20460220BDE867
:1007C0001040104710BD00BFA8000020BC00002052
:1007D0004FF08043D3F80C0400F00110A0F1011396
:1007E00058425841704700001FB503788DF800301B
:1007F0004368019383688DF80830C368054A039302
:10080000054B684653F8213052F82110984705B03F
:100810005DF804FBD0000020D40000201FB5037851
:100820008DF800304368019383688DF80830C36801
:10083000054A0393054B684653F8213052F82110BE
:10084000984705B05DF804FBD0000020D4000020DC
:10085000F0B5194B90F800C091F81DE043F82C203A
:10086000164B16460A6943F82C20154B0C4603F824
:100870000CE007460FCC89B06D460FC594E80F0019
:1008800085E80F00CDF810C0BEF1000F09D0002E92
:100890000C4A694608BF3246381D00F0FBFC09B01F
:1008A000F0BD002E084A694608BF324607F10C0029
:1008B00000F0C4FAF3E700BFD4000020D00000200D
:1008C000CC000020E90700001D080000024AD2F811
:1008D0000034002BFBD0704700E001400A4908B506
:1008E0000223C1F80435BFF36F8FBFF34F8FC1F8F8
:1008F0000805FFF7EBFF0023C1F80435BFF36F8F46
:10090000BFF34F8F08BD00BF00E0014070B50E4E31
:1009100001231546C6F80435BFF36F8FBFF34F8F21
:100920000024AC4207D10023C6F80435BFF36F8F13
:10093000BFF34F8F70BD51F8243040F82430FFF7DB
:10094000C5FF0134EDE700BF00E0014000F1804049
:10095000002382B0036003680193019B02B07047DB
:10096000054A13792BB901211060937191801846C3
:1009700070478520704700BFD8000020074B1A68D9
:10098000D20704D4C02283F8002301221A604FF05A
:1009900080430022C3F81825704700BF00E100E043
:1009A00008B54FF48270FFF7D1FF4FF08043022269
:1009B000C3F8042301229A6008BD08B54FF4807083
:1009C000FFF7C4FF4FF080430122C3F804231A60ED
:1009D00008BD00004FF08042012108B54FF480703F
:1009E000C2F80813FFF7B2FF5160D2F80C3403F0DD
:1009F0000113B3F1011FF8D0014B00225A7108BD59
:100A0000D80000204FF0804110B5D1F8003163B11B
:100A10004FF48070FFF79AFF1F4B58790122C1F8FD
:100A2000082310B95A711B6898474FF08042D2F8DA
:100A3000043153B14FF48270FFF788FF0223C2F8EC
:100A40000833154B01201B6898474FF08042D2F8BD
:100A5000103153B14FF48870FFF778FF1023C2F8BC
:100A600008330D4B02201B6898474FF08042D2F8A4
:100A70000C3183B100214FF48670C2F8341CFFF7AB
:100A800065FF0823C2F80833034B9971BDE8104095
:100A90001B680320184710BDD800002000F18040DB
:100AA00000F5C040002382B0036003680193019BFE
:100AB00002B07047800000F1A040D0F8003723F466
:100AC0004033C0F80037D0F8003743EA0143C0F89C
:100AD000003770472DE9F34700244F4D01944FF440
:100AE0008072012102F1804303F5C0431B68012B92
:100AF00007D1D5F804330B4203D090B2FFF7CEFFF5
:100B00000C430432B2F5907F4FEA4101EAD1424BE7
:100B1000D3F87C31012BE2B229D14FF4BE70FFF73C
:100B2000BDFF4FF0A043D3F820150191C3F8201565
:100B30000AB344F00044394F00250126344210D056
:100B4000AB0003F1804303F5C043D3F81005D3F89D
:100B5000101557F8253023B1C1F30141C0F304202B
:100B600098470135082D4FEA4606E7D101E0002AF3
:100B7000E1D1002C48DA294C4FF0A047284D4FF026
:100B80000008012615F9013F5A1C31D0C3F3C201F8
:100B900008316944DAB211F8041C03F03F0903F08C
:100BA000070306FA03F3194222D009F5E073484619
:100BB00057F82330C3F3014ABAF1020F0CBF0321E7
:100BC0000221FFF777FF06FA09F3C7F8203504EB97
:100BD000090393F9483054F823304BB191090329A4
:100BE00004D0BAF1020F12D1012901D14846984729
:100BF00008F10108B8F10A0FC4D1D7F820350193E4
:100C0000C7F82035002BB9D102B0BDE8F087BAF1A2
:100C1000030FEDD10229E8E700600040E00000206A
:100C200047010020014B1B68184700BF58010020F6
:100C30000B4B984210B50C4601D0002010BD00208F
:100C400000F0EEFF074B187920B1002000F0EAFF1A
:100C50001120F3E701221C601A7100F0E3FFECE7BA
:100C600000200040580100200023435082B0435828
:100C70000193019B02B070470A4610B54FF48E7184
:100C8000FFF7F2FF136A9168C95C136A01331362BC
:100C9000C0F81C1510BD8B690A4610B54FF484715D
:100CA00023B9FFF7E1FFD0F8183510BDFFF7DCFFDF
:100CB000536AD168D0F81805C854536A0133536297
:100CC000F3E700001FB501238DF80030044BCDE998
:100CD0000110D3E900126846904705B05DF804FBA7
:100CE0006001002008B54FF49271FFF7BDFF4FF48B
:100CF0008471FFF7B9FF0123036008BD30B54D4D86
:100D0000D5F804339A0585B051D5D5F82431002B98
:100D10004DD04FF492712846FFF7A6FF4FF40173B0
:100D2000C5F80833444B93F829200AB901226A60B8
:100D3000404902228DF80020D1F88024C1F8802497
:100D400003929A690292DA6801920022C3E90622AC
:100D50006846D3E9001290473648D0F81C315BB1A1
:100D6000354A5169136A99424DD992F82830002BBF
:100D700049D11146FFF780FF2E48D0F84431002BAF
:100D800056D04FF4A271FFF76FFF2B4B93F8292039
:100D90000AB1012202609A69002A49D0586AD968CA
:100DA00000229A6105B0BDE83040FFF78BBFD5F84F
:100DB00004335B07D0D5D5F80831002BCCD01E4CBE
:100DC0001C482146FFF767FF636AA2699A42C3D1B4
:100DD000E369E1684BB1A3612369E3600023606AC2
:100DE000E3616362FFF76EFFB6E794F829300BB951
:100DF00001236B600F4B4FF40172C3F808230023EB
:100E0000606AA361EEE70B484FF48E71FFF72CFF89
:100E10005369002BB0D051690291002391688DF87D
:100E20000030019153616846D2E900139847A3E767
:100E300005B030BD00200040600100202DE9F843DE
:100E4000524D90F804802C2303FB0853064693F878
:100E50002A300C469146002B40F094804C490068A3
:100E6000FFF7E6FE0746002840F08E8021683368D1
:100E7000481C0BD04FF0A04001228A40C0F8082542
:100E800001F5E0724FF0030C40F822C06068421C8C
:100E90001FBF00F5E0724FF0A04C4FF0000E4CF871
:100EA00022E0A269C3F8242594F814C0627DBCF145
:100EB000010F4CEA0202C3F86C25C3F81405C3F80D
:100EC0000C151DD1A1684A1C1FBF01F5E0724FF03F
:100ED000A0404FF0000C40F822C0E268501C0BD03C
:100EE0004FF0A04C01209040CCF8080502F5E070CE
:100EF0004FF0030E4CF820E0C3F80825C3F8101596
:100F00002C2303FB08F3EA18C2F804902269EA5084
:100F1000B9F1000F1ED03068227F4FF48E71FFF7B9
:100F2000A3FE4FF4A271FFF79FFE1A4BC0F80433E3
:100F300040F307335201002BD2B21EDB1649C8180A
:100F400080F800230122580903F01F0302FA03F37B
:100F500041F8203033680422C3F800252C2303FB1A
:100F600008530022C3E9062283F829205A6101228E
:100F700083F82A203846BDE8F883084903F00F03B8
:100F8000CA54E7E70827F5E71127F3E760010020D7
:100F9000FD0C00008000020000E100E014ED00E024
:100FA0000279044B2C2101FB02335869003818BF29
:100FB00001207047600100202DE9F84F074690F8A6
:100FC000048089469346FFF7EBFF0446002839D199
:100FD0001E4E2C2508FB056A4FF48E71CAF814B01A
:100FE000CAF820008AF828003868CAF80890FFF785
:100FF0003BFE012383605146FFF73EFEDAF80430E2
:1010000055460BBBDAF814402B6A9C4210D8D0F836
:101010001C31002BFBD00123C36000202C2303FBD9
:10102000086600237361BDE8F88F95F828303BB956
:10103000D0F81C31002BF8D05146FFF71DFEE3E736
:101040000F20EBE71120EEE72046ECE760010020DF
:101050002DE9F0473C4D06792C2303FB065304464B
:101060005F68D3F8188037B9B8F1000F13D0D8698A
:1010700010B311204BE0D0F800C000684FF4017E9F
:10108000CCF808E3B8F1000F05D0DC69002C40D0A3
:10109000CCF804E3EDE72C2303FB06539A6100220E
:1010A000D9605A62DA6193F8293013B92068FFF7E2
:1010B00019FE20687FBB02E020681961DA614FF4F5
:1010C000A2712C27FFF7D0FD06FB07584746206882
:1010D000D0F824A1D0F80831D0F8449103BBB9F17D
:1010E000000F02D1BAF1000FF1D02C2303FB0655FB
:1010F0000023AB61BAF1000F22D1B9F1000F21D169
:1011000095F8291023680122C1B11A600020BDE8BA
:10111000F0871961DA614FF40173C0F80433F5E721
:10112000BAF1000FE1D1B9F1000FDED14146FFF76E
:10113000B2FD7B6ABA699A42C9D8D6E75A60E5E738
:101140000320E4E70F20E2E7600100200023435082
:1011500082B043580193019B02B070471FB5012331
:101160008DF80030044BCDE90110D3E90012684638
:10117000904705B05DF804FB8C0100207FB5434A21
:10118000D2F82461002E60D010464FF49271FFF720
:10119000DDFF02238DF80030D2F88034C2F88034AD
:1011A0000393D2F83C350293394BDA68019200225E
:1011B000C3E906226846D3E9001290473348D0F8C5
:1011C000443173B14FF4A271FFF7C0FF304B9A69FD
:1011D0003AB10022D0F83C05D968C3E90622FFF7EE
:1011E000BDFF2A48D0F82031ABB14FF49071FFF722
:1011F000ADFF0123C360264B5A6962B1D0F84C158C
:101200000291002299688DF8002001915A61684688
:10121000D3E9001290471D48D0F858319BB14FF4E4
:10122000AC71FFF793FF1A4B5A6962B1D0F84C15B5
:101230000291002299688DF8002001915A61684658
:10124000D3E90012904704B070BDD2F81031002BE2
:10125000B4D04FF488711046FFF778FF0C4BD2F8EA
:101260003C0599698842A9D1DC69D96864B1D2F892
:10127000005225F02005C2F800521A699C61DA601C
:10128000DE61FFF76BFF99E79C61FAE70020004001
:101290008C0100202DE9F843574D90F80480242359
:1012A00003FB0853064693F820300C469146002B6A
:1012B00040F09E8051490068FFF7BAFC07460028BD
:1012C00040F0988021683368481C0BD04FF0A04054
:1012D00001228A40C0F8082501F5E0724FF0030CA6
:1012E00040F822C06068421C1FBF00F5E0724FF05A
:1012F000A04C4FF0000E4CF822E0A269C3F8242560
:1013000094F814C0627DBCF1010F4CEA0202C3F8EC
:101310006C25C3F80C15C3F814051DD1A1684A1C2F
:101320001FBF01F5E0724FF0A0404FF0000C40F8F5
:1013300022C0E268501C0BD04FF0A04C012090401E
:10134000CCF8080502F5E0704FF0030E4CF820E0F1
:10135000C3F80825C3F81015242303FB08F3EA1883
:10136000C2F804902269EA50B9F1000F2AD030681F
:10137000227F4FF48871FFF7E9FE4FF49071FFF779
:10138000E5FE4FF49271FFF7E1FE4FF4A271FFF713
:10139000DDFE4FF4AC71FFF7D9FE194BC0F80433F2
:1013A00040F307335201002BD2B21CDB1549C81899
:1013B00080F800230122580903F01F0302FA03F307
:1013C00041F8203033680822C3F80025242303FBAA
:1013D00008550023C5E906336B61012385F82030E9
:1013E0003846BDE8F883084903F00F03CA54E9E71B
:1013F0000827F5E71127F3E78C0100207D11000095
:101400001003420000E100E014ED00E00279044B1B
:10141000242101FB02335869003818BF01207047AE
:101420008C01002001F06043B3F1005F2DE9F0472B
:1014300081460E46924636D190F80480FFF7E6FFCB
:10144000044690BB1B4FD9F80020242505FB0875E6
:101450004FF490711046C5F814A0AE60FFF776FE09
:101460004FF4AC71FFF772FE6B69C2F84465C2F8C5
:101470004835012393606B68CBB9D2F82031D2F89C
:1014800058010343F9D060B90123D360D2F8583131
:10149000002BFBD0242303FB087700237B61BDE8EE
:1014A000F0870F20F6E71020F9E71120F7E7204634
:1014B000F5E700BF8C0100202DE9F84301F06043FF
:1014C000B3F1005F0F4673D106793A4D242303FB35
:1014D0000653D3F80480D3F818C0B8F1000F08D130
:1014E000BCF1000F12D0DB69002B40D01120BDE809
:1014F000F88301684FF40474C1F80843BCF1000F8D
:1015000004D0DB699BB3C1F80443EFE7242303FB5A
:10151000065300219A61DF6089462423046803FB97
:1015200006532046D9614FF48871FFF70FFE4FF440
:10153000A271FFF70BFEC4F83475C4F83825B9F171
:10154000000F1CD101232360B8F1000F2AD1D4F879
:101550001031D4F84421D4F82401134316D10028C3
:10156000F5D0242202FB065203209361BFE7242317
:1015700003FB065311461F614FF00109CDE7D4F874
:10158000003243F02003C4F80032DDE7242303FBDC
:1015900006550023984218BF03209A42AB6118BF3A
:1015A0000F20A4E74FF40473C4F8043300209EE72F
:1015B00010209CE78C0100201FB50021039001AA98
:1015C00044F20100CDE9011100F004F805B05DF826
:1015D00004FB000038B572B602F0B4FC02F0FCFA6D
:1015E0000028FBD1104B114C114D1249E41AE408AC
:1015F000240444F0010002F02FFCD5F8F030DB07A2
:1016000000D500BE0C4944F0020002F025FCBFF3F7
:101610004F8FEA68094B02F4E0621343EB60BFF3BB
:101620004F8F00BFFDE700BF4C580000745800000A
:1016300000ED00E02E5900003A5900000400FA05C0
:1016400010B5034649B152B1541E14EA020006D146
:10165000986019609C80D86010BD0E20FCE70920BE
:10166000FAE710B58468C2688388121B934208D3D6
:10167000C26813400268D154C3680133C3600020BC
:1016800010BD0420FCE78268C3689A420AD08268D1
:10169000838813400268D35C0B70836801338360D6
:1016A0000020704705207047C368836000207047A2
:1016B00010B5D0E90242D1E90203A04293412CBF08
:1016C0000120002010BD000008B50A4800F0C7FB4B
:1016D000094AD2E90031C018084BD3E9002341F18F
:1016E0000001904271EB030303D210F1807041F1CD
:1016F000000108BD18000020280200202002002060
:1017000038B5224B1D780446ADB3A0B3FFF7DCFF1C
:10171000D4E902239042994130D3002000F080FAAE
:1017200023692BB94FF0FF324FF0FF33C4E9022396
:10173000002000F077FAD4E905309847002000F047
:101740006FFA2369A3B1D4E90212B2F1FF3F08BFD7
:10175000B1F1FF3F0CD05B1842F10002C4E9023244
:10176000002000F05FFA0A48214602F06BF803E01F
:10177000002000F057FA0025284638BDB3F1FF3F9E
:1017800008BFB2F1FF3FF6D0EDE700BF3002002006
:101790004859000013B5114B1149186801900823EE
:1017A0001048582201F090FA044698B90E4A0F48A2
:1017B00001A900F045FA044660B90C48012100F087
:1017C00031FB01230A4A0948194600F093FA094BF4
:1017D00001221A70204602B010BD00BF5E59000001
:1017E000C4010020B40100200518000018000020EA
:1017F000FFFF7F0030020020014800F030BB00BF37
:10180000180000202DE9F743074600F013FB40B114
:10181000634AD2E9003113F1807341F10001C2E95A
:1018200000310021384600F014FB38B15D4C2368CC
:1018300023B12068FFF764FF0023236001213846AD
:1018400000F007FB20B1FFF73FFF574BC3E9000152
:101850005648544E01A901F084FA4FF0FF344FF07E
:10186000FF35A0B9DFF848814E4C404602F000F841
:10187000002800F08A80D0E90223B3F1FF3F08BFBF
:10188000B2F1FF3F36D1404601F0ECFFEDE70378BF
:10189000012B21D0022B09D1DFF81481404601F041
:1018A000E1FF20BB434B01221A700CE05BB9416899
:1018B000D1E90223B3F1FF3F08BFB2F1FF3F02D0ED
:1018C0003B4801F0BFFF01A9384801F075FA01A9B2
:1018D000364801F046FAC4E741683368994202D1BC
:1018E00000233360EFE7324801F0C5FFEBE7C0E9C2
:1018F0000245D3E7216891B12168D1E90201824212
:101900008B412CD22368D3E90223B3F1FF3F08BFF8
:10191000B2F1FF3F03D02168404601F093FF4046FB
:1019200001F0A0FFD0E902590646FFF7CDFE281AC4
:1019300069EB0109012879F1000915DBB0F5350FD4
:1019400010D3FFF759FF1C4A02441C484FF496037A
:10195000002100F0EFF978B9236893B1266003B055
:10196000BDE8F0832A46F0E71448002100F067FA4A
:101970003046FFF7C5FE01E00D28F9D000232360B3
:1019800073E7384600F0AEF9E8E7064B1B68002B1A
:10199000E5D1384603B0BDE8F04300F0A7B900BF79
:1019A000280200203402002020020020B401002080
:1019B0004859000030020020FFFFB400180000204A
:1019C0000648074A03780749D35C012213B1043063
:1019D000FFF772BD0C30FFF73BBB00BF20000020BB
:1019E000CC000020590200200648074A0378074926
:1019F000D35C012213B10430FFF714BD0C30FFF7A4
:101A0000DBBA00BF20000020CC0000205A020020DA
:101A100037B50578012D0DD0022D30D075B91F498D
:101A20001F48FFF730FE002834D103B0BDE8304036
:101A3000FFF7DABF037A1BB9FFF7C2FF03B030BD6F
:101A40004368184C19782046FFF70BFE80B18DF8DB
:101A500000500190144B68461B689847A168E368E2
:101A6000A2885B1A9A42E7D2104B01221A70E5E76E
:101A7000A268E3689A42F1D08DF80000EAE7C368F3
:101A80008DF800500193FFF79BFF074B68461B68DA
:101A90009847D3E703238DF80030F6E75A02002079
:101AA00038020020480200205C020020580200207A
:101AB000F0B51F46234B89B004461A600D46002935
:101AC0003DD08A8820480968FFF7BAFD002834D144
:101AD000AA89A9681D48FFF7B3FD00282DD11C4E27
:101AE0000FCE6D460FC596E80F0085E80F006369BD
:101AF0000693237C174A18488DF81C70003B18BFCA
:101B000001238DF81430637C002B0CBF00230E23BF
:101B10008DF81530E3680293A3680393236801935B
:101B2000694663680093FEF793FE30B90B4B18705B
:101B30002368013301D0FFF743FF09B0F0BD072050
:101B4000FBE700BF5C0200204802002038020020B2
:101B500064590000111A00002000002058020020E3
:101B600008B50548FFF7A0FD20B9BDE808400348C7
:101B7000FFF79ABD08BD00BF4802002038020020D0
:101B800070B5084D014608482E78FFF77CFD0446E5
:101B900036B100232B70FFF713FF08B1FFF70CFDE0
:101BA000204670BD580200204802002010B50146B2
:101BB0000E48FFF756FD0446A8B90D480D4A0378B4
:101BC000D35C63B10430FFF721FC60B90A490748D0
:101BD000FFF759FD38B9BDE81040FFF705BF0C30DD
:101BE000FFF7DEF9F1E7204610BD00BF3802002004
:101BF00020000020CC0000205A02002072B6024AC9
:101C0000136801331360704760020020034A1368B1
:101C1000013B136003B962B6704700BF6002002049
:101C2000FFF7ECBFFFF7F2BF0346405882B028B180
:101C300000225A505B580193019B012002B070476B
:101C400070B5204B4579204E43F825201F4B204A84
:101C500006EBC5059B1ADB08044618042B7933B143
:101C600040F002001B4902F0F7F8082070BD23681D
:101C70000A88C3F8082594F904308A78002B4FEAC3
:101C80004212D2B219DB1449CD1885F80023012283
:101C90005D0903F01F0302FA03F341F8253063796D
:101CA00006EBC3020121117140F003000B4946F815
:101CB000334002F0D1F80020D8E7094903F00F03C0
:101CC000CA54ECE76C020020640200207C5800003B
:101CD0004C5800008459000000E100E0A6590000C3
:101CE00014ED00E0036801221A60704703680122C6
:101CF0005A60704773B501F15005AD000068ADB290
:101D00004FF480348C400026C0F80843C0F84843A4
:101D1000465101F5A8714559019522F07F42019D78
:101D200040F82120C0F844430BB1C0F8044302B08E
:101D300070BD00002DE9F74F0D4622F07F44026888
:101D40004FF4803705F150068F408046B60002EB15
:101D50008500C2F84873B6B2C2F80873D2F8041509
:101D600099464FF0000BD0F84035C0F8401542F8C6
:101D700006B05B1A9259009223F07F43012B009A20
:101D80004FEA850A0CD1264B4FF4806043F00103E3
:101D90009847D8F8003043F806B09B590193019B4F
:101DA000D8F80020D2F80465C2F84473A31B23F0CE
:101DB0007F43012B1CD11A4B05F5A875013443F064
:101DC000010342F825404FF480609847D8F800306E
:101DD000D3F804359E4209D1D8F800300020C3F86A
:101DE0004473C3F8047303B0BDE8F08F0D20FAE725
:101DF0009244C9F1FF13CAF84045D2F80405211AEC
:101E0000013921F07F4103F57F438B42EED3002956
:101E1000E2D10134CAF84045D2F804359842DAE7F5
:101E2000C059000003680222C3F8442309B1C3F873
:101E30000423704700684FF48271FFF7F5BE4FF43A
:101E4000803303FA01F10368C3F84813C3F8081399
:101E5000704750318900006889B2FFF7E5BE03681A
:101E6000D3F8040570470000024B034A1B68106852
:101E7000184700BF6C0200206402002070B5064EB7
:101E80000546002456F8043B0BB128469847013418
:101E9000042CF7D170BD00BF7003002043880333CA
:101EA00000EB830399420BD382884FF6FF739A426B
:101EB00008D0038833B18068431C584258417047AA
:101EC000022070470120704768B10268084B9A42AF
:101ED00009D14068074B984207D0013398420CBFA4
:101EE000012003207047032070470020704700BF87
:101EF000DEC0ADDEFE011EF1C21C92B240F2FE3326
:101F00009A4230B51ED8124B187838B91C895D89B1
:101F10002C441444A4B2B4F5806F0AD9187DA0B93A
:101F2000988BDC8B2044104480B2B0F5806F0CD8C5
:101F300001200880142101FB0033002059890A4444
:101F40005A8130BD48F20860FBE748F20660F8E7C6
:101F5000A80200200B4A0C495388142000FB0311EF
:101F6000CB6833B90420496810700122074801F09A
:101F7000C3BA07490523137002238B800122096825
:101F80000023F3E790020020A802002000000020B8
:101F9000A002002007B5002305490093054A0968FF
:101FA0000548082301F0FCF903B05DF804FB00BF0D
:101FB000A0020020D45900000000002007B5002333
:101FC00001460093034A0448082301F0E9F903B0ED
:101FD0005DF804FBCC5900000000002013B500237D
:101FE0000C4600930146084A0848042301F0D8F93A
:101FF00038B90749142202FB041101230B7402B003
:1020000010BD48F20D60FAE7C8590000000000203A
:10201000A802002037B50A480A4B42689C88196814
:1020200053880325033305709BB2002000909B006A
:1020300001EB8401044801F0B3F903B030BD00BFE7
:1020400090020020A00200200000002010B50146F0
:10205000044800F04CFE1C220446002103F0BCFBA7
:10206000204610BDD00200202DE9F0410D4602238C
:10207000154F2B80164600F5805100F108044FF0F3
:1020800001088C420ED2236801330BD02046FFF7A3
:1020900005FF48B10EB186F80080022809D14FF43F
:1020A00080632B80BDE8F081A3683A68934200D931
:1020B0003B602B886288033313442B80638803338F
:1020C00004EB8304DDE700BF6C03002038B5144B3C
:1020D00014220D4602FB00335C682B6804F5805126
:1020E000A3B15C88033403EB84048C4215D22368CB
:1020F000013312D02046FFF7D1FE012808D0022874
:102100000BD00028F1D12C60012038BD0834ECE759
:102110006388033304EB8304E7E70020F5E700BF9F
:10212000A80200204368F7B505460E461BB1244AB5
:10213000D1688B4206D200240027022C34802BD198
:10214000002022E012699342F5D813F00304F2D183
:102150001C4A018912899142EED101689A68914224
:10216000EAD119494A68934203D902F58052934251
:102170000DD38A6993420CD902F58052934208D25A
:1021800001233380B4FA84F0400903B0F0BD234644
:10219000F7E748F20964F5E7019701A92046FFF740
:1021A00095FF10B90134A4B2C7E7019B2A6899686A
:1021B0009142F2D16B60034B1B892B81E5E700BF95
:1021C0000000002090020020A80200202DE9F04726
:1021D0001C461E4B1B7807468846164683B392B3AF
:1021E0008CB3DFF86C904FF0140AA588012D02D94A
:1021F00048F2096022E00AFB05F319F803302BB915
:1022000021462846FFF762FF18B920600135A580F6
:10221000EBE723681FB199883A889142F0D1B8F171
:10222000000F04D01988B8F800209142E8D19A68CC
:10223000C6E90023074B1B8933810020BDE8F087E6
:1022400048F20160FAE748F20460F7E788030020EB
:10225000A80200209002002008B5074B5888191DDD
:10226000FFF734FF18B1BDE80840FFF7D3BEBDE863
:102270000840FFF76FBE00BF900200202DE9F04735
:102280009C4FDFF8748288B006463B6823B99B48B0
:10229000414600F066FD38603D6829784B1E052BED
:1022A00000F21381DFE813F0060065006500080105
:1022B000080176014EB1924B00215960142203A807
:1022C00003F08AFA4FF4064406E12B79032B1CD85D
:1022D000DFE803F01402313C8A4A1378022B1ED047
:1022E000137D022B4FF001031BD114214B43D11856
:1022F0000020D0544868FFF761FE03E001232B71F2
:10230000FFF748FE002800F0D1807D4B0021142209
:1023100003A8596048F20D6403F05EFADCE0002384
:10232000E3E7774A002113705160142203A803F0F9
:1023300053FA0024D0E074497448002302222B7120
:102340008A800968012201F0D7F8DBE7704B6D4CF9
:102350005B886D4A14214B43E11800262E714D68AD
:1023600010681560958848600D810221E6549180BF
:10237000C1E7B5F814A0AA7DDFF88891B6B1022AAA
:10238000EB8806D9142101FB0A91DA1C0889024462
:102390000A81142202FB0A99C3F57F43B9F80A1097
:1023A000FD330B44A9F80A30002188E7142303FB0E
:1023B0000A9318895C6804EB8004062A05D8DFE8D4
:1023C00002F0375E4654266A780048F20E64AA7D11
:1023D000EB88022A06D9142101FB0A91DA1C08892C
:1023E00002440A81142202FB0A99C3F57F43B9F81B
:1023F0000A20FD331344A9F80A301422002103A84F
:1024000003F0EAF941F61D539C4292D064E0414842
:10241000414900234360AB690360FFF783FE014637
:1024200030B9142203A803F0D7F948F2096453E045
:102430000223AB75002300930423EA182146334896
:1024400000F0AEFF002831D048F20D64BFE72B69E1
:10245000002B0CBF01230323AB750023009305F170
:102460000C02042304F10801E9E70123AB75002203
:10247000EB8800922A699B0004F10C01DFE7032935
:1024800014BF06230523AB7500230093042305F135
:102490000802E118D3E70623AB751F4B19881D4BC3
:1024A0005868FFF79BFD0446002890D108B0BDE8AE
:1024B000F08741F61D548AE70EB1142274E72B7998
:1024C000012B48D0022B5AD043B31422002103A879
:1024D00003F082F948F20E643B6804941A78023AD9
:1024E000042A00F20D81DFE812F0EE00FA001C0170
:1024F00024012B018C02002088020020D002002041
:1025000088030020A8020020A00200200000002074
:10251000900200207C0200207802002002232B7110
:102520000DF10A01EB68039303A8CDE90466FFF7F8
:10253000F9FD10B91422314674E70498BDF80A1069
:102540008388EB8003882B81FFF748FD0446002C2D
:102550007FF453AFAAE7DFF8F09103AA4B46314668
:10256000A81DFFF733FE044660B9B9F804100498BB
:10257000FFF734FD48F2096398420446E7D114227C
:102580000021D3E648F209639842C9E900667FF466
:1025900034AFF4E7002E90D16C4B197B1A78A9B1B7
:1025A0001E731A78013A062A8FD801A151F822F039
:1025B0005B260000812600009F260000A526000063
:1025C000CB240000AB260000BD260000072AE8D877
:1025D00001A151F822F000BFF9250000A325000059
:1025E000A32500001F260000332600005726000008
:1025F000572600001B2600001A89554901321A810E
:1026000000225A801A730A78B2FA82F252099A7238
:102610000A7DB2FA82F25209DA72012207E04D49CC
:1026200058688A884088033202448A8002221A70DD
:10263000B7E75C88464A4749142505FB0422086829
:10264000546850608888108102200C6088800021C6
:1026500011740622EBE70722E9E79A7A32B9DA7AAF
:102660008AB900211970598059605EE63849002204
:102670009A72CA68002AF2D1097C0029EFD05A80E8
:10268000FFF7EAFD62E70022DA72314A116A002997
:10269000E7D192F82420002AE3D00122EFE7FFF7E8
:1026A000B9FC53E7FFF756FC50E75A88284B142132
:1026B00001FB02335868FFF781FC47E700225A60AC
:1026C000FFF768FC42E701228DF80C201A89ADF86B
:1026D00018209A88DB68ADF81A20059310E00222D2
:1026E0008DF80C201A89ADF818209A88ADF81A20B8
:1026F000DA689B7D05929A1F534253418DF81C3036
:1027000003A8FFF7BBFB0026414613483E6000F0DC
:1027100053FB1248012100F0B2FB00287FF4B5AD55
:10272000C4E603228DF80C20DA88ADF818201A8947
:10273000D0E704228DF80C20DB88ADF81830DFE7F5
:1027400005238DF80C30DBE770020020900200209A
:10275000A8020020A0020020D00200208403002054
:102760004068FFF78BBD000008B50548012100F067
:102770006EFB18B9BDE80840FFF780BD08BD00BF7B
:10278000840300202DE9F74398463A4B1B78064610
:102790000D46002B62D0002963D009884FF6FF73E5
:1027A000994261D06B88002B5ED06B689B075ED12D
:1027B0004AB92F890DF102013846FFF79DFB30B170
:1027C00003B0BDE8F08313885788ADF8023001A844
:1027D000FFF73CFCBDF80220044650B9264B1421FB
:1027E00001FB023358890338C01B588148F2076047
:1027F000E6E780F800806B6803614FF0000980F81D
:102800001690828201211D4800F02DFB2B88238128
:10281000B8F1030F6B88E060A380E78012D1042336
:10282000A37533681648A361A4F80A9001A900F0C3
:1028300088FA0023E2687360B372124B32601B891E
:10284000338107E00E48A4F80A9001A900F079FA54
:10285000002EEED1FFF788FF0020B1E748F20160BB
:10286000AEE748F20460ABE748F20360A8E748F23D
:102870000260A5E788030020A80200206C03002066
:10288000D00200209002002008B5034607480268E5
:10289000042A08D00168064A42F82130012100F0DC
:1028A000E2FA002008BD48F20B60FBE7800300203D
:1028B000700300202DE9F04F744F87B014220021DF
:1028C00001A802F089FF3B7803F0FF0B1BB101A8C0
:1028D000FFF7D4FA03E0381D00F0DDFA20B1002440
:1028E000204607B0BDE8F08F4FF010234FF0805224
:1028F0005B691269DFF898A1591C04BF3023534368
:10290000CAF810306349A3F5405300225046CAF874
:102910000C3000F013FD04460028E1D15E495F4809
:102920001C238C2200F0D0F9A1464FF00308254665
:10293000DAF80C604E443046FFF7C6FA01285DD045
:10294000032812D0002836D1554914236B43CA18E6
:10295000C854566003F1100208330A443046194443
:10296000FFF782FB44F0020445E033685A1C02D0B2
:102970004C4A934234D1331D06F580521968013117
:102980002ED104339342F9D1474B1A682AB9022257
:102990001E609A804FF0010B0BE014236B434048FC
:1029A0000221C218C154414B56605D80013511812E
:1029B000ADB244F0010409F58059B9F5405FB7D1D3
:1029C000B8F1010F06D9E4B2062C39D03DD814F085
:1029D000FD0F3AD100233B7048F20A647B607FE729
:1029E0002F4A14236B43D11808F1FF384E6003219E
:1029F000D1541FFA88F80135ADB2DCE72A4BBBF1A0
:102A0000000F0FD0DFF898C014226A430CEB0201CC
:102A100002200CF802001A684A60244A0881558096
:102A20000135ADB222491E6000223046FFF71CFB83
:102A30001D4B9B88022B14BF082304231C43BAE7B9
:102A400001233B7000237B6041E76846FFF7FEFAF5
:102A5000C8B10123013C03700A2C09D8DFE804F057
:102A600006080608070807080F110F000023037166
:102A700069460A4800F065F9FFF776FE2FE7032361
:102A8000F5E70223F3E748F2076429E7880300200B
:102A900000000020BC5B0000E0020020D00200200B
:102AA000A8020020DEC0ADDEA002002090020020BF
:102AB000A402002073B50D460446C0B1B9B10DF1B2
:102AC0000601FFF72FFBA8B10C4BBDF80620666886
:102AD000142000FB0230012100F0C5F963682E606C
:102AE0000C336B600123A372002002B070BD48F26A
:102AF0000460FAE748F20960F7E700BFB40200207B
:102B000013B50446A8B10DF10601FFF70BFB98B110
:102B1000BDF806200B4B142101FB0233DA6872B1B9
:102B2000A27A62B1DA680020013ADA60A07202B0DB
:102B300010BD48F20460FAE748F20960F7E748F28E
:102B40000560F4E7A802002002230022FFF71ABE66
:102B500018B103230022FFF715BE48F20460704746
:102B60000F4B1B7807B5A3B101A8FFF76FFA98B117
:102B70000623037001A90B4800F0E3F80A4B1A780A
:102B80000AB101221A73FFF7EFFD002003B05DF8D0
:102B900004FB48F20160F9E748F20760F6E700BF7E
:102BA00088030020D00200209002002007B5ADF875
:102BB0000600ADF804100DF1060001A9FFF706FBB1
:102BC00003B05DF804FB00002DE9F84F3C4B1B7887
:102BD0000446002B6ED000286FD0DFF8E89010225A
:102BE0000021023002F0F8FD032323804FF0000A99
:102BF0004F4614264FF00108D9F80410B9F80AB06E
:102C0000B9F808500846FFF75FF9032808BF238882
:102C1000628804BF03F1FF33238006FB0A735D441F
:102C2000DB681344638023899B446389A4F808B05C
:102C3000ADB22B446381C5F58065A389ADB2AB42CB
:102C400038BFA58101F1080501F58051A94229D9B4
:102C50002B68013326D02846FFF720F901280AD037
:102C6000022815D00028F1D1A3880133A3800AE0FF
:102C70004FF0010AC0E7E3880133E380E3896A8803
:102C800003331344E3816B88033305EB8305DDE7EE
:102C9000E38884F810800133E380E389491B03EB68
:102CA000A101E18109F11409BAF1000FE0D000207F
:102CB000BDE8F88F48F20160FAE748F20460F7E7F0
:102CC00088030020A802002010B561B1B2FBF3F424
:102CD00003FB1424A4B244B9C0E9001484608281C7
:102CE000C381204610BD0E20FCE70920FAE737B566
:102CF00050E8013F9DB2C48925448489A54228BF7C
:102D00002D1B0489A54202BFBFF32F8F002207E0CD
:102D1000C5EA030540E80154002CE9D14FF0010257
:102D20008DF803200193019A0A609DF8031001F0C9
:102D3000FF0321B1006810FA82F003B030BD1846DD
:102D4000FBE70A884B889A4209D150E8012FC2EA72
:102D5000024240E80123002BF7D1012070470020F8
:102D6000704737B550E8023F1FFAA3F5C488A54263
:102D700002BFBFF32F8F00220DE0C4892544848950
:102D8000A54228BF2D1BC3EA054540E80254002C8C
:102D9000E8D14FF001028DF803200193019A0A60F7
:102DA0009DF8031001F0FF0321B1006800EB124011
:102DB00003B030BD1846FBE70A884B889A4209D118
:102DC00050E8022FC2EA224240E80223002BF7D14A
:102DD000012070470020704710B5034653E8000FEC
:102DE0000A4643E8002494F0000FF7D110BD10B557
:102DF000034653E8000F40EA010243E8002494F040
:102E0000000FF6D110BD10B5034653E8002F42EA7B
:102E1000010043E8000494F0000FF6D110BD10B596
:102E2000034653E8000F00EA010243E8002494F04F
:102E3000000FF6D110BD10B5034653E8002F02EA8B
:102E4000010043E8000494F0000FF6D110BD10B566
:102E5000034653E8000F00EB010243E8002494F01E
:102E6000000FF6D110BD10B5034653E8002F02EB5A
:102E7000010043E8000494F0000FF6D110BD10B536
:102E8000034653E8002FA2EB010043E8000494F04E
:102E9000000FF6D110BD0121FFF7A9BF0121FFF7F7
:102EA000B2BF0021FFF7BBBF0021FFF7C4BF10B5C1
:102EB00090B1D0E9012301689B1ADBB20A60013BA3
:102EC000DBB2FF2B026802D10020107110BD116827
:102ED0004C1C14600B70F2E70E20F7E770B5044647
:102EE0000020FEF79DFE216862680B68934213D9AB
:102EF000581E086013F8015CA368E268268A1B1A52
:102F00000879DBB2984238BF0B7106FB052500201B
:102F1000FEF788FE284670BD0025F8E738B505465F
:102F200000200C46FEF77CFE2A681368591C1160CD
:102F3000EA68A41A2A8AB4FBF2F41C70BDE838408F
:102F40000020FEF76FBE826810B504462AB14369BF
:102F50000168006998470023A36010BD0EB403B553
:102F6000039921B104AB01AA019300F06FF802B0FC
:102F70005DF804EB03B07047826830B40468551CF8
:102F80008560A154D0E901329A4202D330BCFFF7E8
:102F9000DABF30BC704700002DE9F84F9946DDE9F3
:102FA0000A431546824688460A460127AA420FD29E
:102FB0004F4538BF4F4613F0010B01D164B90024CF
:102FC0000126B9F1010F1CD909F1FF396E43F8E769
:102FD0000137B2FBF5F2E9E79B0710D5B9F1000F15
:102FE00014BF20263026BC42EAD9013C3146504667
:102FF000FFF7C2FF002CE2D0BC42F6D1E0E720266A
:10300000F1E7B8FBF6F39D42E0D9DFF83C90B8FB5E
:10301000F6F3504619F8031006FB1388FFF7ACFFD0
:103020003346AB42B6FBF5F6F1D2BBF1000F00D050
:1030300034B9BDE8F88F20215046013CFFF79CFFD2
:10304000BC42F8D8F5E700BFDC5900002DE9F74F86
:10305000064617468846002900F06C8118F8011BC7
:1030600049B9337B002B00F06581304603B0BDE8E1
:10307000F04FFFF768BF252940F09380002598F8AE
:1030800000102D29424608F1010806D0302907D04A
:103090002B2908D145F00405F1E745F00105EEE7DD
:1030A00045F00205EBE72A2943461AD13B681A1D71
:1030B0001C683A60424613782E2B21D101324FF022
:1030C000000A4FF00A0C104610F8011BA1F1300E57
:1030D000BEF1090F16D80CFB0A11A1F1300A024605
:1030E000F1E7002413F8011CA1F130000928E2D80F
:1030F0000A2202FB0411A1F130041A460133F1E760
:103100004FF0000A12F8011B01F0FB0068289046FE
:10311000F8D0782909D86F290CD863293DD021D857
:1031200025293ED0582900F0B18098F80030002BB6
:1031300094D196E770390829F7D801A252F821F006
:10314000073300002B3100002B3100009D320000BE
:103150002B3100007B3200002B3100002B310000AE
:103160008D320000642901D06929DED13A68D2F895
:1031700000B0111D8BEAEB723960A2EBEB724FF0DD
:1031800001090A21092A10DCD14538BFD1468CB982
:103190000024BBF1000F25DA4BE03B681A1D1978BB
:1031A0003A603046FFF7E8FEBFE709F10109B2FBDC
:1031B000F1F2E7E7BBF1000F05F0020225DB68073B
:1031C00050D452B9E90740F1B18005F00302022A58
:1031D0003FD1BAF1000F3CD10CE0BAF1000F05D09D
:1031E000EA0717D569072AD52B2125E005F0030248
:1031F000022A2ED1A1452CD2013C30213046FFF7C6
:10320000BBFE2CB3A145F7D123E0013C72B9EB071B
:103210000FD474B14C45BCD9013C20213046FFF796
:10322000ABFE002CB4D0A145F6D1B2E7BAF1000F45
:10323000EDD1CBF1000B2D213046FFF79DFE05F0BF
:103240000302022A05D1BAF1000F02D1002CD1D11C
:103250000024CDE9004553460A2259463046FFF77F
:103260009BFE62E7013C22B9E807BBD4002CD1D118
:10327000B8E7BAF1000FB5D0F6E739680A1D3A6031
:10328000CDE9004553460A220968E7E739680A1D77
:103290003A605346CDE900451022F5E73B681A1D18
:1032A0003A6015F00105D3F8009024D1B9F1000F70
:1032B00003D0484602F030FA0546AC421DD809F169
:1032C000FF3919F8011F00293FF42FAF3046FFF7EF
:1032D00053FEF6E730460135FFF74EFE19F80510AC
:1032E0000029F7D1A542BFF420AF20213046013C90
:1032F000FFF742FEF6E70025F0E720213046013CCB
:10330000FFF73AFED9E73B681A1D3A603021304694
:103310001C68FFF731FE78213046FFF72DFE0022B2
:103320000823CDE900322146102297E74C453FF6AD
:1033300073AF57E703B0BDE8F08F00BF13B50B467E
:10334000114680B9104B1148114AC01A0E23C0080B
:103350000093104B0004104940F0010000F093FD71
:103360000E2002B010BD4BB9074B08480B4AC01ADB
:10337000C0080E2300930004064BECE703601B68B3
:1033800002B0BDE8104018474C5800008C580000AF
:10339000EC5900009B5B0000F1590000205A00002E
:1033A0002DE9F743DDF8288088B9474B4748484A5C
:1033B000C01A0E23C0080093464B000440F00100E1
:1033C000454900F060FD0E2003B0BDE8F0834AB926
:1033D0003D4B3E48414AC01AC0080E2300930004EA
:1033E0003C4BEBE7D0F800E0BEF1000F0FD1364BBD
:1033F00036483B4A3849C01AC0080824000440F047
:103400000100344B009400F03EFD2046DCE77BB920
:103410002D4B2E48334AC01A0923C00800932D4B68
:10342000000440F001002C4900F02DFD0920CBE7FD
:103430004768D7F80490B3FBF9F709FB17374FB18A
:10344000214B2248284AC01AC008092300930004CF
:10345000204BE6E78F070FD01B4B1C48234AC01AAE
:103460001023C00800931B4B000440F001001A49D0
:1034700000F009FD1020A7E712F0030F09D0124B4E
:1034800012481B4AC01AC008102300930004114BB5
:10349000EBE7C768B9420DD305694C1E1C44AC422A
:1034A00008D8CDF82880DEF80C40A44603B0BDE86B
:1034B000F0436047044B05480E4AC01AC008102369
:1034C00000930004034BD0E74C5800008C580000D8
:1034D000EC590000885B0000F15900006E5A0000B2
:1034E0001A5A00002D5A0000745A00009E5A00001B
:1034F000B65A0000D95A0000F7B580B92D4B2E48B6
:103500002E4AC01AC0080E242D4B009400042D49E9
:1035100040F0010000F0B7FC204603B0F0BDD0F849
:1035200000C0BCF1000F09D1224B2348264AC01A23
:10353000C0080824224B00940004E8E74AB91D4B58
:103540001D48224AC01AC00809241D4B00940004DB
:10355000DDE74768D7F800E00EF1FF370F420FD0E4
:10356000144B15481A4AC01A1023C0080093144B74
:103570000004144940F0010000F085FC1024CBE762
:10358000C768B9420CD305694C1E0EFB0244AC421D
:1035900006D8DCF81040A44603B0BDE8F040604710
:1035A000044B05480B4AC01AC008102300930004BE
:1035B000034BDEE74C5800008C580000EC5900002B
:1035C000755B0000F15900001A5A00002D5A0000E6
:1035D000005B0000265B0000014B43600020704749
:1035E000DC5B00000846704700207047024B1868FB
:1035F000003818BF012070479003002008B502482A
:10360000FFF752FC002008BD9003002008B51046CB
:103610001A4602F0AFF8002008BD00002DE9F04185
:10362000804686B011480F4616461D46FFF733FC0C
:103630000446C8B9AA0831463846FDF767F90B4871
:10364000FFF732FCD8F8083053B101228DF8002082
:103650000C9A0592CDE90147CDE903656846984784
:10366000204606B0BDE8F0811124F9E79003002060
:103670002DE9F043814687B014480E46154698461A
:10368000FFF709FC0446F0B90746BD4215D10F48C3
:10369000FFF70AFCD9F808305BB102228DF8002050
:1036A0000022CDE90126CDE90325CDF81480684636
:1036B0009847204607B0BDE8F08306EB0730FDF7DA
:1036C0000DF90137E1E71124F3E700BF9003002073
:1036D0002DE9F84FB0F806A04579D2F800B09DF872
:1036E00028900AFB05F5043D88460BEB0301A9422F
:1036F00003F1040488BFA5EB030BB4FBFAF60746FD
:103700000AFB1644C2F800B04EB9AAEB04055D45A9
:1037100028BF5D46BBF1000F04D1BDE8F88F3F68BC
:10372000013EF1E7043408EB06003C442A46B9F1B7
:10373000000F0DD02146ABEB050B02F01BF8DA456C
:103740002E443F6855464FF0000428BF5D46E1E730
:1037500001462046EFE7FFF7AABBF8B546790146D8
:10376000721E0546002393422D6803D30024A6420F
:1037700002D8F8BD0133F6E70F682846FFF7CEFB05
:1037800001343946F3E72DE9F041078ACD1C06469E
:10379000FFF7A4FB043F3D440446B5FBF7F5D0B169
:1037A0004FF48073EDB2C7808380013D0660804690
:1037B0000027AF4210D23046FFF790FB40B163794B
:1037C000013363710137C8F8000006608046F0E7F6
:1037D0002046FFF7C2FF00242046BDE8F08101210A
:1037E0000430FFF740BB10B5012104460430FFF759
:1037F00046FBC0B220B92046BDE81040FFF7ADBF80
:1038000010BD1FB503920022009203AAFFF760FFCC
:1038100005B05DF804FB1FB503920122009203AAD4
:10382000FFF756FF05B05DF804FB20BF40BF20BF87
:103830007047836800225A60C3E904229A60DA6004
:103840001A60704770B5446806460D46206818B186
:10385000B3682946984718B923682B60256070BD66
:103860002468F3E74368186808B102681A60704773
:103870004368186870474368186800B97047884201
:1038800003D102681A600120704703460068F4E71C
:103890007047000007B5044B0093044A402300F032
:1038A00034F803B05DF804FBB13800009403002045
:1038B0002DE9F84388461446B2B1104B104D03264B
:1038C000002743F00109224608EB0701002001F020
:1038D000A1F90744241A60B92B782BB14FF47A4030
:1038E000C847013E02D12E70BDE8F88301232B703A
:1038F000E9E701232B70002CE5D1F5E7005C00001F
:10390000D4030020704701F0B1B9F0B595B01D4661
:10391000164608460C46FFF762FF1A9B0D93CDE949
:10392000086500252B46082205A920460A958DF832
:103930002C500C95FFF76FFF079B0293069B039398
:103940009DF814308DF8115003F00302012A1DD1A7
:10395000BDF81420059DC3F3C203C2F383168DF88E
:103960001030B20008230EA92046FFF754FFC5F31C
:10397000952508AB0093324602AB0EA9284600F00D
:103980004FFB2046FFF72FFF15B0F0BD022AF8D1FC
:10399000BDF81650C3F3C203C5F389158DF8103076
:1039A0000827082D2E4628BF08263B4632460EA97A
:1039B0002046FFF730FFAD1B08AB02AA31460EA828
:1039C000374400F091FB002DEBD1DAE708B5FFF7A3
:1039D0009AFF0448042100F093FA034B01225A7124
:1039E00008BD00BFA458000034000020037813F085
:1039F000040215D003F00303012B03D0022B09D0DE
:103A0000012070470B6802880233C2F3831213440B
:103A10000B60F5E70B684288023303EB9213F7E77C
:103A2000104670472DE9F04F414C884685B0054659
:103A3000871C00201646FEF7F3F86268C8F80020DD
:103A4000A36803F580739B1A04F21C4804F5836A8B
:103A500004F21449BB4217D30021002E63D005F0B5
:103A60000F05AD0145F0050565F30F016368DAB296
:103A700003323B4444F8221000206360FEF7D2F882
:103A8000012005B0BDE8F08F01214046FFF7EBF9BA
:103A90005046FFF703FA4846FFF700FAA068009087
:103AA000C0B2033004EB80006946FFF79FFF20BBE4
:103AB000009BDAB204EB8202D16801919A1C0133B7
:103AC000DBB204EB83030092D3F80CB001F00303E4
:103AD000012B20D0022B13D083464846FFF7E1F993
:103AE00008B1009BA36059464046FFF7BCF9A368A4
:103AF000626803F580739B1AACE79DF80000D0E77D
:103B0000BDF80630C3F3891303334FEA1B4B02EBB6
:103B100093030093E1E7BDF80430C3F383134FEA46
:103B20001B4B1344F5E7AD0545F006019EE700BFCA
:103B3000D8030020064B074810B500221A70FFF783
:103B40000AFE044610B90448FFF773FE204610BD74
:103B5000D8030020385800003C5C000030B50A4C07
:103B600071B10A4A0A49121BD20800239A4201D1B4
:103B7000002030BD31F82350854202D00133F5E7F3
:103B8000034654F83300F4E74C580000A4580000F2
:103B900014000020094B013903EBC000032909D8A8
:103BA000DFE801F0020A040602207047007970473E
:103BB0004079704700207047042070474C5800003F
:103BC00070470000034BD3E90130C31A58425841F3
:103BD000704700BFD80300202DE9F04385B0FFF700
:103BE000F1FF002874D1724CC4F81804BFF34F8F52
:103BF000A0680090C0B2033004EB80006946FFF774
:103C0000F5FE009B18B1D4F81824002A5CD0DAB273
:103C10009F1C013304EB8202DBB204EB8303D26806
:103C2000DB68029302F00303022B0192009758D144
:103C3000BDF806305F48C3F389184646502E28BFAA
:103C4000502666F38F1306F10801ADF80630FFF732
:103C50009AFD0546002800F09580FFF7C0FD00237F
:103C600001A908222846FFF7CCFDFB43DBB2013354
:103C7000F9B20331B6EB830F4FEA830904EB8101FC
:103C80002CD908234A46A6EB09062846FFF7B9FDBA
:103C9000F6B2494909F10803324608F103082846FB
:103CA00007EB9807FFF7ADFD0097D4F81834D4F868
:103CB0001064002B55D02846FFF795FDFFF782FFD3
:103CC00080F00100C0B204E062689A4204D8A260A9
:103CD000002005B0BDE8F083D8B28CE70823324657
:103CE000DBE7012B4ED1BDF804303248C3F383111A
:103CF000062928BF062161F38913023101F00F0163
:103D00008900ADF80430FFF73EFD0546002839D0A4
:103D1000FFF765FD0023082201A92846FFF771FD82
:103D20000026BDF80420C2F38312B300B24203F1AF
:103D30000803BAD900994A1CC9B20331009204EBB6
:103D4000810104222846FFF75CFD0136E9E7F368AC
:103D50005B7923B1336829461B6830469847F3687E
:103D60001E68002EF3D12846FFF73DFD3046FDF7D3
:103D700057FFD4F818340BB9009BA3600020FDF75F
:103D800051FF9BE7D4F8104454B90C4B0C480D4933
:103D9000C01AC008000440F0020000F05DF88DE792
:103DA000236820469B689847E3681C68ECE700BFDF
:103DB000D803002038580000E40300204C580000CD
:103DC00074580000245C00002DE9F34704460E46B9
:103DD000924601A9012218469946FFF723FE1C4F7F
:103DE00010B3019D4FF00008AA1CC84508EB020162
:103DF00025D118480021FEF7EFFF80F310000004E2
:103E000040EA1440E4006B1C04F03804DBB2EDB26D
:103E100044F0010407EB8303033544EA881444EAC1
:103E20008624D86047F825403B781BB1FFF7D4FEC5
:103E30000028FBD1FFF7C4FE02B0BDE8F087C9B28D
:103E400007EB81015AF82830CB6008F10108CCE774
:103E5000D8030020F407002000231A46FFF7B4BF60
:103E600007B50123019201AAFFF7AEFF03B05DF889
:103E700004FB07B5CDE9002302236A46FFF7A4FF40
:103E800003B05DF804FB1FB5CDE90123069B039346
:103E900001AA0323FFF798FF05B05DF804FB1FB5E7
:103EA000CDE90023069B0293079B03936A460423F4
:103EB000FFF78AFF05B05DF804FB7FB5CDE901236C
:103EC000089B0393099B04930A9B059301AA05236E
:103ED000FFF77AFF07B05DF804FB7FB5CDE900235B
:103EE000089B0293099B03930A9B04930B9B0593E6
:103EF0006A460623FFF768FF07B05DF804FB000081
:103F000030B50F4CD4F8102403460020114631B9C7
:103F1000D96808717AB9C4F810340A600AE0C9682F
:103F20000D79854201D00968F1E701300A28EDD109
:103F30004FF0FF3030BDD26814680C601360F9E7B1
:103F4000D803002038B5084B0125D3F810441D7064
:103F500004B938BDE3685D71236820465B68984703
:103F6000E3681C68F4E700BFD803002010B5037AAB
:103F7000052B0C460FD0437A23B1084A0849204646
:103F8000FEF7ECFF07492046FEF7E8FF2046BDE8B4
:103F90001040FEF7D8BF002AF8D0F3E7485C0000D5
:103FA0004D5C00006D5C0000C38873B504460D468F
:103FB00033B1144A00921449144A2846FEF7CEFF42
:103FC000217A05291CD0637A4BB1A088FFF7E2FD66
:103FD0000F4B104953F820202846FEF7BFFF227AE6
:103FE0000D4BA08853F822600021FFF7B7FD0B4965
:103FF00003463246284602B0BDE87040FEF7AEBF29
:1040000002B070BD485C0000585C0000505C0000CD
:10401000D05C00004D5C0000F45C0000705C0000AF
:104020002DE9F04385B01F460C9D002395F80C90B8
:104030002B7306460C46904629463846FFF7B4FFD8
:10404000B8F1060F09D8DFE808F00412181F28336A
:10405000400031462846FEF781FF002229463846B7
:10406000FFF784FF85F80C9005B0BDE8F083226867
:1040700031462846FEF772FFEFE7D4E900233146C8
:104080002846FEF76BFFE8E7A3680093D4E9002316
:1040900031462846FEF762FFDFE7E3680193A36835
:1040A0000093D4E9002331462846FEF757FFD4E7B2
:1040B00023690293E3680193A3680093D4E9002382
:1040C00031462846FEF74AFFC7E763690393236931
:1040D0000293E3680193A3680093D4E90023314677
:1040E0002846FEF73BFFB8E708292DE9F84F804640
:1040F0000E4617461C463BD8002593F80C901D73BE
:1041000019461046FFF750FFDFF880A0DFF880B0B7
:10411000AE422FD918F8052059462046FEF71EFF5B
:104120000135082DF4D11B49DFF86CB02046FEF7AD
:1041300015FF4FF0000A564523D918F80A507E2D76
:104140001DD8284601F0A1FA002814BF2A462E22C5
:1041500059462046FEF702FF0AF1010ABAF1080F9C
:10416000E9D1012221463846FFF700FF84F80C9080
:10417000BDE8F88F51462046FEF7F0FED0E72E222C
:10418000E6E706492046FEF7E9FEE5E77A5C00002F
:10419000CC6100007E5C0000805C00007C5C000064
:1041A0000649074BC1F81435064B5A7C064B013AB9
:1041B00043EA0243C1F81835704700BF00100040C1
:1041C000060003004000002020000001074A084BC1
:1041D000C2F81435074B5B7C013B40EA034343EADA
:1041E000002040F08070C2F81805704700100040B1
:1041F00000010100400000200F4B10491A7AC1F85D
:104200001025042A16D8DFE802F00E03150E03006D
:104210000B4A302111600A4998890A683E3290425F
:1042200004D301207047064A4921F3E70A683E3269
:104230009A81F6E700207047F80F00200010004038
:1042400068090020044A0023C2E910339364034A3A
:10425000C2E91033936470475C0D0020C00A00204F
:1042600038B5104D104C2B68C4F800320F4A104B73
:10427000D07C1B6898470F4BC4F804350023C4F862
:10428000103101232361D4F81031002BFBD000231F
:10429000C4F810312B6843F00403C4F80032012342
:1042A000636038BD3C00002000100040F80F002083
:1042B000600900207C0A00200B4B0C4A1B6810B5DB
:1042C0000B4C43F00403C4F800320A4BD07C1B684B
:1042D0009847094BC4F80435084B094A1A60094B42
:1042E00004221A7010BD00BF3C000020F80F00200F
:1042F00000100040600900207C0A002064090020B2
:10430000C94300001810002007498B6893FAA3F3F3
:10431000064A1BBAC2F82435CB6893FAA3F31BBA3A
:10432000C2F82835704700BF400000200010004050
:104330002DE9F8431F4BDFF880901A78012A804658
:104340000F4609D199F80030202B30D81B4A116C48
:1043500052F82120137006E0184A116C52F82120FF
:10436000597811BB1170154D15492C6C55F8246006
:104370003046013410F8052B01F0FCF9114B86F89A
:104380000180D3F84835B37099F801303771DB43B9
:1043900003F00103F370AB6C102C28BF0024013331
:1043A0002C64AB640120BDE8F883DB7CD2E70020FD
:1043B000F9E700BFF80F00207C0A0020C00A0020A7
:1043C0007E0A002000100040664A2DE9F84FD2F81E
:1043D00000341BB9BDE8F84FFFF742BFDFF8889102
:1043E000D9F848300F2BF5D8D2F808345F4CDFF8F5
:1043F0008081D2F80C5434F8231098F801008D42D3
:104400004FEA50024FEA830534D16119897891420D
:1044100015BF4FF0010A4FF0000A00210121DFF81B
:1044200044E16619B270DEF80C2424F82320514AC6
:10443000137D1BB3C30721D4FFF712FFBAF1000F9E
:1044400016D0484BD3F80804D9F848302C440F2B29
:10445000A1780DD8C0B2FFF76BFF48B1464A136888
:1044600043F004031360454B4FF48012C3F800215E
:10447000BDE8F88F4FF0010A0021D0E7404B414ED4
:104480001B6843F00803CEF800321778002F5FD086
:10449000012F41D13C4F3D48BA6C002A51D0DEF883
:1044A0000834DFF8ECC05CF82330002B49D0DEF88C
:1044B0000834DFF8E0B05CF823301B68CBF800303C
:1044C0006319DB78A3B199B9DEF808E45CF82E3003
:1044D000013A19719B684CF82E30BA6452B303B19B
:1044E0001B68254ACBF80030136843F001031360C2
:1044F000DBF8007002686319F7B10121D9703878D0
:104500009047DBF80010244811F8052B327001F0B9
:1045100031F998F801307370204B05221A70114B55
:10452000D3F80824C3F82C25C3F804651C4B1D4A96
:104530001A6083E70B46D4E7DF7038469047377040
:10454000E7E763190027DF70036838469847F6E706
:104550000E4B38461B68984798F8003033707770D8
:10456000DAE700BF00100040C00A002070090020F8
:104570007C0A0020F80F00209809002000E100E0EC
:104580003C0000209E0A00205C0D002060090020F5
:104590009C09002014100020A00A00201810002000
:1045A00064090020B9420000124BD3F8002132B157
:1045B000D3F80423D00744BF0022C3F80021D3F866
:1045C0000C2132B1D3F80423110744BF0022C3F8F1
:1045D0000C21084BD3F8102152B1D3F80423D20692
:1045E00006D50022C3F81021034B1B6803B11847FE
:1045F000704700BF0010004064090020114B1248B2
:104600004FF4705210B5C3F80825104B00241C70ED
:104610000F4B21461C70FFF715FE202201F0DCF83D
:104620000C4B1C605C600C4B4FF48012C3F8802074
:10463000BFF34F8FBFF36F8F084B0322C3F80022E5
:10464000204610BD00F00140700900201810002025
:10465000191000209009002000E100E00010004047
:10466000F8B50446002800F0E080724D2B78002B4E
:1046700040F0B580704B62681A60704A234604F1BE
:104680001807164618685968144603C40833BB4215
:104690002246F7D100246A4B6A481C60202221463A
:1046A00001F09AF8684BB27A1C605C60674BC3F803
:1046B0000C25FFF7A1FD3378654A002B00F09580AB
:1046C000012B00F09680737A012B00EA040000F0C1
:1046D0009F80022B00F08F80002B00F0A080002331
:1046E00000EA03041368F07C9847002C00F09F80D8
:1046F000564B584958484FF0E732C3F81C254FF045
:104700004332C3F82025554AC3F82425544AC3F838
:104710002825FFF797FD0A4600230133102B40F8A8
:10472000042B02F12502F8D14E4A4F4800230133F1
:10473000102B40F8042B02F12502F8D100224B4B3C
:1047400014460132102A19601C719C6001F1250188
:1047500003F10C03F5D120220021454801F03CF87B
:10476000444A45490423C2F8103540F20223C2F8F6
:104770000845C2F80032414BC3F86015C3F8642500
:10478000A2F50E42FC3AC3F8682502F50F420C323E
:10479000C3F86C2502F59872C3F87025A2F5114292
:1047A000303AC3F8742502F511423432C3F8782543
:1047B000264AC3F87C25737C314A5B01DBB282F860
:1047C0000133B37C5B01DBB282F814334FF4801306
:1047D00013602C4B1C7001232B70002004E0FFF7AA
:1047E0000DFF00283FF446AFF8BD274B13600124AE
:1047F00069E7264BFAE715494FF6FF74C1F83C45C7
:10480000234CC1F838451149C1F83435012367E715
:104810000E49FF24C1F83C4540F20714F1E70B496B
:10482000C1F83C35C1F83835EDE70E20DCE707204C
:10483000DAE700BF1910002010100020F80F002048
:104840009809002070090020900900200010004005
:1048500060090020A80D00205C0D0020E743C32361
:10486000A363E3130C0B0020C00A0020BC09002046
:104870009C09002000A000400011004000F0014011
:1048800000E100E018100020CD410000A14100002F
:104890002110010037B5174B1B680193164B1B788D
:1048A0002BB3164B0221C3F88010BFF34F8FBFF319
:1048B0006F8F13480022056802601960114C23684D
:1048C000ABB1E90703D58DF8002068469847AA07E1
:1048D00005D501238DF800306846236898476B079B
:1048E00005D502238DF8003068462368984703B049
:1048F00030BD00BF6C0900201910002000E100E06D
:104900009809002010100020194B1B7870B54BB38C
:1049100050B3184CA36C4BB3174D0226C5F88060FA
:10492000BFF34F8FBFF36F8F636C54F823100A7877
:1049300002704B78437091F9023083700B790371E8
:10494000CB78C3700531053000F014FF636C013380
:10495000102B28BF00236364A36C013BA3642E606B
:10496000002070BD0820FCE70E20FAE70520F8E7DC
:1049700019100020C00A002000E100E010B51A491B
:104980000B7803F0FF0063BB184B194C4FF0FF325C
:10499000C3F80823174AC3F810011460164A1268B6
:1049A00042F00402C3F800221022C3F804230422B8
:1049B0000A70124A917CC3F83015D27CC3F80825DE
:1049C0000F4AC3F804250F4A0221C2F88011116072
:1049D0000122C3F80401C3F80801C3F810015A60AA
:1049E00010BD1120FCE700BF18100020001000408F
:1049F000C9430000640900203C0000204000002062
:104A00007C0A002000E100E0094B1B7873B1094AE1
:104A10000221C2F88010BFF34F8FBFF36F8F064B98
:104A200000209864C3E910001160704708207047A7
:104A30001910002000E100E05C0D0020094A127806
:104A4000034602F0FF004AB953B1074A1B681360DE
:104A500093FAA3F3054AC2F81C357047112070473A
:104A60000E20704718100020400000200010004069
:104A7000094A1278034602F0FF004AB953B1074AC7
:104A80001B68536093FAA3F3054AC2F820357047B8
:104A9000112070470E2070471810002040000020A1
:104AA0000010004038B50F4B1B780C4603F0FF0593
:104AB00093B998B1082913D80A4601460A4800F06C
:104AC00059FE0A4AFF231474C4F108042341937465
:104AD000FFF71AFC284638BD1120FCE70E20FAE744
:104AE0000720F8E7181000204800002040000020B0
:104AF000074A1278034602F0FF0022B9642B04D85B
:104B0000044AD3747047112070470720704700BFD4
:104B100018100020400000200369C26893429CBF27
:104B200081685B18013B981A70472DE9F041D0E984
:104B300002840546A8EB04064068964220440F46CE
:104B4000144404D900F016FEEC60BDE8F081324652
:104B5000A4EB080400F00EFE68682246B919F1E7DC
:104B60002DE9F843C5680646894617464FF0000808
:104B70003369B46870689D4228BF1B19641BBC422E
:104B800003F1FF3328BF3C465B1B9C4228BF1C46F9
:104B900049462844224600F0EDFDB3682544AB4267
:104BA00008BF00253F1BA044A144F560E0D140466A
:104BB000BDE8F88310B5114C114AA2610223C4E983
:104BC0000433104BE361A2644FF400730E4A0F49A3
:104BD0002362E26400231022E01DA3626362E362A9
:104BE000A3656365E365226500F0ACFD08492046D6
:104BF00000F0A8FD2023A37110BD00BF2C120020DF
:104C0000085D00002A1000201A100020115D00002D
:104C1000155D0000F8B5144B182700FB07751D44FF
:104C200007FB00330E46DB6A012B14460AD0022B29
:104C300014D023B92846FFF76FFF844208D9002417
:104C40002046F8BD2846FFF767FF844228BF044688
:104C5000224631462846FFF768FFF1E72846BDE8BF
:104C6000F840FFF77DBF00BF2C120020FFF7A2BF66
:104C700038B51E4A1E4C01784368A41AE4081D4A40
:104C8000240452F82120054644F003047BB91A4954
:104C90002046FFF7E5F82B78012B12D0032B10D01C
:104CA00023B96B6813B9154B01221A7038BD14492A
:104CB000A3F50643204651F823301249FFF7D9F8EF
:104CC000E9E76B68002BF1D1AA680F492046FFF78E
:104CD000C7F8AA890D492046FFF7C2F8EA890C49AE
:104CE0002046BDE83840FFF7BBB800BF4C58000075
:104CF00074580000486100001C5D0000A4120020F0
:104D00000C610000445D0000635D0000755D000003
:104D1000855D000010B586B00023CDE90333CDE9F1
:104D200001330593164C174B1749E41AE408240481
:104D300044F003042046FFF78FF801AB03AA47F2C3
:104D4000100148F21000FDF731FF90B90F4903A898
:104D5000FDF7FEFE48F2066290420CD10C49204657
:104D6000FFF77AF8FDF7FCFE0A4902462046FFF7F6
:104D700077F806B010BD0028FBD0FCF71DFCF8E763
:104D8000745800004C580000985D000060610000FD
:104D9000AE5D0000F05D0000F0B55D485D4C5E4D1D
:104DA0008FB0FDF771FD5D4B5D49E41AE408240402
:104DB00044F003042046FFF74FF800232B70FDF763
:104DC00079FD08B1FCF7F8FB2B78002B7AD0554918
:104DD0002046FFF741F81222002109A800F0FCFC50
:104DE00009A8FDF7F1FE08B1FCF7E6FBBDF82820A5
:104DF0004D492046FFF734F8BDF82A204B4920469C
:104E0000FFF72EF80023CDE90633CDE902330893EE
:104E100006AA02AB47F2100148F21000FDF7C6FEE9
:104E2000002851D1CDE9040004A906A8FDF742FEEF
:104E300008B1FCF7C1FB059B3D4A03F1100715467D
:104E400018685968164603C60833BB423246F7D184
:104E50001B78337037492046FEF7FEFF2A7C36491F
:104E60002046FEF7FDFFEB780193AB7800936B785B
:104E70002A7832492046FFF712F8EB790193AB7993
:104E800000936B792A792E492046FFF708F8EB7AD0
:104E90000193AB7A00936B7A2A7A2A492046FEF76F
:104EA000FEFFEB7B0193AB7B009320466B7B2A7B61
:104EB0002549FEF7F4FF06A8FDF722FE08B3FCF72C
:104EC0007BFB1EE020BF7FE720492046FEF7C4FFA2
:104ED0001F4906A8FDF738FE1E4905460246204632
:104EE000FEF7BEFF48F206639D420CD11A492046E8
:104EF000FEF7B2FFFDF734FE184902462046FEF7E2
:104F0000AFFF0FB0F0BD002DFBD02846D7E700BFA4
:104F1000714C000074580000A41200204C5800008E
:104F2000FB5D00000F5E0000315E0000495E000086
:104F300054000020815E0000985E0000A45E000026
:104F4000BF5E0000DA5E0000FB5E00001C5F000038
:104F500060610000345F00004E5F0000F05D000003
:104F600084B030B585B008AC84E80F001B4B1C48FA
:104F70009DF821409DF820501A49C01A9DF8243010
:104F80000293C0089DF82330019300049DF922305C
:104F900000932A46234640F00300FEF78EFF34B10B
:104FA000012C10D005B0BDE8304004B070470E4B66
:104FB0000E4801221A700E4B2A461C600DF1250185
:104FC00000F0D8FBEEE70B4B0B481C700B4B00229C
:104FD0001A600DF125012A46F2E700BF4C58000087
:104FE000745800006C610000B1120020E51200202E
:104FF000AC120020B0120020C5120020A812002020
:1050000038B5FCF7ADFDFF20FCF7D0FD1320FCF711
:10501000CDFD0820FCF7CAFD074D0024013415F82A
:10502000010BE4B2FCF7C2FD122CF7D1BDE8384009
:10503000FE20FCF7BBBD00BFB312002038B51D4BEE
:105040001A784AB100221A701B4A1C4B1168196069
:105050005168127A59601A72194B1A784AB10022B3
:105060001A70184A184B116819605168127A596001
:105070001A72164B1A781AB100221A70FFF7C0FF85
:105080001348144902680B68134D01320133AA42D8
:1050900002600B6005D9094C002222606260227216
:1050A0000260AB4205D9084A0023136053601372B3
:1050B0000B6038BDB1120020E5120020B3120020B1
:1050C000B0120020C5120020BC120020B212002035
:1050D000AC120020A8120020A0860100A0F17303EA
:1050E00058425841014B1870704700BFB21200205F
:1050F0002DE9F0410378012B86B03CD0022B20D162
:105100001F4E1F48FFF700FC002831D11D4CD6F878
:1051100000E0D6F804C0B268F3686D4604F11008E8
:10512000206861682F4603C7083444453D46F7D1DF
:10513000206838602179397170466146FFF710FFA9
:10514000DFE7ABB9104A114B11481249C01A92F867
:1051500024300393137A0293D379019393790093C4
:10516000C00800045379127840F00300FEF7B5FE42
:1051700006B0BDE8F08106B0BDE8F041FFF744BCE1
:105180000513002015130020650000204C58000076
:10519000745800009C61000030B5184D0FCD87B0E9
:1051A0006C460FC495E80300012384E803008DF8E2
:1051B00001306846124B0193FFF752FA08B1FCF731
:1051C000FBF9104B187CFFF793FC08B1FCF7F4F9DE
:1051D0000C48FFF733FC08B1FCF7EEF90A48FFF77B
:1051E00047FC08B1FCF7E8F908480821FFF75AFC2A
:1051F00008B1FCF7E1F907B030BD00BFD461000091
:10520000F150000054000020580000205C000020F5
:1052100008B5FFF7B3FB18B1BDE80840FCF7CCB9FF
:1052200008BD00002DE9F74F0778012F00F0BC8181
:10523000022F00F0B28127BBBF4CC04EC04D2046AC
:10524000FCF79EFC30782278BE4B00F0FF01D8B905
:10525000FF2A14D101223270BB48297040221970F4
:1052600000F0BAFAB948BA4BBA49C01AC0080004EB
:1052700040F0030003B0BDE8F04FFEF7EDBD29702C
:10528000197003B0BDE8F08F297801F0FF00D9B99B
:10529000B1490A700A78082A84BF307028700A78E9
:1052A000AE48825C1A700A78A848A9491B78401A4F
:1052B000C0080004AA4940F00300FEF7DAFD2B788D
:1052C0000133DBB22B70DCE729781B78994240F27E
:1052D0005E81FE2A3BD19E4B9C4CDFF87C82A1492B
:1052E00098F80020E41AE408240444F0030420465B
:1052F000FEF7B6FD98F800805FFA88F8B8F1080F5D
:1053000025D8DFE818F00900280061007800A20025
:10531000C500EF00FD003F01FCF722FCFF20924C8E
:10532000FCF744FC0520FCF741FC0020FCF73EFCA8
:105330002078FCF73BFC6078FCF738FCA078FCF7A1
:1053400035FCE078FCF732FCFE20FCF72FFC002354
:1053500033702B70B3E7DFF810A2DFF8ECB1FCF785
:10536000FFFB82490022D1469BF800300192204683
:10537000FEF77FFD1BF8013B1AF8010B019A7B49F0
:10538000834202F101021CBF0AF8013C4746042A8D
:10539000EAD10FB1FFF7BEFCFF20FCF707FC0520A8
:1053A000FCF704FC0120FCF701FC99F80000FCF775
:1053B000FDFB99F80100FCF7F9FB99F80200FCF7F6
:1053C000F5FB99F80300BDE7FCF7CAFBFF20FCF7EB
:1053D000EDFB0520FCF7EAFB0220634CFCF7E6FB43
:1053E0002079FCF7E3FB6079FCF7E0FBA079FCF7A0
:1053F000DDFBE079A6E7FCF7B3FBDFF84CA1DFF8B3
:105400007091DFF870B14FF0000842469AF8003012
:1054100059462046FEF72DFD1AF8013B19F8012FD9
:1054200008F101089A421CBF89F800300127B8F141
:10543000040FEAD10FB1FFF76DFCFF20FCF7B6FBBC
:105440000520FCF7B3FB0320C7E7FCF789FBFF202F
:10545000FCF7ACFB0920FCF7A9FB0420424CFCF74D
:10546000A5FB207AFCF7A2FB607AFCF79FFBA07AF1
:10547000FCF79CFBE07AFCF799FB207BFCF796FBA2
:10548000607BFCF793FBA07BFCF790FBE07B59E78C
:10549000FCF766FBDFF8B090DFF8DCA0DFF8DCB0EB
:1054A0004FF00008424699F8003059462046FEF772
:1054B000E0FC19F8013B1AF8012F08F101089A42A3
:1054C0001CBF8AF800300127B8F1080FEAD10FB1EC
:1054D000FFF720FCFF20FCF769FB0920FCF766FBC7
:1054E0000520BBE7FCF73CFBFF20FCF75FFB02203D
:1054F000FCF75CFB0620FCF759FB1B4B187C21E7F3
:10550000114FFCF72DFB2046174C3A781C49FEF74B
:10551000A7FC3B78227C9A4202D02374FFF7FAFB67
:10552000FF20FCF743FB0220FCF740FB0720FCF7C1
:105530003DFB207C06E700BF8A000020AD14002060
:10554000AC140020AB140020AE14002074580000EE
:105550004C580000EC610000AA1400208B000020D1
:10556000FB61000010620000540000201B6200007C
:10557000570000203A6200005B00002059620000E2
:105580007A6200000C4B1878FFF7A8FDDFE6297857
:10559000094B0B4403F8012C91E60848084B0949D4
:1055A000C01AC008000463E60448054B0649C01A47
:1055B000C00800045CE600BFAE1400207458000070
:1055C0004C5800009B620000B662000030B5124DDE
:1055D0000FCD8BB004AC0FC4104B009395E80300C3
:1055E0004FF4807301930E4B0293802384E80300F1
:1055F0000C4A03936946072304A8FCF759FA4FF0B5
:10560000A0430C22C3F87827C3F8702708B1FBF732
:10561000D3FF0BB030BD00BFC8620000AA1300204A
:105620002A1300202552000084460020002918BFBC
:10563000002A00D17047097848B2002844BF6FF0B3
:1056400001007047BCF1000F18BFCCF8001000211A
:10565000C3E90011002818BF012070477F298EBFC1
:105660006FF0010001700120704741F2F042C2F278
:1056700000021368002B02BF40F29403C2F2000341
:1056800013605A689268126810470921FFF7EDBF4E
:105690007F2884BF0020704746F27442C0F20002A7
:1056A000105C46F2F442C0F20002515C08407047C0
:1056B000A0F161011A2938BF20387047A0F14101DB
:1056C0001A2938BF203070477F2884BF00207047D8
:1056D00046F27442C0F20002105C46F2F442C0F29C
:1056E0000002515C08407047A0F161011A2938BFDF
:1056F00020387047A0F141011A2938BF2030704787
:10570000082938BF70470022C0E9002141F2F44166
:10571000C2F20001086070470178002904BF002030
:10572000704700214FF001324358C2FA53F304315D
:10573000002BF9D093FAA3F0B0FA80F001EBD0007F
:10574000043870470246F0B44FF00137FB0151F8BE
:10575000044BE51BA5431D4002D142F8044BF6E77C
:105760000439F0BC11F8013B02F8013B002BF9D1E0
:10577000704700BF5AB3844690EA01039B071FD1CC
:10578000830707D011F8013B00F8013B013AF7D13C
:105790001CE08446203A09D32DE9F007B1E8F80768
:1057A000A0E8F807203AF9D2BDE8F0071C3205D48A
:1057B00051F8043B40F8043B043AF9D2043205D0D6
:1057C00011F8013B00F8013B013AF9D160467047FE
:1057D00000220B0011001A0084465AB3830704D03C
:1057E00000F8011B013AF9D124E0C9B241EA0121D4
:1057F00041EA0141202A11D3203A2DE9F0030B465A
:105800000C460D460E460F4688468946A0E8FA0328
:10581000203AFBD2BDE8F00320320BD0042A05D396
:1058200040F8041B043A05D0042AF9D200F8011B01
:08583000013AFBD1604670470C
:1058380090080020580900206009002098080020DE
:045848001800000044
:10584C001259000000000000185900000000000070
:10585C001F59000000000000235900000000000048
:10586C002859000000000000355C00000000030314
:10587C0054590000000000000C590000000000000A
:10588C00AD5B000000000303E85B000000000000BB
:08589C00F15B000000000000B8
:1058A400085C000000000000145C000034000020CC
:1058B400000000000000000061270000000000005C
:0458C40000000000E0
:1058C8005541525420494E49540A004644532049F0
:1058D8004E49540A00456E68616E636564205368DA
:1058E8006F636B4275727374205265636569766580
:1058F8007220494E49542E0A004553422053746180
:1059080072740A00636C6F636B00434C4F434B0027
:105918004750494F54450050525300554152540086
:10592800554152544500466174616C206572726F2E
:10593800720053797374656D207265736574000025
:1059480000000000B0010020B11600006170705F17
:1059580074696D657200010006000000FFFFFFFF1B
:10596800FFFFFFFFFFFFFFFFFFFFFFFF000000003B
:10597800000000000000D601060100005254432038
:10598800696E7374616E636520616C7265616479B8
:1059980020696E697469616C697A65642E00525475
:1059A800433A20696E697469616C697A65642E008E
:1059B80000000000000000000738FDD87047000014
:1059C8000000FFFFDEC0ADDEFE011EF1DEC0ADDE71
:1059D800FF011EF130313233343536373839414220
:1059E80043444546705F66730025732063686563AA
:1059F8006B206661696C656420696E2025732829AF
:105A080020776974682076616C7565203078257810
:105A18002E00705F66732D3E705F61706900705F65
:105A280064657374006C656E00616464725F6973A9
:105A38005F616C69676E656433322873726329002D
:105A4800616464725F69735F77697468696E5F62C5
:105A58006F756E647328705F66732C207372632C85
:105A6800206C656E2900705F7372630021286C6575
:105A78006E202520705F66732D3E705F666C6173C3
:105A8800685F696E666F2D3E70726F6772616D5FD9
:105A9800756E69742900616464725F69735F616C13
:105AA80069676E65643332286465737429006164BC
:105AB80064725F69735F616C69676E65643332280D
:105AC8002875696E7433325F7429705F7372632945
