:10000000006000204902000001020000030200001D
:1000100005020000070200000902000000000000C5
:100020000000000000000000000000000B020000C3
:100030000D020000000000000F020000110200008D
:1000400049170000155B0000211C0000130200008E
:100050001302000000000000D51A0000791C000007
:10006000130200001302000013020000130200003C
:10007000130200001302000013020000130200002C
:100080001302000075330000130200001302000089
:10009000F55D0000130200001302000013020000CF
:1000A0001302000013020000000000000000000026
:1000B0001302000013020000000000000000000016
:1000C0000000000000000000000000000000000030
:1000D0000000000000000000000000000000000020
:1000E0000000000000000000000000000000000010
:1000F0000000000000000000000000000000000000
:1001000000000000000000000000000000000000EF
:1001100000000000000000000000000000000000DF
:1001200000000000000000000000000000000000CF
:1001300000000000000000000000000000000000BF
:1001400000000000000000000000000000000000AF
:10015000000000000000000000000000000000009F
:10016000000000000000000000000000000000008F
:10017000000000000000000000000000000000007F
:10018000000000000000000000000000000000006F
:10019000000000000000000000000000000000005F
:1001A000000000000000000000000000000000004F
:1001B000000000000000000000000000000000003F
:1001C000000000000000000000000000000000002F
:1001D000000000000000000000000000000000001F
:1001E000000000000000000000000000000000000F
:1001F00000000000000000000000000000000000FF
:10020000FEE7FEE7FEE7FEE7FEE7FEE7FEE7FEE7C6
:10021000FEE7FEE709480068094909680A280AD18B
:10022000002908D1074802686FF070031A404FF0A8
:1002300040031A43026000F009B8000030010010CA
:1002400034010010E40E0040FFF7E4BF0B484FF00C
:100250000701884385460A48804700F019B80948D5
:1002600009490A4A884207D0521A05D0037801305A
:100270000B700131013AF9D1704700000060002095
:10028000C904000064650000000000201400002084
:1002900039493A480A1A02D0072291438D46384913
:1002A00038480A1A06D00722914381F309880222AE
:1002B00082F3148834483549354A00F03EF8354811
:1002C0003549364A00F039F835483649364A00F0A3
:1002D00034F836483649374A00F02FF8364837495F
:1002E000374A00F02AF837483749384A00F025F8ED
:1002F00037483849384A00F020F838483849002251
:1003000000F033F837483849002200F02EF837481B
:100310003749091A05F0E0FF364A90472448254935
:10032000884205D00268043003B4904703BCF7E765
:1003300000200021304A9047FEE7884214D0521A2C
:1003400012D003460B4313430324234206D1036810
:1003500004300B600431043AF9D17047037801305E
:100360000B700131013AF9D17047884202D0027016
:100370000130FAE7704700000060002000580020BC
:1003800000600020006000203C720000140000208B
:10039000EC000020FC030000FC030000E06400000F
:1003A0003C7200001400002014000020786500005A
:1003B00078650000786500007865000078650000C9
:1003C00078650000786500007865000039720000EB
:1003D00014730000EC000020EC000020EC00002072
:1003E00010200020102000201020002010200020CD
:0C03F000102800205F020000FD03000048
:1003FC0008B500F0C7FF08B102F0DAFA002001F0EE
:10040C0015F8002000F0E0FF01F07EF80028FBD08A
:10041C0001F004F80028F7D002F0D6FB08B102F086
:10042C00C7FA4FF48041002004F0B2FD08B102F08D
:10043C00BFFA04F0FDFC164C00F060FF154B16499A
:10044C00E41AE408240444F00304204604F032FFC8
:10045C0000F07CF91149204604F02CFF00F00EFD51
:10046C000F49204604F026FF00F0A4FC0D4920465D
:10047C0004F020FF00F00AFC0B49204604F01AFFA0
:10048C0004F0D8FD0028FBD104F0FFFBF8E700BF17
:10049C0024650000F46400007865000083650000AA
:1004AC008D650000B4650000BF650000024AD2F8FB
:1004BC000034002BFBD0704700E001404FF080531C
:1004CC0010B5D3F830210A2A5BD1D3F844224FF06F
:1004DC008041C2F34232C1F83C250022C1F80C2104
:1004EC00C1F81021C1F83825484AD3F80404C2F8E1
:1004FC002005D3F80804C2F82405D3F80C04C2F87C
:10050C002805D3F81004C2F82C05D3F81404C2F84B
:10051C003005D3F81804C2F83405D3F81C04C2F81B
:10052C004005D3F82004C2F84405D3F82404C2F8DB
:10053C004805D3F82804C2F84C05D3F82C04C2F8AB
:10054C005005D3F83004C2F85405D3F83404C2F87B
:10055C006005D3F83804C2F86405D3F83C04C2F83B
:10056C006805D3F84004C2F86C05D3F84434C2F8DB
:10057C007035D1F80034DB0709D56FF00103C1F8F1
:10058C0000344FF08053D3F830310A2B0CD14FF09C
:10059C008053D3F834313BB14FF08042D2F8E43E73
:1005AC0043F00F03C2F8E43E4FF01023D3F80022BF
:1005BC00002A03DBD3F80432002B22DA144901237E
:1005CC004FF01020C1F804351524FFF76FFFC0F869
:1005DC000042FFF76BFFC0F80442FFF767FF0023F0
:1005EC00C1F80435FFF762FFBFF34F8F09490A4B7F
:1005FC00CA6802F4E0621343CB60BFF34F8F00BFB5
:10060C00FDE7064B064A1A6010BD00BF00C0004053
:10061C0000E0014000ED00E00400FA0514000020A9
:10062C000090D00338B51E4A1E4C01784368A41ABA
:10063C00E4081D4A240452F82120054644F0030422
:10064C007BB91A49204604F039FE2B78012B12D0C5
:10065C00032B10D023B96B6813B9154B01221A70F8
:10066C0038BD1449A3F50643204651F823301249EE
:10067C0004F02DFEE9E76B68002BF1D1AA680F4955
:10068C00204604F01BFEAA890D49204604F016FEF4
:10069C00EA890C492046BDE8384004F00FBE00BF83
:1006AC00F464000024650000646E0000D365000053
:1006BC00EC000020286E0000FB6500001A660000AC
:1006CC002C6600003C66000010B586B00023CDE916
:1006DC000333CDE901330593164C174B1749E41A34
:1006EC00E408240444F00304204604F0E3FD01ABC9
:1006FC0003AA47F2100148F2100003F09BFC90B9DA
:10070C000F4903A803F06CFC48F2066290420CD12E
:10071C000C49204604F0CEFD03F06AFC0A4902465F
:10072C00204604F0CBFD06B010BD0028FBD002F033
:10073C003FF9F8E724650000F46400004F66000000
:10074C007C6E000065660000A7660000F0B55D4891
:10075C005D4C5E4D8FB003F0E3FA5D4B5D49E41ADE
:10076C00E408240444F00304204604F0A3FD002311
:10077C002B7003F0EBFA08B102F01AF92B78002B6E
:10078C007AD05549204604F095FD1222002109A883
:10079C0005F006FE09A803F05BFC08B102F008F9AD
:1007AC00BDF828204D49204604F088FDBDF82A20CC
:1007BC004B49204604F082FD0023CDE90633CDE9F8
:1007CC000233089306AA02AB47F2100148F210005C
:1007DC0003F030FC002851D104A90490486006A80D
:1007EC0003F0B0FB08B102F0E3F8059B3D4A03F1BE
:1007FC001007154618685968164603C60833BB42DD
:10080C003246F7D11B7833703749204604F052FD3D
:10081C002A7C3649204604F051FDEB780193AB78E5
:10082C0000936B782A783249204604F066FDEB7908
:10083C000193AB7900936B792A792E49204604F009
:10084C005CFDEB7A0193AB7A00936B7A2A7A2A4996
:10085C00204604F052FDEB7B0193AB7B00932046CA
:10086C006B7B2A7B254904F048FD06A803F090FB1E
:10087C0008B302F09DF81EE020BF7FE72049204618
:10088C0004F018FD1F4906A803F0A6FB1E490546F7
:10089C000246204604F012FD48F206639D420CD13C
:1008AC001A49204604F006FD03F0A2FB1849024643
:1008BC00204604F003FD0FB0F0BD002DFBD0284600
:1008CC00D7E700BF3106000024650000EC000020D3
:1008DC00F4640000B2660000C6660000E866000022
:1008EC000067000018000020386700004F67000008
:1008FC005B6700007667000091670000B26700003C
:10090C00D36700007C6E0000EB67000005680000F8
:10091C00A7660000084803460B2203F8052B074A7C
:10092C001168C0F80510516859601189927A1981C3
:10093C009A7205F093BA00BF290000200E01002026
:10094C0010B500F057FA0A4A0A4B0B499B1ADB0800
:10095C001B040446024643F0030004F0AFFC074BB3
:10096C00220A5A729C72BDE81040FFF7D3BF00BF39
:10097C00F464000024650000C1690000F800002048
:10098C002DE9F0410F4E074600244FF0A0454FF4DF
:10099C00007846F0010647FA04F313F0010F4FF408
:1009AC000043C5F80C854FF4A07014BFC5F808358A
:1009BC00C5F80C350134B047082CC5F80885EAD1C8
:1009CC00BDE8F081906E000038B54FF0A0444FF4B4
:1009DC008045C4F80C550020FFF7D2FFC4F8085529
:1009EC0038BD00001E491F4B5B1ADB081B0410B5F9
:1009FC0002461D4943F0030004F060FC102001F096
:100A0C0007F8062001F004F8052001F001F8122087
:100A1C0000F0FEFF192000F0FBFF0022102113480C
:100A2C0002F016F90022124841F2333102F010F9AB
:100A3C004FF0A0430422C3F840270924C3F8182719
:100A4C00C3F81427C3F84827C3F86427013CFFF701
:100A5C00BBFF14F0FF04F9D1064B1C6010BD00BFA6
:100A6C00F464000024650000D269000070000020CE
:100A7C0050000020F000002030B50023934201D13B
:100A8C00012030BDC55CCC5CA54201D10133F5E73A
:100A9C000020F6E72DE9F04F6C4D6D4B85B0A94663
:100AAC00019309242E464FF0A048019B4FF4804738
:100ABC004FF0000B89F800B0C8F80C7513F8010B57
:100ACC000193FFF75DFF634BC8F8087543F0010A0B
:100ADC00614F4FF4A060D04719F8012BBE465B461E
:100AEC0001215EF804BBD8F810C52CFA0BFC01FAF6
:100AFC0003F01CF0010F18BF104303F1010314BFE6
:100B0C00C2B28243052BECD109F8012CFFF75CFF34
:100B1C00013C4FF4F060D04714F0FF04C5D1DFF86E
:100B2C003C8198F80030002B36D04D4E47490922B5
:100B3C003046FFF7A1FF60B34A4A13680133052B17
:100B4C00136014D1484B32681A6072685A6032894B
:100B5C001A81B27A9A72FFF7DDFE4448444B45493C
:100B6C00C01AC008000440F0030004F0A3FB0023EB
:100B7C0015F8011B002965D10133092BF8D13E4A28
:100B8C0013680133B3F5FA5F1CD8136005B0BDE8E8
:100B9C00F08F88F80040EAE72C4933480922FFF728
:100BAC006BFF0028E3D12E4B32681A6072685A60D2
:100BBC0032891A81B27A9A72012388F80030294B53
:100BCC001C60D4E74FF0A0441160D4F8105515F018
:100BDC000205DBD1294802F064F84FF4804628481E
:100BEC0002F05FF8C4F80C65FF20FFF7C9FE40F275
:100BFC000113C4F80865ADF80C309DF80E301B4C91
:100C0C0023F007038DF80E30194BE41AE408240482
:100C1C0044F0030457F8046B304600F01BFF194AEC
:100C2C0003A9304600F03AFE2A46034616492046F0
:100C3C0004F04DFB01350121304600F0A9FE052DD5
:100C4C00E8D1A3E70C4B00221A609FE7F8000020C4
:100C5C00966E0000906E0000A06E0000ED0000206B
:100C6C0003010020F40000200E0100202465000088
:100C7C00F4640000E5690000F00000207000002022
:100C8C0050000020F1090000F36900004FF0A04370
:100C9C00042210B54FF40041C3F80427C3F84027D1
:100CAC00C3F81827C3F81427C3F84827C3F86427D8
:100CBC000322C3F83C27C3F80C154FF48041C3F84A
:100CCC003827C3F80C15C3F824274FF40072C3F867
:100CDC000C250924013CFFF777FE14F0FF04F9D131
:100CEC00154B164A16481C60012101F09FFF08B1F4
:100CFC0001F05EFE13480022102101F0A9FF08B19B
:100D0C0001F056FE104A1148012101F08FFF08B185
:100D1C0001F04EFE0E48002241F2333101F098FFF3
:100D2C0008B101F045FE00F07FFD18B1BDE81040A0
:100D3C0001F03EBE10BD00BFF0000020A10A000073
:100D4C00B86E0000700000204D090000B46E000069
:100D5C0050000020F8B50378054603BB4068052118
:100D6C0001F03CF908B101F023FE0D4B0D4C0E4F78
:100D7C000E493A68E41AE408240444F003042046BB
:100D8C0004F09CFA00266B6809499A5F20460236EB
:100D9C0004F094FA0A2EF6D13B6801333B60F8BD9F
:100DAC00F4640000246500001C010020186A000097
:100DBC00AF6600001FB50C4A10685168127A01AB7F
:100DCC0003C30A490A481A7000F0FCFF08B101F08D
:100DDC00EFFD01A9002001F03DF808B101F0E8FD9C
:100DEC0005B05DF804FB00BFC06E0000610D000093
:100DFC00BC6E000007B500200DF1060101F084F86F
:100E0C00BDF806004FF4616310FB03F0C0F34F20F4
:100E1C0003B05DF804FB000030B50378012B85B0FE
:100E2C000BD0022B07D1114D114BED1A114C204652
:100E3C0005F0C8F840B105B030BD05F013F905B0A8
:100E4C00BDE8304005F0F8B823790293E3780193BC
:100E5C0094F902300093E80800046378227806497C
:100E6C0040F0030004F057FAE0E700BF24650000EF
:100E7C00F4640000200100202D6A000030B5164DEE
:100E8C000FCD87B06C460FC495E80300134B01934C
:100E9C0084E80300684604F093FE08B101F088FD75
:100EAC000F4B187C05F052F908B101F081FD0C488C
:100EBC0005F0F2F808B101F07BFD0A4805F006F9DF
:100ECC0008B101F075FD0848082105F019F908B1C1
:100EDC0001F06EFD07B030BDCC6E0000250E000099
:100EEC00180000201C0000202000002038B504F061
:100EFC0035FE1B4B0220C3F88000BFF34F8FBFF3AE
:100F0C006F8F4FF48061C3F88010BFF34F8FBFF326
:100F1C006F8F4FF48012C3F88020BFF34F8FBFF355
:100F2C006F8F104DC3F880010A24C3F8801145F06F
:100F3C000105C3F880214FF47A40A847013CFAD14F
:100F4C00FFF79CFFBFF34F8F0749084BCA6802F4A9
:100F5C00E0621343CB60BFF34F8F00BFFDE700BFD0
:100F6C0000E100E0F06E000000ED00E00400FA0586
:100F7C002DE9F74F0778012F00F0B181022F00F017
:100F8C00A78127BBBF4CC04EC04D204602F06CF869
:100F9C0030782278BE4B00F0FF01D8B9FF2A14D16B
:100FAC0001223270BB4829704022197005F0F8F903
:100FBC00B948BA4BBA49C01AC008000440F0030043
:100FCC0003B0BDE8F04F04F075B92970197003B087
:100FDC00BDE8F08F297801F0FF00D9B9B1490A704A
:100FEC000A78082A84BF307028700A78AE48825C70
:100FFC001A700A78A848A9491B78401AC00800043E
:10100C00AA4940F0030004F062F92B780133DBB2FB
:10101C002B70DCE729781B78994240F22C81FE2A50
:10102C003AD19E4B9C4CDFF87C82A14998F8002069
:10103C00E41AE408240444F00304204604F03EF9C6
:10104C0098F800805FFA88F8B8F1070F24D8DFE829
:10105C0018F008002700610078009F00C200EA0029
:10106C00F80001F0F1FFFF20924C02F013F805207C
:10107C0002F010F8002002F00DF8207802F00AF8C7
:10108C00607802F007F8A07802F004F8E07802F03B
:10109C0001F8FE2001F0FEFF002333702B70B4E743
:1010AC00DFF810A2DFF8ECB101F0CEFFD146002240
:1010BC009BF8003080490192204604F008F91BF897
:1010CC00013B1AF8011B019A8B4202F101021CBF71
:1010DC000AF8013C4746042AEAD11FB1FFF7F4FA9B
:1010EC00FFF704FFFF2001F0D5FF052001F0D2FF30
:1010FC00012001F0CFFF99F8000001F0CBFF99F827
:10110C00010001F0C7FF99F8020001F0C3FF99F844
:10111C000300BCE701F098FFFF2001F0BBFF0520A6
:10112C0001F0B8FF0220634C01F0B4FF207901F00C
:10113C00B1FF607901F0AEFFA07901F0ABFFE0796F
:10114C00A5E701F081FFDFF84CA1DFF870914FF0BB
:10115C00000842469AF800305949204604F0B7F886
:10116C001AF8013B19F8012F08F101089A421CBF2B
:10117C0089F800300127B8F1040FEAD1002FADD166
:10118C00FF2001F087FF052001F084FF0320CAE750
:10119C0001F05AFFFF2001F07DFF092001F07AFFDA
:1011AC000420444C01F076FF207A01F073FF607A42
:1011BC0001F070FFA07A01F06DFFE07A01F06AFF98
:1011CC00207B01F067FF607B01F064FFA07B01F0E6
:1011DC0061FFE07B5BE701F037FFDFF8B890DFF8E9
:1011EC00E4A04FF00008424699F8003036492046FA
:1011FC0004F06DF819F8013B1AF8012F08F10108F9
:10120C009A421CBF8AF800300127B8F1080FEAD1C6
:10121C00002F7FF463AFFF2001F03CFF092001F0A9
:10122C0039FF0520BDE701F00FFFFF2001F032FF71
:10123C00022001F02FFF062001F02CFF1D4B187C23
:10124C0025E7144F01F000FF20461A4C3A781F494D
:10125C0004F034F83B78227C9A420AD1FF2001F04A
:10126C0019FF022001F016FF072001F013FF207C6C
:10127C000DE7237432E72978064B0B4403F8012C55
:10128C00C3E600BF90000020C8020020C702002067
:10129C00C6020020C902002024650000F46400008E
:1012AC005D6A0000C5020020910000206C6A0000FD
:1012BC00816A0000180000208C6A00001B000020CE
:1012CC00AB6A00001F000020CA6A0000EB6A000035
:1012DC000648074B0749C01AC00800046EE60348CD
:1012EC00034B0549C01AC008000467E624650000DA
:1012FC00F46400000C6B0000276B000000B58BB091
:10130C000023CDE9063308931E221C23CDE90423C8
:10131C000E4B09930E4B00934FF4807301930D4BBE
:10132C00029380230C4A03936946052304A801F019
:10133C0033FE4FF0A0430C22C3F87827C3F8702774
:10134C0008B101F035FB0BB05DF804FB00509D00BB
:10135C00C5010020450100207D0F000038B5084B69
:10136C00051EA3F1080214BF1C46144623682BB1BA
:10137C001A6822605B6828469847F7E738BD00BFBB
:10138C001C03002070B50D4C2578ADB90C48656078
:10139C00A5602561E56000F07FF9064600F08AF94A
:1013AC00012384F820502370064BD3F800340BB182
:1013BC000123A370304670BD8526F5E70C03002091
:1013CC00B51400000000014038B5134CA378054655
:1013DC0003F0FF0073B115B16B6801209847002032
:1013EC0001F092FEE3680133E3600020BDE8384071
:1013FC0001F08CBE01F088FE25B1226913463BB981
:10140C002A602561E368002BECD100F065F9E9E76F
:10141C009D42F7D01B68F2E70C0300204FF080438D
:10142C00D3F81804C0F300407047000038B5134CD3
:10143C006378054603F0FF0073B115B16B680020AB
:10144C009847002001F060FE636801336360002060
:10145C00BDE8384001F05ABE01F056FE25B1A26835
:10146C0013463BB92A60A5606368002BECD100F0F1
:10147C0040F9E9E79D42F7D01B68F2E70C03002026
:10148C0038B5084C002001F03FFE6368013B6360F7
:10149C00656815B900F03AF96570BDE83840002070
:1014AC0001F034BE0C03002010B5044630B9144BC7
:1014BC0001225A70BDE81040FFF750BF012802D13D
:1014CC000F4B9870F6E7022804D1BDE810400D4888
:1014DC00FFF7ACBF032811D1FFF7D2FF084A002158
:1014EC0092F8203082F82010D269DBB232B1042B92
:1014FC000CBF20460220BDE81040104710BD00BFB5
:10150C000C030020200300204FF08043D3F80C0480
:10151C0000F00110A0F1011358425841704700002F
:10152C001FB503788DF800304368019383688DF8FC
:10153C000830C368054A0393054B684653F82130BD
:10154C0052F82110984705B05DF804FB34030020D5
:10155C00380300201FB503788DF8003043680193E1
:10156C0083688DF80830C368054A0393054B6846B9
:10157C0053F8213052F82110984705B05DF804FB60
:10158C003403002038030020F0B5194B90F800C04C
:10159C0091F81DE089B043F82C20164B16460A69C9
:1015AC0043F82C20144B0C4603F80CE007460FCCE8
:1015BC006D460FC594E80F0085E80F00CDF810C0FC
:1015CC00BEF1000F09D0002E0C4A694608BF324606
:1015DC00381D01F061F809B0F0BD002E084A6946CB
:1015EC0008BF324607F10C0000F032FEF3E700BFF3
:1015FC003803002034030020300300202D15000098
:10160C0061150000024AD2F80034002BFBD0704761
:10161C0000E001400A4908B50223C1F80435BFF3C4
:10162C006F8FBFF34F8FC1F80805FFF7EBFF002357
:10163C00C1F80435BFF36F8FBFF34F8F08BD00BFE8
:10164C0000E0014070B50E4E01231546C6F8043576
:10165C00BFF36F8FBFF34F8F0024AC4207D1002331
:10166C00C6F80435BFF36F8FBFF34F8F70BD51F8C1
:10167C00243040F82430FFF7C5FF0134EDE700BFFC
:10168C0000E0014000F18040002382B00360036859
:10169C000193019B02B07047054A13792BB90121C4
:1016AC00106093719180184670478520704700BF79
:1016BC003C030020074B1A68D20704D4C02283F8DD
:1016CC00002301221A604FF080430022C3F8182532
:1016DC00704700BF00E100E008B54FF48270FFF7DF
:1016EC00D1FF4FF080430222C3F8042301229A60F9
:1016FC0008BD08B54FF48070FFF7C4FF4FF080436E
:10170C000122C3F804231A6008BD00004FF0804288
:10171C00012108B54FF48070C2F80813FFF7B2FF2F
:10172C005160D2F80C3403F00113B3F1011FF8D05F
:10173C00014B00225A7108BD3C0300204FF0804140
:10174C0010B5D1F8003163B14FF48070FFF79AFFF8
:10175C001F4B58790122C1F8082310B95A711B6824
:10176C0098474FF08042D2F8043153B14FF4827055
:10177C00FFF788FF0223C2F80833154B01201B68C2
:10178C0098474FF08042D2F8103153B14FF4887023
:10179C00FFF778FF1023C2F808330D4B02201B68AB
:1017AC0098474FF08042D2F80C3183B100214FF4AE
:1017BC008670C2F8341CFFF765FF0823C2F80833A3
:1017CC00034B9971BDE810401B680320184710BDEE
:1017DC003C03002000F1804000F5C040002382B0A3
:1017EC00036003680193019B02B07047800000F115
:1017FC00A040D0F8003723F44033C0F80037D0F8BD
:10180C00003743EA0143C0F800377047054B4FF0EF
:10181C00FF32072843F8202084BF1B1883F8602070
:10182C00704700BF4403002010B5184C94F8763074
:10183C004BBB4FF0FF3204F1480122FA03F0C00712
:10184C0048BFCA540133202BF7D10021C8B2013153
:10185C00FFF7DCFF1229F9D10D4B00221A600D4B5A
:10186C00C02183F80613402119604FF4BE70FFF7B6
:10187C00B1FF094B4FF00041C3F80413012384F866
:10188C007630104610BD0820FCE700BF4403002052
:10189C00B603002000E100E000600040F0B53A4ED5
:1018AC00331893F94830002B6CDA8B78C3F3400C67
:1018BC009B0747BF0023082508231225AB4201D103
:1018CC000420F0BD56F8237001374FEA830443D14E
:1018DC0037185DB246F8232087F84850BCF1000F4A
:1018EC0002D1334483F860008B785F0716D4DA0793
:1018FC0034D5830003F1A043D3F8002722F0020271
:10190C00C3F80027214FC20800F0070C012303FA8B
:10191C000CF317F802C043EA0C03BB548B780A781B
:10192C009B0724D504F1804303F5C0430002D3F890
:10193C00101521F4473121F44071C3F8101512042D
:10194C00D3F8101500F4F85002F440321043084359
:10195C00C3F810050020B4E70133AFE74A7800F56F
:10196C00E0734FF0A047920047F82320CAE7A5F197
:10197C00080346FA83F393F8681041EA821283F85D
:10198C006820E7E708209CE744030020B60300200A
:10199C0010B51D4C231893F94820072A16DD144462
:1019AC0094F860309B09032B0BD14FF0A043D3F874
:1019BC001015C14001F001010231BDE81040FFF7E4
:1019CC0015BF012B0CBF02210321F6E7D3B2072B65
:1019DC0019D8930003F1804303F5C043D3F81005E5
:1019EC0040F00100C3F8100502F14000800080B205
:1019FC00FFF7F0FE39B154F8223023B101239340A4
:101A0C00024AC2F8043310BD4403002000600040B9
:101A1C000E4B034493F94820072A02DD0021FFF7FF
:101A2C00E5BED3B2072B0FD8930003F1804303F527
:101A3C00C043D3F8101521F00101C3F81015012390
:101A4C009340034AC2F80833704700BF4403002098
:101A5C0000600040F8B50446FFF7DAFF17490A1991
:101A6C0092F9483092F84820072A9FBF144A03F590
:101A7C00A273002042F8230004F0070201239340D4
:101A8C001048E208855C1D420AD004F5E0754FF061
:101A9C00A046022746F82570855C25EA030383548B
:101AAC000B1993F94800002802DBC0B2FFF7AEFE19
:101ABC002144FF2381F84830F8BD00BF44030020C7
:101ACC0000600040B60300202DE9F34700244E4D82
:101ADC0001944FF48072012102F1804303F5C0435D
:101AEC001B68012B07D1D5F804330B4203D090B2FD
:101AFC00FFF770FE0C430432B2F5907F4FEA4101C0
:101B0C00EAD1414BD3F87C31012B0CD14FF4BE7090
:101B1C00FFF760FE4FF0A04344F00044D3F82025BB
:101B2C000192C3F82025E3B2D3B1384F002501262A
:101B3C00344210D0AB0003F1804303F5C043D3F81B
:101B4C001005D3F8101557F8253023B1C1F3014116
:101B5C00C0F3042098470135082D4FEA4606E7D11B
:101B6C00002C48DA294C4FF0A047294D4FF00008C3
:101B7C00012615F9013F5A1C31D0C3F3C2010831BB
:101B8C006944DAB211F8041C03F03F0903F00703AF
:101B9C0006FA03F3194222D009F5E073484657F8C8
:101BAC002330C3F3014ABAF1020F14BF02210321FF
:101BBC00FFF71CFE06FA09F3C7F8203504EB0903FE
:101BCC0093F9483054F823304BB19109032904D0D0
:101BDC00BAF1020F12D1012901D14846984708F1F8
:101BEC000108B8F10A0FC4D1D7F820350193C7F812
:101BFC002035002BB9D102B0BDE8F087BAF1030F44
:101C0C00EDD10229E8E700BF00600040440300204A
:101C1C00AB030020014B1B68184700BFBC0300201E
:101C2C0038B50A4B98420C460CD1002001F06CFAE6
:101C3C00074B1D7915B901221C601A71002001F0A7
:101C4C0065FA0DB9002038BD1120FCE700200040DA
:101C5C00BC03002000F1804000F5E040002382B07E
:101C6C00036003680193019B02B07047F0B5534BBE
:101C7C00534CD3F8043185B0002B3DD094F82E2072
:101C8C004FF48270FFF7E6FF2AB394F82F3013BBA2
:101C9C004A4AD2F80031002B32D04FF48070FFF753
:101CAC00D9FF638B94F82D00834250D921891B1ADC
:101CBC009BB289B26383CB1A616801EB4301C2F812
:101CCC002C16C2F830064FF48270FFF7C3FF3B4B63
:101CDC0001225A6014E0636802932389ADF80C303A
:101CEC00E36800218DF8041033BB2374236801A82A
:101CFC009847002384F82F3094F82E30002BC7D14E
:101D0C002E4BD3F810315BB14FF48870FFF7A2FF64
:101D1C000023237402238DF8043001A8236898470C
:101D2C00264BD3F814310BB34FF48A70FFF792FFA4
:101D3C000023237405B0F0BD208B60836360208189
:101D4C00E160002AD2D11D4B01221A60CEE7BAD134
:101D5C00E168012084F82F0031B100206083C2F8C3
:101D6C002C16C2F83036AEE76183ACE765694FF0EC
:101D7C0000470126002DDDD0B5FA85F227FA02F3D3
:101D8C004632920025EA030502F1804303F5E04355
:101D9C001B68002BEED01046FFF75CFFD308C2F394
:101DAC008002233B82F001028DF808308DF804602C
:101DBC0023688DF8092001A89847DBE700700040E4
:101DCC00C403002038B5204A92F82C300446002B6E
:101DDC0037D111601D490078C1F8F0056078C1F861
:101DEC00F4050125E078137482F82D30536182F8E4
:101DFC002F306FF0004382F82E0082F82C504FF4F5
:101E0C008270C1F80833FFF725FF4FF48070FFF79D
:101E1C0021FF4FF48A70FFF71DFFA3780C485B017C
:101E2C00DBB280F80733802303600223C1F804334C
:101E3C0092F82E300BB1C1F80453C1F800550020B4
:101E4C0038BD0820FCE700BFC40300200070004030
:101E5C0000E100E070B52A4B1A7C02F0FF05002A65
:101E6C004CD10A79012A9CBF264CC4F8005500F1CC
:101E7C000C0503EB4504247924B993F82D40013467
:101E8C0083F82D4003EB4503CC790D7A8E781C71C9
:101E9C005D714B7836021B0106F4E06603F03003EB
:101EAC0033430E7806F003063343CE78360306F43C
:101EBC0080563343160406F4E02633434E79897971
:101ECC00360506F48016334309060E4E01F0807178
:101EDC000B43010106EB0010012AC0F8183501F183
:101EEC00804303F5E0434FF00000C3F81455C3F8EA
:101EFC0010459CBF0123C6F8003570BD1120FCE7CE
:101F0C00C40300200070004070B5324A147C04F009
:101F1C00FF03002C5CD1304C012503261574C4F84A
:101F2C000863C4F82C16C4F8305692F82D40AC4215
:101F3C000CD91D46190101F1804101F5E041013335
:101F4C00082BC1F81455C1F81055F3D100F10C034E
:101F5C00000102EB430300F1804000F5E0401979E9
:101F6C005B79C0F81435C0F810151B4901230B60C0
:101F7C004B6042F21073D1F8040108B9013BFAD15D
:101F8C004FF48070FFF766FE4FF48270FFF762FE2D
:101F9C00012C11D90F4800210B0103F1804303F5EB
:101FAC00E0430131047F457FC3F814550829C3F879
:101FBC00104500F10200EFD192F82E10064B29B11A
:101FCC0003210020C3F80413107470BD0221F8E73C
:101FDC001120FAE7C40300200070004038B5254AF0
:101FEC00254B04461220C2F808031D7C022D03D198
:101FFC00C2F80403112038BD187C01281CD1D86804
:10200C0018B10223C2F80433F4E7DC60198393F8A7
:10201C002E305BB9D2F80031002BFBD04FF480701E
:10202C00FFF718FEC2F82C46C2F83016114B0222EC
:10203C00C3F804230020DEE70220C2F804030020CA
:10204C00D86093F82E005C6001251D74198138B19D
:10205C00598393F82D30C2F82C46C2F83036E9E794
:10206C00C2F82C464FF48070C2F83016FFF7F2FD20
:10207C001560DFE700700040C4030020002382B02D
:10208C00435043580193019B02B070470A4610B568
:10209C004FF48E71FFF7F2FF136A9168C95C136AF3
:1020AC0001331362C0F81C1510BD8B690A4610B5BC
:1020BC004FF4847123B9FFF7E1FFD0F8183510BD48
:1020CC00FFF7DCFF536AD168D0F81805C854536A7F
:1020DC0001335362F3E700001FB501238DF8003084
:1020EC00044BCDE90110D3E900126846904705B0C6
:1020FC005DF804FBF403002008B54FF49271FFF770
:10210C00BDFF4FF48471FFF7B9FF0123036008BDD5
:10211C0030B54D4DD5F804339A0585B051D5D5F869
:10212C002431002B4DD04FF492712846FFF7A6FFB7
:10213C004FF40173C5F80833444B93F829200AB9BE
:10214C0001226A60404902228DF80020D1F88024D7
:10215C00C1F8802403929A690292DA6801920022F3
:10216C00C3E906226846D3E9001290473648D0F8F6
:10217C001C315BB1354A5169136A99424DD992F8B9
:10218C002830002B49D11146FFF780FF2E48D0F89C
:10219C004431002B56D04FF4A271FFF76FFF2B4B3D
:1021AC0093F829200AB1012202609A69002A49D0C9
:1021BC00586AD96800229A6105B0BDE83040FFF733
:1021CC008BBFD5F804335B07D0D5D5F80831002B7D
:1021DC00CCD01E4C1C482146FFF767FF636AA269EE
:1021EC009A42C3D1E369E1684BB1A3612369E3600F
:1021FC000023606AE3616362FFF76EFFB6E794F851
:10220C0029300BB901236B600F4B4FF40172C3F8EB
:10221C0008230023606AA361EEE70B484FF48E712C
:10222C00FFF72CFF5369002BB0D0516902910023AA
:10223C0091688DF80030019153616846D2E9001322
:10224C009847A3E705B030BD00200040F403002000
:10225C002DE9F843524D90F804802C2303FB0853CE
:10226C00064693F82A300C469146002B40F0948099
:10227C004C490068FFF7D4FC0746002840F08E80DC
:10228C0021683368481C0BD04FF0A04001228A40D3
:10229C00C0F8082501F5E0724FF0030C40F822C09D
:1022AC006068421C1FBF00F5E0724FF0A04C4FF06D
:1022BC00000E4CF822E0A269C3F8242594F814C04F
:1022CC00627DBCF1010F4CEA0202C3F86C25C3F825
:1022DC001405C3F80C151DD1A1684A1C1FBF01F5CC
:1022EC00E0724FF0A0404FF0000C40F822C0E268C2
:1022FC00501C0BD04FF0A04C01209040CCF808059E
:10230C0002F5E0704FF0030E4CF820E0C3F80825FE
:10231C00C3F810152C2303FB08F3EA18C2F8049039
:10232C002269EA50B9F1000F1ED03068227F4FF4B9
:10233C008E71FFF7A3FE4FF4A271FFF79FFE1A4BAD
:10234C00C0F8043340F307335201002BD2B21EDB2A
:10235C001649C81880F800230122580903F01F03FE
:10236C0002FA03F341F8203033680422C3F8002545
:10237C002C2303FB08530022C3E9062283F82920EF
:10238C005A61012283F82A203846BDE8F8830849AF
:10239C0003F00F03CA54E7E70827F5E71127F3E723
:1023AC00F40300201D2100008000020000E100E089
:1023BC0014ED00E00279044B2C2101FB0233586927
:1023CC00003818BF01207047F40300202DE9F047B6
:1023DC00074690F8049088469246FFF7EBFF0546B7
:1023EC00002835D11C4E2C2404FB09644FF48E714B
:1023FC00C4F814A0206284F828003868C4F8088057
:10240C00FFF73CFE012383602146FFF73FFE636824
:10241C0003BB6569236A9D4210D8D0F81C31002B90
:10242C00FBD00123C36000202C2303FB096600238F
:10243C007361BDE8F08794F828303BB9D0F81C31B3
:10244C00002BF8D02146FFF721FEE3E70F20EBE746
:10245C001120EEE72846ECE7F40300202DE9F041CB
:10246C003A4C06792C2303FB064305465F6827B1DB
:10247C0003684FF40170C3F808032C2303FB0643D5
:10248C00986950B1D869002833D027B12B684FF424
:10249C000172C3F80423112029E09A61D9605862B3
:1024AC00024601462C2303FB0643DA6193F82930DC
:1024BC001BB911B92868FFF71FFE2868002F3FD100
:1024CC002C274FF4A27107FB0647FFF7D7FD2868AE
:1024DC00D0F82421D0F80811D0F8443119430BD18D
:1024EC00002AF4D02C2303FB064399610320BDE89A
:1024FC00F08119610121D5E753EA020813D139465D
:10250C00FFF7D3FD7B6ABA699A42E0D8C7F8188006
:10251C002C2202FB06442B6894F82910012269B185
:10252C001A600020E3E72C2101FB064100208861A2
:10253C00002ADBD1002BEBD00F20D8E75A60F0E754
:10254C004FF40173C0F80433EBE700BFF403002031
:10255C00002382B0435043580193019B02B0704753
:10256C001FB501238DF80030044BCDE90110D3E9E0
:10257C0000126846904705B05DF804FB200400206B
:10258C007FB5434AD2F82461002E60D010464FF438
:10259C009271FFF7DDFF02238DF80030D2F8803402
:1025AC00C2F880340393D2F83C350293394BDA6885
:1025BC0001920022C3E906226846D3E90012904733
:1025CC003348D0F8443173B14FF4A271FFF7C0FF18
:1025DC00304B9A693AB10022D0F83C05D968C3E96E
:1025EC000622FFF7BDFF2A48D0F82031ABB14FF4DB
:1025FC009071FFF7ADFF0123C360264B5A6962B19E
:10260C00D0F84C150291002299688DF800200191A8
:10261C005A616846D3E9001290471D48D0F85831EA
:10262C009BB14FF4AC71FFF793FF1A4B5A6962B12F
:10263C00D0F84C150291002299688DF80020019178
:10264C005A616846D3E90012904704B070BDD2F8C5
:10265C001031002BB4D04FF488711046FFF778FF7F
:10266C000C4BD2F83C0599698842A9D1DC69D96830
:10267C0064B1D2F8005225F02005C2F800521A6954
:10268C009C61DA60DE61FFF76BFF99E79C61FAE70A
:10269C0000200040200400202DE9F843574D90F80D
:1026AC000480242303FB0853064693F820300C4681
:1026BC009146002B40F09E8051490068FFF7B0FA1C
:1026CC000746002840F0988021683368481C0BD0DE
:1026DC004FF0A04001228A40C0F8082501F5E072B5
:1026EC004FF0030C40F822C06068421C1FBF00F57D
:1026FC00E0724FF0A04C4FF0000E4CF822E0A269B3
:10270C00C3F8242594F814C0627DBCF1010F4CEA87
:10271C000202C3F86C25C3F80C15C3F814051DD1BF
:10272C00A1684A1C1FBF01F5E0724FF0A0404FF0AA
:10273C00000C40F822C0E268501C0BD04FF0A04CAB
:10274C0001209040CCF8080502F5E0704FF0030E24
:10275C004CF820E0C3F80825C3F81015242303FB1C
:10276C0008F3EA18C2F804902269EA50B9F1000F94
:10277C002AD03068227F4FF48871FFF7E9FE4FF4BE
:10278C009071FFF7E5FE4FF49271FFF7E1FE4FF405
:10279C00A271FFF7DDFE4FF4AC71FFF7D9FE194BB8
:1027AC00C0F8043340F307335201002BD2B21CDBC8
:1027BC001549C81880F800230122580903F01F039B
:1027CC0002FA03F341F8203033680822C3F80025DD
:1027DC00242303FB08550023C5E906336B61012351
:1027EC0085F820303846BDE8F883084903F00F031C
:1027FC00CA54E9E70827F5E71127F3E7200400207E
:10280C008D2500001003420000E100E014ED00E013
:10281C000279044B242101FB02335869003818BF9C
:10282C00012070472004002001F06043B3F1005FE9
:10283C002DE9F04781460E46924636D190F8048039
:10284C00FFF7E6FF044690BB1B4FD9F80020242568
:10285C0005FB08754FF490711046C5F814A0AE60D6
:10286C00FFF776FE4FF4AC71FFF772FE6B69C2F89E
:10287C004465C2F84835012393606B68CBB9D2F834
:10288C002031D2F858010343F9D060B90123D36049
:10289C00D2F85831002BFBD0242303FB08770023FC
:1028AC007B61BDE8F0870F20F6E71020F9E71120D7
:1028BC00F7E72046F5E700BF200400202DE9F84398
:1028CC0001F06043B3F1005F0E466CD10779374DD0
:1028DC00242303FB0753D3F80480B8F1000F04D072
:1028EC0003684FF40471C3F80813242303FB075344
:1028FC00996969B1D969002937D0B8F1000F04D0B2
:10290C0003684FF40472C3F804231120BDE8F88364
:10291C009A61DE6089462423046803FB0753204632
:10292C00D9614FF48871FFF713FE4FF4A271FFF7D2
:10293C000FFEC4F83465C4F83825B9F1000F19D16D
:10294C0001232360B8F1000F27D1D4F81031D4F84B
:10295C004421D4F82401134313D10028F5D02422A8
:10296C0002FB075203209361D0E71E6111464FF022
:10297C000109D0E7D4F8003243F02003C4F8003248
:10298C00E0E7242303FB07550023984218BF0320DC
:10299C009A42AB6118BF0F20B8E74FF40473C4F828
:1029AC0004330020B2E71020B0E700BF2004002061
:1029BC001FB50021039001AA44F20100CDE90111D9
:1029CC0000F004F805B05DF804FB000038B572B6F1
:1029DC0002F0D4FC02F02EFB0028FBD1104B114C62
:1029EC00114D1249E41AE408240444F0010002F0E9
:1029FC0061FCD5F8F030DB0700D500BE0C4944F083
:102A0C00020002F057FCBFF34F8FEA68094B02F447
:102A1C00E0621343EB60BFF34F8F00BFFDE700BFD5
:102A2C00F46400002465000000ED00E0616B000020
:102A3C006D6B00000400FA0510B5034649B152B1A4
:102A4C00541E14EA020006D1986019609C80D8606C
:102A5C0010BD0E20FCE70920FAE710B58468C268A7
:102A6C008388121B934208D3C26813400268D15466
:102A7C00C3680133C360002010BD0420FCE78268EA
:102A8C00C3689A420AD08268838813400268D35C78
:102A9C000B708368013383600020704705207047FA
:102AAC00C36883600020704710B5D0E90242D1E9B9
:102ABC000203A04293412CBF0120002010BD000056
:102ACC0008B50A4800F039FC094AD2E90031C018AF
:102ADC00084BD3E9002341F10001904271EB030351
:102AEC0003D210F1807041F1000108BD9C00002060
:102AFC00B8040020B0040020234B70B51E780446A7
:102B0C0016B90026304670BD0028FAD0FFF7D8FF62
:102B1C00D4E90223904299412FD3002000F0F4FA1B
:102B2C0023692BB94FF0FF324FF0FF33C4E9022376
:102B3C00002000F0EBFAD4E905309847002000F0B3
:102B4C00E3FA25696DB1D4E90212B2F1FF3F08BF77
:102B5C00B1F1FF3F0FD0691842F10002C4E9021233
:102B6C003546002000F0D2FA002DCAD00748214685
:102B7C0002F098F8C6E70025F3E7B3F1FF3F08BF72
:102B8C00B2F1FF3FBDD0F1E7C0040020F86E0000A9
:102B9C0037B505460C460A4801A901F002FB68B19D
:102BAC000570446001A9064801F025FB10B900200E
:102BBC0003B030BD034800F0C5FBF8E70420F7E78D
:102BCC00480400209C00002013B5114B11491868D3
:102BDC00019008231048582201F0D0FA044698B905
:102BEC000E4A0F4801A900F09FFA044660B90C4840
:102BFC00012100F085FB01230A4A0948194600F01F
:102C0C00EDFA094B01221A70204602B010BD00BF2C
:102C1C00046F00005804002048040020012D00001F
:102C2C009C000020FFFF7F00C004002030B56AB17B
:102C3C0003684FF0FF344FF0FF355A614A1E514282
:102C4C00C3E9024551411961002030BD0720FCE762
:102C5C00F8B50446002017460D4600F055FAD4E9A5
:102C6C000223B3F1FF3F08BFB2F1FF3F15D1FFF7CD
:102C7C0027FF281841F10001C4E9020101260020B8
:102C8C0000F044FA5EB12369A76103B125612146C6
:102C9C000020BDE8F840FFF77BBF0026EFE7304689
:102CAC00F8BD38B50446002000F02EFAD4E9022312
:102CBC00B3F1FF3F08BFB2F1FF3F10D04FF0FF322E
:102CCC004FF0FF33C4E902230125002000F01EFA67
:102CDC003DB121460120BDE83840FFF759BF002522
:102CEC00F3E7284638BD0000014800F026BB00BFC2
:102CFC009C0000202DE9F341064600F009FB40B191
:102D0C00604AD2E9003113F1807341F10001C2E94C
:102D1C0000310021304600F00AFB38B15A4C2368D0
:102D2C0023B12068FFF7E8FE002323600121304621
:102D3C0000F0FDFA20B1FFF7C3FE544BC3E90001CC
:102D4C005348514F01A901F061FA4FF0FF344FF095
:102D5C00FF3590B94C4D4F4801F0BBFF002800F0F7
:102D6C008780D0E90223B3F1FF3F08BFB2F1FF3FE8
:102D7C0034D1484801F0A7FFEDE70378012B17D0B9
:102D8C00022B22D05BB94168D1E90223B3F1FF3F9A
:102D9C0008BFB2F1FF3F02D03E4801F083FF01A90A
:102DAC003B4801F05EFA01A9394801F02FFAD0E74F
:102DBC0041683B68994202D100233B60EFE73548FC
:102DCC0001F08AFFEBE7C0E90245324801F07BFFD6
:102DDC000028F8D1304B01221A70E0E7296891B134
:102DEC002968D1E9020182428B412FD22B68D3E9A9
:102DFC000223B3F1FF3F08BFB2F1FF3F03D02968B4
:102E0C00244801F04FFF234801F05DFFD0E9024850
:102E1C000746FFF755FE201A68EB0108012878F1E8
:102E2C00000818DBB0F5350F13D3FFF75DFF1B4A15
:102E3C0002441B484FF49603002100F0EFF990B9BF
:102E4C002B6813B9304600F0C1F92F6002B0BDE811
:102E5C00F0812246EDE71248002100F05EFA384678
:102E6C00FFF74AFE01E00D28F9D000232B6072E732
:102E7C00054B1B68002BE9D1304602B0BDE8F04190
:102E8C0000F0A8B9B8040020C4040020B00400204D
:102E9C0048040020F86E0000C0040020FFFFB400BE
:102EAC009C0000200648074A03780749D35C01229E
:102EBC0013B10430FFF702BD0C30FFF7CFBA00BFDF
:102ECC00A400002030030020E90400200648074A33
:102EDC0003780749D35C012213B10430FFF7A4BC7B
:102EEC000C30FFF773BA00BFA400002030030020A1
:102EFC00EA04002037B50578012D05D0022D27D026
:102F0C00002D30D003B030BD037A13B9FFF7CAFFE0
:102F1C00F8E743681B4C19782046FFF79EFD80B1FB
:102F2C008DF800500190184B68461B689847A168B3
:102F3C00E368A2885B1A9A42E8D2144B01221A70F9
:102F4C00E0E7A268E3689A42F1D08DF80000EAE766
:102F5C00C3688DF800500193FFF7A4FF0A4B684635
:102F6C001B689847CEE70A490A48FFF788FD20B945
:102F7C0003B0BDE83040FFF7A9BF03238DF8003044
:102F8C00ECE700BFD8040020EC040020E80400208B
:102F9C00EA040020C8040020F0B51F46234B89B07A
:102FAC0004461A600D4600293DD08A8820480968DD
:102FBC00FFF742FD002834D1AA89A9681D48FFF704
:102FCC003BFD00282DD11C4E0FCE6D460FC596E84B
:102FDC000F0085E80F0063690693237C174A184895
:102FEC008DF81C70003B18BF01238DF81430637CE6
:102FFC00002B0CBF00230E238DF81530E3680293D1
:10300C00A368039323680193694663680093FEF7F2
:10301C00BBFA30B90B4B18702368013301D0FFF7A2
:10302C0041FF09B0F0BD0720FBE700BFEC04002016
:10303C00D8040020C8040020086F0000012F0000F5
:10304C00A4000020E804002008B50548FFF728FD7F
:10305C0020B9BDE808400348FFF722BD08BD00BFFA
:10306C00D8040020C804002070B5084D014608485B
:10307C002E78FFF704FD044636B100232B70FFF7C2
:10308C0011FF08B1FFF794FC204670BDE804002046
:10309C00D804002010B501460E48FFF7DEFC0446AC
:1030AC00A8B90D480D4A0378D35C63B10430FFF71F
:1030BC00AFFB60B90A490748FFF7E1FC38B9BDE836
:1030CC001040FFF703BF0C30FFF774F9F1E720460F
:1030DC0010BD00BFC8040020A40000203003002055
:1030EC00EA04002072B6024A136801331360704779
:1030FC00F0040020034A1368013B136003B962B665
:10310C00704700BFF0040020FFF7ECBFFFF7F2BFE1
:10311C000346405882B028B100225A505B580193A4
:10312C00019B012002B0704770B5204B4579204EB1
:10313C0043F825201F4B204A06EBC5059B1ADB08DC
:10314C00044618042B7933B140F002001B4902F0FD
:10315C00B1F8082070BD23680A88C3F8082594F9D3
:10316C0004308A78002B4FEA4212D2B219DB144990
:10317C00CD1885F8002301225D0903F01F0302FA24
:10318C0003F341F82530637906EBC3020121117179
:10319C0040F003000B4946F8334002F08BF8002056
:1031AC00D8E7094903F00F03CA54ECE7FC040020EC
:1031BC00F40400202C650000F4640000846B000013
:1031CC0000E100E0A66B000014ED00E003680122B2
:1031DC001A607047036801225A60704773B501F199
:1031EC005005AD000068ADB24FF480348C40002621
:1031FC00C0F80843C0F84843465101F5A871455939
:10320C00019522F07F42019D40F82120C0F84443F3
:10321C000BB1C0F8044302B070BD00002DE9F74FAC
:10322C0004680E464FF4803808FA01F822F07F4506
:10323C0006F1500704EB8602C4F84883BF00C4F8BB
:10324C000883D4F80415BFB29946D2F84035C2F8B9
:10325C0040150022E2515B1A824623F07F43E0596D
:10326C000090012B00984FEA860B0CD1234B4FF4A6
:10327C00806043F001039847DAF800400022E251E5
:10328C00E3590193019BD4F80475C4F84483EB1BF8
:10329C0023F07F43012B14D1184B06F5A87601358A
:1032AC0044F8265043F001034FF480609847DAF855
:1032BC000040D4F804359F421AD00D2003B0BDE86D
:1032CC00F08FA3446A1ECBF84055D4F80415C9F10D
:1032DC00FF13521A22F07F4203F57F439342ECD343
:1032EC0032B90135CBF84055D4F804359942E3E7AF
:1032FC00C4F844830020C4F80483DFE7306F000077
:10330C0003680222C3F8442309B1C3F804237047AD
:10331C0000684FF48271FFF7FBBE4FF4803303FA61
:10332C0001F10368C3F84813C3F808137047503110
:10333C008900006889B2FFF7EBBE0368D3F8040577
:10334C007047000090F90430002B09DB5A09012169
:10335C0003F01F03994002F14003024A42F8231084
:10336C00704700BF00E100E0024B034A1B68106885
:10337C00184700BFFC040020F404002070B5064E72
:10338C000546002456F8043B0BB1284698470134F7
:10339C00042CF7D170BD00BF000600204388033316
:1033AC0000EB830399420BD382884FF6FF739A424A
:1033BC0008D0038833B18068431C58425841704789
:1033CC00022070470120704768B10268084B9A428E
:1033DC0009D14068074B984207D00133984214BF7B
:1033EC00032001207047032070470020704700BF66
:1033FC00DEC0ADDEFE011EF1C21C92B240F2FE3305
:10340C009A4230B51ED8124B187838B91C895D8990
:10341C002C441444A4B2B4F5806F0AD9187DA0B919
:10342C00988BDC8B2044104480B2B0F5806F0CD8A4
:10343C0001200880142101FB0033002059890A4423
:10344C005A8130BD48F20860FBE748F20660F8E7A5
:10345C00380500200B4A0C495388142000FB03113B
:10346C00CB6833B90420496810700122074801F079
:10347C0073BA07490523137002238B800122096854
:10348C000023F3E720050020380500200000002071
:10349C003005002007B5002305490093054A09684B
:1034AC000548082301F0ACF903B05DF804FB00BF3C
:1034BC0030050020446F00000000002007B50023F9
:1034CC0001460093034A0448082301F099F903B01C
:1034DC005DF804FB3C6F00000000002013B50023D6
:1034EC000C4600930146084A0848042301F088F969
:1034FC0038B90749142202FB041101230B7402B0E2
:10350C0010BD48F20D60FAE7386F00000000002093
:10351C003805002037B50A480A4B42689C88196860
:10352C0053880325033305709BB2002000909B0049
:10353C0001EB8401044801F063F903B030BD00BF16
:10354C0020050020300500200000002010B50146A9
:10355C00044800F026FE1C220446002102F020FF45
:10356C00204610BD600500202DE9F0410D460223D8
:10357C00154F2B80164600F5805100F108044FF0D2
:10358C0001088C420ED2236801330BD02046FFF782
:10359C0005FF48B10EB186F80080022809D14FF41E
:1035AC0080632B80BDE8F081A3683A68934200D910
:1035BC003B602B886288033313442B80638803336E
:1035CC0004EB8304DDE700BFFC05002038B5134B8A
:1035DC0014220D4602FB00335C682B6804F5805105
:1035EC008BB15C88033403EB84048C4209D22368CE
:1035FC00013306D02046FFF7D1FE012808D002285F
:10360C0003D1002003E00834EFE72C60012038BD23
:10361C006388033304EB8304E7E700BF380500201D
:10362C0043682DE9F34105460E46002B46D0254A4A
:10363C00D1688B4242D3126993423FD813F00304F2
:10364C003CD1214A01891289914238D101689A688A
:10365C00914234D11D494A68934203D902F58052F4
:10366C0093420ED38A6993420DD902F5805293424C
:10367C0009D201233380B4FA84F0400902B0BDE8CA
:10368C00F0812346F6E748F20964F4E7CDF80480AC
:10369C0001A93846FFF79AFF30B90134A7B2022CC2
:1036AC003780F3D10020E9E7019B2A6899689142A1
:1036BC00EED16B60044B1B892B81DFE700244FF0AC
:1036CC000008EBE700000020200500203805002052
:1036DC002DE9F0471C461E4B1B78074688461646BC
:1036EC0083B392B38CB3DFF86C904FF0140AA588B7
:1036FC00012D02D948F2096022E00AFB05F319F802
:10370C0003302BB921462846FFF760FF18B920601B
:10371C000135A580EBE723681FB199883A8891425F
:10372C00F0D1B8F1000F04D01988B8F800209142FC
:10373C00E8D19A68C6E90023074B1B893381002026
:10374C00BDE8F08748F20160FAE748F20460F7E759
:10375C0018060020380500202005002008B5074B6E
:10376C005888191DFFF732FF18B1BDE80840FFF764
:10377C00D1BEBDE80840FFF76DBE00BF200500209C
:10378C002DE9F0439D4F89B006463D682DB99C4903
:10379C009C4800F03BFD054638602A78531E052BEB
:1037AC0000F20A81DFE813F0060071007100FE00E0
:1037BC00FE005401E6B1944B00225A604FF40644CB
:1037CC001422002103A802F0EBFD41F61D539C428C
:1037DC0008BF00243B6804941A78023A042A00F2C9
:1037EC00ED81DFE812F0CE01DA01FC0104020B02DC
:1037FC002B79032B1CD8DFE803F014022A35834AFB
:10380C001378022B1AD0137D022B4FF0010317D122
:10381C0014214B43D1180020D0544868FFF74EFEBA
:10382C0003E001232B71FFF735FE002800F0E38045
:10383C00754B00225A6048F20D64C1E70023E7E79C
:10384C00714A13700023536041F61D54B8E7704958
:10385C007048002302222B718A800968012201F032
:10386C007BF8E2E76C4B694C5B88694A14214B434B
:10387C00E11800262E714D68106815609588486017
:10388C000D810221E6549180C8E7B5F81490DFF859
:10389C007C81A6B1AA7DEB88022A06D9142101FBF2
:1038AC000981DA1C088902440A81142202FB09826C
:1038BC00C3F57F435189FD330B4453817EE71423B9
:1038CC0003FB098319895C68AB7D04EB8104062B2F
:1038DC0062D8DFE803F00F4C3442045864004F4ABE
:1038EC004F49002353601046AB691360FFF798FEF5
:1038FC00002870D00223AB75002300930423EA1830
:10390C002146444800F07CFF002874D048F20D6436
:10391C00AA7DEB88022A06D9142101FB0981DA1C45
:10392C00088902440A81142202FB0988C3F57F43EB
:10393C00B8F80A20FD331344A8F80A3040E72B6985
:10394C00002B0CBF01230323AB750023009305F15F
:10395C000C02042304F10801D3E70123AB75002208
:10396C00EB8800922A699B0004F10C01C9E7032A39
:10397C0014BF06230523AB7500230093042305F124
:10398C000802E118BDE70623AB75254B1988234BBC
:10399C005868FFF7A3FDB7E748F20E64B8E741F6A5
:1039AC001D54B5E7002E7FF409AF2B79012B39D0CC
:1039BC00022B3FF449AF13B148F20E6400E7022327
:1039CC002B710DF10A01EB68039303A8CDE9046692
:1039DC00FFF726FE10B948F20964F1E60498BDF829
:1039EC000A108388EB8003882B81FFF777FD044650
:1039FC0000287FF4E5AE09B0BDE8F0831C0500207B
:103A0C00180500206005002018060020380500204D
:103A1C003005002000000020200500200C050020AF
:103A2C0008050020DFF8DC8103AA43463146A81DB7
:103A3C00FFF74EFE044618B9B8F804100498D4E702
:103A4C0048F209639842C8E900667FF4B9AEFBE618
:103A5C00002E7FF4B3AE6C4B1A7BAAB11E731A788E
:103A6C00013A062AA8D801A151F822F0233B000004
:103A7C00493B0000673B00006D3B0000C53900006E
:103A8C00733B0000853B00001A78072AE7D801A198
:103A9C0051F822F0C13A00006B3A00006B3A00007A
:103AAC00E73A0000FB3A00001F3B00001F3B000000
:103ABC00E33A00001A89554901321A8100225A80D2
:103ACC001A730A78B2FA82F252099A720A7DB2FA21
:103ADC0082F25209DA72012207E04D4958688A884D
:103AEC004088033202448A8002221A70B7E75C884D
:103AFC00464A4749142505FB04220868546850605F
:103B0C008888108102200C608880002111740622A4
:103B1C00EBE70722E9E79A7A32B9DA7A8AB9002216
:103B2C001A705A805A608FE6384900229A72CA6815
:103B3C00002AF2D1097C0029EFD05A80FFF70EFE43
:103B4C0055E70022DA72314A116A0029E7D192F85E
:103B5C002420002AE3D00122EFE7FFF7DBFC46E745
:103B6C00FFF778FC43E75A88284B142101FB0233FA
:103B7C005868FFF7A3FC3AE700225A60FFF78AFC6B
:103B8C0035E701228DF80C201A89ADF818209A8897
:103B9C00DB68ADF81A20059310E002228DF80C209A
:103BAC001A89ADF818209A88ADF81A20DA689B7D2E
:103BBC0005929A1F534253418DF81C3003A8FFF70E
:103BCC00DDFB0026134914483E6000F04AFB134805
:103BDC00012100F0A4FB00287FF4D7AD0BE70322F2
:103BEC008DF80C20DA88ADF818201A89D0E7042259
:103BFC008DF80C20DB88ADF81830DFE705238DF845
:103C0C000C30DBE7000500202005002038050020E3
:103C1C003005002018050020600500201406002047
:103C2C004068FFF7ADBD000008B50548012100F064
:103C3C005EFB18B9BDE80840FFF7A2BD08BD00BF88
:103C4C00140600202DE9F3411F46314B1B78064624
:103C5C000D46002B4FD0002950D009884FF6FF732A
:103C6C0099424ED06B88002B4BD06B689B074BD185
:103C7C0052B9B5F808800DF102014046FFF7BCFBC4
:103C8C0038B102B0BDE8F0811388B2F80280ADF80B
:103C9C00023001A8FFF75AFC002307708375BDF8AA
:103CAC00023083826B68036104460121194800F0DD
:103CBC002AFB2B882381032F6B88A38004BF04234A
:103CCC00A3754FF0000508BF3368E06008BFA3611F
:103CDC001148A4F80680658101A900F08CFA36B170
:103CEC00E36833600D4B75601B89B5723381FFF748
:103CFC009BFF0020C5E748F20160C2E748F2046070
:103D0C00BFE748F20360BCE748F20260B9E700BFC6
:103D1C0018060020FC05002060050020200500206E
:103D2C0008B5034607480268042A08D00168064A09
:103D3C0042F82130012100F0E6FA002008BD48F2DB
:103D4C000B60FBE710060020000600202DE9F04F69
:103D5C00724F87B01422002101A802F021FB3B789E
:103D6C0003F0FF0B1BB101A8FFF708FB03E0381DA4
:103D7C0000F0E1FA20B10024204607B0BDE8F08F36
:103D8C004FF010234FF080525B691269DFF890A15D
:103D9C00591C04BF30235343CAF810306149A3F5B2
:103DAC00405300225046CAF80C3000F0F7FC044691
:103DBC000028E1D15C495D481C238C2200F0DEF91F
:103DCC00A1464FF003082546DAF80C604E44304605
:103DDC00FFF7FAFA01285CD0032848D133685A1C43
:103DEC0002D0534A934234D1331D06F580521968E0
:103DFC0001312ED104339342F9D14E4B1A682AB9B2
:103E0C0002221E609A804FF0010B0BE014236B43CF
:103E1C0049480221C218C154484B56605D80013597
:103E2C001181ADB244F0010409F58059B9F5405F38
:103E3C00CAD1B8F1010F06D9E4B2062C4BD04FD839
:103E4C0014F0FD0F4CD100233B7048F20A647B60E8
:103E5C0092E7394A14236B43D11808F1FF384E60AE
:103E6C000321D1541FFA88F80135ADB2DCE7324991
:103E7C0014236B43CA180020C854566003F1100277
:103E8C0008330A4430461944FFF76EFB44F0020431
:103E9C00EAE7284BBBF1000F0FD0DFF89CC01422CF
:103EAC006A430CEB020102200CF802001A684A600B
:103EBC00224A088155800135ADB221491E6000228D
:103ECC003046FFF751FB1B4B9B88022B14BF08237A
:103EDC0004231C43A8E701233B7000237B6042E7CB
:103EEC006846FFF733FB013C012303700A2C09D809
:103EFC00DFE804F006080608070807080F110F0092
:103F0C00002303716946094800F075F9FFF78CFE30
:103F1C0031E70323F5E70223F3E700BF180600207F
:103F2C0000000020946F0000700500206005002048
:103F3C00DEC0ADDE30050020380500202005002055
:103F4C003405002073B50D460446C0B1B9B10DF16E
:103F5C000601FFF765FBA8B10C4BBDF8062066689F
:103F6C00142000FB0230012100F0CDF963682E60B3
:103F7C000C336B600123A372002002B070BD48F2B9
:103F8C000460FAE748F20960F7E700BF4405002037
:103F9C0013B50446A8B10DF10601FFF741FB98B12A
:103FAC00BDF806200B4B142101FB0233DA6872B109
:103FBC00A27A62B1DA680020013ADA60A07202B02B
:103FCC0010BD48F20460FAE748F20960F7E748F2DE
:103FDC000560F4E73805002002230022FFF732BE0B
:103FEC0018B103230022FFF72DBE48F2046070477E
:103FFC000D4B1B7807B59BB101A8FFF7A7FA062359
:10400C00037001A9094800F0F6F8094B1A780AB1B7
:10401C0001221A73FFF708FE002003B05DF804FBC1
:10402C0048F20160F9E700BF180600206005002087
:10403C002005002007B5ADF80600ADF804100DF111
:10404C00060001A9FFF744FB03B05DF804FB000078
:10405C003F4B1B782DE9F74F0446002B71D00028FD
:10406C0072D0102200210230002602F099F9394F4B
:10407C0003232380B046B146B3464FF0010A79685A
:10408C007A893D89019208461544FFF79DF903286A
:10409C0008BF20882F4B019A04BF00F1FF3020800D
:1040AC00142000FB0630ADB2C0684A441FFA82F9F6
:1040BC00A844A289A4F80890C5F58065ADB258440F
:1040CC00AA421FFA80FB1FFA88F838BFA581A4F812
:1040DC0002B001F10805A4F80A8001F58051A9424B
:1040EC0024D92A68013221D02846FFF757F9012834
:1040FC0005D0022810D0A2880132A28007E0E28805
:10410C000132E280E289688803320244E2816A88E3
:10411C00033205EB8205E2E7E28884F810A0013255
:10412C00E280E289491B02EBA101E181721C022AA7
:10413C0007F114074FF00106A1D1002003B0BDE830
:10414C00F08F48F20160F9E748F20460F6E700BF2F
:10415C00180600203805002050E8012FC2EA024260
:10416C0040E80123002BF7D1704750E8022FC2EA38
:10417C00224240E80223002BF7D1704710B561B101
:10418C00B2FBF3F403FB1424A4B244B9C0E9001449
:10419C0084608281C381204610BD0E20FCE709207B
:1041AC00FAE737B550E8013F9DB2C48925448489AC
:1041BC00A54228BF2D1B0489A54202BFBFF32F8F38
:1041CC00002207E0C5EA030540E80154002CE9D1C0
:1041DC004FF001028DF803200193019A0A609DF8BB
:1041EC00031001F0FF0321B1006810FA82F003B054
:1041FC0030BD1846FBE708B50A884B889A4203D1B4
:10420C00FFF7AAFF012008BD0020FCE737B550E8F6
:10421C00023F1FFAA3F5C488A54202BFBFF32F8F3C
:10422C0000220DE0C48925448489A54228BF2D1B9A
:10423C00C3EA054540E80254002CE8D14FF00102D6
:10424C008DF803200193019A0A609DF8031001F088
:10425C00FF0321B1006800EB124003B030BD1846DB
:10426C00FBE708B50A884B889A4203D1FFF77DFF1C
:10427C00012008BD0020FCE710B5034653E8000FF1
:10428C000A4643E8002494F0000FF7D110BD10B596
:10429C00034653E8000F40EA010243E8002494F07F
:1042AC00000FF6D110BD10B5034653E8002F42EABB
:1042BC00010043E8000494F0000FF6D110BD10B5D6
:1042CC00034653E8000F00EA010243E8002494F08F
:1042DC00000FF6D110BD10B5034653E8002F02EACB
:1042EC00010043E8000494F0000FF6D110BD10B5A6
:1042FC00034653E8000F00EB010243E8002494F05E
:10430C00000FF6D110BD10B5034653E8002F02EB99
:10431C00010043E8000494F0000FF6D110BD10B575
:10432C00034653E8002FA2EB010043E8000494F08D
:10433C00000FF6D110BD0121FFF7A9BF0121FFF736
:10434C00B2BF0021FFF7BBBF0021FFF7C4BF10B500
:10435C0090B1D0E9012301689B1ADBB20A60013BE2
:10436C00DBB2FF2B026802D10020107110BD116866
:10437C004C1C14600B70F2E70E20F7E738B50446BE
:10438C000020FEF7C1FE2268616813688B4213D9C6
:10439C00591E116013F8013C208AE56800FB035597
:1043AC00A3685B1A1179DBB2994200D21371002019
:1043BC00FEF7ACFE284638BD0025F8E738B50546B3
:1043CC0000200C46FEF7A0FE2A681368591C1160E9
:1043DC00EA68A41A2A8AB4FBF2F41C70BDE83840CF
:1043EC000020FEF793BE826810B504462AB14369DB
:1043FC000168006998470023A36010BD0EB403B593
:10440C00039921B104AB01AA019300F06FF802B03B
:10441C005DF804EB03B07047826830B40468551C37
:10442C008560A154D0E901329A4202D330BCFFF727
:10443C00DABF30BC704700002DE9F84F9846DDE933
:10444C000A43164682460F460A464FF00109B2420D
:10445C000FD2C14538BFC14613F0010B01D16CB965
:10446C0000240125B8F1010F1CD908F1FF38754360
:10447C00F8E709F10109B2FBF6F2E8E79B070ED564
:10448C00B8F1000F0CBF30252025A145E9D2013C25
:10449C0029465046FFF7C0FF002CF6D1E0E7202557
:1044AC00F3E77543B7FBF5F39E42FAD9DFF8388092
:1044BC00B7FBF5F3504618F8031005FB1377FFF71D
:1044CC00ABFF2B46B342B5FBF6F5F1D2BBF1000FB7
:1044DC0000D034B9BDE8F88F20215046013CFFF7DD
:1044EC009BFF4C45F8D8F5E74C6F00002DE9F74FD2
:1044FC00054690460F46002900F04C8117F8011B29
:10450C0049B92B7B002B00F04581284603B0BDE850
:10451C00F04FFFF768BF252940F0BE80002602E06F
:10452C0046F001061F463B4613F8011B2D29F7D018
:10453C00302920D02B2921D02A291A4621D1D8F86C
:10454C000020111D1468C8F800101F4639782E2958
:10455C0026D101374FF0000A0A203A4612F8011B07
:10456C00A1F1300CBCF1090F1CD800FB0A11A1F110
:10457C00300A1746F1E746F00206D3E746F0040688
:10458C00D0E7002412F8013CA3F130010929DDD851
:10459C000A2101FB04331746A3F130040132F1E781
:1045AC004FF0000A7A1C01F0FB006828174602D174
:1045BC0012F8011BF7E7782909D86F290BD8632962
:1045CC0064D021D8252967D0582900F08D803B78FC
:1045DC00002B93D195E770390829F8D801A252F82D
:1045EC0021F000BF77470000DB450000DB450000F1
:1045FC0009470000DB450000DF460000DB450000FA
:10460C00DB450000F5460000642901D06929DED1A4
:10461C00D8F80020D2F80090111D89EAE972C8F888
:10462C000010A2EBE9724FF0010B0A21092A37DCCA
:10463C00D34538BFD3462CB1B9F1000F01DB72075B
:10464C0000D5013CB30702D5BAF1000F03D0F00737
:10465C0001D454BB0024B9F1000F2EDAC9F10009C2
:10466C002D212846FFF7D8FE06F00302022A04D1BA
:10467C00BAF1000F01D124BB0024CDE9004653460A
:10468C000A2249462846FFF7D7FEA0E7D8F80030A3
:10469C001A1D1978C8F800202846FFF7BDFE96E7CA
:1046AC000BF1010BB2FBF1F2C0E7A345D3D22021F1
:1046BC002846013CFFF7B0FECBE77107D4D52B2180
:1046CC00CFE7A345D9D230212846013CFFF7A4FE01
:1046DC00D1E7D8F800100A1DC8F80020CDE9004633
:1046EC0053460A220968CDE7D8F800100A1DC8F80D
:1046FC0000205346CDE900461022F3E7D8F80030ED
:10470C001A1DC8F8002016F00106D3F8009024D129
:10471C00B9F1000F03D0484601F0E3FD0646B44260
:10472C001DD809F1FF3919F8011F00293FF44FAFCB
:10473C002846FFF771FEF6E728460136FFF76CFEB8
:10474C0019F806100029F7D1A642BFF440AF20217A
:10475C002846013CFFF760FEF6E70026F0E7202133
:10476C002846013CFFF758FED9E7D8F800301A1D4F
:10477C00C8F80020302128461C68FFF74DFE782130
:10478C002846FFF749FE00220823CDE900322146D6
:10479C00102277E703B0BDE8F08F00BF13B50B46CE
:1047AC00114680B9104B1148114AC01A0E23C0088B
:1047BC000093104B0004104940F0010000F091FDF3
:1047CC000E2002B010BD4BB9074B08480B4AC01A5B
:1047DC00C0080E2300930004064BECE703601B6833
:1047EC0002B0BDE810401847F46400003C650000BE
:1047FC00B86B0000826F0000BD6B0000EC6B00001A
:10480C002DE9F743DDF8288088B9474B4748484ADB
:10481C00C01A0E23C0080093464B000440F0010060
:10482C00454900F05EFD0E2003B0BDE8F0834AB9A7
:10483C003D4B3E48414AC01AC0080E230093000469
:10484C003C4BEBE7D0F800E0BEF1000F0FD1364B3C
:10485C0036483B4A3849C01AC0080824000440F0C6
:10486C000100344B009400F03CFD2046DCE77BB9A2
:10487C002D4B2E48334AC01A0923C00800932D4BE8
:10488C00000440F001002C4900F02BFD0920CBE77F
:10489C004768D7F80490B3FBF9F709FB17374FB10A
:1048AC00214B2248284AC01AC0080923009300044F
:1048BC00204BE6E78F070FD01B4B1C48234AC01A2E
:1048CC001023C00800931B4B000440F001001A4950
:1048DC0000F007FD1020A7E712F0030F09D0124BD0
:1048EC0012481B4AC01AC008102300930004114B35
:1048FC00EBE7C768B9420DD305694C1E1C44AC42AA
:10490C0008D8CDF82880DEF80C40A44603B0BDE8EA
:10491C00F0436047044B05480E4AC01AC0081023E8
:10492C0000930004034BD0E7F46400003C650000E6
:10493C00B86B00006F6F0000BD6B00003A6C00009C
:10494C00E66B0000F96B0000406C00006A6C000024
:10495C00826C0000A56C0000F7B580B92D4B2E4879
:10496C002E4AC01AC0080E242D4B009400042D4969
:10497C0040F0010000F0B5FC204603B0F0BDD0F8CB
:10498C0000C0BCF1000F09D1224B2348264AC01AA3
:10499C00C0080824224B00940004E8E74AB91D4BD8
:1049AC001D48224AC01AC00809241D4B009400045B
:1049BC00DDE74768D7F800E00EF1FF370F420FD064
:1049CC00144B15481A4AC01A1023C0080093144BF4
:1049DC000004144940F0010000F083FC1024CBE7E4
:1049EC00C768B9420CD305694C1E0EFB0244AC429D
:1049FC0006D8DCF81040A44603B0BDE8F040604790
:104A0C00044B05480B4AC01AC0081023009300043D
:104A1C00034BDEE7F46400003C650000B86B00005B
:104A2C005C6F0000BD6B0000E66B0000F96B0000D2
:104A3C00CC6C0000F26C0000014B4360002070470E
:104A4C00B46F00000846704700207047024B18688E
:104A5C00003818BF012070472006002008B5024816
:104A6C00FFF772FC002008BD2006002008B5104698
:104A7C001A4601F063FC002008BD00002DE9F0414E
:104A8C00804686B011480F4616461D46FFF753FC6C
:104A9C000446C8B9AA0831463846FCF7D3FD0B4882
:104AAC00FFF752FCD8F8083053B101228DF80020E2
:104ABC000C9A0592CDE90147CDE903656846984704
:104ACC00204606B0BDE8F0811124F9E7200600204D
:104ADC002DE9F043814687B014480E46154698469A
:104AEC00FFF729FC0446F0B90746BD4215D10F4823
:104AFC00FFF72AFCD9F808305BB102228DF80020B0
:104B0C000022CDE90126CDE90325CDF814806846B5
:104B1C009847204607B0BDE8F08306EB0730FCF75A
:104B2C0079FD0137E1E71124F3E700BF20060020EF
:104B3C002DE9F84FB0F806A04579D2F800B09DF8F1
:104B4C0028900AFB05F5043D88460BEB0301A942AE
:104B5C0003F1040488BFA5EB030BB4FBFAF607467C
:104B6C000AFB1644C2F800B04EB9AAEB04055D4529
:104B7C0028BF5D46BBF1000F04D1BDE8F88F3F683C
:104B8C00013EF1E7043408EB06003C442A46B9F137
:104B9C00000F0DD02146ABEB050B01F0CFFBDA4536
:104BAC002E443F6855464FF0000428BF5D46E1E7B0
:104BBC0001462046EFE7FFF7CABBF8B54679014638
:104BCC00721E0546002393422D6803D30024A6428F
:104BDC0002D8F8BD0133F6E70F682846FFF7EEFB65
:104BEC0001343946F3E72DE9F041078ACD1C06461E
:104BFC00FFF7C4FB043F3D440446B5FBF7F5D0B1C9
:104C0C004FF48073EDB2C7808380013D066080460F
:104C1C000027AF4210D23046FFF7B0FB40B16379AA
:104C2C00013363710137C8F8000006608046F0E775
:104C3C002046FFF7C2FF00242046BDE8F081012189
:104C4C000430FFF760BB10B5012104460430FFF7B8
:104C5C0066FBC0B220B92046BDE81040FFF7ADBFDF
:104C6C0010BD1FB503920022009203AAFFF760FF4C
:104C7C0005B05DF804FB1FB503920122009203AA54
:104C8C00FFF756FF05B05DF804FB20BF40BF20BF07
:104C9C007047836800225A60C3E904229A60DA6084
:104CAC001A60704770B5446806460D46206820B1FE
:104CBC00B36829469847236818B923682B60256088
:104CCC0070BD1C46F2E74368186808B102681A60A8
:104CDC0070474368186870474368186800B9704794
:104CEC001A688A4203D10A681A6001207047134679
:104CFC00F3E7704707B5054B0093054A4FF4006383
:104D0C0000F035F803B05DF804FB00BF214D000046
:104D1C00240600202DE9F84388461446B2B1104B06
:104D2C00104D0326002743F00109224608EB07012A
:104D3C00002001F09DFA0744241A60B92B782BB19E
:104D4C004FF47A40C847013E02D12E70BDE8F8837B
:104D5C0001232B70E9E701232B70002CE5D1F5E73B
:104D6C00C06F0000240E0020704701F0ADBAF0B502
:104D7C0095B01D46164608460C46FFF760FF1A9B79
:104D8C000D93CDE9086500252B46082205A9204680
:104D9C000A958DF82C500C95FFF76DFF079B02932D
:104DAC00069B03939DF814308DF8115003F0030209
:104DBC00012A1DD1BDF81450059EC3F3C203C5F3DF
:104DCC0083158DF81030AA0008230EA92046FFF792
:104DDC0052FFC6F3952608AB00932A4602AB0EA9E8
:104DEC00304600F039FB2046FFF72DFF15B0F0BD23
:104DFC00022AF8D1BDF81650C3F3C203C5F38915C6
:104E0C008DF810300827082D2E4628BF08263B4663
:104E1C0032460EA92046FFF72EFFAD1B08AB02AAA7
:104E2C0031460EA8374400F07BFB002DEBD1DAE7BE
:104E3C0008B5FFF79AFF0448042100F07DFA034BF4
:104E4C0001225A7108BD00BF54650000B800002053
:104E5C00037813F0040215D003F00303012B03D0E5
:104E6C00022B09D0012070470B6802880233C2F371
:104E7C00831213440B60F5E70B684288023303EB93
:104E8C009213F7E7104670472DE9FF413C4C8846DA
:104E9C000546861C00201746FEF736F96268C8F8EE
:104EAC000020A36803F580739B1A9E4216D800223B
:104EBC00002F61D005F00F05AD0145F0050565F338
:104ECC000F026168CBB203330E44002044F8232058
:104EDC00666004B0BDE8F041FEF718B9012129481D
:104EEC00FFF711FA2848FFF729FA2848FFF726FAA6
:104EFC00A0680090C0B2033004EB80006946FFF755
:104F0C00A7FF009AD3B200BB04EB8303911CDB68B0
:104F1C0001930132D2B204EB820203F00303012BA2
:104F2C00D268009120D0022B13D080461748FFF78F
:104F3C0008FA08B1009BA36012484146FFF7E3F959
:104F4C00A368626803F58073AEE7033304EB830058
:104F5C00D4E7BDF80630C3F3891303334FEA124884
:104F6C0001EB93030093E1E7BDF80430C3F3831323
:104F7C004FEA12480B44F5E7AD0545F00602A0E7F1
:104F8C00280E002044120020401200203C12002069
:104F9C00064B074810B500221A70FFF70CFE0446AA
:104FAC0010B90448FFF775FE204610BD280E0020EE
:104FBC00E0640000D46F000030B50A4C71B10A4BAC
:104FCC000A491B1BDA0800239A4201D1002030BD8C
:104FDC0031F82350854202D00133F5E7034654F8EB
:104FEC003300F4E7F4640000546500001400002062
:104FFC00094B013903EBC000032909D8DFE801F0A4
:10500C00020A040602207047007970474079704705
:10501C000020704704207047F464000070470000C3
:10502C00034BD3E90130C31A58425841704700BFB3
:10503C00280E00202DE9F04385B0FFF7F1FF002882
:10504C007CD1724CC4F81804BFF34F8FA068009049
:10505C00C0B2033004EB80006946FFF7F9FE009BF9
:10506C0018B1D4F81824002A64D0DAB29F1C01338A
:10507C0004EB8202DBB204EB8303D268DB6802939D
:10508C0002F00303022B0192009760D1BDF80630A9
:10509C005F48C3F389184646502E28BF502666F346
:1050AC008F1306F10801ADF80630FFF79CFD05469D
:1050BC00002800F09580FFF7C2FD002301A908220B
:1050CC002846FFF7CEFDFB43DBB20133F9B20331C7
:1050DC00B6EB830F4FEA830904EB810134D9082323
:1050EC004A46A6EB09062846FFF7BBFDF6B249492E
:1050FC0009F10803324608F10308284607EB980724
:10510C00FFF7AFFD0097D4F81834002B54D1D4F826
:10511C001064002E59D12846FFF795FD3046FDF757
:10512C00F3FFD4F818340BB9009BA3600020FDF7F3
:10513C00EDFF44E062689A4204D8A260002005B0FA
:10514C00BDE8F083D8B284E708233246D3E7012BBD
:10515C0046D1BDF804302E48C3F38311062928BF6D
:10516C00062161F38913023101F00F018900ADF8BA
:10517C000430FFF738FD054690B3FFF760FD0023C0
:10518C00082201A92846FFF76CFD0026BDF8042073
:10519C00C2F38312B300B24203F10803B3D90099EE
:1051AC004A1CC9B20331009204EB81010422284647
:1051BC00FFF757FD0136E9E72846FFF744FDFFF7F7
:1051CC002FFF80F00100C0B2B9E7F3685B7923B11F
:1051DC00336829461B6830469847F3681E6898E781
:1051EC00D4F8104454B90C4B0C480D49C01AC008E3
:1051FC00000440F0020000F05DF8E0E72368204670
:10520C009B689847E3681C68ECE700BF280E0020F9
:10521C00E0640000340E0020F464000024650000FB
:10522C00706D00002DE9F34704460E461846914672
:10523C0001A901229A46FFF727FE019D1B4FAB1CCB
:10524C004FF00008D04508EB030125D11848002188
:10525C00FFF712F880F310006B1C000440EA1440B6
:10526C00DBB2E40007EB830304F03804EDB244F046
:10527C000104D860033544EA88143B7844EA862458
:10528C0047F825401BB1FFF7D5FE0028FBD1FFF7EF
:10529C00C5FE02B0BDE8F087C9B207EB810159F831
:1052AC002820CA6008F10108CCE700BF280E0020B6
:1052BC004412002000231A46FFF7B4BF07B50123A0
:1052CC00019201AAFFF7AEFF03B05DF804FB07B52E
:1052DC00CDE9002302236A46FFF7A4FF03B05DF873
:1052EC0004FB1FB5CDE90123069B039301AA0323FD
:1052FC00FFF798FF05B05DF804FB1FB5CDE900235F
:10530C00069B0293079B03936A460423FFF78AFFCD
:10531C0005B05DF804FB7FB5CDE90123089B039331
:10532C00099B04930A9B059301AA0523FFF77AFFB7
:10533C0007B05DF804FB000030B50F4CD4F8102416
:10534C0003460020114631B9D96808717AB9C4F8FE
:10535C0010340A600AE0C9680D79A84201D00968C6
:10536C00F1E701300A28EDD14FF0FF3030BDD268A3
:10537C0014680C601360F9E7280E002038B5084B50
:10538C000125D3F810441D7004B938BDE3685D7174
:10539C00236820465B689847E3681C68F4E700BF05
:1053AC00280E002010B5037A052B0C460FD0437A3B
:1053BC0023B1084A08492046FFF720F80749204640
:1053CC00FFF71CF82046BDE81040FFF70CB8002A88
:1053DC00F8D0F3E7856D00008A6D0000AA6D00001F
:1053EC00C38873B504460D4633B1144A0092144970
:1053FC00144A2846FFF702F8217A05291CD0637A53
:10540C004BB1A088FFF7F4FD0F4B104953F8202047
:10541C002846FEF7F3FF227A0D4BA08853F8226042
:10542C000021FFF7C9FD0B4903463246284602B05E
:10543C00BDE87040FEF7E2BF02B070BD856D0000A4
:10544C00956D00008D6D0000E06F00008A6D00000E
:10545C0004700000AD6D00002DE9F04385B01F46CF
:10546C000C9D002395F80C902B7306460C46904629
:10547C0029463846FFF7B4FFB8F1060F09D8DFE824
:10548C0008F00412181F2833400031462846FEF756
:10549C00B5FF002229463846FFF784FF85F80C90AB
:1054AC0005B0BDE8F083226831462846FEF7A6FF1A
:1054BC00EFE7D4E9002331462846FEF79FFFE8E7E3
:1054CC00A3680093D4E9002331462846FEF796FFE3
:1054DC00DFE7E3680193A3680093D4E90023314626
:1054EC002846FEF78BFFD4E723690293E368019308
:1054FC00A3680093D4E9002331462846FEF77EFFCB
:10550C00C7E76369039323690293E3680193A36874
:10551C000093D4E9002331462846FEF76FFFB8E725
:10552C0008292DE9F04780460E4617461C4635D80B
:10553C00002593F80C901D7319461046FFF750FF89
:10554C00AE422DD918F805201B492046FEF756FF10
:10555C000135082DF4D119492046FEF74FFF4FF0C5
:10556C00000A564523D918F80A507E2D1DD8284616
:10557C0000F066FF002814BF2A462E221049204650
:10558C00FEF73CFF0AF1010ABAF1080FE9D101223A
:10559C0021463846FFF706FF84F80C90BDE8F087EB
:1055AC0008492046FEF72AFFD2E72E22E6E70649F5
:1055BC002046FEF723FFE5E7B76D0000C16D000044
:1055CC00C36D0000BD6D0000BF6D00000649074BA8
:1055DC00C1F81435064B5A7C064B013A43EA024398
:1055EC00C1F81835704700BF0010004006000300DA
:1055FC00C400002020000001074A084BC2F81435F3
:10560C00074B5B7C013B40EA034343EA002040F03C
:10561C008070C2F8180570470010004000010100AE
:10562C00C40000200F4B10491A7AC1F81025042A27
:10563C0016D8DFE802F00E03150E03000B4A3021DA
:10564C0011600A4998890A683E32904204D30120BD
:10565C007047064A4921F3E70A683E329A81F6E719
:10566C00002070475C17002000100040B813002089
:10567C00044A0023C2E908339362034AC2E908339F
:10568C009362704708160020B4140020184B194977
:10569C001B6810B5184CC4F80032184B1A68184B1C
:1056AC00C3F840258A89823AC3F844250122DA607E
:1056BC000022C3F84021C3F8442103F5A8334FF46A
:1056CC00E050C3F804054FF40050C3F80805C4F8C3
:1056DC000C21087810B90B4B1B6898470A4BC4F87F
:1056EC0004350A4B0A4A1A600A4B03221A7010BD81
:1056FC00C00000205C17002000100040B8130020F0
:10570C0000A00040B013002070140020B41300203F
:10571C00B15900007C1700202DE9F0411B4BDFF83C
:10572C0070801A78012A07460E4624D198F800207A
:10573C00202A29D8174B1C6A53F824502A70164972
:10574C00681D00F0FBFD154B6F70D3F84835AB703E
:10575C0098F801302E71DB4303F00103EB700D4B15
:10576C0001349A6A082C28BF002401321C629A6208
:10577C000120BDE8F08107495A780C6A51F8245091
:10578C00002ADBD0DA7CD9E70020F2E75C17002096
:10579C0070140020B414002072140020001000407B
:1057AC0007498B6893FAA3F3064A1BBAC2F824354F
:1057BC00CB6893FAA3F31BBAC2F82835704700BF25
:1057CC00C4000020001000402DE9F041414B424F35
:1057DC00DFF808813E78424D01221A60414B5A6A2B
:1057EC0053F82240C8F80040FEB1012E40D0627838
:1057FC003D4B0121C3F82C2501FA02F2C3F83025E8
:10580C003A4AD27CC3F80825394AC3F80455022019
:10581C00C2F8800110600022C3F80421C3F80821EB
:10582C00C3F810211960BDE8F081324B20781B6859
:10583C009847D8F800406E7023792B702146A81C2D
:10584C0011F8052B00F07AFD2B4B274A1B6843F00F
:10585C000803C2F800321123C2F80433274BFA892B
:10586C001A60274B274A1A60274B02221A70BEE790
:10587C00E37813B13E7D86F0010622782A70B3FAE4
:10588C0083F3227921485B0943EA420321466B707A
:10589C0011F8052B00F052FD174A134B18481A4902
:1058AC00126876B142F00802C3F800221122C3F844
:1058BC000423124BFA891A60124B036002230B70FB
:1058CC0095E7C3F800221022C3F80423104B0360A1
:1058DC000123F4E7BC1300205C170020781700208C
:1058EC00921400200816002000100040C400002074
:1058FC0000E100E0B0130020C0000020C013002025
:10590C00B4130020995600007C170020941400203A
:10591C006D5900000F4B1B78B3B10F4A936AABB1B2
:10592C000E490220C1F88000BFF34F8FBFF36F8F79
:10593C00936A013B9362536A0133082B28BF0023FF
:10594C005362086000207047082070474FF4807045
:10595C00704700BF7D1700200816002000E100E012
:10596C000C4A08B5136843F001031360FFF7D2FF2C
:10597C00094B996A094B4FF4801221B90848017000
:10598C00C3F8002108BDC3F80021BDE80840FFF7AB
:10599C001BBF00BFEC1300200816002000E100E044
:1059AC007C170020464B70B54FF4E052454EC3F8BF
:1059BC000825D6F80C11444A002943D0D6F8001417
:1059CC0000293FD04149424C424D012008614FF41F
:1059DC000051C3F808152368034323601268EB8950
:1059EC009B1A3D4A03441360FFF794FF2B7893B145
:1059FC003A4B1A787AB13A4AD6F82C05926A072AA9
:105A0C0009D85978C0B24908FFF786FE18B1236847
:105A1C0043F004032360334B9A6A334B12B12A7C54
:105A2C00012A07D1314A002111704FF48012C3F8BA
:105A3C00002170BD4FF48012BDE87040C3F8002106
:105A4C00FFF7C2BE1368294D591E1160ABB91F4A2E
:105A5C000121116102F5A8324FF40051C2F808156A
:105A6C001C4A1D49D28901320A6019490A6842F060
:105A7C0002020A602B701C4BD7E71D4B114C1B68A4
:105A8C0043F00803C4F800321A4B1A681A4B10780A
:105A9C001B689847194BC4F80435194B194A1A60FE
:105AAC0007490A4A02232B704FF40050012313605C
:105ABC00C1F80405D2F84421002ABAD02360B8E713
:105ACC0000F0014000100040C013002000A0004076
