:100F6200C2C7D2C5D2C475C2EDC2C1D2ECD2AF22C1
:080F800030C0FDC2C0AFC12268
:080F88008FC130C1FDC2C1227E
:100F500075A15575A1AAE5B954F84404F5B9E4F5AD
:020F6000A122CC
:0E0F7200EF4E600905A1EF1F70F61E80F322FE
:100F2000CDEFCDCCEECCED4C600E7FE87E03120F02
:090F300072ED1D70F11C80EE222F
:040FA00043C6102212
:100D2000C29FD29EC29DC2CDC2CC43878090011982
:100D3000120AC0000000C3E47B0AFAF9F890011916
:100D4000E0FCA3E0FDA3E0FEA3E0FF120A22CCE852
:100D5000CCCDE9CDCEEACECFEBCF90011DEFF09018
:100D60000119E0FCA3E0FDA3E0FEA3E0FFE47B0AA1
:100D7000FAF9F8120A22900119120AB490011DE042
:100D8000C3940574809480401F900119E0FCA3E097
:100D9000FDA3E0FEA3E02401FFE43EFEE43DFDE40C
:100DA0003CFC900119120AB4E589540F4420F589DE
:100DB00043C9A0900119A3A3A3E0F404F58DD28E3A
:040DC000D299D29C56
:010DC400220C
:080F90003098FDC298AF9922D0
:080F98008F993099FDC29922E6
:100F390075A15575A1AAEF600543B101800353B1AD
:070F4900FEE4F5A1F5FF2213
:030FA4008FFF229A
:100C67004C69676874206F6E204E756D204C6F63FA
:100C77006B204C4544210A004C69676874206F66F5
:100C870066204E756D204C6F636B204C4544210ADE
:100C9700007A7A007374617274202E2E2E0A002552
:100CA7006400120110010000004096AA32AA010058
:100CB7000102000109022900010100A02309040023
:100CC7000002030000000921000121012222000780
:100CD700058203400001070502034000010600FFEB
:100CE7000901A101090215002600FF750895408139
:100CF70006090215002600FF750895409106C00AEF
:100D070003590052004B0042001003530050005A91
:090D1700005F00430046004700A4
:0C00460041018F0041018500410186004E
:10000300C2EAE4F5E275D18053D1FB53E2BFCE746B
:1000130000CECF7440CF8EE58FE443EB0C53EBFE61
:10002300CE7400CECF7400CF8EED8FEC53EAF3F590
:10003300E343E22943D10175D8FF75E107D2EA22F0
:100ECD00C87480C8CC7400CCCD7401CD7B017A017F
:100EDD0079427E007F40120991900193E0600C757C
:0C0EED00D54053D4FC90018F7401F0221A
:0300430002005662
:0D005600C0E0C0F0C083C082C0D075D008EB
:1000630020D90302051CE5D9543F70030204E6249A
:10007300FE602824E2700302045524F06042240E3B
:10008300600302051875D50063D44090018FE4F036
:10009300E5D454FC4402F5D402051820DE0302051E
:1000A30018AFDB9000C2E4F0A3EFF063D4809001BB
:1000B300857401F09000C2A3E0900186F002051858
:1000C30075DCC0AFDB9000C2E4F0A3EFF09000C298
:1000D300E07004A3E064086003020425900007E0D5
:1000E300FE900006E0FDEDFF900182EEF0A3EFF03D
:1000F3009000C2E4F0A3F09000C1F0900001E09002
:100103000184F0900000E0546070030201969001B6
:1001130084E024FE604314604024FA24FD503A2412
:100123000B70309001907401F0A37401F0A374423A
:10013300F0900182E0FEA3E0FFC39440EE940090B0
:1001430000C24008E4F0A37440F0800DEEF0A3EF8A
:10015300F080069000C174FFF09000C2E0FEA3E0BF
:10016300FFD3900183E09F900182E09E4005EEF073
:10017300A3EFF0900182E0FEA3E0FFC39440EE946E
:1001830000400D7C007D40CEECCECFEDCF0202B31C
:100193000202B3900184E0B40B00400302042390F5
:1001A30001A9F82828730203FA0203450204230273
:1001B300037D0204230202FE0201CA020423020396
:1001C3000A02032F02042B900003E024FE602B1489
:1001D300604124E1700302025E242160030202777E
:1001E30090019074FFF0A3740CF0A374A9F0900035
:1001F300C2E4F0A37412F002027D90019074FFF048
:10020300A3740CF0A374BBF09000C2E4F0A37429B0
:10021300F08067900002E0FF7E006401701090019F
:100223009074FFF0A3740DF0A37406F08014EF64D0
:10023300024E704090019074FFF0A3740DF0A3740C
:1002430010F0900190E0FBA3E0FAA3E0F91209B7E4
:10025300FF9000C2E4F0A3EFF0801F90019074FFC1
:10026300F0A3740CF0A374E4F09000C2E4F0A37460
:1002730022F080069000C174FFF09000C2E0FEA35C
:10028300E0FFD3900183E09F900182E09E4005EE62
:10029300F0A3EFF0900182E0FEA3E0FFC39440EEF1
:1002A3009400400C7C007D40CEECCECFEDCF80009F
:1002B3009000C2EEF0A3EFF09000C2E0FEA3E0FFD7
:1002C300C87400C8CC7400CCCD7401CD900190E00B
:1002D300FBA3E0FAA3E0F91209919000C2E0FEA3A8
:1002E300E0FFC3900183E09FF0900182E09EF090D5
:1002F3000191EE8FF01209D002042B900002E0FF6F
:10030300900182E402041D900141E0900000F0C3DB
:10031300900183E09401900182E094005003020471
:100323002B9000C2E4F0A304F002042B900002E03F
:10033300900141F0700302042B9001937401F002C9
:10034300042B900000E0541F6402702B900004E023
:1003530024FE601D2481600E147047E5D454BC4410
:1003630002F5D402042BE5D254BC4402F5D20204B4
:100373002B53D47302042B020425900000E0541F76
:10038300FD7C00701F900003E0FE900002E0FBEB99
:1003930064014E700D900CC29330E50302042B02EE
:1003A3000425807EED64024C704B900003E0FE90C8
:1003B3000002E0FDED4E703B900005E0FE9000046E
:1003C300E0FDEDFFEE702AEF24FE6011248160173B
:1003D30014701EE5D454BF4403F5D4804BE5D454C4
:1003E3007F440CF5D48041E5D254BF4403F5D28059
:1003F30037802F802D802B900000E4F0A3F0900134
:1004030082E0FEA3E0FFC39402EE94009000C2409A
:1004130008E4F0A37402F0800FEEF0A3EFF080087D
:1004230080009000C174FFF09000C1E0F470067585
:10043300DCCF0205189000C2E0FEA3E0FFD3944096
:10044300EE940050048FDD800375DD0075DCC0027F
:100453000518900184E024FB607214600424057085
:100463007A900182E0FEA3E0FFC39440EE94004043
:100473000C7C007D40CEECCECFEDCF80009000C24F
:10048300EEF0A3EFF09000C2E0FEA3E0FFC874001B
:10049300C8CC7400CCCD7401CD900190E0FBA3E0F7
:1004A300FAA3E0F91209919000C2E0FEA3E0FFC3B2
:1004B300900183E09FF0900182E09EF0900191EE25
:1004C3008FF01209D08FDD63DC408049900182A355
:1004D300E0FFE5E354804FF5E3800375DD0075DC51
:1004E300028032AFDB9000C2E4F0A3EFF09001840E
:1004F300E06409701D900000E060087BFF7A0C79CE
:1005030067800C900000E070097BFF7A0C797F1202
:1005130005C763DC80C2D9803530D81A75DC027513
:10052300D40275E300C2DAC2D9900193E4F09001DA
:100533008FF0C2D8801830DA12C2DAE5DA30E20E70
:0E0543007BFF7A0C79981205C7800375D8FFEC
:0B055100D0D0D082D083D0F0D0E032B8
:100E5100120F507F057E00120F20120D207BFF7AAA
:100E61000C799B1205C7120F627E007F407D007BCB
:100E7100017A017942120AF1120003D2AFE4F5D3EB
:100E8100F5D5900193F0900193E06037900185E0F2
:100E910060F4E4900118F0900186E0FF900118E001
:100EA100FEC39F501774402EF582E43400F583E0B1
:100EB100FF120F88900118E004F080DBE4900185B7
:0C0EC100F080C37F647E00120F2080BA16
:03005300020BA2FB
:0D0BA200C0E0C0F0C083C082C0D075D00894
:100BAF009000EDE4F0A3F0A3F020C003020C5C90E2
:100BBF0000ECE5C1F0C2C07BFF7A0C79A6E0900192
:100BCF001CF01205C79000EEE070279000ECE0F4E7
:100BDF0070199000EE04F09000EDE4F0FE7F40FD00
:100BEF007B017A017942120AF180629000EDE4F004
:100BFF00805B9000EDE0FF70139000ECE09000EF51
:100C0F00F0D3944074809480403D801EEF14FF9089
:100C1F0000EFE0FEEFC39E401C9000ECE064FE701E
:100C2F000990018FE070FA120ECD9000EEE4F09073
:100C3F0000EDF080129000ECE0FFA3E02441F5827C
:0D0C4F00E43401F583EFF09000EDE004F0D7
:0B0C5C00D0D0D082D083D0F0D0E032A6
:03000000020DC529
:0C0DC500787FE4F6D8FD758123020E0C47
:1008C100E709F608DFFA8046E709F208DFFA803E19
:1008D10088828C83E709F0A3DFFA8032E309F60806
:1008E100DFFA8078E309F208DFFA807088828C836E
:1008F100E309F0A3DFFA806489828A83E0A3F60822
:10090100DFFA805889828A83E0A3F208DFFA804CFB
:1009110080D280FA80C680D4806980F280338010D2
:1009210080A680EA809A80A880DA80E280CA80333B
:1009310089828A83ECFAE493A3C8C582C8CCC583B3
:10094100CCF0A3C8C582C8CCC583CCDFE9DEE78083
:100951000D89828A83E493A3F608DFF9ECFAA9F002
:10096100EDFB2289828A83ECFAE0A3C8C582C8CC58
:10097100C583CCF0A3C8C582C8CCC583CCDFEADE71
:10098100E880DB89828A83E493A3F208DFF980CCD3
:1009910088F0EF60010E4E60C388F0ED2402B404CC
:1009A1000050B9F582EB2402B4040050AF23234573
:0609B1008223900911737E
:1009B700BB010689828A83E0225002E722BBFE023E
:0909C700E32289828A83E4932271
:1009D000C5F0F8A3E028F0C5F0F8E58215827002B2
:0609E0001583E038F0224F
:1009E60075F008758200EF2FFFEE33FECD33CDCCC8
:1009F60033CCC58233C5829BED9AEC99E58298404B
:100A06000CF582EE9BFEED9AFDEC99FC0FD5F0D627
:100A1600E4CEFBE4CDFAE4CCF9A88222B800C1B951
:100A26000059BA002DEC8BF084CFCECDFCE5F0CB8F
:100A3600F97818EF2FFFEE33FEED33FDEC33FCEBC8
:100A460033FB10D703994004EB99FB0FD8E5E4F983
:100A5600FA227818EF2FFFEE33FEED33FDEC33FC70
:100A6600C933C910D7059BE99A4007EC9BFCE99A64
:100A7600F90FD8E0E4C9FAE4CCFB2275F010EF2FA9
:100A8600FFEE33FEED33FDCC33CCC833C810D707A9
:100A96009BEC9AE899400AED9BFDEC9AFCE899F8E4
:0E0AA6000FD5F0DAE4CDFBE4CCFAE4C8F92277
:0C0AB400ECF0A3EDF0A3EEF0A3EFF022B5
:100AC000A8828583F0D083D082120AD7120AD71267
:100AD0000AD7120AD7E473E493A3C583C5F0C5838C
:100AE000C8C582C8F0A3C583C5F0C583C8C582C880
:010AF00022E3
:10055C00E51A241CF582E43401F583E0051A229097
:10056C00011930190390011CE475F001120B5C02A7
:10057C0009B72012E97F2ED2128018EF540F249065
:10058C00D43440D4FF30160BEF24BFB41A00500300
:10059C002461FFE51B6002151B051EE51E7002059C
:1005AC001D30190E900119E475F001120B5CEF026D
:1005BC000B4A020EF97403D2198003E4C219F51A1E
:1005CC00900119120B73E4F51BF51DF51EE51B606C
:1005DC00077F2012059F80F5751CFFC213C212C243
:1005EC0014C215C217C218C21A12056BFF700D3057
:1005FC0019057F001205B0AF1EAE1D22B4255FC2D7
:10060C00D5C21612056BFF24D0B40A00501A75F02F
:10061C000A781B30D50508B6FF0106C6A426F620BD
:10062C00D5047002D21580D924CFB41A00EF50042F
:10063C00C2E5D2160207B1D21380C6D21280C0D244
:10064C001480BCD2D580BAD21780B47F2012059FFB
:10065C002014077401B51B0040F112055CFF120554
:10066C009F0205D9D21AD218809512055CFB12058F
:10067C005CFA12055CF94A4B700679827A087BFFAA
:10068C0020142EE51B602A7E008E82758300120BCF
:10069C001D60060EEE651C70F0C2D5EBC0E0EAC022
:1006AC00E0E9C0E0EE1207F8D0E0F9D0E0FAD0E0D3
:1006BC00FB1209B7FF60AAEBC0E0EAC0E0E9C0E0BA
:1006CC0012059FD0E02401F9D0E03400FAD0E0FB11
:1006DC00E51C0460DCD51CD980877BFF7A0779F494
:1006EC00D214809C791080027908C218C21A800832
:1006FC00D2D5790A8004790AC2D5E51C047002F5BA
:10070C001CE4FAFDFEFF12055CFC7B08201313129F
:10071C00055CFD7B1030120A12055CFE12055CFFB5
:10072C007B20EC3382D592D55013C3E43012069F54
:10073C00FFE49EFEE42013039DFDE49CFCE4CBF857
:10074C00C213EC700CCFCECDCCE824F8F870F3804B
:10075C0017C3EF33FFEE33FEED33FDEC33FCEB331D
:10076C00FB994002FB0FD8E9EB301305F8D0E0C43D
:10077C0048B213C0E00AEC4D4E4F78207B0070C29B
:10078C00EAB51C0040BCC0E01207FAD0F0D0E02063
:10079C001304C4C0E0C4B213C0F0120588D0F0D565
:1007AC00F0EB0205D9120B7C06765306F05806477F
:1007BC004C06434206F44F06FC4406FC49065C43D7
:0807CC0007025506E64606E6A9
:1007D4004506E64708A250064B2D064F2E06722BFF
:1007E400065323067020088B2A060B480000066A6D
:1007F4003F3F3F00790AA2D5201514301709B910DC
:10080400020404B9080104A2D520180250010420EE
:1008140014689214B51B005034C0E07F20301519C1
:100824007F30A21472187217500F120851C214C2EA
:1008340018C217C21A7F30800F301703E9C0E012C4
:10084400059F301703D0E0F9D0E0B51BCC30171763
:100854007F30B9100C12059F7F583016077F7880BF
:1008640003B9080312059F3014057F2D02059F7FED
:1008740020201AF87F2B2018F322921480CF286EA0
:10088400756C6C2900D21312055C3013F8C213780E
:100894001B30D50108F602060B2D504349581205AA
:1008A4005C2403B405004001E490089D9312059074
:0D08B400743A120590D215751B040206F06F
:100AF100EF4E6012EF60010EEDBB010B89828A831C
:100B0100F0A3DFFCDEFA2289F05007F709DFFCA928
:0C0B1100F022BBFEFCF309DFFCA9F0227F
:100DD100020E51E493A3F8E493A34003F68001F2D9
:100DE10008DFF48029E493A3F85407240CC8C33323
:100DF100C4540F4420C8834004F456800146F6DFF2
:100E0100E4800B0102040810204080900046E47E3B
:100E1100019360BCA3FF543F30E509541FFEE493E6
:100E2100A360010ECF54C025E060A840B8E493A3AD
:100E3100FAE493A3F8E493A3C8C582C8CAC583CAD8
:100E4100F0A3C8C582C8CAC583CADFE9DEE780BE90
:0100520000AD
:100B1D00BB010CE58229F582E5833AF583E022508D
:100B2D0006E92582F8E622BBFE06E92582F8E222D7
:0D0B3D00E58229F582E5833AF583E49322F1
:100B4A00BB010689828A83F0225002F722BBFE018A
:020B5A00F32284
:100B5C00F8E0FBA3A3E0F925F0F0E5821582700222
:070B6C001583E0FA38F022C6
:090B7300EBF0A3EAF0A3E9F02283
:100B7C00D083D082F8E4937012740193700DA3A308
:100B8C0093F8740193F5828883E47374029368601C
:060B9C00EFA3A3A380DF1C
:100EF900EFB40A07740D120F04740A309811A899F7
:100F0900B8130CC2983098FDA899C298B811F63058
:070F190099FDC299F5992230
:00000001FF
