:10000000006000204902000001020000030200001D
:1000100005020000070200000902000000000000C5
:100020000000000000000000000000000B020000C3
:100030000D020000000000000F020000110200008D
:10004000010A0000954A0000E90E000013020000BA
:100050001302000000000000990D000013020000D0
:10006000130200001302000013020000130200003C
:10007000130200001302000013020000130200002C
:1000800013020000412200001302000013020000CE
:10009000814D000013020000130200001302000053
:1000A0001302000013020000000000000000000026
:1000B0001302000013020000000000000000000016
:1000C0000000000000000000000000000000000030
:1000D0000000000000000000000000000000000020
:1000E0000000000000000000000000000000000010
:1000F0000000000000000000000000000000000000
:1001000000000000000000000000000000000000EF
:1001100000000000000000000000000000000000DF
:1001200000000000000000000000000000000000CF
:1001300000000000000000000000000000000000BF
:1001400000000000000000000000000000000000AF
:10015000000000000000000000000000000000009F
:10016000000000000000000000000000000000008F
:10017000000000000000000000000000000000007F
:10018000000000000000000000000000000000006F
:10019000000000000000000000000000000000005F
:1001A000000000000000000000000000000000004F
:1001B000000000000000000000000000000000003F
:1001C000000000000000000000000000000000002F
:1001D000000000000000000000000000000000001F
:1001E000000000000000000000000000000000000F
:1001F00000000000000000000000000000000000FF
:10020000FEE7FEE7FEE7FEE7FEE7FEE7FEE7FEE7C6
:10021000FEE7FEE709480068094909680A280AD18B
:10022000002908D1074802686FF070031A404FF0A8
:1002300040031A43026000F009B8000030010010CA
:1002400034010010E40E0040FFF7E4BF0B484FF00C
:100250000701884385460A48804700F019B80948D5
:1002600009490A4A884207D0521A05D0037801305A
:100270000B700131013AF9D1704700000060002095
:10028000BD04000060600000000000201400002099
:100290003A493B480A1A02D0072291438D46394910
:1002A00039480A1A06D00722914381F309880222AD
:1002B00082F3148835483649364A00F041F836480A
:1002C0003649374A00F03CF836483749374A00F09B
:1002D00037F837483749384A00F032F83748384954
:1002E000384A00F02DF838483849394A00F028F8E3
:1002F00038483949394A00F023F839483949002249
:1003000000F036F838483949002200F031F8384812
:100310003849091A05F0B2FD374A90472548264961
:10032000884205D00268043003B4904703BCF7E765
:1003300000208646EC4600200021304A9047FEE728
:10034000884214D0521A12D003460B43134303249D
:10035000234206D1036804300B600431043AF9D11A
:100360007047037801300B700131013AF9D17047C1
:10037000884202D002700130FAE770470060002026
:10038000005800200060002000600020DC6C0000AD
:1003900014000020F0000020000400000004000011
:1003A000E45F0000DC6C000014000020140000205A
:1003B00074600000746000007460000074600000ED
:1003C00074600000746000007460000074600000DD
:1003D000D96C0000B86D0000F0000020F000002093
:1003E000F00000200412002004120020041200205B
:1003F00004120020041A00205F0200000104000023
:1004000008B500F021F908B101F038FA002000F039
:100410006FF9002000F03AF900F0D8F90028FBD07D
:1004200000F05EF90028F7D001F032FB08B101F0CE
:1004300025FA4FF48041002003F068FD08B101F077
:100440001DFA03F0AFFC134C05F07EFC124B134970
:10045000E41AE408240444F00304204603F0E8FE10
:1004600004F094FF0E49204603F0E2FE05F02EFA58
:100470000C49204603F0DCFE05F094F90A492046B9
:1004800003F0D6FE03F094FD0028FBD103F0B9FB86
:10049000F8E700BF20600000F85F00007460000013
:1004A0007F60000089600000B0600000024AD2F85E
:1004B0000034002BFBD0704700E001404FF0805328
:1004C00010B5D3F830210A2A5BD1D3F844224FF07B
:1004D0008041C2F34232C1F83C250022C1F80C2110
:1004E000C1F81021C1F83825484AD3F80404C2F8ED
:1004F0002005D3F80804C2F82405D3F80C04C2F888
:100500002805D3F81004C2F82C05D3F81404C2F857
:100510003005D3F81804C2F83405D3F81C04C2F827
:100520004005D3F82004C2F84405D3F82404C2F8E7
:100530004805D3F82804C2F84C05D3F82C04C2F8B7
:100540005005D3F83004C2F85405D3F83404C2F887
:100550006005D3F83804C2F86405D3F83C04C2F847
:100560006805D3F84004C2F86C05D3F84434C2F8E7
:100570007035D1F80034DB0709D56FF00103C1F8FD
:1005800000344FF08053D3F830310A2B0CD14FF0A8
:100590008053D3F834313BB14FF08042D2F8E43E7F
:1005A00043F00F03C2F8E43E4FF01023D3F80022CB
:1005B000002A03DBD3F80432002B22DA144901238A
:1005C0004FF01020C1F804351524FFF76FFFC0F875
:1005D0000042FFF76BFFC0F80442FFF767FF0023FC
:1005E000C1F80435FFF762FFBFF34F8F09490A4B8B
:1005F000CA6802F4E0621343CB60BFF34F8F00BFC1
:10060000FDE7064B064A1A6010BD00BF00C000405F
:1006100000E0014000ED00E00400FA0514000020B5
:100620000090D00338B5074C051E04F1080318BF2D
:100630001C4623682BB11A6822605B6828469847DD
:10064000F7E738BDF800002070B50D4C2578ADB93E
:100650000C486560A5602561E56000F07FF90646FD
:1006600000F08AF9012384F820502370064BD3F858
:1006700000340BB10123A370304670BD8526F5E729
:10068000F00000206D0700000000014038B5134C59
:10069000A378054603F0FF0073B115B16B68012024
:1006A0009847002001F096FCE3680133E3600020E6
:1006B000BDE8384001F090BC01F08CFC25B1226906
:1006C00013463BB92A602561E368002BECD100F0AA
:1006D00065F9E9E79D42F7D01B68F2E7F0000020DA
:1006E0004FF08043D3F81804C0F300407047000077
:1006F00038B5134C6378054603F0FF0073B115B1AC
:100700006B6800209847002001F064FC63680133A7
:1007100063600020BDE8384001F05EBC01F05AFC87
:1007200025B1A26813463BB92A60A5606368002B17
:10073000ECD100F040F9E9E79D42F7D01B68F2E701
:10074000F000002038B5084C002001F043FC63683D
:10075000013B6360656815B900F03AF96570BDE862
:100760003840002001F038BCF000002010B50446ED
:1007700030B9144B01225A70BDE81040FFF752BF48
:10078000012802D10F4B9870F6E7022804D1BDE88A
:1007900010400D48FFF7ACBF032811D1FFF7D2FF7F
:1007A000084A002192F8203082F82010D269DBB28A
:1007B00032B1042B0CBF20460220BDE81040104788
:1007C00010BD00BFF0000020040100204FF0804366
:1007D000D3F80C0400F00110A0F101135842584165
:1007E000704700001FB503788DF80030436801930F
:1007F00083688DF80830C368054A0393054B684643
:1008000053F8213052F82110984705B05DF804FBE9
:10081000180100201C0100201FB503788DF800305E
:100820004368019383688DF80830C368054A0393D1
:10083000054B684653F8213052F82110984705B00F
:100840005DF804FB180100201C010020F0B5194BD5
:1008500090F800C091F81DE043F82C20164B164686
:100860000A6943F82C20154B0C4603F80CE00746A8
:100870000FCC89B06D460FC594E80F0085E80F00D6
:10088000CDF810C0BEF1000F09D0002E0C4A694609
:1008900008BF3246381D00F05FFE09B0F0BD002EE3
:1008A000084A694608BF324607F10C0000F028FCF0
:1008B000F3E700BF1C0100201801002014010020F4
:1008C000E507000019080000024AD2F80034002BA6
:1008D000FBD0704700E001400A4908B50223C1F887
:1008E0000435BFF36F8FBFF34F8FC1F80805FFF7D3
:1008F000EBFF0023C1F80435BFF36F8FBFF34F8FB9
:1009000008BD00BF00E0014070B50E4E0123154642
:10091000C6F80435BFF36F8FBFF34F8F0024AC428E
:1009200007D10023C6F80435BFF36F8FBFF34F8F95
:1009300070BD51F8243040F82430FFF7C5FF013472
:10094000EDE700BF00E0014000F18040002382B0ED
:10095000036003680193019B02B07047054A137955
:100960002BB9012110609371918018467047852042
:10097000704700BF20010020074B1A68D20704D43B
:10098000C02283F8002301221A604FF08043002226
:10099000C3F81825704700BF00E100E008B54FF428
:1009A0008270FFF7D1FF4FF080430222C3F8042387
:1009B00001229A6008BD08B54FF48070FFF7C4FFAC
:1009C0004FF080430122C3F804231A6008BD0000E1
:1009D0004FF08042012108B54FF48070C2F808132F
:1009E000FFF7B2FF5160D2F80C3403F00113B3F1FA
:1009F000011FF8D0014B00225A7108BD20010020D0
:100A00004FF0804110B5D1F8003163B14FF48070E0
:100A1000FFF79AFF1F4B58790122C1F8082310B93C
:100A20005A711B6898474FF08042D2F8043153B195
:100A30004FF48270FFF788FF0223C2F80833154B8A
:100A400001201B6898474FF08042D2F8103153B113
:100A50004FF48870FFF778FF1023C2F808330D4B6E
:100A600002201B6898474FF08042D2F80C3183B1C6
:100A700000214FF48670C2F8341CFFF765FF08238D
:100A8000C2F80833034B9971BDE810401B6803207E
:100A9000184710BD2001002000F1804000F5C04043
:100AA000002382B0036003680193019B02B070478A
:100AB000800000F1A040D0F8003723F44033C0F8A4
:100AC0000037D0F8003743EA0143C0F800377047D9
:100AD000054B4FF0FF32072843F8202084BF1B1836
:100AE00083F86020704700BF2801002010B5184C23
:100AF00094F876304BBB4FF0FF3204F1480122FAF4
:100B000003F0C00748BFCA540133202BF7D100219E
:100B1000C8B20131FFF7DCFF1229F9D10D4B0022D9
:100B20001A600D4BC02183F80613402119604FF461
:100B3000BE70FFF7B1FF094B4FF00041C3F804133B
:100B4000012384F87630104610BD0820FCE700BF72
:100B5000280100209A01002000E100E00060004030
:100B6000F0B53B4E331893F94830002B6DDA8F788F
:100B7000C7F34007002F15BF002308234FF0080CD0
:100B80004FF0120C634501D10420F0BD56F82350FC
:100B900001354FEA830442D106EB000C5DB246F802
:100BA00023208CF8485017B9334483F860008B78C1
:100BB0005F0716D4DA0734D5830003F1A043D3F8D6
:100BC000002722F00202C3F80027224FC20800F0DB
:100BD000070C012303FA0CF317F802C043EA0C03D5
:100BE000BB548B780A789B0724D504F1804303F526
:100BF000C0430002D3F8101521F4473121F44071AD
:100C0000C3F810151204D3F8101500F4F85002F4CC
:100C1000403210430843C3F810050020B5E7013304
:100C2000B0E74A7800F5E0734FF0A047920047F82C
:100C30002320CAE7A5F1080346FA83F393F8681066
:100C400041EA821283F86820E7E708209DE700BFA9
:100C5000280100209A01002010B51F4C231893F999
:100C60004820072A18DD083A44FA82F292F86830E0
:100C70009B09032B0BD14FF0A043D3F81015C140B3
:100C800001F001010231BDE81040FFF711BF012B57
:100C90000CBF02210321F6E7D3B2072B1AD8930029
:100CA00003F1804303F5C043D3F8100540F0010081
:100CB000C3F8100502F1400040B2800080B2FFF797
:100CC000EBFE39B154F8223023B101239340034A9B
:100CD000C2F8043310BD00BF2801002000600040AE
:100CE0000E4B034493F94820072A02DD0021FFF749
:100CF000DFBED3B2072B0FD8930003F1804303F577
:100D0000C043D3F8101521F00101C3F810150123D9
:100D10009340034AC2F80833704700BF28010020FF
:100D200000600040F8B50446FFF7DAFF17490A19DA
:100D300092F9483092F84820072A9FBF144A03F5D9
:100D4000A273002042F8230004F00702012393401D
:100D50001048E208855C1D420AD004F5E0754FF0AA
:100D6000A046022746F82570855C25EA03038354D4
:100D70000B1993F94800002802DBC0B2FFF7A8FE68
:100D80002144FF2381F84830F8BD00BF280100202E
:100D9000006000409A0100202DE9F34700244F4DE8
:100DA00001944FF48072012102F1804303F5C043A6
:100DB0001B68012B07D1D5F804330B4203D090B246
:100DC000FFF76AFE0C430432B2F5907F4FEA41010F
:100DD000EAD1424BD3F87C31012BE2B229D14FF456
:100DE000BE70FFF759FE4FF0A043D3F820150191D4
:100DF000C3F820150AB344F00044394F00250126FA
:100E0000344210D0AB0003F1804303F5C043D3F864
:100E10001005D3F8101557F8253023B1C1F301415F
:100E2000C0F3042098470135082D4FEA4606E7D164
:100E300001E0002AE1D1002C48DA294C4FF0A0470C
:100E4000284D4FF00008012615F9013F5A1C31D0FA
:100E5000C3F3C20108316944DAB211F8041C03F08B
:100E60003F0903F0070306FA03F3194222D009F5FC
:100E7000E073484657F82330C3F3014ABAF1020F32
:100E80000CBF03210221FFF713FE06FA09F3C7F88E
:100E9000203504EB090393F9483054F823304BB163
:100EA0009109032904D0BAF1020F12D1012901D10D
:100EB0004846984708F10108B8F10A0FC4D1D7F89D
:100EC00020350193C7F82035002BB9D102B0BDE819
:100ED000F087BAF1030FEDD10229E8E70060004086
:100EE000280100208F010020014B1B68184700BF1C
:100EF000A00100200B4B984210B50C4601D00020F9
:100F000010BD002001F066F8074B187920B10020D1
:100F100001F062F81120F3E701221C601A7101F060
:100F20005BF8ECE700200040A001002000234350C4
:100F300082B043580193019B02B070470A4610B536
:100F40004FF48E71FFF7F2FF136A9168C95C136A60
:100F500001331362C0F81C1510BD8B690A4610B529
:100F60004FF4847123B9FFF7E1FFD0F8183510BDB5
:100F7000FFF7DCFF536AD168D0F81805C854536AEC
:100F800001335362F3E700001FB501238DF80030F1
:100F9000044BCDE90110D3E900126846904705B033
:100FA0005DF804FBA801002008B54FF49271FFF72B
:100FB000BDFF4FF48471FFF7B9FF0123036008BD43
:100FC00030B54D4DD5F804339A0585B051D5D5F8D7
:100FD0002431002B4DD04FF492712846FFF7A6FF25
:100FE0004FF40173C5F80833444B93F829200AB92C
:100FF00001226A60404902228DF80020D1F8802445
:10100000C1F8802403929A690292DA680192002260
:10101000C3E906226846D3E9001290473648D0F863
:101020001C315BB1354A5169136A99424DD992F826
:101030002830002B49D11146FFF780FF2E48D0F809
:101040004431002B56D04FF4A271FFF76FFF2B4BAA
:1010500093F829200AB1012202609A69002A49D036
:10106000586AD96800229A6105B0BDE83040FFF7A0
:101070008BBFD5F804335B07D0D5D5F80831002BEA
:10108000CCD01E4C1C482146FFF767FF636AA2695B
:101090009A42C3D1E369E1684BB1A3612369E3607C
:1010A0000023606AE3616362FFF76EFFB6E794F8BE
:1010B00029300BB901236B600F4B4FF40172C3F859
:1010C00008230023606AA361EEE70B484FF48E719A
:1010D000FFF72CFF5369002BB0D051690291002318
:1010E00091688DF80030019153616846D2E9001390
:1010F0009847A3E705B030BD00200040A8010020BC
:101100002DE9F843524D90F804802C2303FB08533B
:10111000064693F82A300C469146002B40F0948006
:101120004C490068FFF7E6FE0746002840F08E8035
:1011300021683368481C0BD04FF0A04001228A4040
:10114000C0F8082501F5E0724FF0030C40F822C00A
:101150006068421C1FBF00F5E0724FF0A04C4FF0DA
:10116000000E4CF822E0A269C3F8242594F814C0BC
:10117000627DBCF1010F4CEA0202C3F86C25C3F892
:101180001405C3F80C151DD1A1684A1C1FBF01F539
:10119000E0724FF0A0404FF0000C40F822C0E2682F
:1011A000501C0BD04FF0A04C01209040CCF808050B
:1011B00002F5E0704FF0030E4CF820E0C3F808256C
:1011C000C3F810152C2303FB08F3EA18C2F80490A7
:1011D0002269EA50B9F1000F1ED03068227F4FF427
:1011E0008E71FFF7A3FE4FF4A271FFF79FFE1A4B1B
:1011F000C0F8043340F307335201002BD2B21EDB98
:101200001649C81880F800230122580903F01F036B
:1012100002FA03F341F8203033680422C3F80025B2
:101220002C2303FB08530022C3E9062283F829205C
:101230005A61012283F82A203846BDE8F88308491C
:1012400003F00F03CA54E7E70827F5E71127F3E790
:10125000A8010020C10F00008000020000E100E0B2
:1012600014ED00E00279044B2C2101FB0233586994
:10127000003818BF01207047A80100202DE9F84F61
:10128000074690F8048089469346FFF7EBFF044633
:10129000002839D11E4E2C2508FB056A4FF48E71AB
:1012A000CAF814B0CAF820008AF828003868CAF8CA
:1012B0000890FFF73BFE012383605146FFF73EFE97
:1012C000DAF8043055460BBBDAF814402B6A9C421E
:1012D00010D8D0F81C31002BFBD00123C3600020B4
:1012E0002C2303FB086600237361BDE8F88F95F893
:1012F00028303BB9D0F81C31002BF8D05146FFF70D
:101300001DFEE3E70F20EBE71120EEE72046ECE7B8
:10131000A80100202DE9F0473C4D06792C2303FB62
:10132000065304465F68D3F8188037B9B8F1000F48
:1013300013D0D86910B311204BE0D0F800C000687A
:101340004FF4017ECCF808E3B8F1000F05D0DC695A
:10135000002C40D0CCF804E3EDE72C2303FB06532C
:101360009A610022D9605A62DA6193F8293013B980
:101370002068FFF719FE20687FBB02E02068196132
:10138000DA614FF4A2712C27FFF7D0FD06FB075856
:1013900047462068D0F824A1D0F80831D0F844910D
:1013A00003BBB9F1000F02D1BAF1000FF1D02C2329
:1013B00003FB06550023AB61BAF1000F22D1B9F14E
:1013C000000F21D195F8291023680122C1B11A60BC
:1013D0000020BDE8F0871961DA614FF40173C0F8AD
:1013E0000433F5E7BAF1000FE1D1B9F1000FDED116
:1013F0004146FFF7B2FD7B6ABA699A42C9D8D6E77F
:101400005A60E5E70320E4E70F20E2E7A8010020A7
:101410000023435082B043580193019B02B07047B0
:101420001FB501238DF80030044BCDE90110D3E93D
:1014300000126846904705B05DF804FBD401002017
:101440007FB5434AD2F82461002E60D010464FF495
:101450009271FFF7DDFF02238DF80030D2F880345F
:10146000C2F880340393D2F83C350293394BDA68E2
:1014700001920022C3E906226846D3E90012904790
:101480003348D0F8443173B14FF4A271FFF7C0FF75
:10149000304B9A693AB10022D0F83C05D968C3E9CB
:1014A0000622FFF7BDFF2A48D0F82031ABB14FF438
:1014B0009071FFF7ADFF0123C360264B5A6962B1FB
:1014C000D0F84C150291002299688DF80020019106
:1014D0005A616846D3E9001290471D48D0F8583148
:1014E0009BB14FF4AC71FFF793FF1A4B5A6962B18D
:1014F000D0F84C150291002299688DF800200191D6
:101500005A616846D3E90012904704B070BDD2F822
:101510001031002BB4D04FF488711046FFF778FFDC
:101520000C4BD2F83C0599698842A9D1DC69D9688D
:1015300064B1D2F8005225F02005C2F800521A69B1
:101540009C61DA60DE61FFF76BFF99E79C61FAE767
:1015500000200040D40100202DE9F843574D90F8B9
:101560000480242303FB0853064693F820300C46DE
:101570009146002B40F09E8051490068FFF7BAFC6D
:101580000746002840F0988021683368481C0BD03B
:101590004FF0A04001228A40C0F8082501F5E07212
:1015A0004FF0030C40F822C06068421C1FBF00F5DA
:1015B000E0724FF0A04C4FF0000E4CF822E0A26910
:1015C000C3F8242594F814C0627DBCF1010F4CEAE5
:1015D0000202C3F86C25C3F80C15C3F814051DD11D
:1015E000A1684A1C1FBF01F5E0724FF0A0404FF008
:1015F000000C40F822C0E268501C0BD04FF0A04C09
:1016000001209040CCF8080502F5E0704FF0030E81
:101610004CF820E0C3F80825C3F81015242303FB79
:1016200008F3EA18C2F804902269EA50B9F1000FF1
:101630002AD03068227F4FF48871FFF7E9FE4FF41B
:101640009071FFF7E5FE4FF49271FFF7E1FE4FF462
:10165000A271FFF7DDFE4FF4AC71FFF7D9FE194B15
:10166000C0F8043340F307335201002BD2B21CDB25
:101670001549C81880F800230122580903F01F03F8
:1016800002FA03F341F8203033680822C3F800253A
:10169000242303FB08550023C5E906336B610123AE
:1016A00085F820303846BDE8F883084903F00F0379
:1016B000CA54E9E70827F5E71127F3E7D40100202A
:1016C000411400001003420000E100E014ED00E0CE
:1016D0000279044B242101FB02335869003818BFFA
:1016E00001207047D401002001F06043B3F1005F96
:1016F0002DE9F04781460E46924636D190F8048097
:10170000FFF7E6FF044690BB1B4FD9F800202425C5
:1017100005FB08754FF490711046C5F814A0AE6033
:10172000FFF776FE4FF4AC71FFF772FE6B69C2F8FB
:101730004465C2F84835012393606B68CBB9D2F891
:101740002031D2F858010343F9D060B90123D360A6
:10175000D2F85831002BFBD0242303FB0877002359
:101760007B61BDE8F0870F20F6E71020F9E7112034
:10177000F7E72046F5E700BFD40100202DE9F84344
:1017800001F06043B3F1005F0F4673D106793A4D23
:10179000242303FB0653D3F80480D3F818C0B8F110
:1017A000000F08D1BCF1000F12D0DB69002B40D034
:1017B0001120BDE8F88301684FF40474C1F80843B0
:1017C000BCF1000F04D0DB699BB3C1F80443EFE721
:1017D000242303FB065300219A61DF6089462423FA
:1017E000046803FB06532046D9614FF48871FFF764
:1017F0000FFE4FF4A271FFF70BFEC4F83475C4F866
:101800003825B9F1000F1CD101232360B8F1000F76
:101810002AD1D4F81031D4F84421D4F82401134348
:1018200016D10028F5D0242202FB06520320936132
:10183000BFE7242303FB065311461F614FF0010944
:10184000CDE7D4F8003243F02003C4F80032DDE7DE
:10185000242303FB06550023984218BF03209A4215
:10186000AB6118BF0F20A4E74FF40473C4F804332E
:1018700000209EE710209CE7D40100201FB5002126
:10188000039001AA44F20100CDE9011100F004F82F
:1018900005B05DF804FB000038B572B602F02CFD0F
:1018A00002F086FB0028FBD1104B114C114D124960
:1018B000E41AE408240444F0010002F0B9FCD5F86D
:1018C000F030DB0700D500BE0C4944F0020002F006
:1018D000AFFCBFF34F8FEA68094B02F4E062134399
:1018E000EB60BFF34F8F00BFFDE700BFF85F000064
:1018F0002060000000ED00E0E6600000F260000003
:101900000400FA0510B5034649B152B1541E14EA59
:10191000020006D1986019609C80D86010BD0E202E
:10192000FCE70920FAE710B58468C2688388121BB7
:10193000934208D3C26813400268D154C36801338C
:10194000C360002010BD0420FCE78268C3689A428F
:101950000AD08268838813400268D35C0B70836866
:10196000013383600020704705207047C36883609F
:101970000020704710B5D0E90242D1E90203A0422D
:1019800093412CBF0120002010BD000008B50A487B
:1019900000F03FFC094AD2E90031C018084BD3E9F6
:1019A000002341F10001904271EB030303D210F1D7
:1019B000807041F1000108BD180000207002002075
:1019C0006802002038B5224B1D780446ADB3A0B3A1
:1019D000FFF7DCFFD4E902239042994130D3002085
:1019E00000F0F8FA23692BB94FF0FF324FF0FF33C4
:1019F000C4E90223002000F0EFFAD4E9053098474B
:101A0000002000F0E7FA2369A3B1D4E90212B2F191
:101A1000FF3F08BFB1F1FF3F0CD05B1842F100025D
:101A2000C4E90232002000F0D7FA0A48214602F049
:101A3000F5F803E0002000F0CFFA0025284638BD75
:101A4000B3F1FF3F08BFB2F1FF3FF6D0EDE700BFB3
:101A5000780200200061000037B505460C460A48B0
:101A600001A901F030FB68B10570446001A9064886
:101A700001F053FB10B9002003B030BD034800F063
:101A8000CDFBF8E70420F7E7FC0100201800002058
:101A900013B5114B114918680190082310485822BA
:101AA00001F0FEFA044698B90E4A0F4801A900F069
:101AB000A1FA044660B90C48012100F08DFB012316
:101AC0000A4A0948194600F0EFFA094B01221A7038
:101AD000204602B010BD00BF166100000C020020BD
:101AE000FC010020B91B000018000020FFFF7F0050
:101AF0007802002030B56AB103684FF0FF344FF030
:101B0000FF355A614A1E5142C3E9024551411961EC
:101B1000002030BD0720FCE770B5044600201646C3
:101B20000D4600F057FAD4E90223B3F1FF3F08BF96
:101B3000B2F1FF3F13D1FFF729FF281841F100014F
:101B4000C4E90201002000F047FA2369A66103B14D
:101B5000256121460020BDE87040FFF77DBF0020D1
:101B600000F03AFA002070BD10B50446002000F0E5
:101B700031FAD4E90223B3F1FF3F08BFB2F1FF3FCE
:101B80000ED04FF0FF324FF0FF33C4E902230020A4
:101B900000F022FA21460120BDE81040FFF75CBFAB
:101BA000002000F019FA002010BD0000014800F0EC
:101BB00030BB00BF180000202DE9F743074600F0B6
:101BC00013FB40B1634AD2E9003113F1807341F154
:101BD0000001C2E900310021384600F014FB38B1A1
:101BE0005D4C236823B12068FFF7ECFE00232360DF
:101BF0000121384600F007FB20B1FFF7C7FE574B25
:101C0000C3E900015648544E01A901F096FA4FF07D
:101C1000FF344FF0FF35A0B9DFF848814E4C404605
:101C200002F012F8002800F08A80D0E90223B3F114
:101C3000FF3F08BFB2F1FF3F36D1404601F0FEFF43
:101C4000EDE70378012B21D0022B09D1DFF81481B5
:101C5000404601F0F3FF20BB434B01221A700CE019
:101C60005BB94168D1E90223B3F1FF3F08BFB2F18C
:101C7000FF3F02D03B4801F0D1FF01A9384801F0F5
:101C800087FA01A9364801F058FAC4E74168336879
:101C9000994202D100233360EFE7324801F0D7FFC9
:101CA000EBE7C0E90245D3E7216891B12168D1E9AA
:101CB000020182428B412CD22368D3E90223B3F183
:101CC000FF3F08BFB2F1FF3F03D02168404601F05B
:101CD000A5FF404601F0B2FFD0E902590646FFF7E2
:101CE00055FE281A69EB0109012879F1000915DB75
:101CF000B0F5350F10D3FFF759FF1C4A02441C48BA
:101D00004FF49603002100F0EFF978B9236893B1FE
:101D1000266003B0BDE8F0832A46F0E714480021AE
:101D200000F067FA3046FFF74DFE01E00D28F9D0CC
:101D30000023236073E7384600F0AEF9E8E7064B6E
:101D40001B68002BE5D1384603B0BDE8F04300F036
:101D5000A7B900BF700200207C02002068020020AA
:101D6000FC0100200061000078020020FFFFB400A9
:101D7000180000200648074A03780749D35C01226F
:101D800013B10430FFF7FABC0C30FFF7C3BA00BF41
:101D90002000002014010020A10200200648074A6C
:101DA00003780749D35C012213B10430FFF79CBCD0
:101DB0000C30FFF763BA00BF2000002014010020A0
:101DC000A202002037B50578012D0DD0022D30D0AC
:101DD00075B91F491F48FFF7B8FD002834D103B07B
:101DE000BDE83040FFF7DABF037A1BB9FFF7C2FF47
:101DF00003B030BD4368184C19782046FFF793FDB7
:101E000080B18DF800500190144B68461B689847CC
:101E1000A168E368A2885B1A9A42E7D2104B0122BC
:101E20001A70E5E7A268E3689A42F1D08DF80000E5
:101E3000EAE7C3688DF800500193FFF79BFF074B5B
:101E400068461B689847D3E703238DF80030F6E710
:101E5000A20200208002002090020020A4020020A4
:101E6000A0020020F0B51F46234B89B004461A603B
:101E70000D4600293DD08A8820480968FFF742FDB9
:101E8000002834D1AA89A9681D48FFF73BFD002826
:101E90002DD11C4E0FCE6D460FC596E80F0085E87C
:101EA0000F0063690693237C174A18488DF81C704D
:101EB000003B18BF01238DF81430637C002B0CBF4E
:101EC00000230E238DF81530E3680293A368039373
:101ED00023680193694663680093FEF7B7FC30B945
:101EE0000B4B18702368013301D0FFF743FF09B093
:101EF000F0BD0720FBE700BFA402002090020020F5
:101F0000800200201C610000C51D00002000002090
:101F1000A002002008B50548FFF728FD20B9BDE85C
:101F200008400348FFF722BD08BD00BF9002002013
:101F30008002002070B5084D014608482E78FFF752
:101F400004FD044636B100232B70FFF713FF08B1E0
:101F5000FFF794FC204670BDA002002090020020F4
:101F600010B501460E48FFF7DEFC0446A8B90D483F
:101F70000D4A0378D35C63B10430FFF7A9FB60B965
:101F80000A490748FFF7E1FC38B9BDE81040FFF700
:101F900005BF0C30FFF766F9F1E7204610BD00BF22
:101FA000800200202000002014010020A202002056
:101FB00072B6024A1368013313607047A80200200A
:101FC000034A1368013B136003B962B6704700BF50
:101FD000A8020020FFF7ECBFFFF7F2BF034640580E
:101FE00082B028B100225A505B580193019B012016
:101FF00002B0704770B5204B4579204E43F825203C
:102000001F4B204A06EBC5059B1ADB080446180443
:102010002B7933B140F002001B4902F009F9082086
:1020200070BD23680A88C3F8082594F904308A78BB
:10203000002B4FEA4212D2B219DB1449CD1885F8B1
:10204000002301225D0903F01F0302FA03F341F8A4
:102050002530637906EBC3020121117140F00300C2
:102060000B4946F8334002F0E3F80020D8E709496D
:1020700003F00F03CA54ECE7B4020020AC020020C6
:1020800028600000F85F00003C61000000E100E013
:102090005E61000014ED00E0036801221A607047E1
:1020A000036801225A60704773B501F15005AD0015
:1020B0000068ADB24FF480348C400026C0F808436D
:1020C000C0F84843465101F5A8714559019522F0E1
:1020D0007F42019D40F82120C0F844430BB1C0F875
:1020E000044302B070BD00002DE9F74F0D4622F009
:1020F0007F4402684FF4803705F150068F408046D8
:10210000B60002EB8500C2F84873B6B2C2F8087395
:10211000D2F8041599464FF0000BD0F84035C0F8BE
:10212000401542F806B05B1A9259009223F07F43A3
:10213000012B009A4FEA850A0CD1264B4FF48060A0
:1021400043F001039847D8F8003043F806B09B5994
:102150000193019BD8F80020D2F80465C2F84473BB
:10216000A31B23F07F43012B1CD11A4B05F5A87547
:10217000013443F0010342F825404FF48060984752
:10218000D8F80030D3F804359E4209D1D8F8003091
:102190000020C3F84473C3F8047303B0BDE8F08FA4
:1021A0000D20FAE79244C9F1FF13CAF84045D2F86E
:1021B0000405211A013921F07F4103F57F438B4249
:1021C000EED30029E2D10134CAF84045D2F80435F3
:1021D0009842DAE77061000003680222C3F84423E2
:1021E00009B1C3F80423704700684FF48271FFF708
:1021F000F5BE4FF4803303FA01F10368C3F84813C6
:10220000C3F80813704750318900006889B2FFF79E
:10221000E5BE0368D3F804057047000090F9043068
:10222000002B09DB5A09012103F01F03994002F139
:102230004003024A42F82310704700BF00E100E06B
:10224000024B034A1B681068184700BFB402002005
:10225000AC02002070B5064E0546002456F8043B3B
:102260000BB1284698470134042CF7D170BD00BF4C
:10227000B80300204388033300EB830399420BD358
:1022800082884FF6FF739A4208D0038833B1806882
:10229000431C584258417047022070470120704744
:1022A00068B10268084B9A4209D14068074B9842CE
:1022B00007D0013398420CBF012003207047032050
:1022C00070470020704700BFDEC0ADDEFE011EF18A
:1022D000C21C92B240F2FE339A4230B51ED8124B65
:1022E000187838B91C895D892C441444A4B2B4F51B
:1022F000806F0AD9187DA0B9988BDC8B20441044DC
:1023000080B2B0F5806F0CD801200880142101FB49
:102310000033002059890A445A8130BD48F20860D0
:10232000FBE748F20660F8E7F00200200B4A0C4990
:102330005388142000FB0311CB6833B9042049688B
:1023400010700122074801F0C3BA07490523137032
:1023500002238B80012209680023F3E7D8020020C2
:10236000F002002000000020E802002007B5002352
:1023700005490093054A09680548082301F0FCF95E
:1023800003B05DF804FB00BFE80200208461000098
:102390000000002007B5002301460093034A0448CB
:1023A000082301F0E9F903B05DF804FB7C6100004B
:1023B0000000002013B500230C4600930146084A94
:1023C0000848042301F0D8F938B90749142202FB60
:1023D000041101230B7402B010BD48F20D60FAE73E
:1023E0007861000000000020F002002037B50A48A4
:1023F0000A4B42689C88196853880325033305708B
:102400009BB2002000909B0001EB8401044801F086
:10241000B3F903B030BD00BFD8020020E8020020AD
:102420000000002010B50146044800F04CFE1C22BC
:102430000446002103F0A6FD204610BD180300202D
:102440002DE9F0410D460223154F2B80164600F56D
:10245000805100F108044FF001088C420ED223682D
:1024600001330BD02046FFF705FF48B10EB186F8C7
:102470000080022809D14FF480632B80BDE8F081F1
:10248000A3683A68934200D93B602B886288033383
:1024900013442B806388033304EB8304DDE700BF20
:1024A000B403002038B5144B14220D4602FB003350
:1024B0005C682B6804F58051A3B15C88033403EB9E
:1024C00084048C4215D22368013312D02046FFF7D2
:1024D000D1FE012808D002280BD00028F1D12C60B1
:1024E000012038BD0834ECE76388033304EB830430
:1024F000E7E70020F5E700BFF00200204368F7B5EA
:1025000005460E461BB1244AD1688B4206D20024F0
:102510000027022C34802BD1002022E01269934244
:10252000F5D813F00304F2D11C4A018912899142B3
:10253000EED101689A689142EAD119494A689342FA
:1025400003D902F5805293420DD38A6993420CD984
:1025500002F58052934208D201233380B4FA84F00A
:10256000400903B0F0BD2346F7E748F20964F5E7F8
:10257000019701A92046FFF795FF10B90134A4B2D5
:10258000C7E7019B2A6899689142F2D16B60034BBF
:102590001B892B81E5E700BF00000020D802002046
:1025A000F00200202DE9F0471C461E4B1B78074621
:1025B0008846164683B392B38CB3DFF86C904FF025
:1025C000140AA588012D02D948F2096022E00AFB0D
:1025D00005F319F803302BB921462846FFF762FFAF
:1025E00018B920600135A580EBE723681FB19988F1
:1025F0003A889142F0D1B8F1000F04D01988B8F8A8
:1026000000209142E8D19A68C6E90023074B1B8954
:1026100033810020BDE8F08748F20160FAE748F214
:102620000460F7E7D0030020F0020020D802002069
:1026300008B5074B5888191DFFF734FF18B1BDE8DE
:102640000840FFF7D3BEBDE80840FFF76FBE00BFEC
:10265000D80200202DE9F0479C4FDFF8748288B043
:1026600006463B6823B99B48414600F066FD38604A
:102670003D6829784B1E052B00F21381DFE813F02B
:102680000600650065000801080176014EB1924B15
:1026900000215960142203A803F074FC4FF406448F
:1026A00006E12B79032B1CD8DFE803F01402313C40
:1026B0008A4A1378022B1ED0137D022B4FF00103A0
:1026C0001BD114214B43D1180020D0544868FFF788
:1026D00061FE03E001232B71FFF748FE002800F0A4
:1026E000D1807D4B0021142203A8596048F20D646B
:1026F00003F048FCDCE00023E3E7774A0021137095
:102700005160142203A803F03DFC0024D0E074497A
:102710007448002302222B718A800968012201F08B
:10272000D7F8DBE7704B6D4C5B886D4A14214B4347
:10273000E11800262E714D68106815609588486074
:102740000D810221E6549180C1E7B5F814A0AA7D5D
:10275000DFF88891B6B1022AEB8806D9142101FB73
:102760000A91DA1C088902440A81142202FB0A99A0
:10277000C3F57F43B9F80A10FD330B44A9F80A30BA
:10278000002188E7142303FB0A9318895C6804EB93
:102790008004062A05D8DFE802F0375E4654266A30
:1027A000780048F20E64AA7DEB88022A06D914212B
:1027B00001FB0A91DA1C088902440A81142202FBF7
:1027C0000A99C3F57F43B9F80A20FD331344A9F8E9
:1027D0000A301422002103A803F0D4FB41F61D5354
:1027E0009C4292D064E04148414900234360AB6978
:1027F0000360FFF783FE014630B9142203A803F0FB
:10280000C1FB48F2096453E00223AB750023009337
:102810000423EA182146334800F0AEFF002831D0E7
:1028200048F20D64BFE72B69002B0CBF0123032383
:10283000AB750023009305F10C02042304F1080199
:10284000E9E70123AB750022EB8800922A699B001F
:1028500004F10C01DFE7032914BF06230523AB7540
:1028600000230093042305F10802E118D3E70623AF
:10287000AB751F4B19881D4B5868FFF79BFD04462D
:10288000002890D108B0BDE8F08741F61D548AE7D2
:102890000EB1142274E72B79012B48D0022B5AD0A9
:1028A00043B31422002103A803F06CFB48F20E642A
:1028B0003B6804941A78023A042A00F20D81DFE89A
:1028C00012F0EE00FA001C0124012B01D4020020BA
:1028D000D002002018030020D0030020F0020020C6
:1028E000E802002000000020D8020020C4020020DE
:1028F000C002002002232B710DF10A01EB68039343
:1029000003A8CDE90466FFF7F9FD10B9142231469A
:1029100074E70498BDF80A108388EB8003882B8144
:10292000FFF748FD0446002C7FF453AFAAE7DFF819
:10293000F09103AA4B463146A81DFFF733FE04462B
:1029400060B9B9F804100498FFF734FD48F2096340
:1029500098420446E7D114220021D3E648F20963E5
:102960009842C9E900667FF434AFF4E7002E90D1B5
:102970006C4B197B1A78A9B11E731A78013A062A92
:102980008FD801A151F822F0332A0000592A000003
:10299000772A00007D2A0000A3280000832A000077
:1029A000952A0000072AE8D801A151F822F000BFBB
:1029B000D12900007B2900007B290000F7290000B5
:1029C0000B2A00002F2A00002F2A0000F329000004
:1029D0001A89554901321A8100225A801A730A78DD
:1029E000B2FA82F252099A720A7DB2FA82F252095E
:1029F000DA72012207E04D4958688A88408803321C
:102A000002448A8002221A70B7E75C88464A474926
:102A1000142505FB042208685468506088881081DA
:102A200002200C608880002111740622EBE7072247
:102A3000E9E79A7A32B9DA7A8AB9002119705980AD
:102A400059605EE6384900229A72CA68002AF2D1BB
:102A5000097C0029EFD05A80FFF7EAFD62E70022E7
:102A6000DA72314A116A0029E7D192F82420002A4B
:102A7000E3D00122EFE7FFF7B9FC53E7FFF756FC7D
:102A800050E75A88284B142101FB02335868FFF79E
:102A900081FC47E700225A60FFF768FC42E7012209
:102AA0008DF80C201A89ADF818209A88DB68ADF8EB
:102AB0001A20059310E002228DF80C201A89ADF837
:102AC00018209A88ADF81A20DA689B7D05929A1F23
:102AD000534253418DF81C3003A8FFF7BBFB00267F
:102AE000414613483E6000F053FB1248012100F0BC
:102AF000B2FB00287FF4B5ADC4E603228DF80C20AC
:102B0000DA88ADF818201A89D0E704228DF80C2055
:102B1000DB88ADF81830DFE705238DF80C30DBE7F4
:102B2000B8020020D8020020F0020020E8020020B5
:102B300018030020CC0300204068FFF78BBD000085
:102B400008B50548012100F06EFB18B9BDE8084042
:102B5000FFF780BD08BD00BFCC0300202DE9F7437F
:102B600098463A4B1B7806460D46002B62D000294A
:102B700063D009884FF6FF73994261D06B88002BB0
:102B80005ED06B689B075ED14AB92F890DF10201B7
:102B90003846FFF79DFB30B103B0BDE8F0831388E2
:102BA0005788ADF8023001A8FFF73CFCBDF80220C1
:102BB000044650B9264B142101FB023358890338CF
:102BC000C01B588148F20760E6E780F800806B6818
:102BD00003614FF0000980F81690828201211D48A0
:102BE00000F02DFB2B882381B8F1030F6B88E06088
:102BF000A380E78012D10423A37533681648A3612C
:102C0000A4F80A9001A900F088FA0023E268736032
:102C1000B372124B32601B89338107E00E48A4F86F
:102C20000A9001A900F079FA002EEED1FFF788FF93
:102C30000020B1E748F20160AEE748F20460ABE77C
:102C400048F20360A8E748F20260A5E7D00300203D
:102C5000F0020020B403002018030020D802002056
:102C600008B5034607480268042A08D00168064AE6
:102C700042F82130012100F0E2FA002008BD48F2BC
:102C80000B60FBE7C8030020B80300202DE9F04FDC
:102C9000744F87B01422002101A803F073F93B7828
:102CA00003F0FF0B1BB101A8FFF7D4FA03E0381DB6
:102CB00000F0DDFA20B10024204607B0BDE8F08F17
:102CC0004FF010234FF080525B691269DFF898A132
:102CD000591C04BF30235343CAF810306349A3F58D
:102CE000405300225046CAF80C3000F013FD044651
:102CF0000028E1D15E495F481C238C2200F0D0F906
:102D0000A1464FF003082546DAF80C604E443046E1
:102D1000FFF7C6FA01285DD0032812D0002836D16B
:102D2000554914236B43CA18C854566003F1100266
:102D300008330A4430461944FFF782FB44F002048A
:102D400045E033685A1C02D04C4A934234D1331DBB
:102D500006F58052196801312ED104339342F9D11E
:102D6000474B1A682AB902221E609A804FF0010B65
:102D70000BE014236B4340480221C218C154414B5D
:102D800056605D8001351181ADB244F0010409F552
:102D90008059B9F5405FB7D1B8F1010F06D9E4B257
:102DA000062C39D03DD814F0FD0F3AD100233B70EA
:102DB00048F20A647B607FE72F4A14236B43D118E3
:102DC00008F1FF384E600321D1541FFA88F801350D
:102DD000ADB2DCE72A4BBBF1000F0FD0DFF898C093
:102DE00014226A430CEB020102200CF802001A685C
:102DF0004A60244A088155800135ADB222491E60DF
:102E000000223046FFF71CFB1D4B9B88022B14BF92
:102E1000082304231C43BAE701233B7000237B6093
:102E200041E76846FFF7FEFAC8B10123013C037091
:102E30000A2C09D8DFE804F0060806080708070886
:102E40000F110F000023037169460A4800F065F96D
:102E5000FFF776FE2FE70323F5E70223F3E748F2B7
:102E6000076429E7D0030020000000206C63000005
:102E70002803002018030020F0020020DEC0ADDE91
:102E8000E8020020D8020020EC02002073B50D46B5
:102E90000446C0B1B9B10DF10601FFF72FFBA8B18F
:102EA0000C4BBDF806206668142000FB023001219F
:102EB00000F0C5F963682E600C336B600123A372C8
:102EC000002002B070BD48F20460FAE748F20960E1
:102ED000F7E700BFFC02002013B50446A8B10DF1CE
:102EE0000601FFF70BFB98B1BDF806200B4B142130
:102EF00001FB0233DA6872B1A27A62B1DA680020AB
:102F0000013ADA60A07202B010BD48F20460FAE73C
:102F100048F20960F7E748F20560F4E7F0020020A4
:102F200002230022FFF71ABE18B103230022FFF785
:102F300015BE48F2046070470F4B1B7807B5A3B16C
:102F400001A8FFF76FFA98B10623037001A90B4897
:102F500000F0E3F80A4B1A780AB101221A73FFF75E
:102F6000EFFD002003B05DF804FB48F20160F9E7D3
:102F700048F20760F6E700BFD003002018030020E6
:102F8000D802002007B5ADF80600ADF804100DF129
:102F9000060001A9FFF706FB03B05DF804FB000083
:102FA0002DE9F84F3C4B1B780446002B6ED00028CF
:102FB0006FD0DFF8E89010220021023002F0E2FF2B
:102FC000032323804FF0000A4F4614264FF00108D8
:102FD000D9F80410B9F80AB0B9F808500846FFF754
:102FE0005FF9032808BF2388628804BF03F1FF3319
:102FF000238006FB0A735D44DB68134463802389E6
:103000009B446389A4F808B0ADB22B446381C5F535
:103010008065A389ADB2AB4238BFA58101F1080537
:1030200001F58051A94229D92B68013326D02846C1
:10303000FFF720F901280AD0022815D00028F1D185
:10304000A3880133A3800AE04FF0010AC0E7E388B8
:103050000133E380E3896A8803331344E3816B8897
:10306000033305EB8305DDE7E38884F81080013343
:10307000E380E389491B03EBA101E18109F1140914
:10308000BAF1000FE0D00020BDE8F88F48F20160EF
:10309000FAE748F20460F7E7D0030020F0020020CE
:1030A00010B561B1B2FBF3F403FB1424A4B244B92C
:1030B000C0E9001484608281C381204610BD0E20C7
:1030C000FCE70920FAE737B550E8013F9DB2C48913
:1030D00025448489A54228BF2D1B0489A54202BF2F
:1030E000BFF32F8F002207E0C5EA030540E8015433
:1030F000002CE9D14FF001028DF803200193019AD1
:103100000A609DF8031001F0FF0321B1006810FA76
:1031100082F003B030BD1846FBE70A884B889A421C
:1031200009D150E8012FC2EA024240E80123002BF6
:10313000F7D1012070470020704737B550E8023FB3
:103140001FFAA3F5C488A54202BFBFF32F8F002248
:103150000DE0C48925448489A54228BF2D1BC3EAFC
:10316000054540E80254002CE8D14FF001028DF8EB
:1031700003200193019A0A609DF8031001F0FF03F8
:1031800021B1006800EB124003B030BD1846FBE7E8
:103190000A884B889A4209D150E8022FC2EA22429B
:1031A00040E80223002BF7D1012070470020704730
:1031B00010B5034653E8000F0A4643E8002494F094
:1031C000000FF7D110BD10B5034653E8000F40EAD9
:1031D000010243E8002494F0000FF6D110BD10B5B1
:1031E000034653E8002F42EA010043E8000494F04C
:1031F000000FF6D110BD10B5034653E8000F00EAEA
:10320000010243E8002494F0000FF6D110BD10B580
:10321000034653E8002F02EA010043E8000494F05B
:10322000000FF6D110BD10B5034653E8000F00EBB8
:10323000010243E8002494F0000FF6D110BD10B550
:10324000034653E8002F02EB010043E8000494F02A
:10325000000FF6D110BD10B5034653E8002FA2EBC6
:10326000010043E8000494F0000FF6D110BD0121E5
:10327000FFF7A9BF0121FFF7B2BF0021FFF7BBBFD6
:103280000021FFF7C4BF10B590B1D0E90123016858
:103290009B1ADBB20A60013BDBB2FF2B026802D152
:1032A0000020107110BD11684C1C14600B70F2E707
:1032B0000E20F7E770B504460020FEF78BFE21686C
:1032C00062680B68934213D9581E086013F8015CBA
:1032D000A368E268268A1B1A0879DBB2984238BFD5
:1032E0000B7106FB05250020FEF776FE284670BD13
:1032F0000025F8E738B5054600200C46FEF76AFEC3
:103300002A681368591C1160EA68A41A2A8AB4FB57
:10331000F2F41C70BDE838400020FEF75DBE826804
:1033200010B504462AB14369016800699847002333
:10333000A36010BD0EB403B5039921B104AB01AA7B
:10334000019300F06FF802B05DF804EB03B0704732
:10335000826830B40468551C8560A154D0E90132FC
:103360009A4202D330BCFFF7DABF30BC704700008E
:103370002DE9F84F9946DDE90A431546824688460D
:103380000A460127AA420FD24F4538BF4F4613F0D5
:10339000010B01D164B900240126B9F1010F1CD938
:1033A00009F1FF396E43F8E70137B2FBF5F2E9E7BF
:1033B0009B0710D5B9F1000F14BF20263026BC4260
:1033C000EAD9013C31465046FFF7C2FF002CE2D05B
:1033D000BC42F6D1E0E72026F1E7B8FBF6F39D42C8
:1033E000E0D9DFF83C90B8FBF6F3504619F803102B
:1033F00006FB1388FFF7ACFF3346AB42B6FBF5F68E
:10340000F1D2BBF1000F00D034B9BDE8F88F202114
:103410005046013CFFF79CFFBC42F8D8F5E700BFDF
:103420008C6100002DE9F74F0646174688460029B3
:1034300000F06C8118F8011B49B9337B002B00F0B8
:103440006581304603B0BDE8F04FFFF768BF25291E
:1034500040F09380002598F800102D29424608F18D
:10346000010806D0302907D02B2908D145F00405E2
:10347000F1E745F00105EEE745F00205EBE72A2903
:1034800043461AD13B681A1D1C683A6042461378BD
:103490002E2B21D101324FF0000A4FF00A0C1046BA
:1034A00010F8011BA1F1300EBEF1090F16D80CFB6C
:1034B0000A11A1F1300A0246F1E7002413F8011CB9
:1034C000A1F130000928E2D80A2202FB0411A1F17F
:1034D00030041A460133F1E74FF0000A12F8011BDD
:1034E00001F0FB0068289046F8D0782909D86F29A8
:1034F0000CD863293DD021D825293ED0582900F089
:10350000B18098F80030002B94D196E770390829E3
:10351000F7D801A252F821F0DF3600000335000091
:1035200003350000753600000335000053360000F7
:10353000033500000335000065360000642901D022
:103540006929DED13A68D2F800B0111D8BEAEB721E
:103550003960A2EBEB724FF001090A21092A10DC55
:10356000D14538BFD1468CB90024BBF1000F25DA14
:103570004BE03B681A1D19783A603046FFF7E8FEC9
:10358000BFE709F10109B2FBF1F2E7E7BBF1000F78
:1035900005F0020225DB680750D452B9E90740F173
:1035A000B18005F00302022A3FD1BAF1000F3CD1ED
:1035B0000CE0BAF1000F05D0EA0717D569072AD544
:1035C0002B2125E005F00302022A2ED1A1452CD2A1
:1035D000013C30213046FFF7BBFE2CB3A145F7D1AB
:1035E00023E0013C72B9EB070FD474B14C45BCD950
:1035F000013C20213046FFF7ABFE002CB4D0A145A2
:10360000F6D1B2E7BAF1000FEDD1CBF1000B2D21CD
:103610003046FFF79DFE05F00302022A05D1BAF1FC
:10362000000F02D1002CD1D10024CDE90045534632
:103630000A2259463046FFF79BFE62E7013C22B959
:10364000E807BBD4002CD1D1B8E7BAF1000FB5D050
:10365000F6E739680A1D3A60CDE9004553460A226B
:103660000968E7E739680A1D3A605346CDE9004525
:103670001022F5E73B681A1D3A6015F00105D3F8F2
:10368000009024D1B9F1000F03D0484602F018FC95
:103690000546AC421DD809F1FF3919F8011F002970
:1036A0003FF42FAF3046FFF753FEF6E730460135C3
:1036B000FFF74EFE19F805100029F7D1A542BFF417
:1036C00020AF20213046013CFFF742FEF6E70025FF
:1036D000F0E720213046013CFFF73AFED9E73B688E
:1036E0001A1D3A60302130461C68FFF731FE782100
:1036F0003046FFF72DFE00220823CDE90032214697
:10370000102297E74C453FF673AF57E703B0BDE88B
:10371000F08F00BF13B50B46114680B9104B11480E
:10372000114AC01A0E23C0080093104B0004104920
:1037300040F0010000F093FD0E2002B010BD4BB927
:10374000074B08480B4AC01AC0080E230093000418
:10375000064BECE703601B6802B0BDE81040184759
:10376000F85F0000386000009C6100004B630000BF
:10377000A1610000D06100002DE9F743DDF8288049
:1037800088B9474B4748484AC01A0E23C0080093DF
:10379000464B000440F00100454900F060FD0E205A
:1037A00003B0BDE8F0834AB93D4B3E48414AC01AD8
:1037B000C0080E23009300043C4BEBE7D0F800E078
:1037C000BEF1000F0FD1364B36483B4A3849C01A7C
:1037D000C0080824000440F00100344B009400F0BD
:1037E0003EFD2046DCE77BB92D4B2E48334AC01AFC
:1037F0000923C00800932D4B000440F001002C4920
:1038000000F02DFD0920CBE74768D7F80490B3FB03
:10381000F9F709FB17374FB1214B2248284AC01A44
:10382000C008092300930004204BE6E78F070FD060
:103830001B4B1C48234AC01A1023C00800931B4B83
:10384000000440F001001A4900F009FD1020A7E72C
:1038500012F0030F09D0124B12481B4AC01AC008BD
:10386000102300930004114BEBE7C768B9420DD356
:1038700005694C1E1C44AC4208D8CDF82880DEF8FF
:103880000C40A44603B0BDE8F0436047044B054834
:103890000E4AC01AC008102300930004034BD0E75F
:1038A000F85F0000386000009C6100003863000091
:1038B000A16100001E620000CA610000DD6100001D
:1038C000246200004E62000066620000896200000F
:1038D000F7B580B92D4B2E482E4AC01AC0080E24C9
:1038E0002D4B009400042D4940F0010000F0B7FC7E
:1038F000204603B0F0BDD0F800C0BCF1000F09D1E4
:10390000224B2348264AC01AC0080824224B0094A0
:103910000004E8E74AB91D4B1D48224AC01AC008F6
:1039200009241D4B00940004DDE74768D7F800E048
:103930000EF1FF370F420FD0144B15481A4AC01A28
:103940001023C0080093144B0004144940F00100F8
:1039500000F085FC1024CBE7C768B9420CD3056999
:103960004C1E0EFB0244AC4206D8DCF81040A446C4
:1039700003B0BDE8F0406047044B05480B4AC01A4D
:10398000C008102300930004034BDEE7F85F00003B
:10399000386000009C61000025630000A161000008
:1039A000CA610000DD610000B0620000D662000064
:1039B000014B4360002070478C630000084670474D
:1039C00000207047024B1868003818BF012070476C
:1039D000D803002008B50248FFF752FC002008BDBC
:1039E000D803002008B510461A4602F099FA0020C4
:1039F00008BD00002DE9F041804686B011480F4611
:103A000016461D46FFF733FC0446C8B9AA083146DE
:103A10003846FCF779FF0B48FFF732FCD8F808303E
:103A200053B101228DF800200C9A0592CDE901478F
:103A3000CDE9036568469847204606B0BDE8F081A9
:103A40001124F9E7D80300202DE9F043814687B01F
:103A500014480E4615469846FFF709FC0446F0B98F
:103A60000746BD4215D10F48FFF70AFCD9F80830C8
:103A70005BB102228DF800200022CDE90126CDE9BC
:103A80000325CDF8148068469847204607B0BDE866
:103A9000F08306EB0730FCF71FFF0137E1E7112445
:103AA000F3E700BFD80300202DE9F84FB0F806A0D7
:103AB0004579D2F800B09DF828900AFB05F5043D41
:103AC00088460BEB0301A94203F1040488BFA5EB70
:103AD000030BB4FBFAF607460AFB1644C2F800B023
:103AE0004EB9AAEB04055D4528BF5D46BBF1000F4A
:103AF00004D1BDE8F88F3F68013EF1E7043408EBDC
:103B000006003C442A46B9F1000F0DD02146ABEB2C
:103B1000050B02F005FADA452E443F6855464FF092
:103B2000000428BF5D46E1E701462046EFE7FFF7C6
:103B3000AABBF8B546790146721E0546002393429A
:103B40002D6803D30024A64202D8F8BD0133F6E75E
:103B50000F682846FFF7CEFB01343946F3E72DE91D
:103B6000F041078ACD1C0646FFF7A4FB043F3D4405
:103B70000446B5FBF7F5D0B14FF48073EDB2C780C2
:103B80008380013D066080460027AF4210D2304658
:103B9000FFF790FB40B16379013363710137C8F8D7
:103BA000000006608046F0E72046FFF7C2FF0024D1
:103BB0002046BDE8F08101210430FFF740BB10B57D
:103BC000012104460430FFF746FBC0B220B920466D
:103BD000BDE81040FFF7ADBF10BD1FB50392002236
:103BE000009203AAFFF760FF05B05DF804FB1FB564
:103BF00003920122009203AAFFF756FF05B05DF879
:103C000004FB20BF40BF20BF7047836800225A607A
:103C1000C3E904229A60DA601A60704770B544689C
:103C200006460D46206818B1B3682946984718B96A
:103C300023682B60256070BD2468F3E7436818682B
:103C400008B102681A607047436818687047436893
:103C5000186800B97047884203D102681A600120D1
:103C6000704703460068F4E77047000007B5044B4F
:103C70000093044A402300F034F803B05DF804FBDD
:103C8000893C0000DC0300202DE9F84388461446F7
:103C9000B2B1104B104D0326002743F00109224614
:103CA00008EB0701002001F0AFFA0744241A60B9BD
:103CB0002B782BB14FF47A40C847013E02D12E70C9
:103CC000BDE8F88301232B70E9E701232B70002C5A
:103CD000E5D1F5E7B06300001C040020704701F057
:103CE000BFBAF0B595B01D46164608460C46FFF71C
:103CF00062FF1A9B0D93CDE9086500252B4608222B
:103D000005A920460A958DF82C500C95FFF76FFFFA
:103D1000079B0293069B03939DF814308DF8115076
:103D200003F00302012A1DD1BDF81420059DC3F341
:103D3000C203C2F383168DF81030B20008230EA917
:103D40002046FFF754FFC5F3952508AB0093324694
:103D500002AB0EA9284600F03DFB2046FFF72FFFDF
:103D600015B0F0BD022AF8D1BDF81650C3F3C20356
:103D7000C5F389158DF810300827082D2E4628BF69
:103D800008263B4632460EA92046FFF730FFAD1B02
:103D900008AB02AA31460EA8374400F07FFB002D85
:103DA000EBD1DAE708B5FFF79AFF0448042100F0E9
:103DB00081FA034B01225A7108BD00BF5060000018
:103DC00034000020037813F0040215D003F003033D
:103DD000012B03D0022B09D0012070470B68028809
:103DE0000233C2F3831213440B60F5E70B68428879
:103DF000023303EB9213F7E7104670472DE9F04FBB
:103E0000414C884685B00546871C00201646FEF7C3
:103E1000E1F86268C8F80020A36803F580739B1A74
:103E200004F21C4804F5836A04F21449BB4217D318
:103E30000021002E63D005F00F05AD0145F005050A
:103E400065F30F016368DAB203323B4444F8221091
:103E500000206360FEF7C0F8012005B0BDE8F08FD8
:103E600001214046FFF7EBF95046FFF703FA4846B9
:103E7000FFF700FAA0680090C0B2033004EB8000A6
:103E80006946FFF79FFF20BB009BDAB204EB82027A
:103E9000D16801919A1C0133DBB204EB83030092D9
:103EA000D3F80CB001F00303012B20D0022B13D068
:103EB00083464846FFF7E1F908B1009BA3605946E5
:103EC0004046FFF7BCF9A368626803F580739B1A4C
:103ED000ACE79DF80000D0E7BDF80630C3F38913C6
:103EE00003334FEA1B4B02EB93030093E1E7BDF86A
:103EF0000430C3F383134FEA1B4B1344F5E7AD05BE
:103F000045F006019EE700BF20040020064B07484D
:103F100010B500221A70FFF70AFE044610B90448D3
:103F2000FFF773FE204610BD20040020E45F000070
:103F3000EC63000030B50A4C71B10A4A0A49121B01
:103F4000D20800239A4201D1002030BD31F823501D
:103F5000854202D00133F5E7034654F83300F4E715
:103F6000F85F00005060000014000020094B013988
:103F700003EBC000032909D8DFE801F0020A0406B8
:103F800002207047007970474079704700207047E1
:103F900004207047F85F000070470000034BD3E92E
:103FA0000130C31A58425841704700BF2004002016
:103FB0002DE9F04385B0FFF7F1FF002874D1724C72
:103FC000C4F81804BFF34F8FA0680090C0B203304C
:103FD00004EB80006946FFF7F5FE009B18B1D4F8AA
:103FE0001824002A5CD0DAB29F1C013304EB820251
:103FF000DBB204EB8303D268DB68029302F00303B5
:10400000022B0192009758D1BDF806305F48C3F3E8
:1040100089184646502E28BF502666F38F1306F1A6
:104020000801ADF80630FFF79AFD0546002800F0BC
:104030009580FFF7C0FD002301A908222846FFF75D
:10404000CCFDFB43DBB20133F9B20331B6EB830F96
:104050004FEA830904EB81012CD908234A46A6EBD9
:1040600009062846FFF7B9FDF6B2494909F10803E8
:10407000324608F10308284607EB9807FFF7ADFD25
:104080000097D4F81834D4F81064002B55D0284683
:10409000FFF795FDFFF782FF80F00100C0B204E05A
:1040A00062689A4204D8A260002005B0BDE8F0839F
:1040B000D8B28CE708233246DBE7012B4ED1BDF89E
:1040C00004303248C3F38311062928BF062161F367
:1040D0008913023101F00F018900ADF80430FFF7B8
:1040E0003EFD0546002839D0FFF765FD0023082274
:1040F00001A92846FFF771FD0026BDF80420C2F390
:104100008312B300B24203F10803BAD900994A1CE2
:10411000C9B20331009204EB810104222846FFF763
:104120005CFD0136E9E7F3685B7923B13368294622
:104130001B6830469847F3681E68002EF3D1284666
:10414000FFF73DFD3046FDF745FFD4F818340BB9B5
:10415000009BA3600020FDF73FFF9BE7D4F81044CD
:1041600054B90C4B0C480D49C01AC008000440F06B
:10417000020000F05DF88DE7236820469B689847B1
:10418000E3681C68ECE700BF20040020E45F000047
:104190002C040020F85F000020600000D4630000C1
:1041A0002DE9F34704460E46924601A9012218461E
:1041B0009946FFF723FE1C4F10B3019D4FF00008F6
:1041C000AA1CC84508EB020125D118480021FEF7BA
:1041D000EFFF80F31000000440EA1440E4006B1C81
:1041E00004F03804DBB2EDB244F0010407EB8303C2
:1041F000033544EA881444EA8624D86047F8254009
:104200003B781BB1FFF7D4FE0028FBD1FFF7C4FEBB
:1042100002B0BDE8F087C9B207EB81015AF8283037
:10422000CB6008F10108CCE7200400203C08002006
:1042300000231A46FFF7B4BF07B50123019201AA74
:10424000FFF7AEFF03B05DF804FB07B5CDE900232F
:1042500002236A46FFF7A4FF03B05DF804FB1FB515
:10426000CDE90123069B039301AA0323FFF798FFDF
:1042700005B05DF804FB1FB5CDE90023069B029352
:10428000079B03936A460423FFF78AFF05B05DF896
:1042900004FB7FB5CDE90123089B0393099B04939D
:1042A0000A9B059301AA0523FFF77AFF07B05DF883
:1042B00004FB000030B50F4CD4F810240346002056
:1042C000114631B9D96808717AB9C4F810340A6056
:1042D0000AE0C9680D79854201D00968F1E701302B
:1042E0000A28EDD14FF0FF3030BDD26814680C6061
:1042F0001360F9E72004002038B5084B0125D3F8F6
:1043000010441D7004B938BDE3685D712368204610
:104310005B689847E3681C68F4E700BF200400204E
:1043200010B5037A052B0C460FD0437A23B1084A07
:1043300008492046FEF7FEFF07492046FEF7FAFF30
:104340002046BDE81040FEF7EABF002AF8D0F3E7A8
:10435000F8630000FD6300001D640000C38873B5AE
:1043600004460D4633B1144A00921449144A2846B3
:10437000FEF7E0FF217A05291CD0637A4BB1A088B3
:10438000FFF7F4FD0F4B104953F820202846FEF7A5
:10439000D1FF227A0D4BA08853F822600021FFF74D
:1043A000C9FD0B4903463246284602B0BDE87040BD
:1043B000FEF7C0BF02B070BDF863000008640000E3
:1043C0000064000084640000FD630000A864000035
:1043D000206400002DE9F04385B01F460C9D0023AA
:1043E00095F80C902B7306460C46904629463846A5
:1043F000FFF7B4FFB8F1060F09D8DFE808F00412A0
:10440000181F2833400031462846FEF793FF00224C
:1044100029463846FFF784FF85F80C9005B0BDE8C3
:10442000F083226831462846FEF784FFEFE7D4E99F
:10443000002331462846FEF77DFFE8E7A368009396
:10444000D4E9002331462846FEF774FFDFE7E3682E
:104450000193A3680093D4E9002331462846FEF770
:1044600069FFD4E723690293E3680193A36800938B
:10447000D4E9002331462846FEF75CFFC7E76369AD
:10448000039323690293E3680193A3680093D4E93B
:10449000002331462846FEF74DFFB8E708292DE9ED
:1044A000F84F80460E4617461C463BD8002593F829
:1044B0000C901D7319461046FFF750FFDFF880A0DF
:1044C000DFF880B0AE422FD918F8052059462046B3
:1044D000FEF730FF0135082DF4D11B49DFF86CB031
:1044E0002046FEF727FF4FF0000A564523D918F85B
:1044F0000A507E2D1DD8284601F085FC002814BFE7
:104500002A462E2259462046FEF714FF0AF1010AD8
:10451000BAF1080FE9D1012221463846FFF700FF22
:1045200084F80C90BDE8F88F51462046FEF702FF54
:10453000D0E72E22E6E706492046FEF7FBFEE5E738
:10454000306400002A640000346400003664000017
:10455000326400000649074BC1F81435064B5A7CFB
:10456000064B013A43EA0243C1F81835704700BFD1
:104570000010004006000300400000202000000161
:10458000074A084BC2F81435074B5B7C013B40EAF5
:10459000034343EA002040F08070C2F818057047DA
:1045A0000010004000010100400000200F4B1049A6
:1045B0001A7AC1F81025042A16D8DFE802F00E0393
:1045C000150E03000B4A302111600A4998890A68C8
:1045D0003E32904204D301207047064A4921F3E756
:1045E0000A683E329A81F6E700207047540D002099
:1045F00000100040B0090020044A0023C2E908333B
:104600009362034AC2E9083393627047000C0020AA
:10461000AC0A0020184B19491B6810B5184CC4F897
:104620000032184B1A68184BC3F840258A89823A21
:10463000C3F844250122DA600022C3F84021C3F800
:10464000442103F5A8334FF4E050C3F804054FF4B8
:104650000050C3F80805C4F80C21087810B90B4BBA
:104660001B6898470A4BC4F804350A4B0A4A1A607B
:104670000A4B03221A7010BD3C000020540D00208C
:1046800000100040B009002000A00040A809002050
:10469000680A0020AC09002031490000740D002098
:1046A00007498B6893FAA3F3064A1BBAC2F824356C
:1046B000CB6893FAA3F31BBAC2F82835704700BF42
:1046C00040000020001000402DE9F8431F4BDFF8A8
:1046D00080901A78012A80460F4609D199F8003057
:1046E000202B30D81B4A116A52F82120137006E0A3
:1046F000184A116A52F82120597811BB1170154DD2
:1047000015492C6A55F824603046013410F8052B01
:1047100001F006FC114B86F80180D3F84835B370E0
:1047200099F801303771DB4303F00103F370AB6A92
:10473000082C28BF002401332C62AB620120BDE8A5
:10474000F883DB7CD2E70020F9E700BF540D00209E
:10475000680A0020AC0A00206A0A0020001000400D
:10476000F8B53F4B3F4F404E3C78404D01221A6018
:104770003F4B5A6A53F822103160FCB1012C3ED0F5
:1047800033685A783B4B0121C3F82C2501FA02F219
:10479000C3F83025384AD27CC3F80825374AC3F815
:1047A00004550220C2F8800110600022C3F80421E1
:1047B000C3F80821C3F810211960F8BD304B087800
:1047C0001B68984731686C700B792B7011F8052BBA
:1047D000A81C01F0A5FB2B4B264A1B6843F00803DD
:1047E000C2F800321123C2F80433274BFA891A6049
:1047F000264B274A1A60274B02221A70C0E7CB7853
:1048000013B13C7D84F001040A782A70B3FA83F373
:104810000A7921485B0943EA42036B7011F8052BC2
:1048200001F07EFB174A134B18481A49126874B1FD
:1048300042F00802C3F800221122C3F80423124BED
:10484000FA891A60124B036002230B7098E7C3F8D1
:1048500000221022C3F80423104B03600123F4E765
:10486000B4090020540D0020700D00208A0A002099
:10487000000C0020001000404000002000E100E09B
:10488000A80900203C000020B8090020AC09002045
:1048900015460000740D00208C0A0020ED48000031
:1048A0000F4B1B78B3B10F4A936AABB10E4902208C
:1048B000C1F88000BFF34F8FBFF36F8F936A013B46
:1048C0009362536A0133082B28BF002353620860A8
:1048D00000207047082070474FF48070704700BF79
:1048E000750D0020000C002000E100E00C4A08B526
:1048F000136843F001031360FFF7D2FF094B996A75
:10490000094B4FF4801221B908480170C3F8002107
:1049100008BDC3F80021BDE80840FFF721BF00BF74
:10492000E4090020000C002000E100E0740D0020EC
:10493000464B70B54FF4E052454EC3F80825D6F803
:104940000C11444A002943D0D6F8001400293FD066
:104950004149424C424D012008614FF40051C3F8D7
:1049600008152368034323601268EB899B1A3D4AAC
:1049700003441360FFF794FF2B7893B13A4B1A78F6
:104980007AB15978394BD6F82C059B6A072B08D891
:104990004908C0B2FFF798FE18B1236843F004033A
:1049A0002360334B9A6A334B12B12A7C012A07D118
:1049B000314A002111704FF48012C3F8002170BDFC
:1049C0004FF48012BDE87040C3F80021FFF7C8BE65
:1049D0001368294D591E1160ABB91F4A012111619D
:1049E00002F5A8324FF40051C2F808151C4A1D49BF
:1049F000D28901320A6019490A6842F002020A604B
:104A00002B701C4BD7E71D4B114C1B6843F0080360
:104A1000C4F800321A4B1A681A4B10781B68984772
:104A2000194BC4F80435194B194A1A6007490A4A48
:104A300002232B704FF4005001231360C1F80405CA
:104A4000D2F84421002ABAD02360B8E700F0014030
:104A500000100040B809002000A00040E409002038
:104A6000540D0020B4090020680A0020AC0A002080
:104A7000000C002000E100E0740D00203C0000204C
:104A8000700D0020A80900208A0A0020AC0900202F
:104A900015460000124BD3F8002132B1D3F804239D
:104AA000D00744BF0022C3F80021D3F80C2132B153
:104AB000D3F80423110744BF0022C3F80C21084B8C
:104AC000D3F8102152B1D3F80423D20606D5002220
:104AD000C3F81021034B1B6803B11847704700BF90
:104AE00000100040AC090020114B12484FF47052E6
:104AF00010B5C3F80825104B00241C700F4B21463D
:104B00001C70FFF779FD202201F03CFA0C4B1C6071
:104B10005C600C4B4FF48012C3F88020BFF34F8FC2
:104B2000BFF36F8F084B0322C3F80022204610BD4D
:104B300000F00140BC090020740D0020750D00201C
:104B4000DC09002000E100E000100040F8B5044658
:104B5000002800F0E080724D2B78002B40F0B580EB
:104B6000704B62681A60704A234604F118071646B3
:104B700018685968144603C40833BB422246F7D16B
:104B800000246A4B6A481C602022214601F0FAF991
:104B9000684BB27A1C605C60674BC3F80C25FFF76A
:104BA00005FD3378654A002B00F09580012B00F05D
:104BB0009680737A012B00EA040000F09F80022B9C
:104BC00000F08F80002B00F0A080002300EA030497
:104BD0001368F07C9847002C00F09F80564B584992
:104BE00058484FF0E732C3F81C254FF04332C3F862
:104BF0002025554AC3F82425544AC3F82825FFF731
:104C0000FBFC0A4600230133082B40F8042B02F179
:104C10002502F8D14E4A4F4800230133082B40F8B3
:104C2000042B02F12502F8D100224B4B144601322D
:104C3000082A19601C719C6001F1250103F10C0325
:104C4000F5D120220021454801F09CF9444A45490C
:104C50000423C2F8103540F20223C2F80845C2F816
:104C60000032414BC3F86015C3F86425A2F50E422B
:104C7000FC3AC3F8682502F50F420C32C3F86C25E4
:104C800002F59872C3F87025A2F51142303AC3F8C4
:104C9000742502F511423432C3F87825264AC3F848
:104CA0007C25737C314A5B01DBB282F80133B37C33
:104CB0005B01DBB282F814334FF4801313602C4B8A
:104CC0001C7001232B70002004E0FFF70DFF00286B
:104CD0003FF446AFF8BD274B1360012469E7264B2C
:104CE000FAE715494FF6FF74C1F83C45234CC1F86B
:104CF00038451149C1F83435012367E70E49FF24CF
:104D0000C1F83C4540F20714F1E70B49C1F83C35C6
:104D1000C1F83835EDE70E20DCE70720DAE700BF01
:104D2000750D00206C0D0020540D0020E4090020BA
:104D3000BC090020DC09002000100040A809002068
:104D40002C0C0020000C0020E743C323A363E313D3
:104D5000D80A0020AC0A0020080A0020E809002038
:104D600000A000400011004000F0014000E100E020
:104D7000740D002081450000554500002110010000
:104D800037B5174B1B680193164B1B782BB3164B8B
:104D90000221C3F88010BFF34F8FBFF36F8F13480A
:104DA0000022056802601960114C2368ABB1E90765
:104DB00003D58DF8002068469847AA0705D501233A
:104DC0008DF800306846236898476B0705D50223A5
:104DD0008DF8003068462368984703B030BD00BFA7
:104DE000B4090020750D002000E100E0E409002076
:104DF0006C0D0020F8B5514B1B78002B00F0938010
:104E0000002800F0928003785A1E1F2A00F28F803B
:104E10004B490A781AB9CA7C9A42C0F08880494B3B
:104E20009A6A072A00F285804278072A00F2838076
:104E3000454A0224C2F88040BFF34F8FBFF36F8F03
:104E40004A781ABB1C6A53F82440024600F1240534
:104E500052F8046B44F8046BAA42F9D1127822701C
:104E600045783A4C625D013202F0030262551A6ADB
:104E70004078245C53F822000132082A28BF00221F
:104E800004711A629A6A01329A6236E0304C00224A
:104E9000274694F804C0BCF1000F29D10C265643D4
:104EA000BD190124BE592C71C5F808C0044600F193
:104EB000240C54F804EB46F804EB6445F9D124784B
:104EC000347090F801C0214E16F80C40013404F003
:104ED000030406F80C400C2462434078BA58365C50
:104EE0001C4C167154F8202082B944F82050C9E7B0
:104EF0000132082A04F10C04CBD1134B02221A60B0
:104F00004B780A7C134307D00020F8BD1046926806
:104F1000002AFBD18560B5E70F4B1B78002BF3D13E
:104F2000FFF71EFCF0E70820EFE70E20EDE7092071
:104F3000EBE70420E9E70720E7E700BF750D002055
:104F4000540D0020000C002000E100E0DC090020EE
:104F5000080A0020E8090020740D0020194B1B7876
:104F600070B54BB350B3184CA36A4BB3174D022620
:104F7000C5F88060BFF34F8FBFF36F8F636A54F83B
:104F800023100A7802704B78437091F902308370D5
:104F90000B790371CB78C3700531053000F0C0FF89
:104FA000636A0133082B28BF00236362A36A013BB5
:104FB000A3622E60002070BD0820FCE70E20FAE7F7
:104FC0000520F8E7750D0020AC0A002000E100E0A4
:104FD00010B5084B1B7803F0FF0433B9064B9B6AEE
:104FE0002BB1FFF7BDFB204610BD1120FCE74FF4AD
:104FF0008070F9E7740D0020000C0020094B1B782D
:1050000073B1094A0221C2F88010BFF34F8FBFF37A
:105010006F8F064B00209862C3E90800116070474B
:1050200008207047750D002000E100E0000C002012
:10503000094A1278034602F0FF004AB953B1074A01
:105040001B68136093FAA3F3054AC2F81C35704736
:10505000112070470E207047740D00204000002082
:1050600000100040094A1278034602F0FF004AB9D6
:1050700053B1074A1B68536093FAA3F3054AC2F879
:1050800020357047112070470E207047740D0020A6
:10509000400000200010004038B50F4B1B780C4634
:1050A00003F0FF0593B998B1082913D80A460146C1
:1050B0000A4800F035FF0A4AFF231474C4F10804BB
:1050C00023419374FFF7ECFA284638BD1120FCE722
:1050D0000E20FAE70720F8E7740D002048000020B2
:1050E00040000020074A1278034602F0FF0022B970
:1050F000642B04D8044AD3747047112070470720EA
:10510000704700BF740D0020400000200369C26892
:1051100093429CBF81685B18013B981A70472DE948
:10512000F041D0E902840546A8EB040640689642A7
:1051300020440F46144404D900F0F2FEEC60BDE8B0
:10514000F0813246A4EB080400F0EAFE68682246CB
:10515000B919F1E72DE9F843C568064689461746AF
:105160004FF000083369B46870689D4228BF1B196E
:10517000641BBC4203F1FF3328BF3C465B1B9C42CF
:1051800028BF1C4649462844224600F0C9FEB368A1
:105190002544AB4208BF00253F1BA044A144F56055
:1051A000E0D14046BDE8F88310B5114C114AA26128
:1051B0000223C4E90433104BE361A2644FF400738B
:1051C0000E4A0F492362E26400231022E01DA3620D
:1051D0006362E362A3656365E365226500F058FEE0
:1051E0000849204600F054FE2023A37110BD00BFE3
:1051F000880F0020BC640000860D0020760D002082
:10520000C5640000C9640000F8B5144B182700FB02
:1052100007751D4407FB00330E46DB6A012B14465D
:105220000AD0022B14D023B92846FFF76FFF84421F
:1052300008D900242046F8BD2846FFF767FF8442BE
:1052400028BF0446224631462846FFF768FFF1E7AB
:105250002846BDE8F840FFF77DBF00BF880F00205B
:10526000FFF7A2BF38B51E4A1E4C01784368A41A46
:10527000E4081D4A240452F82120054644F00304A2
:105280007BB91A492046FEF7D7FF2B78012B12D0A5
:10529000032B10D023B96B6813B9154B01221A7078
:1052A00038BD1449A3F50643204651F8233012496E
:1052B000FEF7CBFFE9E76B68002BF1D1AA680F4935
:1052C0002046FEF7B9FFAA890D492046FEF7B4FF34
:1052D000EA890C492046BDE83840FEF7ADBF00BF63
:1052E000F85F000020600000FC680000D06400004F
:1052F00000100020C0680000F8640000176500007E
:10530000296500003965000010B586B00023CDE99D
:105310000333CDE901330593164C174B1749E41AB3
:10532000E408240444F003042046FEF781FF01ABA7
:1053300003AA47F2100148F21000FDF723FE90B9CE
:105340000F4903A8FDF7F0FD48F2066290420CD128
:105350000C492046FEF76CFFFDF7EEFD0A490246B8
:105360002046FEF769FF06B010BD0028FBD0FCF711
:1053700085FAF8E720600000F85F00004C65000047
:105380001469000062650000A4650000F0B55D4886
:105390005D4C5E4D8FB0FDF763FC5D4B5D49E41ADB
:1053A000E408240444F003042046FEF741FF0023F0
:1053B0002B70FDF76BFC08B1FCF760FA2B78002B23
:1053C0007AD055492046FEF733FF1222002109A862
:1053D00000F0D8FD09A8FDF7E3FD08B1FCF74EFA8F
:1053E000BDF828204D492046FEF726FFBDF82A20AB
:1053F0004B492046FEF720FF0023CDE90633CDE9D7
:105400000233089306AA02AB47F2100148F21000DB
:10541000FDF7B8FD002851D1CDE9040004A906A884
:10542000FDF734FD08B1FCF729FA059B3D4A03F16D
:105430001007154618685968164603C60833BB425C
:105440003246F7D11B78337037492046FEF7F0FE1D
:105450002A7C36492046FEF7EFFEEB780193AB78C5
:1054600000936B782A7832492046FEF704FFEB79E7
:105470000193AB7900936B792A792E492046FEF788
:10548000FAFEEB7A0193AB7A00936B7A2A7A2A4977
:105490002046FEF7F0FEEB7B0193AB7B00932046AA
:1054A0006B7B2A7B2549FEF7E6FE06A8FDF714FD77
:1054B00008B3FCF7E3F91EE020BF7FE72049204650
:1054C000FEF7B6FE1F4906A8FDF72AFD1E49054650
:1054D00002462046FEF7B0FE48F206639D420CD11C
:1054E0001A492046FEF7A4FEFDF726FD184902469C
:1054F0002046FEF7A1FE0FB0F0BD002DFBD02846E0
:10550000D7E700BF655200002060000000100020B7
:10551000F85F0000AF650000C3650000E5650000AE
:10552000FD65000054000020356600004C66000058
:1055300058660000736600008E660000AF660000CB
:10554000D066000014690000E866000002670000F1
:10555000A465000030B500234FF0A0424FF4007165
:105560004FF4004440FA03F5ED0703F10103C2F8DC
:105570000C154CBFC2F80845C2F80C45082BC2F800
:105580000815EFD130BD000007480346092203F893
:10559000052B064A1168C0F805105168127A596047
:1055A0001A72FFF727BC00BF65000020081000201A
:1055B000FFF7EABF38B54FF0A0444FF48045C4F878
:1055C0000C550020FFF7C6FFC4F8085538BD000091
:1055D0001E491F4B5B1ADB081B0410B502461D4910
:1055E00043F00300FEF728FE1020FBF779FB0620AE
:1055F000FBF776FB0520FBF773FB1220FBF770FB34
:105600001920FBF76DFB002210211348FCF784FAE8
:105610000022124840F6CD41FCF77EFA4FF0A0433D
:105620000422C3F840270924C3F81827C3F8142715
:10563000C3F84827C3F86427013CFFF7BBFF14F009
:10564000FF04F9D1064B1C6010BD00BFF85F0000DD
:105650002060000020690000B000002090000020C1
:10566000041000202DE9F74F444FDFF81491B8469D
:1056700009244FF0A0464FF4804AC6F80CA519F84B
:10568000010B404DFFF766FF0021C6F808A528462C
:105690000B464FF0010C50F804BBD6F8102522FA47
:1056A0000BF2D2070CFA01FE48BF43EA0E0301F1E8
:1056B00001014CBFDBB223EA0E030529EBD108F848
:1056C000013B013CFFF776FF14F0FF04D5D1FFF753
:1056D0005BFF17F8016B002E4BD10134092CF8D178
:1056E000294A13680133B3F5FA5F3ED94FF0A0445D
:1056F000264816604FF48047FCF736FA2448DFF856
:105700009490DFF89480FCF72FFAC4F80C75FF2012
:10571000FFF720FF40F20113C4F80875ADF804301C
:105720009DF806301D4C23F007038DF806301C4B06
:10573000E41AE408240444F0030455F8047B3846D2
:10574000FBF7F0FA4A4601A93846FBF709FA324658
:10575000034641462046FEF778FD013601213846D2
:10576000FBF77AFA052EE8D100E0136003B0BDE83C
:10577000F08F054B00221A60F8E700BF08100020E8
:10578000586900006469000004100020B000002087
:1057900090000020D1550000336900002060000017
:1057A000F85F00004FF0A043042210B54FF4004111
:1057B000C3F84027C3F81827C3F81427C3F84827AD
:1057C000C3F864270322C3F83C27C3F80C154FF431
:1057D0008041C3F83827C3F80C15C3F824274FF4C9
:1057E0000072C3F80C250924013CFFF7E3FE14F016
:1057F000FF04F9D1154B164A16481C600121FCF72D
:1058000079F908B1FCF73AF8134800221021FCF7A7
:1058100083F908B1FCF732F8104A11480121FCF76E
:1058200069F908B1FCF72AF80E48002240F6CD418C
:10583000FCF772F908B1FCF721F8FBF757F918B13A
:10584000BDE81040FCF71AB810BD00BF04100020DE
:10585000655600007C690000B0000020B1550000D2
:1058600078690000900000207FB50378012B10D0EC
:10587000022B0CD1114C124B124D134EE41AE408BA
:10588000240444F003040F48FFF768FB40B104B060
:1058900070BDFFF7B3FB04B0BDE87040FFF798BBE5
:1058A0002B790293EB78019395F9023000936B7892
:1058B0002A7831462046FEF7ECFCE4E72060000041
:1058C000F85F0000111000208069000030B5164D0F
:1058D0000FCD87B06C460FC495E80300134B0193BE
:1058E00084E803006846FFF731F908B1FBF7C6FF0B
:1058F0000F4B187CFFF7F6FB08B1FBF7BFFF0C4816
:10590000FFF796FB08B1FBF7B9FF0A48FFF7AAFBC0
:1059100008B1FBF7B3FF08480821FFF7BDFB08B14A
:10592000FBF7ACFF07B030BDB0690000695800005C
:1059300054000020580000205C00002038B5FFF71C
:10594000D3F8154B0220C3F88000BFF34F8FBFF38D
:105950006F8F4FF48061C3F88010BFF34F8FBFF398
:105960006F8F4FF48012C3F88020BFF34F8FBFF3C7
:105970006F8F0A4DC3F880010A24C3F8801145F0E7
:105980000105C3F880214FF47A40A847013CFAD1C1
:10599000BDE83840FFF79ABF00E100E0B06A0000C0
:1059A0002DE9F74F0778012F00F0BD81022F00F09D
:1059B000B38127BBC24CC34EC34D2046FCF7BAFA95
:1059C00030782278C14B00F0FF01D8B9FF2A14D1FA
:1059D00001223270BE4829704022197000F0D2FABC
:1059E000BC48BD4BBD49C01AC008000440F00300CC
:1059F00003B0BDE8F04FFEF71BBC2970197003B06F
:105A0000BDE8F08F297801F0FF00D9B9B4490A70D8
:105A10000A78082A84BF307028700A78B148825CFE
:105A20001A700A78AB48AC491B78401AC0080004C9
:105A3000AD4940F00300FEF708FC2B780133DBB2E0
:105A40002B70DCE729781B78994240F25F81FE2AAF
:105A50003AD1A14B9F4CDFF88882A44998F80020E6
:105A6000E41AE408240444F003042046FEF7E4FBAF
:105A700098F800805FFA88F8B8F1070F24D8DFE8BB
:105A800018F00800270062007900A500C800F400A3
:105A90000201FCF73FFAFF20954CFCF761FA052064
:105AA000FCF75EFA0020FCF75BFA2078FCF758FA66
:105AB0006078FCF755FAA078FCF752FAE078FCF72A
:105AC0004FFAFE20FCF74CFA002333702B70B4E73A
:105AD000DFF81CA2DFF8F8B1FCF71CFA85490022B8
